:0600000002003902023685
:01000B0032C2
:0100130032BA
:01001B0032B2
:0100230032AA
:01002B0032A2
:0300330002018E39
:0300920002003633
:0300360002009530
:100095007493C0E0742CC0E07480C0E0122258153F
:1000A50081158115817582011202ABC2910200B5DD
:1000B5007582021202AB74B3C0E0742CC0E0748088
:1000C500C0E012225815811581158174EEC0E074C7
:1000D5002CC0E07480C0E01222581581158115816D
:1000E5007407C0E0742DC0E07480C0E0122258157A
:1000F5008115811581741FC0E0742DC0E07480C026
:10010500E01222581581158115817438C0E0742DCF
:10011500C0E07480C0E012225815811581158174E4
:100125004EC0E0742DC0E07480C0E01222581581E5
:1001350015811581746FC0E0742DC0E07480C0E036
:100145001222581581158115817487C0E0742DC060
:10015500E07480C0E01222581581158115811207BF
:1001650088AE82AF83BE4806BF00030207C4BE50F7
:1001750006BF00030213D1BE4106BF0003021D984E
:10018500BE45C6BF00C3021738C020C0E0C0F0C0DE
:1001950082C083C007C006C005C004C003C002C03A
:1001A50001C000C0D075D00830D82DAEFA7F00ACA4
:1001B500EA7D00C00EC00FC00CC00D74A5C0E07470
:1001C5002DC0E07480C0E075D00012225875D008AB
:1001D500E58124F9F581C2D810D902800675F900A8
:1001E50075E90010DA02800C75F90075E90075A64D
:1001F5001E75A6E110DB02801B74CDC0E0742DC016
:10020500E07480C0E075D00012225875D0081581C1
:1002150015811581D0D0D000D001D002D003D004F3
:10022500D005D006D007D083D082D0F0D0E0D02042
:1002350032C020C0E0C0F0C082C083C007C006C085
:1002450005C004C003C002C001C000C0D075D008FD
:10025500C2A8758780C2DE7597FFE4F5DAF5DBF590
:10026500DCF5DDF5DE74DFC0E0742DC0E07480C020
:10027500E075D00012225875D008158115811581B9
:1002850075D0001200B575D008D0D0D000D001D0FF
:1002950002D003D004D005D006D007D083D082D0B9
:1002A500F0D0E0D02032E582900001F0E0908000AF
:1002B500F022438F01758E0C759842758780758D78
:1002C500FF758BFF758920D29CD28ED2AFD2AE90AE
:0302D50000002204
:102C93000A0D2048454C4C4F2120537461727465D2
:102CA3006420696E205832204D6F6465200A0D0040
:102CB3000A0A0D5E5E5E5E5E5E5E5E5E5E5E5E5E2A
:102CC3005E5E5E5E5E5E2D4D454E552D5E5E5E5EC6
:102CD3005E5E5E5E5E5E5E5E5E5E5E5E5E5E5E5E11
:102CE3005E5E5E5E5E5E200A0A0D00274827202D89
:102CF3003E20486561702044656D6F204D6F6465AB
:102D0300200A0D00275027202D3E20504341204408
:102D1300656D6F204D6F6465200A0D0027412720E4
:102D23002D3E20417373656D626C792043204D699C
:102D330078200A0D00274527202D3E204545505277
:102D43004F4D204D6F6465200A0D00274927202D24
:102D53003E20492F4F20457870616E646572204490
:102D6300656D6F204D6F6465200A0D00274C272089
:102D73002D3E204C43442044656D6F204D6F6465A8
:102D8300200A0D00506C65617365206D616B6520D1
:102D9300612076616C69642063686F696365200AEA
:102DA3000D0043617074757265642056616C7565BE
:102DB300204343504C202D3E20256420434350485C
:102DC300202D3E202564200A0D0054696D65722074
:102DD300496E746572727570740A0D00476F696E7F
:102DE3006720746F206D61696E206D656E752E2E80
:042DF300200A0D00A5
:013CA1000220
:1002D800D290D297C297221202D8E5822344A07AFC
:1002E8000912033B221202D8E5822344A17A09129B
:1002F800033B227A087400C312030EC29712033418
:10030800F58222DA0122D290309707D333C29002C5
:10031800030BC333C29002030BE5827A0912033B35
:1003280022E5827A0912033B12033422C297D29043
:10033800D29722C290DA07D297D290C29022335035
:1003480003020355C297D290C29002033BD297D2C0
:1003580090C29002033B1202D87A0974FF12033B41
:100368001202D812033422E582900004F07582024A
:10037800120402900004E0F5821202DF900002E00D
:10038800F582120321900003E0F5821203297E0012
:100398007F00C3EE945AEF64809480501D7C007DEA
:1003A80000C3EC940AED6480948050070CBC00F103
:1003B8000D80EE0EBE00DB0F80D8758201020402AC
:1003C800E582900006F0758202120402900006E0B1
:1003D800FFF582C0071202DF900005E0F5821203E4
:1003E80021D0078F821202ED1202FBAF82758201C3
:1003F800C007120402D0078F8222E582900007F01E
:10040800E0F590C2B2D2B2C2B222AF8290002BE025
:10041800FE90002CE08EF084EFA4F58290002BF083
:10042800758255121E3B90002BE0F58222AF83E5C2
:1004380082900008F0EFA3F090000AE4F0A3F09097
:100448000008E0FEA3E0FFC3E49E74808FF063F031
:100458008095F040030204FBC007C006120788AC71
:1004680082AD83D006D007C374399C74808DF06345
:10047800F08095F0405CEC9430ED648094804052BC
:10048800EC24D0FCED34FFFDEE24FFFAEF34FFFB43
:100498008A828B83C007C006C005C004120507AA5C
:1004A80082AB83D004D00590152FEAF0EBA3F08C33
:1004B800828D831221EAAC82AD83D006D0079000EA
:1004C8000AE0FAA3E0FB90000AEC2AF0ED3BA3F067
:1004D800801974F7C0E0742DC0E07480C0E0122267
:1004E8005815811581158190FFFF221EBEFF011F3F
:1004F80002044F90000AE0FEA3E08E82F58322AF4B
:1005080083E58290000CF0EFA3F090000E7401F0E8
:10051800E4A3F090000CE0FEA3E0FF7C007D00C3A4
:10052800EC9EED64808FF063F08095F0503A900077
:100538000EE0FAA3E0FB90152FEAF0EBA3F0900091
:100548000AC007C006C005C0041221EAE5828583F7
:10055800F0D004D005D006D00790000EF0E5F0A347
:10056800F00CBC00BA0D80B7EE4F70049000012269
:1005780090000EE0FEA3E08E82F58322AF83E58231
:10058800900010F0EFA3F0900014E4F0A3F09000B6
:1005980010E0FEA3E0FFC3E49E74808FF063F08058
:1005A80095F040030206F7C007C006120788AC8220
:1005B800AD83D006D007900012ECF0EDA3F0C37421
:1005C800669C74808DF063F08095F0401AEC94611D
:1005D800ED648094804010EC24E0FCED34FFFD9045
:1005E8000012ECF0EDA3F0900012E0FCA3E0FDC3D4
:1005F80074399C74808DF063F08095F0405DEC94C4
:1006080030ED648094804053EC24D0FCED34FFFD41
:10061800EE24FFFAEF34FFFB8A828B83C007C00603
:10062800C005C004120703AA82AB83D004D005908A
:10063800152FEAF0EBA3F08C828D831221EAAC82AD
:10064800AD83D006D007900014E0FAA3E0FB900039
:1006580014EC2AF0ED3BA3F00206EF900012E0FC48
:10066800A3E0FDC374469C74808DF063F08095F020
:10067800405CEC9441ED648094804052EC24C9FCC9
:10068800ED34FFFDEE24FFFAEF34FFFB8A828B8303
:10069800C007C006C005C004120703AA82AB83D0F6
:1006A80004D00590152FEAF0EBA3F08C828D83120D
:1006B80021EAAC82AD83D006D007900014E0FAA3FB
:1006C800E0FB900014EC2AF0ED3BA3F08019740BCA
:1006D800C0E0742EC0E07480C0E012225815811565
:1006E80081158190FFFF221EBEFF011F02059E900B
:1006F8000014E0FEA3E08E82F58322AF83E58290AA
:100708000016F0EFA3F09000187401F0E4A3F09045
:100718000016E0FEA3E0FF7C007D00C3EC9EED64C4
:10072800808FF063F08095F05023900018E0FAA3D2
:10073800E0C454F0CAC4CA6ACA54F0CA6AFB90003A
:1007480018EAF0EBA3F00CBC00D10D80CEEE4F7090
:100758000490000122900018E0FEA3E08E82F58349
:1007680022AF83E58290001AF0EFA3F0E59830E11C
:10077800FBC29990001AE0FEA3E08E999000002237
:1007880010980280FB743FB599028027743DB59993
:100798000280207440B599028019742BB5990280A3
:1007A80012742DB59902800BAE997F008E828F83CB
:0C07B800120769AE997F008E828F8322A9
:102DF7004552522C4E756D62657273204F4E4C5979
:102E0700210A0D004552522C20486578204E756DD9
:0D2E170062657273204F4E4C59210A0D0068
:1007C400120C54121267020E2B7E007F009000243C
:1007D400E0FCA3E0FDC3EE9CEF64808DF063F08049
:1007E40095F0506190152FEEF0EFA3F090000CC03F
:1007F40007C0061221EAAC82AD83EC2426FCED345A
:1008040000FD8C828D83A3A3E0FBA3E0FCA3E0FDA9
:100814008B828C838DF0121E5FD006D007C007C078
:1008240006C006C0077424C0E0742EC0E07480C003
:10083400E0122258E58124FBF581D006D0070EBED4
:10084400008B0F8088743BC0E0742EC0E07480C0BD
:10085400E01222581581158115810207C4900024E5
:10086400E0FEA3E0FF1EBEFF011FC006C0077451D7
:10087400C0E0742EC0E07480C0E0122258E58124E8
:10088400FBF581900003120435AE82AF83C3E49E6E
:1008940074808FF063F08095F050C2900024E0FCE7
:1008A400A3E0FDC3EE9CEF64808DF063F08095F0CF
:1008B40050AB90152FEEF0EFA3F090000CC007C0E2
:1008C400061221EAAC82AD83D006D007EC2426FCC4
:1008D400ED3400FD8C828D83A3A3E0F514A3E0F531
:1008E40015A3E0F51674082CF582E43DF583E0FCCD
:1008F400A3E0FDE4F510F511C004C005900024E068
:10090400F512A3E0F513E51224FFF8E51334FFFD17
:10091400C3E51098E51164808DF063F08095F0D004
:1009240005D00440030209DAC3E5109EE511648092
:100934008FF063F08095F050030209CFC004C00526
:1009440090152F74012510F0E43511A3F090000CDC
:10095400C007C006C0041221EAA882AD83D004E80F
:100964002426F582ED3400F583E510F0E511A3F0BB
:1009740090152FE510F0E511A3F090000CC005C010
:10098400001221EAAB82AC83D000D005EB2426FB15
:10099400EC3400FC7A00E82426F8ED3400FD9015D0
:1009A4001EE8F0EDA3F0E4A3F0901521740CF0E43C
:1009B400A3F08B828C838AF0C005C004121FB6D0CA
:1009C40004D005D006D007D005D0040510E4B51036
:1009D4000205110208FCE51224FFFAE51334FFFBBB
:1009E400900024EAF0EBA3F090001EE0FAA3E0FBF1
:1009F400EAC39CFCEB9DFD90001EECF0EDA3F0AB74
:100A040014AC15AD168B828C838DF0C007C0061212
:100A14001E5FD006D007C006C007748AC0E0742EDB
:100A2400C0E07480C0E0122258E58124FBF5819077
:100A340000002274AEC0E0742EC0E07480C0E012E6
:100A4400225815811581158174EEC0E0742EC0E022
:100A54007480C0E01222581581158115817425C057
:100A6400E0742FC0E07480C0E01222581581158113
:100A740015817457C0E0742FC0E07480C0E0122266
:100A8400581581158115817471C0E0742FC0E0740C
:100A940080C0E01222581581158115817491C0E03F
:100AA400742FC0E07480C0E012225815811581159E
:100AB4008174AFC0E0742FC0E07480C0E01222588B
:100AC40015811581158174D5C0E0742FC0E0748040
:100AD400C0E01222581581158115812290001EE074
:100AE400FEA3E0FF90001CE0FCA3E0FDEEB50407CC
:100AF400EFB50503020C3B74F0C0E0742FC0E07442
:100B040080C0E012225815811581158190000312CE
:100B14000435AE82AF83C3EE941EEF6480948040AC
:100B2400D6742C9E74818FF063F08095F040C88E4B
:100B3400828F83C007C006122081AC82AD83D006A9
:100B4400D0077B00900154ECF0EDA3F0EBA3F0ECA4
:100B54004D70187413C0E07430C0E07480C0E012AB
:100B64002258158115811581020C37C007C00674FF
:100B740031C0E07430C0E07480C0E01222581581A6
:100B840015811581D006D00790001EE0FCA3E0FD7E
:100B9400EE2CFCEF3DFD90001EECF0EDA3F0900177
:100BA4005AEEF0EFA3F0900024E0FCA3E0FD9001E6
:100BB40052ECF0EDA3F0900154E0FBA3E0FCA3E0C1
:100BC400FDEE2BFEEF3CFF8D02900157EEF0EFA3FC
:100BD400F0EAA3F090015CE4F0A3F0900024E0FEBE
:100BE400A3E0FF90152FEEF0EFA3F090000C12217C
:100BF400EAAE82AF83EE2426FEEF3400FF7D009040
:100C0400151E7452F07401A3F0E4A3F0901521743E
:100C14000CF0E4A3F08E828F838DF0121FB6900047
:100C240024E0FEA3E0FF0EBE00010F900024EEF0CE
:100C3400EFA3F0900000227457C0E07430C0E07459
:100C440080C0E01222581581158115819000002280
:100C54007485C0E07430C0E07480C0E0122258157E
:100C64008115811581900004120435AE82AF83C3CF
:100C7400EE9430EF6480948040D674C09E74928F5A
:100C8400F063F08095F040C88E828F83C007C00661
:100C9400122081AC82AD83D006D0077B0090016026
:100CA400ECF0EDA3F0EBA3F08E828F83C007C006B7
:100CB400122081AC82AD83D006D0077B0090016CFA
:100CC400ECF0EDA3F0EBA3F0900160E0FBA3E0FCFB
:100CD400A3E0EB4C600F90016CE0FBA3E0FCA3E00D
:100CE400FDEB4C706074B2C0E07430C0E07480C03E
:100CF400E0122258158115811581900160E0FBA353
:100D0400E0FCA3E0EB4C6014900160E0FBA3E0FC8A
:100D1400A3E0FD8B828C838DF0121E5F90016CE04A
:100D2400FBA3E0FCA3E0FDEB4C7003020C54900128
:100D34006CE0FBA3E0FCA3E0FD8B828C838DF012BE
:100D44001E5F020C54C007C00674E7C0E07430C0D4
:100D5400E07480C0E0122258158115811581D006F7
:100D6400D007EE2EFCEF33FD90001EECF0EDA3F067
:100D740090001C7484F07413A3F09000247402F0A7
:100D8400E4A3F0900166EEF0EFA3F0900172EEF0B0
:100D9400EFA3F090015EE4F0A3F090016A04F0E4A4
:100DA400A3F090016CE0FBA3E0FCA3E0FDEE2BFBC1
:100DB400EF3CFC90016FEBF0ECA3F0EDA3F090019D
:100DC40060E0FBA3E0FCA3E0FDEE2BFEEF3CFF8D17
:100DD40002900163EEF0EFA3F0EAA3F0900168E45F
:100DE400F0A3F0900174F0A3F090151E745EF074FB
:100DF40001A3F0E4A3F0901521740CF0E4A3F090A7
:100E0400002675F000121FB690151E746AF0740166
:100E1400A3F0E4A3F0901521740CF0E4A3F0900087
:100E24003275F000021FB6120A37120788AE82AF7D
:100E340083C374609E74808FF063F08095F04003E8
:100E4400020ED3C3EE947BEF648094804003020EC1
:100E5400D3900030E0FCA3E0FD90002EE0FAA3E084
:100E6400FBC3EC9AED64808BF063F08095F0503214
:100E7400900028E0F9A3E0FAA3E0FBEC29F9ED3AAD
:100E8400FA8E0589828A838BF0ED12202A90003035
:100E9400E0FCA3E0FD0CBC00010D900030ECF0ED93
:100EA400A3F0900020E0FCA3E0FD0CBC00010D9039
:100EB4000020ECF0EDA3F0900022E0FCA3E0FD0C98
:100EC400BC00010D900022ECF0EDA3F0020E2EBE4A
:100ED4003F1FBF001C1211AC121267120F55900075
:100EE40020E4F0A3F0900022F0A3F0120A37020EDF
:100EF4002EBE3D0CBF0009121065120A37020E2ED9
:100F0400BE400CBF00091207CD120A37020E2EBED6
:100F14002B0CBF0009120AE0120A37020E2EBE2D56
:100F24000CBF0009120861120A37020E2EBE4D09C9
:100F3400BF00061200B5020E2E900020E0FEA3E0D2
:100F4400FF0EBE00010F900020EEF0EFA3F0020EA2
:100F54002E9001767440F0E4A3F0900030E0FEA3FC
:100F6400E0FFC3E49E74808FF063F08095F040034B
:100F740002104F7416C0E07431C0E07480C0E012F7
:100F840022581581158115817E007F00900030E084
:100F9400FCA3E0FDC3EE9CEF64808DF063F08095CC
:100FA400F04003021032900176E0FCA3E0FDBC4067
:100FB40020BD001DC007C0067444C0E07431C0E009
:100FC4007480C0E0122258158115811581D006D095
:100FD40007900028E0FBA3E0FCA3E0FDEE2BFBEF71
:100FE4003CFC8B828C838DF0122C77FB7D008B82F2
:100FF4008D83C007C006120769D006D0079001761A
:10100400E024FFFCA3E034FFFD900176ECF0EDA3B7
:10101400F0900176E0F5F0A3E045F07009900176D8
:101024007440F0E4A3F00EBE00010F020F90900094
:1010340030E4F0A3F07447C0E07431C0E07480C0C1
:10104400E012225815811581158122744BC0E07479
:1010540031C0E07480C0E0122258158115811581D9
:1010640022900030E0FEA3E0FFC3E49E74808FF082
:1010740063F08095F040030211967462C0E074310D
:10108400C0E07480C0E01222581581158115817466
:10109400A5C0E07431C0E07480C0E012225815810C
:1010A400158115819001787410F0E4A3F07E007F1F
:1010B40000900030E0FCA3E0FDC3EE9CEF64808D63
:1010C400F063F08095F04003021180900178E0FC19
:1010D400A3E0FDBC1037BD0034900028E0FBA3E082
:1010E400FCA3E0FDEE2BFBEF3CFCC007C006C003F5
:1010F400C004C00574E4C0E07431C0E07480C0E092
:10110400122258E58124FAF581D006D007900028F0
:10111400E0FBA3E0FCA3E0FDEE2BFBEF3CFC8B82A9
:101124008C838DF0122C77FB7D00C007C006C003B2
:10113400C00574EBC0E07431C0E07480C0E01222DA
:1011440058E58124FBF581D006D007900178E0248E
:10115400FFFCA3E034FFFD900178ECF0EDA3F090E8
:101164000178E0F5F0A3E045F0700990017874107F
:10117400F0E4A3F00EBE00010F0210B57447C0E006
:101184007431C0E07480C0E01222581581158115B5
:10119400812274EFC0E07431C0E07480C0E0122298
:1011A40058158115811581227404C0E07432C0E0A1
:1011B4007480C0E012225815811581158190001C9D
:1011C400E0FEA3E0FFC006C0077430C0E07432C084
:1011D400E07480C0E0122258E58124FBF581900080
:1011E4001EE0FEA3E0FFC006C0077447C0E07432EF
:1011F400C0E07480C0E0122258E58124FBF58190A0
:101204000020E0FEA3E0FFC006C0077462C0E074E3
:1012140032C0E07480C0E0122258E58124FBF581DD
:10122400900022E0FEA3E0FFC006C0077473C0E094
:101234007432C0E07480C0E0122258E58124FBF5CA
:1012440081900024E0FEA3E0FFC006C0077488C0BC
:10125400E07432C0E07480C0E0122258E58124FBBF
:10126400F581227E007F00900024E0FCA3E0FDC312
:10127400EE9CEF64808DF063F08095F040030213E0
:10128400BBC007C006C006C007749DC0E07432C06E
:10129400E07480C0E0122258E58124FBF581D00679
:1012A400D00790152FEEF0EFA3F090000CC007C00C
:1012B400061221EAAC82AD83EC2426F582ED3400DB
:1012C400F583E0FAA3E0FBC005C004C002C00374C8
:1012D400C8C0E07432C0E07480C0E0122258E581D6
:1012E40024FBF581D004D005EC2426FCED3400FD6C
:1012F4008C828D83A3A3E0F9A3E0FAA3E0FBC005ED
:10130400C004C001C002C00374D7C0E07432C0E09E
:101314007480C0E0122258E58124FAF581D004D00B
:10132400058C828D83A3A3A3A3A3E0F9A3E0FAA36E
:10133400E0FBC005C004C001C002C00374EAC0E001
:101344007432C0E07480C0E0122258E58124FAF5BA
:1013540081D004D00574082CF582E43DF583E0FACD
:10136400A3E0FBC005C004C002C00374FBC0E0746A
:1013740032C0E07480C0E0122258E58124FBF5817C
:10138400D004D005740A2CF582E43DF583E0FCA377
:10139400E0FDC004C005740DC0E07433C0E0748087
:1013A400C0E0122258E58124FBF581D006D0070E57
:1013B400BE00010F02126B741EC0E07433C0E074EF
:0D13C40080C0E0122258158115811581228C
:102E24004275666665722025642046726565642075
:102E34002E2E2E2E0A0D004C6574277320626567B2
:102E4400696E20616761696E2E2E0A0D000A0D47B6
:102E54006976652056616C696420427566666572A0
:102E6400204E756D62657220746F2064656C6574A4
:102E74006528312D25642920696E20332064696713
:102E84006974730A0D0042756666657220256420B4
:102E94005375636365737366756C6C792044656CF4
:102EA400657465642E2E200A0D000A0A0D5E5E5EAE
:102EB4005E5E5E5E5E5E5E5E5E5E5E5E5E5E5E5E2E
:102EC4002D484541502D4D454E552D5E5E5E5E5E4E
:102ED4005E5E5E5E5E5E5E5E5E5E5E5E5E5E5E5E0E
:102EE4005E5E5E5E5E200A0A0D00596F75206361A6
:102EF4006E20656E746572206368617261637465C7
:102F04007273206F722075736520636F6D6D616ECF
:102F140064732066726F6D2062656C6F77200A0D92
:102F240000273F27202D3E2053686F772068656176
:102F340070207374617475732C2064756D70202611
:102F440020636C656172204275666665722030206C
:102F54000A0D00272B27202D3E2041646420612088
:102F64006E6577204275666665720A0D00272D2707
:102F7400202D3E2044656C65746520657869737402
:102F8400696E67204275666665720A0D00273D27E3
:102F9400202D3E2044756D70204275666665722052
:102FA4003020696E206865780A0D00274027202D9F
:102FB4003E204672656520616C6C20486561702016
:102FC4002620626567696E20616761696E0A0A0D71
:102FD40000274D27202D3E20476F20746F204D6120
:102FE400696E204D656E75200A0A0D000A0D476949
:102FF40076652056616C6964204275666665722048
:1030040053697A65283033302D333030293A0046FD
:1030140061696C65642C206769766520736D616CE9
:103024006C6572206275666665720A0D000A0A0D87
:1030340023232323535543434553532C20425546BE
:103044004645522043726561746564232323230A31
:103054000A0D004E6F2048656170204D656D6F72DA
:1030640079204C6566742C2044656C657465207306
:103074006F6D6520627566666572732E2E2E0A0D5D
:10308400000A0D476976652056616C696420496EB3
:10309400697469616C204275666665722053697A49
:1030A4006528303034382D34383030293A000A0D50
:1030B400232323234641494C2C20506C65617365BE
:1030C4002067697665206120736D616C6C65722080
:1030D4006275666665722073697A65232323230A01
:1030E4000A0D000A0A0D2323232353554343455352
:1030F400532C20494E495449414C2042554646459B
:1031040052532043726561746564232323230A0A9E
:103114000D000A0A0D2A2A2A2A2A2A2A2A2A2A2AAF
:103124004275666665722D302D436F6E74656E74DC
:10313400732A2A2A2A2A2A2A2A2A2A2A200A0D0013
:103144000A0D000A0A0D0042756666657230206930
:103154007320456D7074792E2E2E2E0A0D000A0DE3
:103164002D2D2D2D2D2D2D2D2D2D2D2D2D2D2D2D8B
:103174002D2D2D2D2D2D2D2D2D48455844554D509B
:103184002D2D2D2D2D2D2D2D2D2D2D2D2D2D2D2D6B
:103194002D2D2D2D2D2D2D2D2D2D2D2D2D2D2D2D5B
:1031A400000A0D20202020414444523A202B302094
:1031B4002B31202B32202B33202B34202B35202B6A
:1031C40036202B37202B38202B39202B41202B4223
:1031D400202B43202B44202B45202B46200A0D0076
:1031E4000A0D25703A200025782000427566666530
:1031F4007220697320656D7074792E2E2E0A0D006D
:103204000A0D2A2A2A2A2A2A2A2A2A2A2A2A2A2A57
:103214002A2A484541502A53544154532A2A2A2AD7
:103224002A2A2A2A2A2A2A2A2A0A0D00546F746171
:103234006C20486561702053697A653A20256420C2
:103244000A0D00416C6C6F636174656420486561AC
:10325400702053697A653A202564200A0D00416C78
:103264006C2043686172733A202564200A0D005370
:10327400746F726167652043686172733A202564D4
:10328400200A0D00546F74616C2042756666657285
:10329400733A202564200A0D002A2A2A2A2A2A2A77
:1032A4002A2A2A2A2A2A2A2A2A4255464645522ABC
:1032B40025642A2A2A2A2A2A2A2A2A2A2A2A2A2A35
:1032C4002A0A0D00427566666572233A2025642039
:1032D4000A0D0042756666657253746172743A2011
:1032E4002570200A0D00427566666572456E643A63
:1032F400202570200A0D0042756666657253697A4E
:10330400653A202564200A0D00546F74616C55736E
:1033140065643A202564200A0D002A2A2A2A2A2ACA
:103324002A2A2A2A2A2A2A2A2A2A2A2A2A2A2A2AF9
:103334002A2A2A2A2A2A2A2A2A2A2A2A2A2A2A2AE9
:043344002A0A0D0044
:1013D1007448C0E07433C0E07480C0E01222581534
:1013E10081158115811216657463C0E07433C0E004
:1013F1007480C0E012225815811581158112078869
:10140100AE82AF83BE4609BF000612149102146C6E
:10141100BE5308BF00051214AC8050BE4808BF007F
:10142100051214DD8045BE5008BF0005121501806C
:101431003ABE5708BF0005121525802FBE4908BFC7
:1014410000051215C98024BE4408BF00051215FE0F
:101451008019BE4C08BF0005121633800EBE55051B
:10146100BF000280030213E91215807481C0E07489
:1014710033C0E07480C0E0122258158115811581B6
:10148100120788AE82AF83BE45E1BF00DE0213D1F1
:1014910074A0C0E07433C0E07480C0E0122258151B
:1014A100811581158175DA21D2DE2274E1C0E074E3
:1014B10033C0E07480C0E012225815811581158176
:1014C10075EDFF75FDFF75DD49D2DE120788AE822D
:1014D100AF83BE53F6BF00F375DD00227401C0E097
:1014E1007434C0E07480C0E0122258158115811552
:1014F1008175ECFF75FC0275DC4D75D902D2DE22D7
:10150100742AC0E07434C0E07480C0E0122258151F
:10151100811581158175EDC075FDC075DD4275D9E7
:1015210002D2DE2275EBFF75FB8075DB49901569F0
:101531007401F0E4A3F0745AC0E07434C0E0748024
:10154100C0E012225815811581158175EEFF75FED7
:10155100FF75D94075DE48D2DE7476C0E07434C0C0
:10156100E07480C0E012225815811581158112079F
:1015710088AE82AF83BE53F6BF00F375DB002275E0
:10158100ECFF75FCFF75DC4974C6C0E07434C0E043
:101591007480C0E012225815811581158175A70745
:1015A100D2DE74EBC0E07434C0E07480C0E012227B
:1015B10058158115811581120788AE82AF83BE53FC
:1015C100F6BF00F375DC0022121501745CC0E074F3
:1015D10035C0E07480C0E012225815811581158153
:1015E100D2A8758701748FC0E07435C0E07480C0E3
:1015F100E01222581581158115810200B5121501DD
:1016010074C3C0E07435C0E07480C0E01222581584
:101611008115811581D2A8758702748FC0E0743558
:10162100C0E07480C0E01222581581158115810235
:1016310000B574FCC0E07435C0E07480C0E01222D3
:1016410058158115811581743EC0E07436C0E0746F
:1016510080C0E0122258158115811581D2A8759795
:10166100000200B57467C0E07436C0E07480C0E069
:1016710012225815811581158174A6C0E07436C0F7
:10168100E07480C0E012225815811581158174C95A
:10169100C0E07436C0E07480C0E012225815811594
:1016A10081158174E6C0E07436C0E07480C0E01238
:1016B10022581581158115817406C0E07437C0E088
:1016C1007480C0E01222581581158115817419C0EA
:1016D100E07437C0E07480C0E01222581581158192
:1016E10015817436C0E07437C0E07480C0E0122206
:1016F100581581158115817452C0E07437C0E074AA
:1017010080C0E01222581581158115817480C0E0D6
:101711007437C0E07480C0E012225815811581151C
:101721008174A1C0E07437C0E07480C0E012225817
:0717310015811581158122CD
:1033480048656C6C6F2C20496E20504341204465C1
:103358006D6F206D6F6465200A0D00506C65617398
:1033680065206D616B6520612076616C69642063FE
:10337800686F696365200A0D00506C65617365208C
:1033880027452720746F2065786974206F72205252
:1033980065736574200A0D0053657474696E67203F
:1033A80050312E332061732066616C6C696E672022
:1033B80065646765206465746563746F722C206545
:1033C8006E61626C696E672050434120696E746556
:1033D8007272757074200A0D00456E746572696E9C
:1033E8006720536F6674776172652054696D6572E2
:1033F800204D6F6465200A0D00456E746572696E14
:1034080067204869676820537065656420546F6752
:10341800676C65204D6F64652C2050312E35200A6D
:103428000D00456E746572696E672050574D204DCA
:103438006F64652C2032352070657263656E742068
:1034480044757479204379636C652050312E360AAF
:103458000D00456E61626C696E6720576174636820
:10346800646F672054696D65722E2E0A0D004375CE
:103478007272656E746C79205761746368646F67E3
:10348800206973206265696E672073657276696367
:1034980065640A0D50726573732027532720746F73
:1034A8002073746F7020616E642067656E65726149
:1034B80074652061207265736574200A0D00456E7D
:1034C80061626C696E672048617264776172652019
:1034D8005761746368646F672054696D65722E2E36
:1034E8000A0D0043757272656E746C7920486172BA
:1034F8006477617265205761746368646F672069D7
:1035080073206265696E67207365727669636564A6
:103518000A0D50726573732027532720746F207328
:10352800746F70207761746368646F672073657265
:103538007669636520616E642067656E6572617483
:1035480065206120726573657420696E207E317311
:10355800200A0D00456E746572696E672049646CB7
:10356800652C2057696C6C2045786974206F6E2033
:1035780065787465726E616C20696E7465727275B7
:10358800707420300A0D00576F6B652075702066C7
:10359800726F6D2049646C652F506F776572206477
:1035A8006F776E2C20676F696E6720746F206D616E
:1035B800696E206D656E75200A0D00456E74657222
:1035C800696E6720706F77657220646F776E2C2044
:1035D80057696C6C2045786974206F6E2065787423
:1035E80065726E616C20696E746572727570742094
:1035F800300A0D004368616E67696E6720436C6F1F
:10360800636B207072657363616C617220746F20E4
:10361800676F20746F206C6F7765737420667265AE
:103628007175656E637920696E205832204D6F641C
:10363800652E2E0A0D005468697320554152542096
:1036480053657373696F6E2077696C6C2073746F40
:103658007020776F726B696E672E2E2E0A0D000A26
:103668000A0D5E5E5E5E5E5E5E5E5E5E5E5E5E5E17
:103678005E5E5E5E5E2D5043412D4D454E552D5E7E
:103688005E5E5E5E5E5E5E5E5E5E5E5E5E5E5E5E52
:103698005E5E5E5E5E5E5E5E5E200A0A0D00274626
:1036A80027202D3E2046616C6C696E672045646753
:1036B800652043617074757265204D6F64650A0DED
:1036C80000275327202D3E20536F6674776172655B
:1036D8002054696D6572204D6F64650A0D00274896
:1036E80027202D3E2048696768205370656564204F
:1036F8004F7574707574204D6F64650A0D002750FE
:1037080027202D3E2050574D204D6F6465200A0D0F
:1037180000275727202D3E205761746368646F6720
:103728002054696D6572204D6F64650A0D00274944
:1037380027202D3E2049646C65204D6F64652077F5
:103748006974682050574D0A0D00274C27202D3EDC
:10375800204368616E6765205072657363616C61B0
:103768007220746F206C6F77657374206672657150
:1037780075656E63790A0D00275527202D3E204870
:1037880061726477617265205761746368646F67FA
:103798002054696D65720A0D00274427202D3E20AC
:1037A800506F77657220446F776E204D6F64650A9D
:0337B8000A0D00F7
:023CA200000020
:1017380074BBC0E07437C0E07480C0E01222581552
:101748008115811581121BEB74DAC0E07437C0E093
:101758007480C0E0122258158115811581120788FE
:10176800AE82AF83BE5208BF00051217DB803FBEB2
:101778005708BF00051218828034BE4408BF000510
:101788001219188029BE4208BF0005121ACE801E01
:10179800BE46B5BF00B212035E74F7C0E07437C02E
:1017A800E07480C0E01222581581158115817419E2
:1017B800C0E07438C0E07480C0E01222581581156A
:1017C800811581120788AE82AF83BE45E1BF00DE76
:1017D800021738743EC0E07438C0E07480C0E0126C
:1017E8002258158115811581900003120584AE8257
:1017F800E583FF20E7DDC374FF9E74878FF063F0F5
:101808008095F040CE740F5FFCFD7F00C006C004D9
:10181800C005C007747DC0E07438C0E07480C0E0C3
:10182800122258E58124FBF581D004D0068E057F6D
:1018380000C006C004C005C007748FC0E07438C07B
:10184800E07480C0E0122258E58124FBF581D004C1
:10185800D006900005EEF08C821203C8AF827E009D
:10186800C007C00674A2C0E07438C0E07480C0E04D
:10187800122258E58124FBF5812274CCC0E074382B
:10188800C0E07480C0E0122258158115811581903E
:101898000003120584AE82E583FF20E7DDC374FFF1
:1018A8009E74878FF063F08095F040CE7C00740FB3
:1018B8005FFDC006C0057407C0E07439C0E07480DD
:1018C800C0E0122258158115811581900002120579
:1018D80084AC82AF83D005D006EF20E7D58C039087
:1018E8000002EEF0900003EBF08D82C007C00412F6
:1018F800036FD004D007C004C007743CC0E074393B
:10190800C0E07480C0E0122258E58124FBF58122F2
:10191800747CC0E07439C0E07480C0E012225815AD
:101928008115811581900003120584AE82E583FF3D
:1019380020E7DDC374FF9E74878FF063F08095F015
:1019480040CEC007C006C006C00774B4C0E07439F2
:10195800C0E07480C0E0122258E58124FBF5819034
:101968000003120584AC82AD83D006D007C3EC9E79
:10197800ED64808FF063F08095F040C674FF9C742E
:10198800878DF063F08095F040B8ECC39EFAED9F28
:10199800FB74052AF517E43BF5188517828518832B
:1019A800C007C006C005C004C003C002122081A839
:1019B80082A983D002D003D004D005D006D007C0B6
:1019C80004C0057D0090017CE8F0E9A3F0EDA3F0E8
:1019D800900182E517F0E518A3F090017AE4F0A3EE
:1019E800F0EA28FAEB39FB8D0474052AFAE43BFB8C
:1019F80090017FEAF0EBA3F0ECA3F0900184F0A350
:101A0800F0C007C006C005C00474E9C0E07439C05E
:101A1800E07480C0E0122258158115811581D00428
:101A2800D005D006D0078E178F18D005D004C3EC88
:101A38009517ED64808518F063F08095F0406CC0D0
:101A480004C005740F5518FA900005E517F08A824E
:101A5800C007C006C005C0041203C8AB82D004D0BA
:101A680005D006D00790017CE0F8A3E0F9A3E0FADE
:101A7800900184E0FCA3E0FDEC28F8ED39F98882B8
:101A880089838AF0EB12202A900184E0FCA3E0FD10
:101A98000CBC00010D900184ECF0EDA3F00517E4F7
:101AA800B517020518D005D00480838E828F831263
:101AB8001C6A90017CE0FDA3E0FEA3E0FF8D828E0E
:101AC800838FF0021E5F747CC0E07439C0E07480BC
:101AD800C0E0122258158115811581900003120566
:101AE80084AE82E583FF20E7DDC374FF9E74878F91
:101AF800F063F08095F040CEC007C006C006C0076E
:101B080074B4C0E07439C0E07480C0E0122258E5B3
:101B18008124FBF581900003120584AC82AD83D04B
:101B280006D007C3EC9EED64808FF063F08095F0DB
:101B380040C674FF9C74878DF063F08095F040B8C0
:101B4800C007C006C005C00474FDC0E07439C0E019
:101B58007480C0E012225815811581158190000209
:101B6800120584AA82AB83C003C0027437C0E07434
:101B78003AC0E07480C0E0122258158115811581A1
:101B8800D002D003D004D005D006D007C3EC9EED18
:101B980064808FF063F08095F04032740F5FF890A6
:101BA8000002EEF0900003EAF08882C007C006C089
:101BB80005C004C003C00212036FD002D003D004D2
:101BC800D005D006D0070EBE00C20F80BF744BC030
:101BD800E0743AC0E07480C0E01222581581158183
:101BE8001581227465C0E0743AC0E07480C0E012C8
:101BF800225815811581158174A7C0E0743AC0E098
:101C08007480C0E012225815811581158174C1C0F5
:101C1800E0743AC0E07480C0E01222581581158142
:101C2800158174DCC0E0743AC0E07480C0E0122210
:101C38005815811581158174EDC0E0743AC0E074BF
:101C480080C0E01222581581158115817401C0E009
:101C5800743BC0E07480C0E01222581581158115CC
:101C68008122AF83E582900186F0EFA3F07418C05B
:101C7800E0743BC0E07480C0E012225815811581E1
:101C88001581745BC0E0743BC0E07480C0E0122230
:101C9800581581158115819001887410F0E4A3F01E
:101CA800900186E0FEA3E0FF7C007D00900184E0C7
:101CB800FAA3E0FBC3EC9AED64808BF063F08095A7
:101CC800F04003021D82900188E0FAA3E0FBBA10FD
:101CD80032BB002FEC2EFAED3FFBC007C006C00553
:101CE800C004C002C0037497C0E0743BC0E07480B5
:101CF800C0E0122258E58124FBF581D004D005D03C
:101D080006D00790017CE0F9A3E0FAA3E0FBEC29F8
:101D1800F9ED3AFA89828A838BF0122C77F97B00E5
:101D2800C007C006C005C004C001C00374A2C0E05B
:101D3800743BC0E07480C0E0122258E58124FBF5B2
:101D480081D004D005D006D007900188E024FFFA9E
:101D5800A3E034FFFB900188EAF0EBA3F090018840
:101D6800E0F5F0A3E045F070099001887410F0E404
:101D7800A3F00CBC00010D021CB474A8C0E0743BB5
:101D8800C0E07480C0E012225815811581158122A7
:1037BB00200A0D2048656C6C6F2C20496E20454506
:1037CB0050524F4D2044656D6F206D6F64650050F6
:1037DB006C65617365206D616B6520612076616C32
:1037EB0069642063686F6963650A0D000A0D4932CD
:1037FB004320526573657420686173206265656E42
:10380B0020706572666F726D6564200A0D000A0D7B
:10381B00506C656173652027452720746F20676F97
:10382B0020746F20454550524F4D204D656E7520CD
:10383B000A0D000A0D20506C65617365206769766F
:10384B006520612076616C696420616464726573C4
:10385B007320746F20726561642066726F6D20280F
:10386B003078303030202D20307837464629200AEA
:10387B000D00426C6F636B20697320697320257890
:10388B00200A0D00416464726573732069732030E4
:10389B00782558200A0D000A0D20546865207661A2
:1038AB006C75652061742074686520616464726551
:1038BB007373206973202D3E2030782558200A0D14
:1038CB0000506C65617365206769766520612076B1
:1038DB00616C6964206164647265737320746F201A
:1038EB00777269746520746F2028307830303020FF
:1038FB002D20307837464629200A0D000A0D506CD2
:10390B0065617365206769766520612076616C69F6
:10391B0064206461746120746F2077726974652010
:10392B002830783030202D203078464629200A0D5B
:10393B00000A0D546865206461746120686173200E
:10394B006265656E207375636365737366756C6C06
:10395B0079207772697474656E2061742074686560
:10396B0020616464726573732030782558200A0DCA
:10397B0000506C6561736520676976652061207600
:10398B00616C6964207374617274696E6720616421
:10399B00647265737320283078303030202D2030DE
:1039AB007837464629200A0D00506C6561736520F7
:1039BB006769766520612076616C696420656E6449
:1039CB00696E672061646472657373202830782593
:1039DB0058202D20307837464629200A0D00526595
:1039EB006164696E6720454550524F4D2E2E2E0A4D
:1039FB000D000A0D506C6561736520676976652053
:103A0B00612076616C6964206461746120666F72F9
:103A1B0020626C6F636B66696C6C20283078303079
:103A2B00202D203078464629200A0D0057726974E4
:103A3B00696E6720454550524F4D2E2E2E0A0D00B4
:103A4B000A0D426C6F636B66696C6C2066696E69FC
:103A5B00736865642E2E2E0A0D000A0A0D5E5E5EDB
:103A6B005E5E5E5E5E5E5E5E5E5E5E5E5E5E5E5E6B
:103A7B002D454550524F4D2D4D454E552D5E5E5E9D
:103A8B005E5E5E5E5E5E5E5E5E5E5E5E5E5E5E5E4B
:103A9B005E5E5E5E5E5E5E200A0A0D002752272088
:103AAB002D3E20526561642052616E646F6D204221
:103ABB007974650A0D00275727202D3E2057726910
:103ACB0074652052616E646F6D20427974650A0DC6
:103ADB0000274427202D3E2048657864756D700AB9
:103AEB000D00274227202D3E20426C6F636B204632
:103AFB00696C6C0A0D00274627202D3E20526573FA
:103B0B00657420454550524F4D200A0D000A0D2D6E
:103B1B002D2D2D2D2D2D2D2D2D2D2D2D2D2D2D2DCA
:103B2B002D2D2D2D2D2D2D2D48455844554D502DDA
:103B3B002D2D2D2D2D2D2D2D2D2D2D2D2D2D2D2DAA
:103B4B002D2D2D2D2D2D2D2D2D2D2D2D2D2D2D00C7
:103B5B000A0D20414444523A202B30202B31202B8C
:103B6B0032202B33202B34202B35202B36202B3798
:103B7B00202B38202B39202B41202B42202B43206C
:103B8B002B44202B45202B46200A0D000A0D3078A4
:103B9B00253033583A20002530325820000A0A0DC0
:013BAB000019
:101D980074ACC0E0743BC0E07480C0E012225815F7
:101DA8008115811581900003120435AE82C0067436
:101DB800C5C0E0743BC0E07480C0E01222581581B1
:101DC80015811581900003120435AD82C00574DEBB
:101DD800C0E0743BC0E07480C0E012225815811541
:101DE800811581900003120435AC82D005D006908D
:101DF800002BEDF090002CECF08E82120412AF82D2
:101E08007E00C007C00674F7C0E0743BC0E0748071
:101E1800C0E0122258E58124FBF5817426C0E074E5
:101E28003CC0E07480C0E0122258158115811581EC
:101E38000200B5E58290018AF0E0FF7E00C007C08D
:101E4800067446C0E0743CC0E07480C0E0122258BA
:071E5800E58124FBF5812266
:103BAC000A0D204769766520706172616D20312C99
:103BBC002038626974200A0D000A0D204769766569
:103BCC0020706172616D20322C2038626974200A79
:103BDC000D000A0D204769766520706172616D20B9
:103BEC00332C2038626974200A0D000A0D205245CE
:103BFC0053554C542D3E20706172616D333C4D6FAA
:103C0C00643E706172616D32202A20706172616D48
:103C1C0031203D202564200A0D000A0D20476F69D4
:103C2C006E67206261636B20746F206D61696E201A
:103C3C006D656E752E2E200A0D000A0A0D20546833
:103C4C0069732066756E6374696F6E20776173207B
:103C5C0063616C6C65642066726F6D206173736553
:103C6C006D626C792C20636861726163746572207B
:103C7C0073656E742066726F6D2074686572652052
:0A3C8C002D3E2025630A0D008A1367
:101E5F00AFF0AE83E582901515F0EEA3F0EFA3F08F
:101E6F00901515E0FDA3E0FEA3E0901515E0F5F049
:101E7F00A3E045F070012290151AE4F0A3F090153D
:101E8F0027E0FBA3E0FC901518EBF0ECA3F0901506
:101E9F001C7427F07415A3F0901518E0FBA3E0FC59
:101EAF004B60418B018C02C003C0048D008E04C3B4
:101EBF00E998EA9CD004D003502A90151AEBF0EC65
:101ECF00A3F074022BFBE43CFC90151CEBF0ECA38D
:101EDF00F08B828C83E0FBA3E0FC901518EBF0EC09
:101EEF00A3F080B4901518E0FEA3E0FF901515E065
:101EFF00FBA3E0FCA3E0EB24FEFBEC34FFFC74023D
:101F0F002BFAE43CFD8A828D83EEF0EFA3F090155F
:101F1F001CE0F8A3E0F988828983EBF0ECA3F08B47
:101F2F00828C83E0F8A3E0F9EEB50033EFB5012F13
:101F3F0088828983A3A3E0FEA3E0FF8A828D83EECC
:101F4F00F0EFA3F08B828C83E0FEA3E0FF8E828FF5
:101F5F0083E0FEA3E0FF8B828C83EEF0EFA3F09083
:101F6F00151AE0FEA3E0FF4E603C8E828F83E0F8EF
:101F7F00A3E0F9E8B5032FE9B5042B8B828C83E03E
:101F8F00FBA3E0FC8E828F83EBF0ECA3F074022EA8
:101F9F00FEE43FFF8A828D83E0FAA3E0FD8E828FFD
:071FAF0083EAF0EDA3F0222C
:06006800E478FFF6D8FD6C
:101FB600AFF0AE83E582901523F0EEA3F0EFA3F029
:101FC600901523E0F52BA3E0F52CA3E0F52DAA2B25
:101FD600AB2CAC2D90151EE0F8A3E0F9A3E0FF9022
:101FE6001521E0F52EA3E0F52FAD2EAE2F152E749C
:101FF600FFB52E02152FED4E6020888289838FF063
:10200600122C77FEA3A882A9838A828B838CF0EE9A
:1020160012202AA3AA82AB8380CF852B82852C83AC
:04202600852DF022F2
:100046007903E94400601B7A01903CA1786875A0A9
:1000560015E493F2A308B8000205A0D9F4DAF27504
:02006600A0FFF9
:10202A0020F71130F6138883A88220F509F6A883D1
:10203A007583002280FEF280F5F022901527748BBA
:10204A00F07401A3F0903C94E493FE740193FF1E94
:10205A00BEFF011FEE248BFEEF3401FF90018BEED1
:10206A00F0EFA3F0901527E0FEA3E0FF8E828F83A6
:10207A00A3A3E4F0A3F022AF83E582901529F0EF41
:10208A00A3F0901527E0F5F0A3E045F070031220C5
:10209A0045901529E0FEA3E0FF4E600E74022EFC67
:1020AA00E43FFDC3EC9EED9F500490000022901582
:1020BA002974022EF0E43FA3F0901529E0FEA3E074
:1020CA00FFC3EE9404EF940050099015297404F0AC
:1020DA00E4A3F0901527E0FEA3E0FF90152BEEF0A5
:1020EA00EFA3F090152D7427F07415A3F090152B1B
:1020FA00E0FEA3E0FF4E70030221E68E828F83E0AA
:10210A00FCA3E0FD8C028D038E008F01EAC398FACE
:10211A00EB99FB8A008B01901529E0F519A3E0F5EC
:10212A001AC3E89519E9951A50030221C3740425C4
:10213A0019F8E4351AF9C3EA98EB99404C8E028FE4
:10214A0003E5192AFAE51A3BFB8A828B83ECF0ED48
:10215A00A3F074022AFCE43BFD8E828F83A3A3E0E2
:10216A00F8A3E0F98C828D83E8F0E9A3F090152DAD
:10217A00E0FCA3E0FD8C828D83EAF0EBA3F08E8273
:10218A008F83EAF0EBA3F0801C90152DE0FCA3E00E
:10219A00FD8E828F83A3A3E0FAA3E0FB8C828D835A
:1021AA00EAF0EBA3F090152BE0FCA3E0FD74022CFF
:1021BA00FCE43DFD8C828D832274022EFEE43FFFF7
:1021CA0090152DEEF0EFA3F08E828F83E0FEA3E050
:1021DA00FF90152BEEF0EFA3F00220F790000022FB
:1021EA00AA83AB828BF090152FE0A4F8A9F08AF0AD
:1021FA00E0A429F98BF0A3E0A429F583888222229E
:10006E007800E84400600A790175A000E4F309D82D
:10007E00FC7867E84415600C7916900001E4F0A353
:04008E00D8FCD9FAC7
:10220A00C01B85811B7E008E83120769D01B22AFFB
:10221A00F0AE83E582901532F0EEA3F0EFA3F090D2
:10222A001532E0FDA3E0FEA3E0FF901531E0FC903B
:10223A001546E4F0A3F0A3F0901549EDF0EEA3F0F3
:10224A00EFA3F090154CECF090220A02235EC01B1B
:10225A00E581F51B24FBFF901546E4F0A3F0A3F0FB
:10226A00E51B24FBF8901549E6F008E6A3F008E61A
:10227A00A3F090154CEFF090220A12235ED01B2295
:10228A00E582901542F0E0FF901538E0C0E0A3E047
:10229A00C0E0A3E0C0E01222A5800D901536E0C090
:1022AA00E0A3E0C0E08F8222158115811581901587
:1022BA0040E02401F0A3E03400F022E582901543C7
:1022CA00F0E02430FF24C6500D74072FFF90153517
:1022DA00E060034307208F8202228AE58290154438
:1022EA00F0E0FFC4540FF582C0071222C5D007538D
:1022FA00070F8F820222C5E582901545F090153BA3
:10230A00E0FCA3E0FDA3E0FEA3E0FF90153FE0FBA5
:10231A00901545E0FA79208B00E828F52BEF235435
:10232A0001452BFBEC2CFCED33FDEE33FEEF33FFC6
:10233A00C3EB9A4007EBC39AFB43040119E970D730
:10234A0090153BECF0EDA3F0EEA3F0EFA3F090159F
:10235A003FEBF022AF83E58290154DF0EFA3F090AA
:10236A00154DE0FEA3E0FF901536EEF0EFA3F090D6
:10237A001546E0FDA3E0FEA3E0FF901538EDF0EE70
:10238A00A3F0EFA3F0901540E4F0A3F0901549E014
:10239A00FDA3E0FEA3E0FF8D828E838FF0122C77DF
:1023AA00FC90154974012DF0E43EA3F0EFA3F0EC84
:1023BA007003022C53BC25028003022C4B90154F4C
:1023CA00E4F0901550F0901551F0901552F09015D8
:1023DA0053F0901554F0901555F0901556F090154D
:1023EA0058F0901559F0A3F090155B14F0A3F090F3
:1023FA001549E0FDA3E0FEA3E0FF8D828E838FF0F6
:10240A00122C77FBA3AD82AE83901549EDF0EEA3B3
:10241A00F0EFA3F090155FEBF0BB25088B82122238
:10242A008A022396BB300050030224F7EB24C650DD
:10243A00030224F790155BE0F521A3E0F52274FF6F
:10244A00B52163B52260C005C006C007901559E0E2
:10245A00FAA3E0FF90152FEAF0EFA3F090000AC06C
:10246A0005C0031221EAAE82AF83D003D0058B02E6
:10247A007D00EA2EFEED3FFFEE24D0FEEF34FFFF93
:10248A00901559EEF0EFA3F0D007D006D0059015BD
:10249A0059E0F5F0A3E045F06003022404901550DA
:1024AA007401F0022404C005C006C00790152FE588
:1024BA0021F0E522A3F090000AC006C005C003126D
:1024CA0021EAAA82AF83D003D005D0067E00EB2A88
:1024DA00FAEE3FFFEA24D0FAEF34FFFF90155BEAE9
:1024EA00F0EFA3F0D007D006D00502240490155FC0
:1024FA00E0FBBB2E2FC005C006C00790155BE0FAB3
:10250A00A3E0FFBAFF05BFFF028009D007D006D0BB
:10251A0005022404D007D006D00590155BE4F0A389
:10252A00F0022404BB61004014EB2485400F90158F
:10253A005F74DF5BF09015357401F08005901535F6
:10254A00E4F090155FE0FBBB20028075BB2B028094
:10255A0067BB2D028059BB4202806FBB4302807C5D
:10256A00BB44030227EEBB4603022814BB480302FE
:10257A002404BB49030227EEBB4A03022404BB4CD2
:10258A00028050BB4F030227FCBB500302275CBBEF
:10259A0053028077BB5403022404BB550302280468
:1025AA00BB580302280CBB5A0302240402281C90BD
:1025BA00154F7401F00224049015517401F002249D
:1025CA00049015527401F00224049015547401F019
:1025DA000224049015557401F0022404901554E065
:1025EA00600E90154CE014F9F090155FE7F0800F3B
:1025FA0090154CE024FEFFF08F0190155FE7F090F4
:10260A00155FE0F58212228A02282B90154CE024ED
:10261A00FDFFF08F018705098706098707191990B9
:10262A00153BEDF0EEA3F0EFA3F08D828E838FF0D1
:10263A00122C5F85822185832290155BE0FAA3E044
:10264A00FDBAFF0DBDFF0A90155BE521F0E522A357
:10265A00F090154FE0704B901559E0FAA3E0FDC3D6
:10266A00E5219AE5229D503A901559EAC39521F041
:10267A00ED9522A3F0901559E0FAA3E0FD8A068DA4
:10268A00071ABAFF011DEE4F6010758220C005C0FF
:10269A000212228AD002D00580E3901559EAF0EDA1
:1026AA00A3F090155BE0F524A3E0F52590153BE037
:1026BA00FAA3E0FDA3E0FF8A828D838FF0122C77C4
:1026CA00F523603CC3E4952474808525F063F0808B
:1026DA0095F0502C152474FFB52402152585238204
:1026EA0012228A90153BE0FAA3E0FDA3E0FF0ABAA2
:1026FA0000010D90153BEAF0EDA3F0EFA3F080ACDA
:10270A0090154FE0700302282B901559E0FEA3E0C4
:10271A00FFC3E5219EE5229F400302282B9015590D
:10272A00EEC39521F0EF9522A3F0901559E0FEA390
:10273A00E0FF8E028F051EBEFF011FEA4D700302E5
:10274A002823758220C007C00612228AD006D00725
:10275A0080E090154CE024FDFDF08D018726098765
:10276A0027098728191990153BE526F0E527A3F0D4
:10277A00E528A3F090153DE0FDBD800040089015C6
:10278A005F7443F08020BD6000400890155F74506C
:10279A00F08013BD4000400890155F7449F0800630
:1027AA0090155F7458F090155FE0FDF582C0051230
:1027BA00228A75823A12228A75823012228A758298
:1027CA007812228AD005BD4902800EBD50028009C6
:1027DA0090153CE0F5821222E590153BE0F5821255
:1027EA0022E5803D9015537401F0901558740AF053
:1027FA00802F9015587408F08027901558740AF0A5
:10280A00801F9015587410F080179015567401F0B7
:10281A00800F8B8212228A8008901559EEF0EFA35E
:10282A00F0901556E0607190154CE024FCFFF08F93
:10283A000187030987050987060987071919199066
:10284A00153BEBF0EDA3F0EEA3F0EFA3F090153BF0
:10285A007496F0743CA3F07480A3F090153BE0F5F5
:10286A0026A3E0F527A3E0F52874012526FAE43526
:10287A0027FBAF2890153BEAF0EBA3F0EFA3F08516
:10288A0026828527838528F0122C77FF700302237E
:10289A00968F8212228A80C3901558E07003022311
:1028AA0096901554E0604790154CE014F9F08707AC
:1028BA007E007D007B0090153BEFF0EEA3F0EDA3C8
:1028CA00F0EBA3F0901553E0600302296E90153BDC
:1028DA00E0FBA3E0A3E0A3E07D007E007F0090156B
:1028EA003BEBF0EDA3F0EEA3F0EFA3F080769015AA
:1028FA0055E0602890154CE024FCFFF08F01870317
:10290A0009870509870609870719191990153BEBE5
:10291A00F0EDA3F0EEA3F0EFA3F0804890154CE0A1
:10292A0024FEFFF08F01870609870719EF3395E028
:10293A00FDFB90153BEEF0EFA3F0EDA3F0EBA3F057
:10294A00901553E0701E90153BE0FBA3E0FDA3E059
:10295A00A3E07E007F0090153BEBF0EDA3F0EEA321
:10296A00F0EFA3F0901553E0604190153BE0FBA314
:10297A00E0FDA3E0FEA3E0FF30E72B90153BE0FB70
:10298A00A3E0FDA3E0FEA3E0FFC3E49BFBE49DFDFF
:10299A00E49EFEE49FFF90153BEBF0EDA3F0EEA35F
:1029AA00F0EFA3F08005901553E4F09015577401E9
:1029BA00F0901558E0F524752965752A15E4F52176
:1029CA00F52290153FE4F0852482122301901557D1
:1029DA00E0702690153FE0C4F526852982852A8372
:1029EA00E0FFE5264207852982852A83EFF015292B
:1029FA0074FFB52902152A800C90153FE0FF85293E
:102A0A0082852A83F00521E4B52102052290155713
:102A1A00E0B40100E433F090153BE0FAA3E0FBA335
:102A2A00E0FEA3E0FFEA4B4E4F7097901566E5294A
:102A3A00F0E52AA3F090155DE521F0E522A3F090D8
:102A4A001559E0F5F0A3E045F070099015597401A5
:102A5A00F0E4A3F0901550E0FFE0704790154FE0C6
:102A6A00704185212985222A901559E0FAA3E0FBB5
:102A7A00C007AF290F8F067F00C3EE9AEF9BD007DE
:102A8A005019758220C007C003C00212228AD002E0
:102A9A00D003D0071ABAFF011B80D5901559EAF066
:102AAA00EBA3F0901553E0602075822DC007122227
:102ABA008AD007901559E024FFFDA3E034FFFE9069
:102ACA001559EDF0EEA3F0805690155DE0F5F0A3F0
:102ADA00E045F0604A901551E0602075822BC007EE
:102AEA0012228AD007901559E024FFFDA3E034FF93
:102AFA00FE901559EDF0EEA3F08024901552E06097
:102B0A001E758220C00712228AD007901559E02428
:102B1A00FFFDA3E034FFFE901559EDF0EEA3F0900F
:102B2A00154FE0704890155DE0F529A3E0F52A906D
:102B3A001559E0FAA3E0FBC0078A068B071ABAFF09
:102B4A00011BC3E5299EE52A9FD0075053EF600673
:102B5A007D307E0080047D207E008D82C007C00308
:102B6A00C00212228AD002D003D00780CA90155917
:102B7A00E0FEA3E0FF90155DE0F529A3E0F52AC386
:102B8A00E5299EE52A9F500F901559EEC39529F025
:102B9A00EF952AA3F08011901559E4F0A3F080086C
:102BAA00901559EAF0EBA3F0901566E0FEA3E0FF5A
:102BBA0090155DE0F529A3E0F52AAA29AD2A152981
:102BCA0074FFB52902152AEA4D6045901557E0B4FD
:102BDA000100E433F0901557E070140EBE00010FA7
:102BEA008E828F83E0C4540FFD90153FF0800E8EC5
:102BFA00828F83E0FD53050F90153FEDF090153F4E
:102C0A00E0F582C007C0061222C5D006D00780AA06
:102C1A0090154FE07003022396901559E0FEA3E049
:102C2A00FF8E038F051EBEFF011FEB4D70030223AB
:102C3A0096758220C007C00612228AD006D0078065
:102C4A00E08C8212228A022396901540E0FEA3E0CD
:052C5A008E82F58322CB
:0B3C96003C4E4F20464C4F41543E0076
:102C5F00AA82AB83122C776003A380F8C3E5829A14
:082C6F00F582E5839BF5832249
:0D00390075812F1202B7E5826003020036C8
:102C770020F71430F6148883A88220F507E6A88386
:0C2C870075830022E280F7E49322E02233
:00000001FF
