:03000000020006F5
:03005F0002000399
:0300030002006296
:2000620074B8C0E0741CC0E07480C0E012127D158115811581758201120E5E02008075829C
:2000820002120E5E120519120B3E0206F6758203120E5E7E007F00900009E0FCA3E0FDC328
:2000A200EE9CEF64808DF063F08095F0506190150EEEF0EFA3F090000CC007C00612120FEC
:2000C200AC82AD83EC240BFCED3400FD8C828D83A3A3E0FBA3E0FCA3E0FD8B828C838DF0B4
:2000E200120E84D006D007C007C006C006C00774C2C0E0741CC0E07480C0E012127DE581F2
:2001020024FBF581D006D0070EBE008B0F808874D9C0E0741CC0E07480C0E012127D158145
:2001220015811581020080758204120E5E900009E0FEA3E0FF1EBEFF011FC006C00774EFB2
:20014200C0E0741CC0E07480C0E012127DE58124FBF581900003120CAEAE82AF83C3E49E97
:2001620074808FF063F08095F050C2900009E0FCA3E0FDC3EE9CEF64808DF063F08095F0B6
:2001820050AB90150EEEF0EFA3F090000CC007C00612120FAC82AD83D006D007EC240BFCD1
:2001A200ED3400FD8C828D83A3A3E0F50CA3E0F50DA3E0F50E74082CF582E43DF583E0FC3B
:2001C200A3E0FDE4F508F509C004C005900009E0F50AA3E0F50BE50A24FFF8E50B34FFFD10
:2001E200C3E50898E50964808DF063F08095F0D005D00440030202A8C3E5089EE509648056
:200202008FF063F08095F0500302029DC004C00590150E74012508F0E43509A3F090000CF2
:20022200C007C006C00412120FA882AD83D004E8240BF582ED3400F583E508F0E509A3F085
:2002420090150EE508F0E509A3F090000CC005C00012120FAB82AC83D000D005EB240BFB21
:20026200EC3400FC7A00E8240BF8ED3400FD9014FDE8F0EDA3F0E4A3F0901500740CF0E450
:20028200A3F08B828C838AF0C005C004120FDBD004D005D006D007D005D0040508E4B50801
:2002A2000205090201CAE50A24FFFAE50B34FFFB900009EAF0EBA3F0900003E0FAA3E0FB59
:2002C200EAC39CFCEB9DFD900003ECF0EDA3F0AB0CAC0DAD0E8B828C838DF0C007C0061200
:2002E2000E84D006D007C006C0077428C0E0741DC0E07480C0E012127DE58124FBF5819003
:20030200000022758205120E5E744CC0E0741DC0E07480C0E012127D1581158115817487BC
:20032200C0E0741DC0E07480C0E012127D15811581158174BEC0E0741DC0E07480C0E0124A
:20034200127D15811581158174F0C0E0741DC0E07480C0E012127D158115811581740AC0E0
:20036200E0741EC0E07480C0E012127D158115811581742AC0E0741EC0E07480C0E012124A
:200382007D1581158115817448C0E0741EC0E07480C0E012127D1581158115812275820678
:2003A200120E5E900003E0FEA3E0FF900001E0FCA3E0FDEEB50407EFB50503020500746E9A
:2003C200C0E0741EC0E07480C0E012127D158115811581900003120CAEAE82AF83C3EE944C
:2003E2001EEF6480948040D6742C9E74818FF063F08095F040C88E828F83C007C0061210FD
:20040200A6AC82AD83D006D0077B00900139ECF0EDA3F0EBA3F0EC4D70187491C0E0741E12
:20042200C0E07480C0E012127D1581158115810204FCC007C00674AFC0E0741EC0E07480AB
:20044200C0E012127D158115811581D006D007900003E0FCA3E0FDEE2CFCEF3DFD90000329
:20046200ECF0EDA3F090013FEEF0EFA3F0900009E0FCA3E0FD900137ECF0EDA3F09001390B
:20048200E0FBA3E0FCA3E0FDEE2BFEEF3CFF8D0290013CEEF0EFA3F0EAA3F0900141E4F060
:2004A200A3F0900009E0FEA3E0FF90150EEEF0EFA3F090000C12120FAE82AF83EE240BFE4F
:2004C200EF3400FF7D009014FD7437F07401A3F0E4A3F0901500740CF0E4A3F08E828F8312
:2004E2008DF0120FDB900009E0FEA3E0FF0EBE00010F900009EEF0EFA3F09000002274D5B8
:20050200C0E0741EC0E07480C0E012127D15811581158190000022758207120E5E7403C0AB
:20052200E0741FC0E07480C0E012127D158115811581900004120CAEAE82AF83C3EE943078
:20054200EF6480948040D674C09E74928FF063F08095F040C88E828F83C007C0061210A66E
:20056200AC82AD83D006D0077B00900145ECF0EDA3F0EBA3F08E828F83C007C0061210A6CC
:20058200AC82AD83D006D0077B00900151ECF0EDA3F0EBA3F0900145E0FBA3E0FCA3E0EB79
:2005A2004C600F900151E0FBA3E0FCA3E0FDEB4C70607430C0E0741FC0E07480C0E012128C
:2005C2007D158115811581900145E0FBA3E0FCA3E0EB4C6014900145E0FBA3E0FCA3E0FDCC
:2005E2008B828C838DF0120E84900151E0FBA3E0FCA3E0FDEB4C700302051F900151E0FB73
:20060200A3E0FCA3E0FD8B828C838DF0120E8402051FC007C0067465C0E0741FC0E0748049
:20062200C0E012127D158115811581D006D007EE2EFCEF33FD900003ECF0EDA3F090000151
:200642007484F07413A3F09000097402F0E4A3F090014BEEF0EFA3F0900157EEF0EFA3F09C
:20066200900143E4F0A3F090014F04F0E4A3F0900151E0FBA3E0FCA3E0FDEE2BFBEF3CFCFB
:20068200900154EBF0ECA3F0EDA3F0900145E0FBA3E0FCA3E0FDEE2BFEEF3CFF8D02900188
:2006A20048EEF0EFA3F0EAA3F090014DE4F0A3F0900159F0A3F09014FD7443F07401A3F011
:2006C200E4A3F0901500740CF0E4A3F090000B75F000120FDB9014FD744FF07401A3F0E4D9
:2006E200A3F0901500740CF0E4A3F090001775F000020FDB758208120E5E120305120E2208
:20070200AE82AF83C374609E74808FF063F08095F040030207A4C3EE947BEF64809480409E
:20072200030207A4900015E0FCA3E0FD900013E0FAA3E0FBC3EC9AED64808BF063F080950E
:20074200F0503290000DE0F9A3E0FAA3E0FBEC29F9ED3AFA8E0589828A838BF0ED12104F01
:20076200900015E0FCA3E0FD0CBC00010D900015ECF0EDA3F0900005E0FCA3E0FD0CBC00E6
:20078200010D900005ECF0EDA3F0900007E0FCA3E0FD0CBC00010D900007ECF0EDA3F0029A
:2007A20006FFBE3F1FBF001C120A7D120B3E12081A900005E4F0A3F0900007F0A3F01203E8
:2007C200050206FFBE3D0CBF00091209301203050206FFBE400CBF000912008F1203050241
:2007E20006FFBE2B0CBF000912039F1203050206FFBE2D0CBF00091201291203050206FF44
:20080200900005E0FEA3E0FF0EBE00010F900005EEF0EFA3F00206FF758209120E5E9001FA
:200822005B7440F0E4A3F0900015E0FEA3E0FFC3E49E74808FF063F08095F0400302091AC3
:200842007494C0E0741FC0E07480C0E012127D1581158115817E007F00900015E0FCA3E0C3
:20086200FDC3EE9CEF64808DF063F08095F040030208FD90015BE0FCA3E0FDBC4020BD0019
:200882001DC007C00674C2C0E0741FC0E07480C0E012127D158115811581D006D00790006F
:2008A2000DE0FBA3E0FCA3E0FDEE2BFBEF3CFC8B828C838DF0121C9CFB7D008B828D83C05C
:2008C20007C006120E03D006D00790015BE024FFFCA3E034FFFD90015BECF0EDA3F0900102
:2008E2005BE0F5F0A3E045F0700990015B7440F0E4A3F00EBE00010F02085B900015E4F0E4
:20090200A3F074C5C0E0741FC0E07480C0E012127D1581158115812274C9C0E0741FC0E00D
:200922007480C0E012127D1581158115812275820A120E5E900015E0FEA3E0FFC3E49E745F
:20094200808FF063F08095F04003020A6774E0C0E0741FC0E07480C0E012127D1581158100
:2009620015817423C0E07420C0E07480C0E012127D15811581158190015D7410F0E4A3F0A4
:200982007E007F00900015E0FCA3E0FDC3EE9CEF64808DF063F08095F04003020A51900131
:2009A2005DE0FCA3E0FDBC1037BD003490000DE0FBA3E0FCA3E0FDEE2BFBEF3CFCC007C04F
:2009C20006C003C004C0057462C0E07420C0E07480C0E012127DE58124FAF581D006D0073D
:2009E20090000DE0FBA3E0FCA3E0FDEE2BFBEF3CFC8B828C838DF0121C9CFB7D00C007C0E1
:200A020006C003C0057469C0E07420C0E07480C0E012127DE58124FBF581D006D007900127
:200A22005DE024FFFCA3E034FFFD90015DECF0EDA3F090015DE0F5F0A3E045F070099001E6
:200A42005D7410F0E4A3F00EBE00010F02098674C5C0E0741FC0E07480C0E012127D158108
:200A62001581158122746DC0E07420C0E07480C0E012127D1581158115812275820B120E36
:200A82005E7484C0E07420C0E07480C0E012127D158115811581900001E0FEA3E0FFC0067C
:200AA200C00774B0C0E07420C0E07480C0E012127DE58124FBF581900003E0FEA3E0FFC092
:200AC20006C00774C7C0E07420C0E07480C0E012127DE58124FBF581900005E0FEA3E0FF13
:200AE200C006C00774E2C0E07420C0E07480C0E012127DE58124FBF581900007E0FEA3E015
:200B0200FFC006C00774F3C0E07420C0E07480C0E012127DE58124FBF581900009E0FEA3C2
:200B2200E0FFC006C0077408C0E07421C0E07480C0E012127DE58124FBF5812275820C128F
:200B42000E5E7E007F00900009E0FCA3E0FDC3EE9CEF64808DF063F08095F04003020C9857
:200B6200C007C006C006C007741DC0E07421C0E07480C0E012127DE58124FBF581D006D01D
:200B82000790150EEEF0EFA3F090000CC007C00612120FAC82AD83EC240BF582ED3400F5D7
:200BA20083E0FAA3E0FBC005C004C002C0037448C0E07421C0E07480C0E012127DE58124FA
:200BC200FBF581D004D005EC240BFCED3400FD8C828D83A3A3E0F9A3E0FAA3E0FBC005C007
:200BE20004C001C002C0037457C0E07421C0E07480C0E012127DE58124FAF581D004D00531
:200C02008C828D83A3A3A3A3A3E0F9A3E0FAA3E0FBC005C004C001C002C003746AC0E074F0
:200C220021C0E07480C0E012127DE58124FAF581D004D00574082CF582E43DF583E0FAA3E4
:200C4200E0FBC005C004C002C003747BC0E07421C0E07480C0E012127DE58124FBF581D0E5
:200C620004D005740A2CF582E43DF583E0FCA3E0FDC004C005748DC0E07421C0E07480C070
:200C8200E012127DE58124FBF581D006D0070EBE00010F020B48749EC0E07421C0E074801D
:200CA200C0E012127D15811581158122AF83E58290015FF0EFA3F075820D120E5E9001619E
:200CC200E4F0A3F090015FE0FEA3E0FFC3E49E74808FF063F08095F04003020D7AC007C0F8
:200CE20006120E22AC82AD83D006D007C374399C74808DF063F08095F0405CEC9430ED642D
:200D02008094804052EC24D0FCED34FFFDEE24FFFAEF34FFFB8A828B83C007C006C005C05E
:200D220004120D86AA82AB83D004D00590150EEAF0EBA3F08C828D8312120FAC82AD83D07B
:200D420006D007900161E0FAA3E0FB900161EC2AF0ED3BA3F0801974C8C0E07421C0E07499
:200D620080C0E012127D15811581158190FFFF221EBEFF011F020CCE900161E0FEA3E08E86
:200D820082F58322AF83E582900163F0EFA3F09001657401F0E4A3F0900163E0FEA3E0FF10
:200DA2007C007D00C3EC9EED64808FF063F08095F0503A900165E0FAA3E0FB90150EEAF0DE
:200DC200EBA3F090000AC007C006C005C00412120FE5828583F0D004D005D006D00790016A
:200DE20065F0E5F0A3F00CBC00BA0D80B7EE4F700490000122900165E0FEA3E08E82F5832B
:200E020022AF83E582900167F0EFA3F0E59830E1FBC299900167E0FEA3E08E999000002295
:200E220010980280FB743FB599028027743DB5990280207440B599028019742BB599028034
:200E420012742DB59902800BAE997F008E828F83120E03AE997F008E828F8322E5829001F5
:200E620069F0E0906FFFF022758E0C759842758780758DFF758BFF758920D29CD28E9000D1
:020E820000224C
:201CB80048454C4C4F21200A0D00427566666572202564204672656564202E2E2E2E0A0D48
:201CD800004C6574277320626567696E20616761696E2E2E0A0D000A0D47697665205661FC
:201CF8006C696420427566666572204E756D62657220746F2064656C65746528312D2564EB
:201D18002920696E2033206469676974730A0D0042756666657220256420537563636573F4
:201D38007366756C6C792044656C657465642E2E200A0D000A0A0D5E5E5E5E5E5E5E5E5E13
:201D58005E5E5E5E5E5E5E5E5E5E2D4D454E552D5E5E5E5E5E5E5E5E5E5E5E5E5E5E5E5E50
:201D78005E5E5E5E5E5E5E5E5E5E200A0A0D00596F752063616E20656E7465722063686145
:201D980072616374657273206F722075736520636F6D6D616E64732066726F6D2062656C30
:201DB8006F77200A0D00273F27202D3E2053686F772068656170207374617475732C2064E3
:201DD800756D70202620636C656172204275666665722030200A0D00272B27202D3E2041C6
:201DF80064642061206E6577204275666665720A0D00272D27202D3E2044656C65746520EE
:201E18006578697374696E67204275666665720A0D00273D27202D3E2044756D702042750B
:201E380066666572203020696E206865780A0D00274027202D3E204672656520616C6C20F0
:201E580048656170202620626567696E20616761696E0A0A0D000A0D476976652056616C5B
:201E78006964204275666665722053697A65283033302D333030293A004661696C65642CF9
:201E9800206769766520736D616C6C6572206275666665720A0D000A0A0D23232323535549
:201EB80043434553532C204255464645522043726561746564232323230A0A0D004E6F2031
:201ED80048656170204D656D6F7279204C6566742C2044656C65746520736F6D65206275BE
:201EF80066666572732E2E2E0A0D000A0D476976652056616C696420496E697469616C2057
:201F18004275666665722053697A6528303034382D34383030293A000A0D2323232346411A
:201F3800494C2C20506C656173652067697665206120736D616C6C65722062756666657258
:201F58002073697A65232323230A0A0D000A0A0D23232323535543434553532C20494E49EF
:201F78005449414C20425546464552532043726561746564232323230A0A0D000A0A0D2A22
:201F98002A2A2A2A2A2A2A2A2A2A4275666665722D302D436F6E74656E74732A2A2A2A2A81
:201FB8002A2A2A2A2A2A200A0D000A0D000A0A0D004275666665723020697320456D707462
:201FD800792E2E2E2E0A0D000A0D2D2D2D2D2D2D2D2D2D2D2D2D2D2D2D2D2D2D2D2D2D2DAC
:201FF8002D2D2D48455844554D502D2D2D2D2D2D2D2D2D2D2D2D2D2D2D2D2D2D2D2D2D2D49
:202018002D2D2D2D2D2D2D2D2D2D000A0D20202020414444523A202B30202B31202B322066
:202038002B33202B34202B35202B36202B37202B38202B39202B41202B42202B43202B44EB
:20205800202B45202B46200A0D000A0D25703A2000257820004275666665722030206973A7
:2020780020656D7074792E2E2E0A0D000A0D2A2A2A2A2A2A2A2A2A2A2A2A2A2A2A2A484514
:2020980041502A53544154532A2A2A2A2A2A2A2A2A2A2A2A2A0A0D00546F74616C204865D4
:2020B80061702053697A653A202564200A0D00416C6C6F636174656420486561702053695F
:2020D8007A653A202564200A0D00416C6C2043686172733A202564200A0D0053746F7261A2
:2020F80067652043686172733A202564200A0D00546F74616C20427566666572733A202561
:2021180064200A0D002A2A2A2A2A2A2A2A2A2A2A2A2A2A2A2A4255464645522A25642A2AAB
:202138002A2A2A2A2A2A2A2A2A2A2A2A2A0A0D00427566666572233A202564200A0D004275
:20215800756666657253746172743A202570200A0D00427566666572456E643A202570209B
:202178000A0D0042756666657253697A653A202564200A0D00546F74616C557365643A2032
:202198002564200A0D002A2A2A2A2A2A2A2A2A2A2A2A2A2A2A2A2A2A2A2A2A2A2A2A2A2A23
:2021B8002A2A2A2A2A2A2A2A2A2A2A2A2A0A0D004552522C4E756D62657273204F4E4C597B
:0421D800210A0D00CB
:0221DC008A1364
:200E8400AFF0AE83E5829014F4F0EEA3F0EFA3F09014F4E0FDA3E0FEA3E09014F4E0F5F0B6
:200EA400A3E045F07001229014F9E4F0A3F0901506E0FBA3E0FC9014F7EBF0ECA3F0901441
:200EC400FB7406F07415A3F09014F7E0FBA3E0FC4B60418B018C02C003C0048D008E04C329
:200EE400E998EA9CD004D003502A9014F9EBF0ECA3F074022BFBE43CFC9014FBEBF0ECA30E
:200F0400F08B828C83E0FBA3E0FC9014F7EBF0ECA3F080B49014F7E0FEA3E0FF9014F4E0CB
:200F2400FBA3E0FCA3E0EB24FEFBEC34FFFC74022BFAE43CFD8A828D83EEF0EFA3F09014B5
:200F4400FBE0F8A3E0F988828983EBF0ECA3F08B828C83E0F8A3E0F9EEB50033EFB5012FB4
:200F640088828983A3A3E0FEA3E0FF8A828D83EEF0EFA3F08B828C83E0FEA3E0FF8E828F1A
:200F840083E0FEA3E0FF8B828C83EEF0EFA3F09014F9E0FEA3E0FF4E603C8E828F83E0F80D
:200FA400A3E0F9E8B5032FE9B5042B8B828C83E0FBA3E0FC8E828F83EBF0ECA3F074022E7F
:170FC400FEE43FFF8A828D83E0FAA3E0FD8E828F83EAF0EDA3F022E2
:06003500E478FFF6D8FD9F
:200FDB00AFF0AE83E582901502F0EEA3F0EFA3F0901502E0F51CA3E0F51DA3E0F51EAA1C9C
:200FFB00AB1DAC1E9014FDE0F8A3E0F9A3E0FF901500E0F51FA3E0F520AD1FAE20151F745A
:20101B00FFB51F021520ED4E6020888289838FF0121C9CFEA3A882A9838A828B838CF0EE16
:14103B0012104FA3AA82AB8380CF851C82851D83851EF022E7
:200013007900E94400601B7A009021E9784775A015E493F2A308B8000205A0D9F4DAF2752E
:02003300A0FF2C
:1B104F0020F71130F6138883A88220F509F6A8837583002280FEF280F5F022A0
:20106A00901506746AF07401A3F09021DCE493FE740193FF1EBEFF011FEE246AFEEF340143
:20108A00FF90016AEEF0EFA3F0901506E0FEA3E0FF8E828F83A3A3E4F0A3F022AF83E58257
:2010AA00901508F0EFA3F0901506E0F5F0A3E045F0700312106A901508E0FEA3E0FF4E6025
:2010CA000E74022EFCE43FFDC3EC9EED9F50049000002290150874022EF0E43FA3F09015BD
:2010EA0008E0FEA3E0FFC3EE9404EF940050099015087404F0E4A3F0901506E0FEA3E0FFC2
:20110A0090150AEEF0EFA3F090150C7406F07415A3F090150AE0FEA3E0FF4E700302120B90
:20112A008E828F83E0FCA3E0FD8C028D038E008F01EAC398FAEB99FB8A008B01901508E08A
:20114A00F50FA3E0F510C3E8950FE9951050030211E87404250FF8E43510F9C3EA98EB993F
:20116A00404C8E028F03E50F2AFAE5103BFB8A828B83ECF0EDA3F074022AFCE43BFD8E8236
:20118A008F83A3A3E0F8A3E0F98C828D83E8F0E9A3F090150CE0FCA3E0FD8C828D83EAF022
:2011AA00EBA3F08E828F83EAF0EBA3F0801C90150CE0FCA3E0FD8E828F83A3A3E0FAA3E0BF
:2011CA00FB8C828D83EAF0EBA3F090150AE0FCA3E0FD74022CFCE43DFD8C828D8322740217
:2011EA002EFEE43FFF90150CEEF0EFA3F08E828F83E0FEA3E0FF90150AEEF0EFA3F00211E2
:05120A001C9000002211
:20120F00AA83AB828BF090150EE0A4F8A9F08AF0E0A429F98BF0A3E0A429F5838882222271
:20003B007800E84400600A790175A000E4F309D8FC7846E84415600C7916900001E4F0A352
:04005B00D8FCD9FAFA
:20122F00C01B85811B7E008E83120E03D01B22AFF0AE83E582901511F0EEA3F0EFA3F09074
:20124F001511E0FDA3E0FEA3E0FF901510E0FC901525E4F0A3F0A3F0901528EDF0EEA3F0F9
:20126F00EFA3F090152BECF090122F021383C01BE581F51B24FBFF901525E4F0A3F0A3F095
:20128F00E51B24FBF8901528E6F008E6A3F008E6A3F090152BEFF090122F121383D01B224E
:2012AF00E582901521F0E0FF901517E0C0E0A3E0C0E0A3E0C0E01212CA800D901515E0C0CC
:2012CF00E0A3E0C0E08F822215811581158190151FE02401F0A3E03400F022E58290152257
:2012EF00F0E02430FF24C6500D74072FFF901514E060034307208F820212AFE58290152363
:20130F00F0E0FFC4540FF582C0071212EAD00753070F8F820212EAE582901524F090151A4E
:20132F00E0FCA3E0FDA3E0FEA3E0FF90151EE0FB901524E0FA79208B00E828F51CEF235453
:20134F0001451CFBEC2CFCED33FDEE33FEEF33FFC3EB9A4007EBC39AFB43040119E970D74D
:20136F0090151AECF0EDA3F0EEA3F0EFA3F090151EEBF022AF83E58290152CF0EFA3F09014
:20138F00152CE0FEA3E0FF901515EEF0EFA3F0901525E0FDA3E0FEA3E0FF901517EDF0EE52
:2013AF00A3F0EFA3F090151FE4F0A3F0901528E0FDA3E0FEA3E0FF8D828E838FF0121C9CC8
:2013CF00FC90152874012DF0E43EA3F0EFA3F0EC7003021C78BC25028003021C7090152EB0
:2013EF00E4F090152FF0901530F0901531F0901532F0901533F0901534F0901535F09015F4
:20140F0037F0901538F0A3F090153A14F0A3F0901528E0FDA3E0FEA3E0FF8D828E838FF074
:20142F00121C9CFBA3AD82AE83901528EDF0EEA3F0EFA3F090153EEBF0BB25088B82121251
:20144F00AF0213BBBB3000500302151CEB24C6500302151C90153AE0F511A3E0F51274FF70
:20146F00B51163B51260C005C006C007901538E0FAA3E0FF90150EEAF0EFA3F090000AC019
:20148F0005C00312120FAE82AF83D003D0058B027D00EA2EFEED3FFFEE24D0FEEF34FFFFEC
:2014AF00901538EEF0EFA3F0D007D006D005901538E0F5F0A3E045F0600302142990152F8E
:2014CF007401F0021429C005C006C00790150EE511F0E512A3F090000AC006C005C00312EA
:2014EF00120FAA82AF83D003D005D0067E00EB2AFAEE3FFFEA24D0FAEF34FFFF90153AEA65
:20150F00F0EFA3F0D007D006D00502142990153EE0FBBB2E2FC005C006C00790153AE0FAA8
:20152F00A3E0FFBAFF05BFFF028009D007D006D005021429D007D006D00590153AE4F0A37A
:20154F00F0021429BB61004014EB2485400F90153E74DF5BF09015147401F080059015141D
:20156F00E4F090153EE0FBBB20028075BB2B028067BB2D028059BB4202806FBB4302807C7C
:20158F00BB4403021813BB4603021839BB4803021429BB4903021813BB4A03021429BB4CEF
:2015AF00028050BB4F03021821BB5003021781BB53028077BB5403021429BB5503021829AC
:2015CF00BB5803021831BB5A0302142902184190152E7401F00214299015307401F0021422
:2015EF00299015317401F00214299015337401F00214299015347401F0021429901533E088
:20160F00600E90152BE014F9F090153EE7F0800F90152BE024FEFFF08F0190153EE7F090BC
:20162F00153EE0F5821212AF02185090152BE024FDFFF08F018705098706098707191990E9
:20164F00151AEDF0EEA3F0EFA3F08D828E838FF0121C8485821185831290153AE0FAA3E0AD
:20166F00FDBAFF0DBDFF0A90153AE511F0E512A3F090152EE0704B901538E0FAA3E0FDC31B
:20168F00E5119AE5129D503A901538EAC39511F0ED9512A3F0901538E0FAA3E0FD8A068DF2
:2016AF00071ABAFF011DEE4F6010758220C005C0021212AFD002D00580E3901538EAF0ED57
:2016CF00A3F090153AE0F514A3E0F51590151AE0FAA3E0FDA3E0FF8A828D838FF0121C9C13
:2016EF00F513603CC3E4951474808515F063F08095F0502C151474FFB514021515851382EA
:20170F001212AF90151AE0FAA3E0FDA3E0FF0ABA00010D90151AEAF0EDA3F0EFA3F080ACB3
:20172F0090152EE07003021850901538E0FEA3E0FFC3E5119EE5129F400302185090153856
:20174F00EEC39511F0EF9512A3F0901538E0FEA3E0FF8E028F051EBEFF011FEA4D70030202
:20176F001848758220C007C0061212AFD006D00780E090152BE024FDFDF08D0187160987FD
:20178F0017098718191990151AE516F0E517A3F0E518A3F090151CE0FDBD800040089015B8
:2017AF003E7443F08020BD6000400890153E7450F08013BD4000400890153E7449F08006AB
:2017CF0090153E7458F090153EE0FDF582C0051212AF75823A1212AF7582301212AF758297
:2017EF00781212AFD005BD4902800EBD5002800990151BE0F58212130A90151AE0F582121E
:20180F00130A803D9015327401F0901537740AF0802F9015377408F08027901537740AF071
:20182F00801F9015377410F080179015357401F0800F8B821212AF8008901538EEF0EFA390
:20184F00F0901535E0607190152BE024FCFFF08F0187030987050987060987071919199088
:20186F00151AEBF0EDA3F0EEA3F0EFA3F090151A74DEF07421A3F07480A3F090151AE0F588
:20188F0016A3E0F517A3E0F51874012516FAE43517FBAF1890151AEAF0EBA3F0EFA3F0854A
:2018AF0016828517838518F0121C9CFF70030213BB8F821212AF80C3901537E0700302135E
:2018CF00BB901533E0604790152BE014F9F087077E007D007B0090151AEFF0EEA3F0EDA37F
:2018EF00F0EBA3F0901532E0600302199390151AE0FBA3E0A3E0A3E07D007E007F00901561
:20190F001AEBF0EDA3F0EEA3F0EFA3F08076901534E0602890152BE024FCFFF08F01870330
:20192F0009870509870609870719191990151AEBF0EDA3F0EEA3F0EFA3F0804890152BE0F6
:20194F0024FEFFF08F01870609870719EF3395E0FDFB90151AEEF0EFA3F0EDA3F0EBA3F0EE
:20196F00901532E0701E90151AE0FBA3E0FDA3E0A3E07E007F0090151AEBF0EDA3F0EEA34B
:20198F00F0EFA3F0901532E0604190151AE0FBA3E0FDA3E0FEA3E0FF30E72B90151AE0FB75
:2019AF00A3E0FDA3E0FEA3E0FFC3E49BFBE49DFDE49EFEE49FFF90151AEBF0EDA3F0EEA32D
:2019CF00F0EFA3F08005901532E4F09015367401F0901537E0F514751944751A15E4F511F1
:2019EF00F51290151EE4F0851482121326901536E0702690151EE0C4F516851982851A83CF
:201A0F00E0FFE5164207851982851A83EFF0151974FFB51902151A800C90151EE0FF851907
:201A2F0082851A83F00511E4B511020512901536E0B40100E433F090151AE0FAA3E0FBA3F9
:201A4F00E0FEA3E0FFEA4B4E4F7097901545E519F0E51AA3F090153CE511F0E512A3F090F3
:201A6F001538E0F5F0A3E045F070099015387401F0E4A3F090152FE0FFE0704790152EE05E
:201A8F00704185111985121A901538E0FAA3E0FBC007AF190F8F067F00C3EE9AEF9BD00793
:201AAF005019758220C007C003C0021212AFD002D003D0071ABAFF011B80D5901538EAF001
:201ACF00EBA3F0901532E0602075822DC0071212AFD007901538E024FFFDA3E034FFFE908C
:201AEF001538EDF0EEA3F0805690153CE0F5F0A3E045F0604A901530E0602075822BC00730
:201B0F001212AFD007901538E024FFFDA3E034FFFE901538EDF0EEA3F08024901531E06086
:201B2F001E758220C0071212AFD007901538E024FFFDA3E034FFFE901538EDF0EEA3F09094
:201B4F00152EE0704890153CE0F519A3E0F51A901538E0FAA3E0FBC0078A068B071ABAFF49
:201B6F00011BC3E5199EE51A9FD0075053EF60067D307E0080047D207E008D82C007C0030B
:201B8F00C0021212AFD002D003D00780CA901538E0FEA3E0FF90153CE0F519A3E0F51AC37A
:201BAF00E5199EE51A9F500F901538EEC39519F0EF951AA3F08011901538E4F0A3F08008C3
:201BCF00901538EAF0EBA3F0901545E0FEA3E0FF90153CE0F519A3E0F51AAA19AD1A15195E
:201BEF0074FFB51902151AEA4D6045901536E0B40100E433F0901536E070140EBE00010FF6
:201C0F008E828F83E0C4540FFD90151EF0800E8E828F83E0FD53050F90151EEDF090151E85
:201C2F00E0F582C007C0061212EAD006D00780AA90152EE070030213BB901538E0FEA3E098
:201C4F00FF8E038F051EBEFF011FEB4D70030213BB758220C007C0061212AFD006D0078037
:151C6F00E08C821212AF0213BB90151FE0FEA3E08E82F5832200
:0B21DE003C4E4F20464C4F41543E0049
:181C8400AA82AB83121C9C6003A380F8C3E5829AF582E5839BF58322CE
:0D000600758120120E6AE58260030200037E
:1C1C9C0020F71430F6148883A88220F507E6A88375830022E280F7E49322E02257
:00000001FF
