:03000000020006F5
:03005F0002000399
:0300030002006296
:200062001201E9AE82AF83C007C006120548AC82AD83D006D0078D037D00EC4B7023C0058D
:20008200C004C003745AC0E07411C0E07480C0E012071F158115811581D003D004D00580BA
:2000A2003EEE2CFEEF3BFF8D028E828F838AF074431204F18E828F838AF012113EFE7F005C
:2000C2008E828F83C005C004C00312034890000D12034890000A120348D003D004D0058C5A
:2000E200828B838DF002039AAFF0AE83E582900003F0EEA3F0EFA3F0900003E0FDA3E0FEA4
:20010200A3E0FF900001E0FBA3E0FC79007A00C3E99BEA64808CF063F08095F05046C0033B
:20012200C004E92DF8EA3EFB8F0488828B838CF012113EF87C0088828C83C007C006C00561
:20014200C004C003C002C001120348D001D002D003D004D005D006D00709B900010AD004C9
:20016200D00380AB0201699000067441F0E4A3F07590FF900006E0FEA3E0FF90000674015C
:200182002EF0E43FA3F08E828F83120348900020120348120326759000900006E0FEA3E0C6
:2001A200FF90000674012EF0E43FA3F08E828F83120348900020120348120326900006E022
:2001C200FEA3E0FFC3EE945AEF6480948040A19000067441F0E4A3F090000D1203489000FA
:2001E2000A120348020172900008E4F0A3F07E047F00C007C006120367AC82AD83D006D014
:2002020007C374399C74808DF063F08095F0405CEC9430ED648094804052EC24D0FCED3440
:20022200FFFDEE24FFFAEF34FFFB8A828B83C007C006C005C0041202A9AA82AB83D004D0AD
:20024200059013ACEAF0EBA3F08C828D831206B1AC82AD83D006D007900008E0FAA3E0FB0E
:20026200900008EC2AF0ED3BA3F08019746AC0E07411C0E07480C0E012071F1581158115DA
:200282008190FFFF221EBEFF011FC3E49E74808FF063F08095F050030201F4900008E0FE60
:2002A200A3E08E82F58322AF83E58290000AF0EFA3F090000C7401F0E4A3F090000AE0FE7A
:2002C200A3E0FF7C007D00C3EC9EED64808FF063F08095F0503A90000CE0FAA3E0FB90138B
:2002E200ACEAF0EBA3F090000AC007C006C005C0041206B1E5828583F0D004D005D006D0D1
:200302000790000CF0E5F0A3F00CBC00BA0D80B7EE4F70049000012290000CE0FEA3E08E2B
:2003220082F583227E007F007CFF7D001CBCFF011DEC4D70F70EBE00010FC3EE94CCEF64D5
:2003420080948040E322AF83E58290000EF0EFA3F0E59830E1FBC29990000EE0FEA3E08EA8
:20036200999000002210980280FBAE997F008E828F83120348AE997F008E828F8322758EB9
:180382000C759842758780758DFF758BFF758920D29CD28E90000022EE
:20115A004D414C4C4F43204641494C45440A0D004552522C456E746572206F6E6C79204E7E
:08117A00756D6265720A0D003B
:021182008A13CE
:20039A00AFF0AE83E58290139AF0EEA3F0EFA3F090139AE0FDA3E0FEA3E090139AE0F5F0BC
:2003BA00A3E045F070012290139FE4F0A3F09013A4E0FBA3E0FC90139DEBF0ECA3F0901351
:2003DA00A174A4F07413A3F090139DE0FBA3E0FC4B60418B018C02C003C0048D008E04C337
:2003FA00E998EA9CD004D003502A90139FEBF0ECA3F074022BFBE43CFC9013A1EBF0ECA3B9
:20041A00F08B828C83E0FBA3E0FC90139DEBF0ECA3F080B490139DE0FEA3E0FF90139AE0D1
:20043A00FBA3E0FCA3E0EB24FEFBEC34FFFC74022BFAE43CFD8A828D83EEF0EFA3F09013AB
:20045A00A1E0F8A3E0F988828983EBF0ECA3F08B828C83E0F8A3E0F9EEB50033EFB5012F03
:20047A0088828983A3A3E0FEA3E0FF8A828D83EEF0EFA3F08B828C83E0FEA3E0FF8E828F0F
:20049A0083E0FEA3E0FF8B828C83EEF0EFA3F090139FE0FEA3E0FF4E603C8E828F83E0F85D
:2004BA00A3E0F9E8B5032FE9B5042B8B828C83E0FBA3E0FC8E828F83EBF0ECA3F074022E74
:1704DA00FEE43FFF8A828D83E0FAA3E0FD8E828F83EAF0EDA3F022D7
:06003500E478FFF6D8FD9F
:200013007900E94400601B7A0090118F78E575A013E493F2A308B8000205A0D9F4DAF275FC
:02003300A0FF2C
:1B04F10020F71130F6138883A88220F509F6A8837583002280FEF280F5F0220A
:20050C009013A47410F07400A3F0901182E493FE740193FF1EBEFF011FEE2410FEEF340030
:20052C00FF900010EEF0EFA3F09013A4E0FEA3E0FF8E828F83A3A3E4F0A3F022AF83E5827F
:20054C009013A6F0EFA3F09013A4E0F5F0A3E045F0700312050C9013A6E0FEA3E0FF4E6023
:20056C000E74022EFCE43FFDC3EC9EED9F5004900000229013A674022EF0E43FA3F090138C
:20058C00A6E0FEA3E0FFC3EE9404EF940050099013A67404F0E4A3F09013A4E0FEA3E0FF55
:2005AC009013A8EEF0EFA3F09013AA74A4F07413A3F09013A8E0FEA3E0FF4E70030206ADF4
:2005CC008E828F83E0FCA3E0FD8C028D038E008F01EAC398FAEB99FB8A008B019013A6E058
:2005EC00F508A3E0F509C3E89508E99509500302068A74042508F8E43509F9C3EA98EB993C
:20060C00404C8E028F03E5082AFAE5093BFB8A828B83ECF0EDA3F074022AFCE43BFD8E82AD
:20062C008F83A3A3E0F8A3E0F98C828D83E8F0E9A3F09013AAE0FCA3E0FD8C828D83EAF0EF
:20064C00EBA3F08E828F83EAF0EBA3F0801C9013AAE0FCA3E0FD8E828F83A3A3E0FAA3E08C
:20066C00FB8C828D83EAF0EBA3F09013A8E0FCA3E0FD74022CFCE43DFD8C828D83227402E4
:20068C002EFEE43FFF9013AAEEF0EFA3F08E828F83E0FEA3E0FF9013A8EEF0EFA3F002051F
:0506AC00BE90000022D9
:2006B100AA83AB828BF09013ACE0A4F8A9F08AF0E0A429F98BF0A3E0A429F583888222223F
:20003B007800E84400600A790175A000E4F309D8FC78E4E84413600C7914900001E4F0A3B8
:04005B00D8FCD9FAFA
:2006D100C0148581147E008E83120348D01422AFF0AE83E5829013AFF0EEA3F0EFA3F0901D
:2006F10013AFE0FDA3E0FEA3E0FF9013AEE0FC9013C3E4F0A3F0A3F09013C6EDF0EEA3F0F3
:20071100EFA3F09013C9ECF09006D1020825C014E581F51424FBFF9013C3E4F0A3F0A3F0A7
:20073100E51424FBF89013C6E6F008E6A3F008E6A3F09013C9EFF09006D1120825D0142260
:20075100E5829013BFF0E0FF9013B5E0C0E0A3E0C0E0A3E0C0E012076C800D9013B3E0C0CA
:20077100E0A3E0C0E08F82221581158115819013BDE02401F0A3E03400F022E5829013C088
:20079100F0E02430FF24C6500D74072FFF9013B2E060034307208F82020751E5829013C1FD
:2007B100F0E0FFC4540FF582C00712078CD00753070F8F8202078CE5829013C2F09013B852
:2007D100E0FCA3E0FDA3E0FEA3E0FF9013BCE0FB9013C2E0FA79208B00E828F515EF23548C
:2007F100014515FBEC2CFCED33FDEE33FEEF33FFC3EB9A4007EBC39AFB43040119E970D7BE
:200811009013B8ECF0EDA3F0EEA3F0EFA3F09013BCEBF022AF83E5829013CAF0EFA3F090A9
:2008310013CAE0FEA3E0FF9013B3EEF0EFA3F09013C3E0FDA3E0FEA3E0FF9013B5EDF0EE4B
:20085100A3F0EFA3F09013BDE4F0A3F09013C6E0FDA3E0FEA3E0FF8D828E838FF012113E62
:20087100FC9013C674012DF0E43EA3F0EFA3F0EC700302111ABC250280030211129013CCB3
:20089100E4F09013CDF09013CEF09013CFF09013D0F09013D1F09013D2F09013D3F090131B
:2008B100D5F09013D6F0A3F09013D814F0A3F09013C6E0FDA3E0FEA3E0FF8D828E838FF06C
:2008D10012113EFBA3AD82AE839013C6EDF0EEA3F0EFA3F09013DCEBF0BB25088B821207F7
:2008F1005102085DBB300050030209BEEB24C650030209BE9013D8E0F50AA3E0F50B74FFE7
:20091100B50A63B50B60C005C006C0079013D6E0FAA3E0FF9013ACEAF0EFA3F090000AC058
:2009310005C0031206B1AE82AF83D003D0058B027D00EA2EFEED3FFFEE24D0FEEF34FFFFBF
:200951009013D6EEF0EFA3F0D007D006D0059013D6E0F5F0A3E045F060030208CB9013CD8D
:200971007401F00208CBC005C006C0079013ACE50AF0E50BA3F090000AC006C005C003122F
:2009910006B1AA82AF83D003D005D0067E00EB2AFAEE3FFFEA24D0FAEF34FFFF9013D8EA9C
:2009B100F0EFA3F0D007D006D0050208CB9013DCE0FBBB2E2FC005C006C0079013D8E0FA44
:2009D100A3E0FFBAFF05BFFF028009D007D006D0050208CBD007D006D0059013D8E4F0A3B2
:2009F100F00208CBBB61004014EB2485400F9013DC74DF5BF09013B27401F080059013B21D
:200A1100E4F09013DCE0FBBB20028075BB2B028067BB2D028059BB4202806FBB4302807C49
:200A3100BB4403020CB5BB4603020CDBBB48030208CBBB4903020CB5BB4A030208CBBB4C6A
:200A5100028050BB4F03020CC3BB5003020C23BB53028077BB54030208CBBB5503020CCBBC
:200A7100BB5803020CD3BB5A030208CB020CE39013CC7401F00208CB9013CE7401F0020807
:200A9100CB9013CF7401F00208CB9013D17401F00208CB9013D27401F00208CB9013D1E01D
:200AB100600E9013C9E014F9F09013DCE7F0800F9013C9E024FEFFF08F019013DCE7F090B6
:200AD10013DCE0F582120751020CF29013C9E024FDFFF08F018705098706098707191990EE
:200AF10013B8EDF0EEA3F0EFA3F08D828E838FF012112685820A85830B9013D8E0FAA3E056
:200B1100FDBAFF0DBDFF0A9013D8E50AF0E50BA3F09013CCE0704B9013D6E0FAA3E0FDC3BE
:200B3100E50A9AE50B9D503A9013D6EAC3950AF0ED950BA3F09013D6E0FAA3E0FD8A068D3F
:200B5100071ABAFF011DEE4F6010758220C005C002120751D002D00580E39013D6EAF0ED8D
:200B7100A3F09013D8E0F50DA3E0F50E9013B8E0FAA3E0FDA3E0FF8A828D838FF012113EBB
:200B9100F50C603CC3E4950D7480850EF063F08095F0502C150D74FFB50D02150E850C8284
:200BB1001207519013B8E0FAA3E0FDA3E0FF0ABA00010D9013B8EAF0EDA3F0EFA3F080AC4E
:200BD1009013CCE07003020CF29013D6E0FEA3E0FFC3E50A9EE50B9F4003020CF29013D6CE
:200BF100EEC3950AF0EF950BA3F09013D6E0FEA3E0FF8E028F051EBEFF011FEA4D700302DE
:200C11000CEA758220C007C006120751D006D00780E09013C9E024FDFDF08D01870F0987A4
:200C31001009871119199013B8E50FF0E510A3F0E511A3F09013BAE0FDBD8000400890130E
:200C5100DC7443F08020BD600040089013DC7450F08013BD400040089013DC7449F080063E
:200C71009013DC7458F09013DCE0FDF582C00512075175823A120751758230120751758203
:200C910078120751D005BD4902800EBD500280099013B9E0F5821207AC9013B8E0F5821222
:200CB10007AC803D9013D07401F09013D5740AF0802F9013D57408F080279013D5740AF0D5
:200CD100801F9013D57410F080179013D37401F0800F8B8212075180089013D6EEF0EFA38F
:200CF100F09013D3E060719013C9E024FCFFF08F01870309870509870609870719191990BA
:200D110013B8EBF0EDA3F0EEA3F0EFA3F09013B87484F07411A3F07480A3F09013B8E0F587
:200D31000FA3E0F510A3E0F5117401250FFAE43510FBAF119013B8EAF0EBA3F0EFA3F08541
:200D51000F828510838511F012113EFF700302085D8F8212075180C39013D5E07003020886
:200D71005D9013D1E060479013C9E014F9F087077E007D007B009013B8EFF0EEA3F0EDA372
:200D9100F0EBA3F09013D0E06003020E359013B8E0FBA3E0A3E0A3E07D007E007F009013FD
:200DB100B8EBF0EDA3F0EEA3F0EFA3F080769013D2E060289013C9E024FCFFF08F018703C4
:200DD1000987050987060987071919199013B8EBF0EDA3F0EEA3F0EFA3F080489013C9E028
:200DF10024FEFFF08F01870609870719EF3395E0FDFB9013B8EEF0EFA3F0EDA3F0EBA3F0BC
:200E11009013D0E0701E9013B8E0FBA3E0FDA3E0A3E07E007F009013B8EBF0EDA3F0EEA3E0
:200E3100F0EFA3F09013D0E060419013B8E0FBA3E0FDA3E0FEA3E0FF30E72B9013B8E0FB0A
:200E5100A3E0FDA3E0FEA3E0FFC3E49BFBE49DFDE49EFEE49FFF9013B8EBF0EDA3F0EEA3FA
:200E7100F0EFA3F080059013D0E4F09013D47401F09013D5E0F50D7512E2751313E4F50A06
:200E9100F50B9013BCE4F0850D821207C89013D4E070269013BCE0C4F50F851282851383F1
:200EB100E0FFE50F4207851282851383EFF0151274FFB512021513800C9013BCE0FF851206
:200ED10082851383F0050AE4B50A02050B9013D4E0B40100E433F09013B8E0FAA3E0FBA347
:200EF100E0FEA3E0FFEA4B4E4F70979013E3E512F0E513A3F09013DAE50AF0E50BA3F09041
:200F110013D6E0F5F0A3E045F070099013D67401F0E4A3F09013CDE0FFE070479013CCE057
:200F31007041850A12850B139013D6E0FAA3E0FBC007AF120F8F067F00C3EE9AEF9BD00783
:200F51005019758220C007C003C002120751D002D003D0071ABAFF011B80D59013D6EAF037
:200F7100EBA3F09013D0E0602075822DC007120751D0079013D6E024FFFDA3E034FFFE9026
:200F910013D6EDF0EEA3F080569013DAE0F5F0A3E045F0604A9013CEE0602075822BC007C5
:200FB100120751D0079013D6E024FFFDA3E034FFFE9013D6EDF0EEA3F080249013CFE06085
:200FD1001E758220C007120751D0079013D6E024FFFDA3E034FFFE9013D6EDF0EEA3F0902F
:200FF10013CCE070489013DAE0F512A3E0F5139013D6E0FAA3E0FBC0078A068B071ABAFFED
:20101100011BC3E5129EE5139FD0075053EF60067D307E0080047D207E008D82C007C00382
:20103100C002120751D002D003D00780CA9013D6E0FEA3E0FF9013DAE0F512A3E0F513C322
:20105100E5129EE5139F500F9013D6EEC39512F0EF9513A3F080119013D6E4F0A3F0800810
:201071009013D6EAF0EBA3F09013E3E0FEA3E0FF9013DAE0F512A3E0F513AA12AD13151216
:2010910074FFB512021513EA4D60459013D4E0B40100E433F09013D4E070140EBE00010F35
:2010B1008E828F83E0C4540FFD9013BCF0800E8E828F83E0FD53050F9013BCEDF09013BC1B
:2010D100E0F582C007C00612078CD006D00780AA9013CCE0700302085D9013D6E0FEA3E09C
:2010F100FF8E038F051EBEFF011FEB4D700302085D758220C007C006120751D006D0078073
:15111100E08C8212075102085D9013BDE0FEA3E08E82F583229F
:0B1184003C4E4F20464C4F41543E00B3
:18112600AA82AB8312113E6003A380F8C3E5829AF582E5839BF58322A0
:0D000600758115120380E58260030200037E
:1C113E0020F71430F6148883A88220F507E6A88375830022E280F7E49322E022C0
:00000001FF
