:0600000002003902020CAF
:01000B0032C2
:0100130032BA
:01001B0032B2
:0100230032AA
:01002B0032A2
:0300330002016463
:0300920002003633
:0300360002009530
:200095007469C0E0742CC0E07480C0E012222E158115811581758201120281C2910200B53F
:2000B5007582021202817489C0E0742CC0E07480C0E012222E15811581158174C4C0E074BC
:2000D5002CC0E07480C0E012222E15811581158174E3C0E0742CC0E07480C0E012222E1545
:2000F50081158115817401C0E0742DC0E07480C0E012222E158115811581741AC0E0742D61
:20011500C0E07480C0E012222E1581158115817430C0E0742DC0E07480C0E012222E158161
:200135001581158112075EAE82AF83BE4806BF000302079ABE5006BF00030213A7BE41069D
:20015500BF0003021D6EBE45C6BF00C302170EC020C0E0C0F0C082C083C007C006C005C002
:2001750004C003C002C001C000C0D075D00830D82DAEFA7F00ACEA7D00C00EC00FC00CC0EB
:200195000D744EC0E0742DC0E07480C0E075D00012222E75D008E58124F9F581C2D810D996
:2001B50002800675F90075E90010DA02800C75F90075E90075A61E75A6E110DB02801B7461
:2001D50076C0E0742DC0E07480C0E075D00012222E75D008158115811581D0D0D000D00128
:2001F500D002D003D004D005D006D007D083D082D0F0D0E0D02032C020C0E0C0F0C082C086
:2002150083C007C006C005C004C003C002C001C000C0D075D008C2A8758780C2DE7597FFBC
:20023500E4F5DAF5DBF5DCF5DDF5DE7488C0E0742DC0E07480C0E075D00012222E75D0084B
:2002550015811581158175D0001200B575D008D0D0D000D001D002D003D004D005D006D039
:2002750007D083D082D0F0D0E0D02032E582900001F0E0908000F022438F01758E0C759852
:1902950042758780758DFF758BFF758920D29CD28ED2AFD2AE90000022F3
:202C69000A0D2048454C4C4F21205374617274656420696E205832204D6F6465200A0D000B
:202C89000A0A0D5E5E5E5E5E5E5E5E5E5E5E5E5E5E5E5E5E5E5E2D4D454E552D5E5E5E5E09
:202CA9005E5E5E5E5E5E5E5E5E5E5E5E5E5E5E5E5E5E5E5E5E5E200A0A0D00274827202DD3
:202CC9003E20456E74657220486561702044656D6F204D6F6465200A0D00275027202D3E47
:202CE90020456E746572205043412044656D6F204D6F6465200A0D00274127202D3E2041BD
:202D09007373656D626C792043204D6978200A0D00274527202D3E20454550524F4D204D50
:202D29006F6465200A0D00506C65617365206D616B6520612076616C69642063686F69632C
:202D490065200A0D0043617074757265642056616C7565204343504C202D3E2025642043A0
:202D6900435048202D3E202564200A0D0054696D657220496E746572727570740A0D0047B8
:172D89006F696E6720746F206D61696E206D656E752E2E200A0D0056
:013C4A000277
:2002AE00D290D297C297221202AEE5822344A07A09120311221202AEE5822344A17A091229
:2002CE000311227A087400C31202E4C29712030AF58222DA0122D290309707D333C2900291
:2002EE0002E1C333C2900202E1E5827A0912031122E5827A0912031112030A22C297D290A2
:20030E00D29722C290DA07D297D290C2902233500302032BC297D290C290020311D297D2BE
:17032E0090C2900203111202AE7A0974FF1203111202AE12030A22DF
:20034500E582900004F07582021203D8900004E0F5821202B5900002E0F5821202F790008F
:2003650003E0F5821202FF7E007F00C3EE945AEF64809480501D7C007D00C3EC940AED6484
:2003850080948050070CBC00F10D80EE0EBE00DB0F80D87582010203D8E582900006F075F4
:2003A50082021203D8900006E0FFF582C0071202B5900005E0F5821202F7D0078F82120258
:2003C500C31202D1AF82758201C0071203D8D0078F8222E582900007F0E0F590C2B2D2B23E
:0303E500C2B2227F
:2003E800AF8290002BE0FE90002CE08EF084EFA4F58290002BF0758255121E1190002BE0B0
:03040800F5822258
:20040B00AF83E582900008F0EFA3F090000AE4F0A3F0900008E0FEA3E0FFC3E49E74808F6D
:20042B00F063F08095F040030204D1C007C00612075EAC82AD83D006D007C374399C748040
:20044B008DF063F08095F0405CEC9430ED648094804052EC24D0FCED34FFFDEE24FFFAEF06
:20046B0034FFFB8A828B83C007C006C005C0041204DDAA82AB83D004D00590152FEAF0EB84
:20048B00A3F08C828D831221C0AC82AD83D006D00790000AE0FAA3E0FB90000AEC2AF0ED23
:2004AB003BA3F0801974A0C0E0742DC0E07480C0E012222E15811581158190FFFF221EBE91
:2004CB00FF011F02042590000AE0FEA3E08E82F58322AF83E58290000CF0EFA3F090000EDD
:2004EB007401F0E4A3F090000CE0FEA3E0FF7C007D00C3EC9EED64808FF063F08095F050DB
:20050B003A90000EE0FAA3E0FB90152FEAF0EBA3F090000AC007C006C005C0041221C0E5EC
:20052B00828583F0D004D005D006D00790000EF0E5F0A3F00CBC00BA0D80B7EE4F700490E3
:20054B0000012290000EE0FEA3E08E82F58322AF83E582900010F0EFA3F0900014E4F0A3FE
:20056B00F0900010E0FEA3E0FFC3E49E74808FF063F08095F040030206CDC007C0061207B2
:20058B005EAC82AD83D006D007900012ECF0EDA3F0C374669C74808DF063F08095F0401A8D
:2005AB00EC9461ED648094804010EC24E0FCED34FFFD900012ECF0EDA3F0900012E0FCA3F2
:2005CB00E0FDC374399C74808DF063F08095F0405DEC9430ED648094804053EC24D0FCEDD0
:2005EB0034FFFDEE24FFFAEF34FFFB8A828B83C007C006C005C0041206D9AA82AB83D00449
:20060B00D00590152FEAF0EBA3F08C828D831221C0AC82AD83D006D007900014E0FAA3E0B1
:20062B00FB900014EC2AF0ED3BA3F00206C5900012E0FCA3E0FDC374469C74808DF063F0A7
:20064B008095F0405CEC9441ED648094804052EC24C9FCED34FFFDEE24FFFAEF34FFFB8A12
:20066B00828B83C007C006C005C0041206D9AA82AB83D004D00590152FEAF0EBA3F08C829B
:20068B008D831221C0AC82AD83D006D007900014E0FAA3E0FB900014EC2AF0ED3BA3F08060
:2006AB001974B4C0E0742DC0E07480C0E012222E15811581158190FFFF221EBEFF011F02A8
:2006CB000574900014E0FEA3E08E82F58322AF83E582900016F0EFA3F09000187401F0E445
:2006EB00A3F0900016E0FEA3E0FF7C007D00C3EC9EED64808FF063F08095F050239000184D
:20070B00E0FAA3E0C454F0CAC4CA6ACA54F0CA6AFB900018EAF0EBA3F00CBC00D10D80CE76
:20072B00EE4F700490000122900018E0FEA3E08E82F58322AF83E58290001AF0EFA3F0E5FD
:20074B009830E1FBC29990001AE0FEA3E08E999000002210980280FB743FB5990280277468
:20076B003DB5990280207440B599028019742BB599028012742DB59902800BAE997F008E53
:0F078B00828F8312073FAE997F008E828F832269
:202DA0004552522C4E756D62657273204F4E4C59210A0D004552522C20486578204E756DDE
:0D2DC00062657273204F4E4C59210A0D00C0
:20079A00120C2A12123D020E017E007F00900024E0FCA3E0FDC3EE9CEF64808DF063F08008
:2007BA0095F0506190152FEEF0EFA3F090000CC007C0061221C0AC82AD83EC2426FCED34E8
:2007DA0000FD8C828D83A3A3E0FBA3E0FCA3E0FD8B828C838DF0121E35D006D007C007C092
:2007FA0006C006C00774CDC0E0742DC0E07480C0E012222EE58124FBF581D006D0070EBEC0
:20081A00008B0F808874E4C0E0742DC0E07480C0E012222E15811581158102079A900024D4
:20083A00E0FEA3E0FF1EBEFF011FC006C00774FAC0E0742DC0E07480C0E012222EE58124E7
:20085A00FBF58190000312040BAE82AF83C3E49E74808FF063F08095F050C2900024E0FC45
:20087A00A3E0FDC3EE9CEF64808DF063F08095F050AB90152FEEF0EFA3F090000CC007C097
:20089A00061221C0AC82AD83D006D007EC2426FCED3400FD8C828D83A3A3E0F514A3E0F525
:2008BA0015A3E0F51674082CF582E43DF583E0FCA3E0FDE4F510F511C004C005900024E05B
:2008DA00F512A3E0F513E51224FFF8E51334FFFDC3E51098E51164808DF063F08095F0D063
:2008FA0005D00440030209B0C3E5109EE51164808FF063F08095F050030209A5C004C00574
:20091A0090152F74012510F0E43511A3F090000CC007C006C0041221C0A882AD83D004E89C
:20093A002426F582ED3400F583E510F0E511A3F090152FE510F0E511A3F090000CC005C072
:20095A00001221C0AB82AC83D000D005EB2426FBEC3400FC7A00E82426F8ED3400FD9015D6
:20097A001EE8F0EDA3F0E4A3F0901521740CF0E4A3F08B828C838AF0C005C004121F8CD017
:20099A0004D005D006D007D005D0040510E4B5100205110208D2E51224FFFAE51334FFFB22
:2009BA00900024EAF0EBA3F090001EE0FAA3E0FBEAC39CFCEB9DFD90001EECF0EDA3F0AB8C
:2009DA0014AC15AD168B828C838DF0C007C006121E35D006D007C006C0077433C0E0742EB7
:2009FA00C0E07480C0E012222EE58124FBF581900000227457C0E0742EC0E07480C0E01247
:200A1A00222E1581158115817497C0E0742EC0E07480C0E012222E15811581158174CEC003
:200A3A00E0742EC0E07480C0E012222E1581158115817400C0E0742FC0E07480C0E01222A3
:200A5A002E158115811581741AC0E0742FC0E07480C0E012222E158115811581743AC0E015
:200A7A00742FC0E07480C0E012222E1581158115817458C0E0742FC0E07480C0E012222EBC
:200A9A00158115811581747EC0E0742FC0E07480C0E012222E1581158115812290001EE03D
:200ABA00FEA3E0FF90001CE0FCA3E0FDEEB50407EFB50503020C117499C0E0742FC0E074B7
:200ADA0080C0E012222E15811581158190000312040BAE82AF83C3EE941EEF648094804018
:200AFA00D6742C9E74818FF063F08095F040C88E828F83C007C006122057AC82AD83D00688
:200B1A00D0077B00900154ECF0EDA3F0EBA3F0EC4D701874BCC0E0742FC0E07480C0E01230
:200B3A00222E158115811581020C0DC007C00674DAC0E0742FC0E07480C0E012222E158124
:200B5A0015811581D006D00790001EE0FCA3E0FDEE2CFCEF3DFD90001EECF0EDA3F09001BE
:200B7A005AEEF0EFA3F0900024E0FCA3E0FD900152ECF0EDA3F0900154E0FBA3E0FCA3E090
:200B9A00FDEE2BFEEF3CFF8D02900157EEF0EFA3F0EAA3F090015CE4F0A3F0900024E0FEC3
:200BBA00A3E0FF90152FEEF0EFA3F090000C1221C0AE82AF83EE2426FEEF3400FF7D00900F
:200BDA00151E7452F07401A3F0E4A3F0901521740CF0E4A3F08E828F838DF0121F8C9000FA
:200BFA0024E0FEA3E0FF0EBE00010F900024EEF0EFA3F0900000227400C0E07430C0E074E9
:200C1A0080C0E012222E15811581158190000022742EC0E07430C0E07480C0E012222E1533
:200C3A00811581158190000412040BAE82AF83C3EE9430EF6480948040D674C09E74928FFD
:200C5A00F063F08095F040C88E828F83C007C006122057AC82AD83D006D0077B009001607B
:200C7A00ECF0EDA3F0EBA3F08E828F83C007C006122057AC82AD83D006D0077B0090016CC5
:200C9A00ECF0EDA3F0EBA3F0900160E0FBA3E0FCA3E0EB4C600F90016CE0FBA3E0FCA3E012
:200CBA00FDEB4C7060745BC0E07430C0E07480C0E012222E158115811581900160E0FBA33C
:200CDA00E0FCA3E0EB4C6014900160E0FBA3E0FCA3E0FD8B828C838DF0121E3590016CE04A
:200CFA00FBA3E0FCA3E0FDEB4C7003020C2A90016CE0FBA3E0FCA3E0FD8B828C838DF0127C
:200D1A001E35020C2AC007C0067490C0E07430C0E07480C0E012222E158115811581D0062B
:200D3A00D007EE2EFCEF33FD90001EECF0EDA3F090001C7484F07413A3F09000247402F0B9
:200D5A00E4A3F0900166EEF0EFA3F0900172EEF0EFA3F090015EE4F0A3F090016A04F0E41F
:200D7A00A3F090016CE0FBA3E0FCA3E0FDEE2BFBEF3CFC90016FEBF0ECA3F0EDA3F0900149
:200D9A0060E0FBA3E0FCA3E0FDEE2BFEEF3CFF8D02900163EEF0EFA3F0EAA3F0900168E481
:200DBA00F0A3F0900174F0A3F090151E745EF07401A3F0E4A3F0901521740CF0E4A3F090CD
:200DDA00002675F000121F8C90151E746AF07401A3F0E4A3F0901521740CF0E4A3F0900064
:200DFA003275F000021F8C120A0D12075EAE82AF83C374609E74808FF063F08095F0400350
:200E1A00020EA9C3EE947BEF648094804003020EA9900030E0FCA3E0FD90002EE0FAA3E025
:200E3A00FBC3EC9AED64808BF063F08095F05032900028E0F9A3E0FAA3E0FBEC29F9ED3A6D
:200E5A00FA8E0589828A838BF0ED122000900030E0FCA3E0FD0CBC00010D900030ECF0EDBE
:200E7A00A3F0900020E0FCA3E0FD0CBC00010D900020ECF0EDA3F0900022E0FCA3E0FD0CBD
:200E9A00BC00010D900022ECF0EDA3F0020E04BE3F1FBF001C12118212123D120F2B900073
:200EBA0020E4F0A3F0900022F0A3F0120A0D020E04BE3D0CBF000912103B120A0D020E04B6
:200EDA00BE400CBF00091207A3120A0D020E04BE2B0CBF0009120AB6120A0D020E04BE2D76
:200EFA000CBF0009120837120A0D020E04BE4D09BF00061200B5020E04900020E0FEA3E0B1
:200F1A00FF0EBE00010F900020EEF0EFA3F0020E049001767440F0E4A3F0900030E0FEA355
:200F3A00E0FFC3E49E74808FF063F08095F0400302102574BFC0E07430C0E07480C0E01271
:200F5A00222E1581158115817E007F00900030E0FCA3E0FDC3EE9CEF64808DF063F0809547
:200F7A00F04003021008900176E0FCA3E0FDBC4020BD001DC007C00674EDC0E07430C0E0DF
:200F9A007480C0E012222E158115811581D006D007900028E0FBA3E0FCA3E0FDEE2BFBEF3D
:200FBA003CFC8B828C838DF0122C4DFB7D008B828D83C007C00612073FD006D0079001768D
:200FDA00E024FFFCA3E034FFFD900176ECF0EDA3F0900176E0F5F0A3E045F07009900176DE
:200FFA007440F0E4A3F00EBE00010F020F66900030E4F0A3F074F0C0E07430C0E07480C046
:20101A00E012222E1581158115812274F4C0E07430C0E07480C0E012222E1581158115818C
:20103A0022900030E0FEA3E0FFC3E49E74808FF063F08095F0400302116C740BC0E07431BE
:20105A00C0E07480C0E012222E158115811581744EC0E07431C0E07480C0E012222E1581EB
:20107A00158115819001787410F0E4A3F07E007F00900030E0FCA3E0FDC3EE9CEF64808D70
:20109A00F063F08095F04003021156900178E0FCA3E0FDBC1037BD0034900028E0FBA3E0D3
:2010BA00FCA3E0FDEE2BFBEF3CFCC007C006C003C004C005748DC0E07431C0E07480C0E00C
:2010DA0012222EE58124FAF581D006D007900028E0FBA3E0FCA3E0FDEE2BFBEF3CFC8B8213
:2010FA008C838DF0122C4DFB7D00C007C006C003C0057494C0E07431C0E07480C0E012227D
:20111A002EE58124FBF581D006D007900178E024FFFCA3E034FFFD900178ECF0EDA3F0902F
:20113A000178E0F5F0A3E045F070099001787410F0E4A3F00EBE00010F02108B74F0C0E0B5
:20115A007430C0E07480C0E012222E158115811581227498C0E07431C0E07480C0E012229E
:20117A002E1581158115812274ADC0E07431C0E07480C0E012222E15811581158190001CD9
:20119A00E0FEA3E0FFC006C00774D9C0E07431C0E07480C0E012222EE58124FBF581900095
:2011BA001EE0FEA3E0FFC006C00774F0C0E07431C0E07480C0E012222EE58124FBF5819040
:2011DA000020E0FEA3E0FFC006C007740BC0E07432C0E07480C0E012222EE58124FBF58192
:2011FA00900022E0FEA3E0FFC006C007741CC0E07432C0E07480C0E012222EE58124FBF550
:20121A0081900024E0FEA3E0FFC006C0077431C0E07432C0E07480C0E012222EE58124FB8C
:20123A00F581227E007F00900024E0FCA3E0FDC3EE9CEF64808DF063F08095F040030213A2
:20125A0091C007C006C006C0077446C0E07432C0E07480C0E012222EE58124FBF581D00662
:20127A00D00790152FEEF0EFA3F090000CC007C0061221C0AC82AD83EC2426F582ED340001
:20129A00F583E0FAA3E0FBC005C004C002C0037471C0E07432C0E07480C0E012222EE5812F
:2012BA0024FBF581D004D005EC2426FCED3400FD8C828D83A3A3E0F9A3E0FAA3E0FBC00589
:2012DA00C004C001C002C0037480C0E07432C0E07480C0E012222EE58124FAF581D004D07C
:2012FA00058C828D83A3A3A3A3A3E0F9A3E0FAA3E0FBC005C004C001C002C0037493C0E038
:20131A007432C0E07480C0E012222EE58124FAF581D004D00574082CF582E43DF583E0FA42
:20133A00A3E0FBC005C004C002C00374A4C0E07432C0E07480C0E012222EE58124FBF58118
:20135A00D004D005740A2CF582E43DF583E0FCA3E0FDC004C00574B6C0E07432C0E0748027
:20137A00C0E012222EE58124FBF581D006D0070EBE00010F02124174C7C0E07432C0E074E3
:0D139A0080C0E012222E15811581158122E0
:202DCD00427566666572202564204672656564202E2E2E2E0A0D004C6574277320626567E1
:202DED00696E20616761696E2E2E0A0D000A0D476976652056616C69642042756666657230
:202E0D00204E756D62657220746F2064656C65746528312D25642920696E203320646967B0
:202E2D006974730A0D00427566666572202564205375636365737366756C6C792044656CC1
:202E4D00657465642E2E200A0D000A0A0D5E5E5E5E5E5E5E5E5E5E5E5E5E5E5E5E5E5E5E15
:202E6D002D484541502D4D454E552D5E5E5E5E5E5E5E5E5E5E5E5E5E5E5E5E5E5E5E5E5EB5
:202E8D005E5E5E5E5E200A0A0D00596F752063616E20656E746572206368617261637465E6
:202EAD007273206F722075736520636F6D6D616E64732066726F6D2062656C6F77200A0DFC
:202ECD0000273F27202D3E2053686F772068656170207374617475732C2064756D70202642
:202EED0020636C656172204275666665722030200A0D00272B27202D3E20416464206120CF
:202F0D006E6577204275666665720A0D00272D27202D3E2044656C65746520657869737403
:202F2D00696E67204275666665720A0D00273D27202D3E2044756D7020427566666572204F
:202F4D003020696E206865780A0D00274027202D3E204672656520616C6C204865617020EF
:202F6D002620626567696E20616761696E0A0A0D00274D27202D3E20476F20746F204D61EB
:202F8D00696E204D656E75200A0A0D000A0D476976652056616C696420427566666572200B
:202FAD0053697A65283033302D333030293A004661696C65642C206769766520736D616C82
:202FCD006C6572206275666665720A0D000A0A0D23232323535543434553532C2042554601
:202FED004645522043726561746564232323230A0A0D004E6F2048656170204D656D6F72E7
:20300D0079204C6566742C2044656C65746520736F6D6520627566666572732E2E2E0A0D5E
:20302D00000A0D476976652056616C696420496E697469616C204275666665722053697A17
:20304D006528303034382D34383030293A000A0D232323234641494C2C20506C6561736549
:20306D002067697665206120736D616C6C6572206275666665722073697A65232323230ADC
:20308D000A0D000A0A0D23232323535543434553532C20494E495449414C20425546464568
:2030AD0052532043726561746564232323230A0A0D000A0A0D2A2A2A2A2A2A2A2A2A2A2AEA
:2030CD004275666665722D302D436F6E74656E74732A2A2A2A2A2A2A2A2A2A2A200A0D00AC
:2030ED000A0D000A0A0D004275666665723020697320456D7074792E2E2E2E0A0D000A0DF0
:20310D002D2D2D2D2D2D2D2D2D2D2D2D2D2D2D2D2D2D2D2D2D2D2D2D2D48455844554D5022
:20312D002D2D2D2D2D2D2D2D2D2D2D2D2D2D2D2D2D2D2D2D2D2D2D2D2D2D2D2D2D2D2D2DE2
:20314D00000A0D20202020414444523A202B30202B31202B32202B33202B34202B35202B3A
:20316D0036202B37202B38202B39202B41202B42202B43202B44202B45202B46200A0D00F5
:20318D000A0D25703A20002578200042756666657220697320656D7074792E2E2E0A0D0019
:2031AD000A0D2A2A2A2A2A2A2A2A2A2A2A2A2A2A2A2A484541502A53544154532A2A2A2ACC
:2031CD002A2A2A2A2A2A2A2A2A0A0D00546F74616C20486561702053697A653A20256420F1
:2031ED000A0D00416C6C6F636174656420486561702053697A653A202564200A0D00416C02
:20320D006C2043686172733A202564200A0D0053746F726167652043686172733A20256441
:20322D00200A0D00546F74616C20427566666572733A202564200A0D002A2A2A2A2A2A2A19
:20324D002A2A2A2A2A2A2A2A2A4255464645522A25642A2A2A2A2A2A2A2A2A2A2A2A2A2A2E
:20326D002A0A0D00427566666572233A202564200A0D0042756666657253746172743A20A7
:20328D002570200A0D00427566666572456E643A202570200A0D0042756666657253697A2E
:2032AD00653A202564200A0D00546F74616C557365643A202564200A0D002A2A2A2A2A2AD7
:2032CD002A2A2A2A2A2A2A2A2A2A2A2A2A2A2A2A2A2A2A2A2A2A2A2A2A2A2A2A2A2A2A2AA1
:0432ED002A0A0D009C
:2013A70074F1C0E07432C0E07480C0E012222E15811581158112163B740CC0E07433C0E059
:2013C7007480C0E012222E15811581158112075EAE82AF83BE4609BF0006121467021442BE
:2013E700BE5308BF00051214828050BE4808BF00051214B38045BE5008BF00051214D780CA
:201407003ABE5708BF00051214FB802FBE4908BF000512159F8024BE4408BF00051215D4D4
:201427008019BE4C08BF0005121609800EBE5505BF000280030213BF121556742AC0E07418
:2014470033C0E07480C0E012222E15811581158112075EAE82AF83BE45E1BF00DE0213A7E4
:201467007449C0E07433C0E07480C0E012222E15811581158175DA21D2DE22748AC0E074B5
:2014870033C0E07480C0E012222E15811581158175EDFF75FDFF75DD49D2DE12075EAE82F6
:2014A700AF83BE53F6BF00F375DD002274AAC0E07433C0E07480C0E012222E15811581158A
:2014C7008175ECFF75FC0275DC4D75D902D2DE2274D3C0E07433C0E07480C0E012222E15B8
:2014E700811581158175EDC075FDC075DD4275D902D2DE2275EBFF75FB8075DB4990156938
:201507007401F0E4A3F07403C0E07434C0E07480C0E012222E15811581158175EEFF75FEFC
:20152700FF75D94075DE48D2DE741FC0E07434C0E07480C0E012222E158115811581120780
:201547005EAE82AF83BE53F6BF00F375DB002275ECFF75FCFF75DC49746FC0E07434C0E064
:201567007480C0E012222E15811581158175A707D2DE7494C0E07434C0E07480C0E0122221
:201587002E15811581158112075EAE82AF83BE53F6BF00F375DC00221214D77405C0E074C5
:2015A70035C0E07480C0E012222E158115811581D2A87587017438C0E07435C0E07480C0D7
:2015C700E012222E1581158115810200B51214D7746CC0E07435C0E07480C0E012222E1578
:2015E7008115811581D2A87587027438C0E07435C0E07480C0E012222E1581158115810270
:2016070000B574A5C0E07435C0E07480C0E012222E15811581158174E7C0E07435C0E0749C
:2016270080C0E012222E158115811581D2A87597000200B57410C0E07436C0E07480C0E020
:2016470012222E158115811581744FC0E07436C0E07480C0E012222E158115811581747214
:20166700C0E07436C0E07480C0E012222E158115811581748FC0E07436C0E07480C0E0122E
:20168700222E15811581158174AFC0E07436C0E07480C0E012222E15811581158174C2C076
:2016A700E07436C0E07480C0E012222E15811581158174DFC0E07436C0E07480C0E012223C
:2016C7002E15811581158174FBC0E07436C0E07480C0E012222E1581158115817429C0E0C5
:2016E7007437C0E07480C0E012222E158115811581744AC0E07437C0E07480C0E012222E41
:0717070015811581158122F7
:2032F10048656C6C6F2C20496E205043412044656D6F206D6F6465200A0D00506C6561733C
:2033110065206D616B6520612076616C69642063686F696365200A0D00506C65617365208C
:2033310027452720746F2065786974206F72205265736574200A0D0053657474696E6720B3
:2033510050312E332061732066616C6C696E672065646765206465746563746F722C2065A9
:203371006E61626C696E672050434120696E74657272757074200A0D00456E746572696E54
:203391006720536F6674776172652054696D6572204D6F6465200A0D00456E746572696E78
:2033B10067204869676820537065656420546F67676C65204D6F64652C2050312E35200A63
:2033D1000D00456E746572696E672050574D204D6F64652C2032352070657263656E7420F6
:2033F10044757479204379636C652050312E360A0D00456E61626C696E67205761746368B3
:20341100646F672054696D65722E2E0A0D0043757272656E746C79205761746368646F67B4
:20343100206973206265696E672073657276696365640A0D50726573732027532720746FFD
:203451002073746F7020616E642067656E65726174652061207265736574200A0D00456E09
:2034710061626C696E67204861726477617265205761746368646F672054696D65722E2EB2
:203491000A0D0043757272656E746C79204861726477617265205761746368646F67206914
:2034B10073206265696E672073657276696365640A0D50726573732027532720746F207373
:2034D100746F70207761746368646F67207365727669636520616E642067656E65726174AD
:2034F10065206120726573657420696E207E3173200A0D00456E746572696E672049646CAD
:20351100652C2057696C6C2045786974206F6E2065787465726E616C20696E7465727275EE
:20353100707420300A0D00576F6B652075702066726F6D2049646C652F506F776572206462
:203551006F776E2C20676F696E6720746F206D61696E206D656E75200A0D00456E746572D4
:20357100696E6720706F77657220646F776E2C2057696C6C2045786974206F6E20657874CB
:2035910065726E616C20696E7465727275707420300A0D004368616E67696E6720436C6F37
:2035B100636B207072657363616C617220746F20676F20746F206C6F776573742066726538
:2035D1007175656E637920696E205832204D6F64652E2E0A0D005468697320554152542078
:2035F10053657373696F6E2077696C6C2073746F7020776F726B696E672E2E2E0A0D000A4C
:203611000A0D5E5E5E5E5E5E5E5E5E5E5E5E5E5E5E5E5E5E5E2D5043412D4D454E552D5E9A
:203631005E5E5E5E5E5E5E5E5E5E5E5E5E5E5E5E5E5E5E5E5E5E5E5E5E200A0A0D0027469D
:2036510027202D3E2046616C6C696E6720456467652043617074757265204D6F64650A0D85
:2036710000275327202D3E20536F6674776172652054696D6572204D6F64650A0D00274856
:2036910027202D3E2048696768205370656564204F7574707574204D6F64650A0D002750D2
:2036B10027202D3E2050574D204D6F6465200A0D00275727202D3E205761746368646F67D6
:2036D1002054696D6572204D6F64650A0D00274927202D3E2049646C65204D6F6465207700
:2036F1006974682050574D0A0D00274C27202D3E204368616E6765205072657363616C6173
:203711007220746F206C6F77657374206672657175656E63790A0D00275527202D3E2048C6
:2037310061726477617265205761746368646F672054696D65720A0D00274427202D3E20CC
:13375100506F77657220446F776E204D6F64650A0A0D00DA
:023C4B00000077
:20170E007464C0E07437C0E07480C0E012222E158115811581121BC17483C0E07437C0E070
:20172E007480C0E012222E15811581158112075EAE82AF83BE5208BF00051217B1803FBED7
:20174E005708BF00051218588034BE4408BF00051218EE8029BE4208BF0005121AA4801E59
:20176E00BE46B5BF00B212033474A0C0E07437C0E07480C0E012222E15811581158174C2FB
:20178E00C0E07437C0E07480C0E012222E15811581158112075EAE82AF83BE45E1BF00DE3E
:2017AE0002170E74E7C0E07437C0E07480C0E012222E15811581158190000312055AAE82C2
:2017CE00E583FF20E7DDC374FF9E74878FF063F08095F040CE740F5FFCFD7F00C006C00418
:2017EE00C005C0077426C0E07438C0E07480C0E012222EE58124FBF581D004D0068E057F1C
:20180E0000C006C004C005C0077438C0E07438C0E07480C0E012222EE58124FBF581D00447
:20182E00D006900005EEF08C8212039EAF827E00C007C006744BC0E07438C0E07480C0E015
:20184E0012222EE58124FBF581227475C0E07438C0E07480C0E012222E15811581158190DE
:20186E00000312055AAE82E583FF20E7DDC374FF9E74878FF063F08095F040CE7C00740FB8
:20188E005FFDC006C00574B0C0E07438C0E07480C0E012222E1581158115819000021205E2
:2018AE005AAC82AF83D005D006EF20E7D58C03900002EEF0900003EBF08D82C007C00412D1
:2018CE000345D004D007C004C00774E5C0E07438C0E07480C0E012222EE58124FBF5812224
:2018EE007425C0E07439C0E07480C0E012222E15811581158190000312055AAE82E583FF01
:20190E0020E7DDC374FF9E74878FF063F08095F040CEC007C006C006C007745DC0E07439E9
:20192E00C0E07480C0E012222EE58124FBF58190000312055AAC82AD83D006D007C3EC9EAC
:20194E00ED64808FF063F08095F040C674FF9C74878DF063F08095F040B8ECC39EFAED9F21
:20196E00FB74052AF517E43BF518851782851883C007C006C005C004C003C002122057A879
:20198E0082A983D002D003D004D005D006D007C004C0057D0090017CE8F0E9A3F0EDA3F0A9
:2019AE00900182E517F0E518A3F090017AE4F0A3F0EA28FAEB39FB8D0474052AFAE43BFBA5
:2019CE0090017FEAF0EBA3F0ECA3F0900184F0A3F0C007C006C005C0047492C0E07439C051
:2019EE00E07480C0E012222E158115811581D004D005D006D0078E178F18D005D004C3EC47
:201A0E009517ED64808518F063F08095F0406CC004C005740F5518FA900005E517F08A82AA
:201A2E00C007C006C005C00412039EAB82D004D005D006D00790017CE0F8A3E0F9A3E0FA6E
:201A4E00900184E0FCA3E0FDEC28F8ED39F9888289838AF0EB122000900184E0FCA3E0FDBE
:201A6E000CBC00010D900184ECF0EDA3F00517E4B517020518D005D00480838E828F831246
:201A8E001C4090017CE0FDA3E0FEA3E0FF8D828E838FF0021E357425C0E07439C0E0748081
:201AAE00C0E012222E15811581158190000312055AAE82E583FF20E7DDC374FF9E74878F77
:201ACE00F063F08095F040CEC007C006C006C007745DC0E07439C0E07480C0E012222EE5EF
:201AEE008124FBF58190000312055AAC82AD83D006D007C3EC9EED64808FF063F08095F0BE
:201B0E0040C674FF9C74878DF063F08095F040B8C007C006C005C00474A6C0E07439C0E0BD
:201B2E007480C0E012222E15811581158190000212055AAA82AB83C003C00274E0C0E07495
:201B4E0039C0E07480C0E012222E158115811581D002D003D004D005D006D007C3EC9EEDB1
:201B6E0064808FF063F08095F04032740F5FF8900002EEF0900003EAF08882C007C006C01C
:201B8E0005C004C003C002120345D002D003D004D005D006D0070EBE00C20F80BF74F4C090
:201BAE00E07439C0E07480C0E012222E15811581158122740EC0E0743AC0E07480C0E012FA
:201BCE00222E1581158115817450C0E0743AC0E07480C0E012222E158115811581746AC0DD
:201BEE00E0743AC0E07480C0E012222E1581158115817485C0E0743AC0E07480C0E0122242
:201C0E002E1581158115817496C0E0743AC0E07480C0E012222E15811581158174AAC0E058
:201C2E00743AC0E07480C0E012222E15811581158122AF83E582900186F0EFA3F074C1C057
:201C4E00E0743AC0E07480C0E012222E1581158115817404C0E0743BC0E07480C0E0122261
:201C6E002E1581158115819001887410F0E4A3F0900186E0FEA3E0FF7C007D00900184E0FD
:201C8E00FAA3E0FBC3EC9AED64808BF063F08095F04003021D58900188E0FAA3E0FBBA10DC
:201CAE0032BB002FEC2EFAED3FFBC007C006C005C004C002C0037440C0E0743BC0E074808D
:201CCE00C0E012222EE58124FBF581D004D005D006D00790017CE0F9A3E0FAA3E0FBEC29AD
:201CEE00F9ED3AFA89828A838BF0122C4DF97B00C007C006C005C004C001C003744BC0E031
:201D0E00743BC0E07480C0E012222EE58124FBF581D004D005D006D007900188E024FFFA09
:201D2E00A3E034FFFB900188EAF0EBA3F0900188E0F5F0A3E045F070099001887410F0E4F3
:201D4E00A3F00CBC00010D021C8A7451C0E0743BC0E07480C0E012222E15811581158122D6
:20376400200A0D2048656C6C6F2C20496E20454550524F4D2044656D6F206D6F6465005055
:203784006C65617365206D616B6520612076616C69642063686F6963650A0D000A0D493278
:2037A4004320526573657420686173206265656E20706572666F726D6564200A0D000A0D57
:2037C400506C656173652027452720746F20676F20746F20454550524F4D204D656E75201F
:2037E4000A0D000A0D20506C65617365206769766520612076616C6964206164647265730E
:203804007320746F20726561642066726F6D20283078303030202D20307837464629200AF3
:203824000D00426C6F636B206973206973202578200A0D004164647265737320697320308E
:20384400782558200A0D000A0D205468652076616C7565206174207468652061646472652D
:203864007373206973202D3E2030782558200A0D00506C656173652067697665206120761F
:20388400616C6964206164647265737320746F20777269746520746F202830783030302093
:2038A4002D20307837464629200A0D000A0D506C65617365206769766520612076616C6963
:2038C40064206461746120746F207772697465202830783030202D203078464629200A0D27
:2038E400000A0D546865206461746120686173206265656E207375636365737366756C6CF0
:2039040079207772697474656E2061742074686520616464726573732030782558200A0D25
:2039240000506C65617365206769766520612076616C6964207374617274696E672061643C
:20394400647265737320283078303030202D20307837464629200A0D00506C656173652010
:203964006769766520612076616C696420656E64696E672061646472657373202830782537
:2039840058202D20307837464629200A0D0052656164696E6720454550524F4D2E2E2E0A5D
:2039A4000D000A0D506C65617365206769766520612076616C6964206461746120666F72E8
:2039C40020626C6F636B66696C6C202830783030202D203078464629200A0D00577269741A
:2039E400696E6720454550524F4D2E2E2E0A0D000A0D426C6F636B66696C6C2066696E698D
:203A0400736865642E2E2E0A0D000A0A0D5E5E5E5E5E5E5E5E5E5E5E5E5E5E5E5E5E5E5E42
:203A24002D454550524F4D2D4D454E552D5E5E5E5E5E5E5E5E5E5E5E5E5E5E5E5E5E5E5E04
:203A44005E5E5E5E5E5E5E200A0A0D00275227202D3E20526561642052616E646F6D2042E5
:203A64007974650A0D00275727202D3E2057726974652052616E646F6D20427974650A0D32
:203A840000274427202D3E2048657864756D700A0D00274227202D3E20426C6F636B204667
:203AA400696C6C0A0D00274627202D3E20526573657420454550524F4D200A0D000A0D2D05
:203AC4002D2D2D2D2D2D2D2D2D2D2D2D2D2D2D2D2D2D2D2D2D2D2D2D48455844554D502D62
:203AE4002D2D2D2D2D2D2D2D2D2D2D2D2D2D2D2D2D2D2D2D2D2D2D2D2D2D2D2D2D2D2D004F
:203B04000A0D20414444523A202B30202B31202B32202B33202B34202B35202B36202B3721
:203B2400202B38202B39202B41202B42202B43202B44202B45202B46200A0D000A0D30782D
:113B4400253033583A20002530325820000A0A0D0016
:201D6E007455C0E0743BC0E07480C0E012222E15811581158190000312040BAE82C00674C7
:201D8E006EC0E0743BC0E07480C0E012222E15811581158190000312040BAD82C00574877D
:201DAE00C0E0743BC0E07480C0E012222E15811581158190000312040BAC82D005D0069051
:201DCE00002BEDF090002CECF08E821203E8AF827E00C007C00674A0C0E0743BC0E0748015
:201DEE00C0E012222EE58124FBF58174CFC0E0743BC0E07480C0E012222E158115811581EE
:201E0E000200B5E58290018AF0E0FF7E00C007C00674EFC0E0743BC0E07480C0E012222E59
:071E2E00E58124FBF5812290
:203B55000A0D204769766520706172616D20312C2038626974200A0D000A0D204769766550
:203B750020706172616D20322C2038626974200A0D000A0D204769766520706172616D20A0
:203B9500332C2038626974200A0D000A0D20524553554C542D3E20706172616D333C4D6F06
:203BB500643E706172616D32202A20706172616D31203D202564200A0D000A0D20476F69CC
:203BD5006E67206261636B20746F206D61696E206D656E752E2E200A0D000A0A0D2054681D
:203BF50069732066756E6374696F6E207761732063616C6C65642066726F6D2061737365BE
:203C15006D626C792C206368617261637465722073656E742066726F6D20746865726520DC
:083C35002D3E2025630A0D005D
:023C3D008A13E8
:201E3500AFF0AE83E582901515F0EEA3F0EFA3F0901515E0FDA3E0FEA3E0901515E0F5F08F
:201E5500A3E045F070012290151AE4F0A3F0901527E0FBA3E0FC901518EBF0ECA3F090151A
:201E75001C7427F07415A3F0901518E0FBA3E0FC4B60418B018C02C003C0048D008E04C304
:201E9500E998EA9CD004D003502A90151AEBF0ECA3F074022BFBE43CFC90151CEBF0ECA309
:201EB500F08B828C83E0FBA3E0FC901518EBF0ECA3F080B4901518E0FEA3E0FF901515E0A5
:201ED500FBA3E0FCA3E0EB24FEFBEC34FFFC74022BFAE43CFD8A828D83EEF0EFA3F09015F4
:201EF5001CE0F8A3E0F988828983EBF0ECA3F08B828C83E0F8A3E0F9EEB50033EFB5012FD3
:201F150088828983A3A3E0FEA3E0FF8A828D83EEF0EFA3F08B828C83E0FEA3E0FF8E828F59
:201F350083E0FEA3E0FF8B828C83EEF0EFA3F090151AE0FEA3E0FF4E603C8E828F83E0F82A
:201F5500A3E0F9E8B5032FE9B5042B8B828C83E0FBA3E0FC8E828F83EBF0ECA3F074022EBE
:171F7500FEE43FFF8A828D83E0FAA3E0FD8E828F83EAF0EDA3F02221
:06006800E478FFF6D8FD6C
:201F8C00AFF0AE83E582901523F0EEA3F0EFA3F0901523E0F52BA3E0F52CA3E0F52DAA2B5D
:201FAC00AB2CAC2D90151EE0F8A3E0F9A3E0FF901521E0F52EA3E0F52FAD2EAE2F152E74ED
:201FCC00FFB52E02152FED4E6020888289838FF0122C4DFEA3A882A9838A828B838CF0EE77
:141FEC00122000A3AA82AB8380CF852B82852C83852DF02239
:200046007903E94400601B7A01903C4A786875A015E493F2A308B8000205A0D9F4DAF2755A
:02006600A0FFF9
:1B20000020F71130F6138883A88220F509F6A8837583002280FEF280F5F022DF
:20201B00901527748BF07401A3F0903C3DE493FE740193FF1EBEFF011FEE248BFEEF3401A3
:20203B00FF90018BEEF0EFA3F0901527E0FEA3E0FF8E828F83A3A3E4F0A3F022AF83E58254
:20205B00901529F0EFA3F0901527E0F5F0A3E045F0700312201B901529E0FEA3E0FF4E6040
:20207B000E74022EFCE43FFDC3EC9EED9F50049000002290152974022EF0E43FA3F09015DB
:20209B0029E0FEA3E0FFC3EE9404EF940050099015297404F0E4A3F0901527E0FEA3E0FF9E
:2020BB0090152BEEF0EFA3F090152D7427F07415A3F090152BE0FEA3E0FF4E70030221BC8C
:2020DB008E828F83E0FCA3E0FD8C028D038E008F01EAC398FAEB99FB8A008B01901529E0A9
:2020FB00F519A3E0F51AC3E89519E9951A500302219974042519F8E4351AF9C3EA98EB9982
:20211B00404C8E028F03E5192AFAE51A3BFB8A828B83ECF0EDA3F074022AFCE43BFD8E8261
:20213B008F83A3A3E0F8A3E0F98C828D83E8F0E9A3F090152DE0FCA3E0FD8C828D83EAF040
:20215B00EBA3F08E828F83EAF0EBA3F0801C90152DE0FCA3E0FD8E828F83A3A3E0FAA3E0DD
:20217B00FB8C828D83EAF0EBA3F090152BE0FCA3E0FD74022CFCE43DFD8C828D8322740235
:20219B002EFEE43FFF90152DEEF0EFA3F08E828F83E0FEA3E0FF90152BEEF0EFA3F00220D0
:0521BB00CD90000022A0
:2021C000AA83AB828BF090152FE0A4F8A9F08AF0E0A429F98BF0A3E0A429F5838882222290
:20006E007800E84400600A790175A000E4F309D8FC7867E84415600C7916900001E4F0A3FE
:04008E00D8FCD9FAC7
:2021E000C01B85811B7E008E8312073FD01B22AFF0AE83E582901532F0EEA3F0EFA3F0905E
:202200001532E0FDA3E0FEA3E0FF901531E0FC901546E4F0A3F0A3F0901549EDF0EEA3F0B4
:20222000EFA3F090154CECF09021E0022334C01BE581F51B24FBFF901546E4F0A3F0A3F011
:20224000E51B24FBF8901549E6F008E6A3F008E6A3F090154CEFF09021E0122334D01B22CA
:20226000E582901542F0E0FF901538E0C0E0A3E0C0E0A3E0C0E012227B800D901536E0C0E7
:20228000E0A3E0C0E08F8222158115811581901540E02401F0A3E03400F022E58290154354
:2022A000F0E02430FF24C6500D74072FFF901535E060034307208F82022260E5829015449F
:2022C000F0E0FFC4540FF582C00712229BD00753070F8F8202229BE582901545F090153BCA
:2022E000E0FCA3E0FDA3E0FEA3E0FF90153FE0FB901545E0FA79208B00E828F52BEF235442
:2023000001452BFBEC2CFCED33FDEE33FEEF33FFC3EB9A4007EBC39AFB43040119E970D77D
:2023200090153BECF0EDA3F0EEA3F0EFA3F090153FEBF022AF83E58290154DF0EFA3F090F0
:20234000154DE0FEA3E0FF901536EEF0EFA3F0901546E0FDA3E0FEA3E0FF901538EDF0EE0D
:20236000A3F0EFA3F0901540E4F0A3F0901549E0FDA3E0FEA3E0FF8D828E838FF0122C4D04
:20238000FC90154974012DF0E43EA3F0EFA3F0EC7003022C29BC25028003022C2190154F2B
:2023A000E4F0901550F0901551F0901552F0901553F0901554F0901555F0901556F090154C
:2023C00058F0901559F0A3F090155B14F0A3F0901549E0FDA3E0FEA3E0FF8D828E838FF030
:2023E000122C4DFBA3AD82AE83901549EDF0EEA3F0EFA3F090155FEBF0BB25088B8212227E
:202400006002236CBB300050030224CDEB24C650030224CD90155BE0F521A3E0F52274FF7C
:20242000B52163B52260C005C006C007901559E0FAA3E0FF90152FEAF0EFA3F090000AC0F6
:2024400005C0031221C0AE82AF83D003D0058B027D00EA2EFEED3FFFEE24D0FEEF34FFFF6B
:20246000901559EEF0EFA3F0D007D006D005901559E0F5F0A3E045F060030223DA901550AA
:202480007401F00223DAC005C006C00790152FE521F0E522A3F090000AC006C005C0031228
:2024A00021C0AA82AF83D003D005D0067E00EB2AFAEE3FFFEA24D0FAEF34FFFF90155BEAC3
:2024C000F0EFA3F0D007D006D0050223DA90155FE0FBBB2E2FC005C006C00790155BE0FAE6
:2024E000A3E0FFBAFF05BFFF028009D007D006D0050223DAD007D006D00590155BE4F0A3D9
:20250000F00223DABB61004014EB2485400F90155F74DF5BF09015357401F0800590153539
:20252000E4F090155FE0FBBB20028075BB2B028067BB2D028059BB4202806FBB4302807C9A
:20254000BB44030227C4BB46030227EABB48030223DABB49030227C4BB4A030223DABB4C6E
:20256000028050BB4F030227D2BB5003022732BB53028077BB54030223DABB55030227DAEA
:20258000BB58030227E2BB5A030223DA0227F290154F7401F00223DA9015517401F0022310
:2025A000DA9015527401F00223DA9015547401F00223DA9015557401F00223DA901554E052
:2025C000600E90154CE014F9F090155FE7F0800F90154CE024FEFFF08F0190155FE7F09078
:2025E000155FE0F58212226002280190154CE024FDFFF08F01870509870609870719199065
:20260000153BEDF0EEA3F0EFA3F08D828E838FF0122C3585822185832290155BE0FAA3E0C9
:20262000FDBAFF0DBDFF0A90155BE521F0E522A3F090154FE0704B901559E0FAA3E0FDC3D7
:20264000E5219AE5229D503A901559EAC39521F0ED9522A3F0901559E0FAA3E0FD8A068DAF
:20266000071ABAFF011DEE4F6010758220C005C002122260D002D00580E3901559EAF0EDB4
:20268000A3F090155BE0F524A3E0F52590153BE0FAA3E0FDA3E0FF8A828D838FF0122C4D2F
:2026A000F523603CC3E4952474808525F063F08095F0502C152474FFB524021525852382B9
:2026C00012226090153BE0FAA3E0FDA3E0FF0ABA00010D90153BEAF0EDA3F0EFA3F080ACF0
:2026E00090154FE07003022801901559E0FEA3E0FFC3E5219EE5229F400302280190155991
:20270000EEC39521F0EF9522A3F0901559E0FEA3E0FF8E028F051EBEFF011FEA4D70030200
:2027200027F9758220C007C006122260D006D00780E090154CE024FDFDF08D01872609878A
:2027400027098728191990153BE526F0E527A3F0E528A3F090153DE0FDBD80004008901565
:202760005F7443F08020BD6000400890155F7450F08013BD4000400890155F7449F0800687
:2027800090155F7458F090155FE0FDF582C00512226075823A122260758230122260758251
:2027A00078122260D005BD4902800EBD5002800990153CE0F5821222BB90153BE0F582129A
:2027C00022BB803D9015537401F0901558740AF0802F9015587408F08027901558740AF06D
:2027E000801F9015587410F080179015567401F0800F8B821222608008901559EEF0EFA3AC
:20280000F0901556E0607190154CE024FCFFF08F0187030987050987060987071919199085
:20282000153BEBF0EDA3F0EEA3F0EFA3F090153B743FF0743CA3F07480A3F090153BE0F5E8
:2028400026A3E0F527A3E0F52874012526FAE43527FBAF2890153BEAF0EBA3F0EFA3F08508
:2028600026828527838528F0122C4DFF700302236C8F8212226080C3901558E070030223F9
:202880006C901554E0604790154CE014F9F087077E007D007B0090153BEFF0EEA3F0EDA3AA
:2028A000F0EBA3F0901553E0600302294490153BE0FBA3E0A3E0A3E07D007E007F0090159D
:2028C0003BEBF0EDA3F0EEA3F0EFA3F08076901555E0602890154CE024FCFFF08F0187030D
:2028E00009870509870609870719191990153BEBF0EDA3F0EEA3F0EFA3F0804890154CE0F4
:2029000024FEFFF08F01870609870719EF3395E0FDFB90153BEEF0EFA3F0EDA3F0EBA3F00C
:20292000901553E0701E90153BE0FBA3E0FDA3E0A3E07E007F0090153BEBF0EDA3F0EEA327
:20294000F0EFA3F0901553E0604190153BE0FBA3E0FDA3E0FEA3E0FF30E72B90153BE0FB51
:20296000A3E0FDA3E0FEA3E0FFC3E49BFBE49DFDE49EFEE49FFF90153BEBF0EDA3F0EEA34B
:20298000F0EFA3F08005901553E4F09015577401F0901558E0F524752965752A15E4F5216C
:2029A000F52290153FE4F08524821222D7901557E0702690153FE0C4F526852982852A839B
:2029C000E0FFE5264207852982852A83EFF0152974FFB52902152A800C90153FE0FF8529B6
:2029E00082852A83F00521E4B521020522901557E0B40100E433F090153BE0FAA3E0FBA3B7
:202A0000E0FEA3E0FFEA4B4E4F7097901566E529F0E52AA3F090155DE521F0E522A3F090B0
:202A20001559E0F5F0A3E045F070099015597401F0E4A3F0901550E0FFE0704790154FE019
:202A4000704185212985222A901559E0FAA3E0FBC007AF290F8F067F00C3EE9AEF9BD00761
:202A60005019758220C007C003C002122260D002D003D0071ABAFF011B80D5901559EAF05E
:202A8000EBA3F0901553E0602075822DC007122260D007901559E024FFFDA3E034FFFE90C8
:202AA0001559EDF0EEA3F0805690155DE0F5F0A3E045F0604A901551E0602075822BC0070C
:202AC000122260D007901559E024FFFDA3E034FFFE901559EDF0EEA3F08024901552E060A2
:202AE0001E758220C007122260D007901559E024FFFDA3E034FFFE901559EDF0EEA3F090D1
:202B0000154FE0704890155DE0F529A3E0F52A901559E0FAA3E0FBC0078A068B071ABAFF05
:202B2000011BC3E5299EE52A9FD0075053EF60067D307E0080047D207E008D82C007C0032A
:202B4000C002122260D002D003D00780CA901559E0FEA3E0FF90155DE0F529A3E0F52AC396
:202B6000E5299EE52A9F500F901559EEC39529F0EF952AA3F08011901559E4F0A3F0800880
:202B8000901559EAF0EBA3F0901566E0FEA3E0FF90155DE0F529A3E0F52AAA29AD2A1529EA
:202BA00074FFB52902152AEA4D6045901557E0B40100E433F0901557E070140EBE00010FD3
:202BC0008E828F83E0C4540FFD90153FF0800E8E828F83E0FD53050F90153FEDF090153F62
:202BE000E0F582C007C00612229BD006D00780AA90154FE0700302236C901559E0FEA3E014
:202C0000FF8E038F051EBEFF011FEB4D700302236C758220C007C006122260D006D00780F4
:152C2000E08C8212226002236C901540E0FEA3E08E82F583229C
:0B3C3F003C4E4F20464C4F41543E00CD
:182C3500AA82AB83122C4D6003A380F8C3E5829AF582E5839BF583224C
:0D00390075812F12028DE5826003020036F2
:1C2C4D0020F71430F6148883A88220F507E6A88375830022E280F7E49322E02296
:00000001FF
