:0600000002003902023289
:01000B0032C2
:0100130032BA
:01001B0032B2
:0100230032AA
:01002B0032A2
:0300330002018A3D
:0300920002003633
:0300360002009530
:1000950074E3C0E07424C0E07480C0E0121AA815AF
:1000A5008115811581758201121593C29102047B18
:1000B500758202121593120C42121273020E1F75ED
:1000C50082AA1215937403C0E07425C0E07480C041
:1000D500E0121AA815811581158112092B741EC00D
:1000E500E07425C0E07480C0E0121AA8158115815E
:1000F5001581121557AE82AF83BE4609BF000612A1
:1001050002A7020165BE5308BF00051202C2805056
:10011500BE4808BF00051202F38045BE5008BF0067
:1001250005120317803ABE5708BF000512033B802E
:100135002FBE4908BF00051203DF8024BE4408BF57
:1001450000051204148019BE4C08BF0005120449AD
:10015500800EBE5505BF000280030200E212039621
:10016500743CC0E07425C0E07480C0E0121AA81584
:100175008115811581121557AE82AF83BE45E1BF4A
:1001850000DE0200C4C020C0E0C0F0C082C083C051
:1001950007C006C005C004C003C002C001C000C03E
:1001A500D075D00830D82DAEFA7F00ACEA7D00C0FE
:1001B5000EC00FC00CC00D745BC0E07425C0E074A8
:1001C50080C0E075D000121AA875D008E58124F921
:1001D500F581C2D810D902800675F90075E90010BD
:1001E500DA02800C75F90075E90075A61E75A6E1A1
:1001F50010DB02801B7483C0E07425C0E07480C0EE
:10020500E075D000121AA875D008158115811581E1
:10021500D0D0D000D001D002D003D004D005D00674
:10022500D007D083D082D0F0D0E0D02032C020C01B
:10023500E0C0F0C082C083C007C006C005C004C0CE
:1002450003C002C001C000C0D075D008C2A8758720
:1002550080C2DE7597FFE4F5DAF5DBF5DCF5DDF553
:10026500DE7495C0E07425C0E07480C0E075D000F0
:10027500121AA875D00815811581158175D000123F
:10028500047B75D008D0D0D000D001D002D003D0E7
:1002950004D005D006D007D083D082D0F0D0E0D0EE
:1002A500203274ADC0E07425C0E07480C0E0121A3D
:1002B500A815811581158175DA21D2DE2274EEC06B
:1002C500E07425C0E07480C0E0121AA8158115817C
:1002D500158175EDFF75FDFF75DD49D2DE121557E8
:1002E500AE82AF83BE53F6BF00F375DD0022740EF8
:1002F500C0E07426C0E07480C0E0121AA81581150C
:1003050081158175ECFF75FC0275DC4D75D902D23E
:10031500DE227437C0E07426C0E07480C0E0121A93
:10032500A815811581158175EDC075FDC075DD4276
:1003350075D902D2DE2275EBFF75FB8075DB49901E
:10034500154E7401F0E4A3F07467C0E07426C0E0B4
:100355007480C0E0121AA815811581158175EEFF0C
:1003650075FEFF75D94075DE48D2DE7483C0E07432
:1003750026C0E07480C0E0121AA815811581158188
:10038500121557AE82AF83BE53F6BF00F375DB007F
:100395002275ECFF75FCFF75DC4974D3C0E074264B
:1003A500C0E07480C0E0121AA81581158115817509
:1003B500A707D2DE74F8C0E07426C0E07480C0E000
:1003C500121AA8158115811581121557AE82AF83B2
:1003D500BE53F6BF00F375DC00221203177469C023
:1003E500E07427C0E07480C0E0121AA81581158159
:1003F5001581D2A8758701749CC0E07427C0E0748C
:1004050080C0E0121AA815811581158102047B129E
:10041500031774D0C0E07427C0E07480C0E0121ADE
:10042500A8158115811581D2A8758702749CC0E035
:100435007427C0E07480C0E0121AA81581158115D3
:100445008102047B7409C0E07428C0E07480C0E0B8
:10045500121AA8158115811581744BC0E07428C046
:10046500E07480C0E0121AA8158115811581D2A803
:1004750075970002047B7474C0E07428C0E0748032
:10048500C0E0121AA815811581158174AFC0E074FA
:1004950028C0E07480C0E0121AA815811581158165
:1004A50074CEC0E07428C0E07480C0E0121AA815AC
:1004B500811581158174ECC0E07428C0E07480C09A
:1004C500E0121AA81581158115817405C0E07429FB
:1004D500C0E07480C0E0121AA815811581158174D9
:1004E5001EC0E07425C0E07480C0E0121AA8158112
:1004F50015811581121557AE82AF83BE4806BF0020
:10050500030200B5BE5006BF00030200C4BE41068B
:10051500BF0003020612BE45C6BF00C3020591E532
:1005250082900139F0E0F582121614900137E0F55A
:1005350082121660900138E0F5821216687E007FFF
:1005450000C3EE945AEF64809480501D7C007D00BA
:10055500C3EC940AED6480948050070CBC00F10D47
:1005650080EE0EBE00DB0F80D822E58290013BF0C5
:10057500E0FFF582C00712161490013AE0F58212E9
:100585001660D0078F821216220216307E007F0079
:10059500C3EF6480948150218E05900137EDF09072
:1005A5000138EDF0758200C007C006120524D0069B
:1005B500D0070EBE00DA0F80D71215577E007F00D8
:1005C500C3EF64809481504390013AEEF075820048
:1005D500C007C00612056FAD82D006D0077C00C0EB
:1005E50007C006C005C004C006C007741BC0E07480
:1005F50029C0E07480C0E0121AA8E58124F9F581CC
:10060500D006D0070EBE00B80F80B580FE7434C08A
:10061500E07429C0E07480C0E0121AA81581158124
:1006250015819000031213E3AE82C006744DC0E03D
:100635007429C0E07480C0E0121AA81581158115CF
:10064500819000031213E3AD82C0057466C0E074A7
:1006550029C0E07480C0E0121AA8158115811581A2
:100665009000031213E3AC82D005D00690001AED7A
:10067500F090001BECF08E821215E4AF827E00C074
:1006850007C006747FC0E07429C0E07480C0E01222
:100695001AA8E58124FBF58174AEC0E07429C0E099
:1006A5007480C0E0121AA815811581158102047B9A
:1006B5007582031215937E007F00900009E0FCA36C
:1006C500E0FDC3EE9CEF64808DF063F08095F05003
:1006D50061901514EEF0EFA3F090000CC007C00672
:1006E500121A3AAC82AD83EC240BFCED3400FD8C80
:1006F500828D83A3A3E0FBA3E0FCA3E0FD8B828CAA
:10070500838DF01216AFD006D007C007C006C0060D
:10071500C00774CEC0E07429C0E07480C0E0121A2E
:10072500A8E58124FBF581D006D0070EBE008B0F0E
:10073500808874E5C0E07429C0E07480C0E0121AB6
:10074500A81581158115810200B5758204121593CE
:10075500900009E0FEA3E0FF1EBEFF011FC006C01A
:100765000774FBC0E07429C0E07480C0E0121AA8C9
:10077500E58124FBF5819000031213E3AE82AF837C
:10078500C3E49E74808FF063F08095F050C29000B2
:1007950009E0FCA3E0FDC3EE9CEF64808DF063F0FF
:1007A5008095F050AB901514EEF0EFA3F090000C8F
:1007B500C007C006121A3AAC82AD83D006D007EC4A
:1007C500240BFCED3400FD8C828D83A3A3E0F5148E
:1007D500A3E0F515A3E0F51674082CF582E43DF5C4
:1007E50083E0FCA3E0FDE4F510F511C004C005901D
:1007F5000009E0F512A3E0F513E51224FFF8E5136F
:1008050034FFFDC3E51098E51164808DF063F08039
:1008150095F0D005D00440030208CEC3E5109EE54F
:100825001164808FF063F08095F050030208C3C017
:1008350004C00590151474012510F0E43511A3F0DA
:1008450090000CC007C006C004121A3AA882AD83F6
:10085500D004E8240BF582ED3400F583E510F0E5CE
:1008650011A3F0901514E510F0E511A3F090000C1C
:10087500C005C000121A3AAB82AC83D000D005EB9C
:10088500240BFBEC3400FC7A00E8240BF8ED340073
:10089500FD901503E8F0EDA3F0E4A3F090150674C0
:1008A5000CF0E4A3F08B828C838AF0C005C004129F
:1008B5001806D004D005D006D007D005D004051001
:1008C500E4B5100205110207F0E51224FFFAE5135D
:1008D50034FFFB900009EAF0EBA3F0900003E0FA87
:1008E500A3E0FBEAC39CFCEB9DFD900003ECF0ED5F
:1008F500A3F0AB14AC15AD168B828C838DF0C007BD
:10090500C0061216AFD006D007C006C0077434C0A3
:10091500E0742AC0E07480C0E0121AA8E58124FBC7
:10092500F581900000227582551215937458C0E028
:10093500742AC0E07480C0E0121AA81581158115CB
:10094500817497C0E0742AC0E07480C0E0121AA8D0
:1009550015811581158174BAC0E0742AC0E07480D0
:10096500C0E0121AA815811581158174D7C0E074ED
:100975002AC0E07480C0E0121AA81581158115817E
:1009850074F7C0E0742AC0E07480C0E0121AA8159C
:100995008115811581740AC0E0742BC0E07480C094
:1009A500E0121AA81581158115817427C0E0742BF2
:1009B500C0E07480C0E0121AA815811581158174F4
:1009C50043C0E0742BC0E07480C0E0121AA8158102
:1009D500158115817471C0E0742BC0E07480C0E08E
:1009E500121AA81581158115817492C0E0742BC067
:1009F500E07480C0E0121AA815811581158174ACC8
:100A0500C0E0742BC0E07480C0E0121AA8158115EF
:100A15008115812275820512159374C7C0E0742B68
:100A2500C0E07480C0E0121AA81581158115817483
:100A350007C0E0742CC0E07480C0E0121AA81581CC
:100A450015811581743EC0E0742CC0E07480C0E04F
:100A5500121AA81581158115817470C0E0742CC017
:100A6500E07480C0E0121AA8158115811581748A79
:100A7500C0E0742CC0E07480C0E0121AA81581157E
:100A850081158174AAC0E0742CC0E07480C0E012A6
:100A95001AA815811581158174C8C0E0742CC0E0B1
:100AA5007480C0E0121AA815811581158174ACC037
:100AB500E0742BC0E07480C0E0121AA8158115817E
:100AC500158122758206121593900003E0FEA3E0BE
:100AD500FF900001E0FCA3E0FDEEB50407EFB505CE
:100AE50003020C2974EEC0E0742CC0E07480C0E0F1
:100AF500121AA81581158115819000031213E3AE12
:100B050082AF83C3EE941EEF6480948040D6742C2C
:100B15009E74818FF063F08095F040C88E828F833C
:100B2500C007C0061218D1AC82AD83D006D0077BB2
:100B35000090013EECF0EDA3F0EBA3F0EC4D701846
:100B45007411C0E0742DC0E07480C0E0121AA815BD
:100B55008115811581020C25C007C006742FC0E0E0
:100B6500742DC0E07480C0E0121AA8158115811596
:100B750081D006D007900003E0FCA3E0FDEE2CFC3D
:100B8500EF3DFD900003ECF0EDA3F0900144EEF095
:100B9500EFA3F0900009E0FCA3E0FD90013CECF030
:100BA500EDA3F090013EE0FBA3E0FCA3E0FDEE2BFE
:100BB500FEEF3CFF8D02900141EEF0EFA3F0EAA3BA
:100BC500F0900146E4F0A3F0900009E0FEA3E0FFF9
:100BD500901514EEF0EFA3F090000C121A3AAE82C5
:100BE500AF83EE240BFEEF3400FF7D0090150374F8
:100BF5003CF07401A3F0E4A3F0901506740CF0E446
:100C0500A3F08E828F838DF0121806900009E0FE06
:100C1500A3E0FF0EBE00010F900009EEF0EFA3F078
:100C2500900000227455C0E0742DC0E07480C0E0CF
:100C3500121AA81581158115819000002275820769
:100C45001215937483C0E0742DC0E07480C0E01267
:100C55001AA81581158115819000041213E3AE823F
:100C6500AF83C3EE9430EF6480948040D674C09E09
:100C750074928FF063F08095F040C88E828F83C0A8
:100C850007C0061218D1AC82AD83D006D0077B0011
:100C950090014AECF0EDA3F0EBA3F08E828F83C0B8
:100CA50007C0061218D1AC82AD83D006D0077B00F1
:100CB500900156ECF0EDA3F0EBA3F090014AE0FBB8
:100CC500A3E0FCA3E0EB4C600F900156E0FBA3E032
:100CD500FCA3E0FDEB4C706074B0C0E0742DC0E087
:100CE5007480C0E0121AA815811581158190014AFA
:100CF500E0FBA3E0FCA3E0EB4C601490014AE0FBB1
:100D0500A3E0FCA3E0FD8B828C838DF01216AF90DF
:100D15000156E0FBA3E0FCA3E0FDEB4C7003020CE5
:100D250048900156E0FBA3E0FCA3E0FD8B828C8399
:100D35008DF01216AF020C48C007C00674E5C0E07E
:100D4500742DC0E07480C0E0121AA81581158115B4
:100D550081D006D007EE2EFCEF33FD900003ECF0BA
:100D6500EDA3F09000017484F07413A3F0900009D2
:100D75007402F0E4A3F0900150EEF0EFA3F09001BF
:100D85005CEEF0EFA3F0900148E4F0A3F09001547D
:100D950004F0E4A3F0900156E0FBA3E0FCA3E0FD22
:100DA500EE2BFBEF3CFC900159EBF0ECA3F0EDA32F
:100DB500F090014AE0FBA3E0FCA3E0FDEE2BFEEF83
:100DC5003CFF8D0290014DEEF0EFA3F0EAA3F09009
:100DD5000152E4F0A3F090015EF0A3F090150374C6
:100DE50048F07401A3F0E4A3F0901506740CF0E448
:100DF500A3F090000B75F0001218069015037454BB
:100E0500F07401A3F0E4A3F0901506740CF0E4A3CC
:100E1500F090001775F000021806758208121593F8
:100E2500120A19121557AE82AF83C374609E74807F
:100E35008FF063F08095F04003020ECDC3EE947BF6
:100E4500EF648094804003020ECD900015E0FCA372
:100E5500E0FD900013E0FAA3E0FBC3EC9AED64809B
:100E65008BF063F08095F0503290000DE0F9A3E02F
:100E7500FAA3E0FBEC29F9ED3AFA8E0589828A831B
:100E85008BF0ED12187A900015E0FCA3E0FD0CBC88
:100E950000010D900015ECF0EDA3F0900005E0FCCD
:100EA500A3E0FD0CBC00010D900005ECF0EDA3F0F6
:100EB500900007E0FCA3E0FD0CBC00010D900007CD
:100EC500ECF0EDA3F0020E28BE3F1FBF001C12116F
:100ED500B2121273120F4F900005E4F0A3F09000C8
:100EE50007F0A3F0120A19020E28BE3D0CBF000937
:100EF500121065120A19020E28BE400CBF00091215
:100F050006B5120A19020E28BE2B0CBF0009120ADB
:100F1500C8120A19020E28BE2D0CBF000912074F70
:100F2500120A19020E28BE4D09BF000612047B02E3
:100F35000E28900005E0FEA3E0FF0EBE00010F9015
:100F45000005EEF0EFA3F0020E2875820912159345
:100F55009001607440F0E4A3F0900015E0FEA3E07A
:100F6500FFC3E49E74808FF063F08095F040030228
:100F7500104F7414C0E0742EC0E07480C0E0121AE3
:100F8500A81581158115817E007F00900015E0FC74
:100F9500A3E0FDC3EE9CEF64808DF063F08095F0D7
:100FA5004003021032900160E0FCA3E0FDBC40204C
:100FB500BD001DC007C0067442C0E0742EC0E074B9
:100FC50080C0E0121AA8158115811581D006D007B9
:100FD50090000DE0FBA3E0FCA3E0FDEE2BFBEF3C56
:100FE500FC8B828C838DF01224C7FB7D008B828D58
:100FF50083C007C006121538D006D007900160E0FF
:1010050024FFFCA3E034FFFD900160ECF0EDA3F0BC
:10101500900160E0F5F0A3E045F07009900160747F
:1010250040F0E4A3F00EBE00010F020F90900015F2
:10103500E4F0A3F07445C0E0742EC0E07480C0E015
:10104500121AA8158115811581227449C0E0742EE4
:10105500C0E07480C0E0121AA8158115811581229F
:1010650075820A121593900015E0FEA3E0FFC3E414
:101075009E74808FF063F08095F0400302119C749C
:1010850060C0E0742EC0E07480C0E0121AA815811B
:101095001581158174A3C0E0742EC0E07480C0E092
:1010A500121AA81581158115819001627410F0E45A
:1010B500A3F07E007F00900015E0FCA3E0FDC3EEE9
:1010C5009CEF64808DF063F08095F04003021186FB
:1010D500900162E0FCA3E0FDBC1037BD0034900038
:1010E5000DE0FBA3E0FCA3E0FDEE2BFBEF3CFCC019
:1010F50007C006C003C004C00574E2C0E0742EC07A
:10110500E07480C0E0121AA8E58124FAF581D006C2
:10111500D00790000DE0FBA3E0FCA3E0FDEE2BFB68
:10112500EF3CFC8B828C838DF01224C7FB7D00C0C5
:1011350007C006C003C00574E9C0E0742EC0E074A2
:1011450080C0E0121AA8E58124FBF581D006D007FE
:10115500900162E024FFFCA3E034FFFD900162EC06
:10116500F0EDA3F0900162E0F5F0A3E045F0700921
:101175009001627410F0E4A3F00EBE00010F02109E
:10118500BB7445C0E0742EC0E07480C0E0121AA89C
:101195001581158115812274EDC0E0742EC0E074AF
:1011A50080C0E0121AA81581158115812275820B60
:1011B5001215937404C0E0742FC0E07480C0E0126F
:1011C5001AA8158115811581900001E0FEA3E0FFA5
:1011D500C006C0077430C0E0742FC0E07480C0E062
:1011E500121AA8E58124FBF581900003E0FEA3E037
:1011F500FFC006C0077447C0E0742FC0E07480C00C
:10120500E0121AA8E58124FBF581900005E0FEA314
:10121500E0FFC006C0077462C0E0742FC0E07480B0
:10122500C0E0121AA8E58124FBF581900007E0FED5
:10123500A3E0FFC006C0077473C0E0742FC0E0745C
:1012450080C0E0121AA8E58124FBF581900009E031
:10125500FEA3E0FFC006C0077488C0E0742FC0E09D
:101265007480C0E0121AA8E58124FBF581227582FD
:101275000C1215937E007F00900009E0FCA3E0FDB1
:10128500C3EE9CEF64808DF063F08095F04003021F
:1012950013CDC007C006C006C007749DC0E0742FFB
:1012A500C0E07480C0E0121AA8E58124FBF581D066
:1012B50006D007901514EEF0EFA3F090000CC007D0
:1012C500C006121A3AAC82AD83EC240BF582ED34DC
:1012D50000F583E0FAA3E0FBC005C004C002C0032B
:1012E50074C8C0E0742FC0E07480C0E0121AA8E58D
:1012F5008124FBF581D004D005EC240BFCED3400F2
:10130500FD8C828D83A3A3E0F9A3E0FAA3E0FBC0E3
:1013150005C004C001C002C00374D7C0E0742FC06B
:10132500E07480C0E0121AA8E58124FAF581D004A2
:10133500D0058C828D83A3A3A3A3A3E0F9A3E0FA30
:10134500A3E0FBC005C004C001C002C00374EAC02D
:10135500E0742FC0E07480C0E0121AA8E58124FA79
:10136500F581D004D00574082CF582E43DF583E0C1
:10137500FAA3E0FBC005C004C002C00374FBC0E0D3
:10138500742FC0E07480C0E0121AA8E58124FBF533
:1013950081D004D005740A2CF582E43DF583E0FC88
:1013A500A3E0FDC004C005740DC0E07430C0E07456
:1013B50080C0E0121AA8E58124FBF581D006D0078C
:1013C5000EBE00010F02127D741EC0E07430C0E035
:1013D5007480C0E0121AA815811581158122AF838A
:1013E500E582900164F0EFA3F075820D12159390DC
:1013F5000166E4F0A3F0900164E0FEA3E0FFC3E41E
:101405009E74808FF063F08095F040030214AFC0A6
:1014150007C006121557AC82AD83D006D007C3743A
:10142500399C74808DF063F08095F0405CEC9430CD
:10143500ED648094804052EC24D0FCED34FFFDEE49
:1014450024FFFAEF34FFFB8A828B83C007C006C0F6
:1014550005C0041214BBAA82AB83D004D005901535
:1014650014EAF0EBA3F08C828D83121A3AAC82ADAC
:1014750083D006D007900166E0FAA3E0FB900166F1
:10148500EC2AF0ED3BA3F080197448C0E07430C03D
:10149500E07480C0E0121AA815811581158190FFAE
:1014A500FF221EBEFF011F021403900166E0FEA38A
:1014B500E08E82F58322AF83E582900168F0EFA389
:1014C500F090016A7401F0E4A3F0900168E0FEA3D6
:1014D500E0FF7C007D00C3EC9EED64808FF063F03F
:1014E5008095F0503A90016AE0FAA3E0FB9015145C
:1014F500EAF0EBA3F090000AC007C006C005C004DF
:10150500121A3AE5828583F0D004D005D006D007BB
:1015150090016AF0E5F0A3F00CBC00BA0D80B7EEBF
:101525004F70049000012290016AE0FEA3E08E82D4
:10153500F58322AF83E58290016CF0EFA3F0E59887
:1015450030E1FBC29990016CE0FEA3E08E9990001A
:10155500002210980280FB743FB599028027743DE4
:10156500B5990280207440B599028019742BB599FC
:10157500028012742DB59902800BAE997F008E8280
:101585008F83121538AE997F008E828F8322E58274
:1015950090016EF0E0908000F022E58290016FF0FE
:1015A500E0FF7E00C007C006745CC0E07430C0E098
:1015B5007480C0E0121AA8E58124FBF58122438FCF
:1015C50001758E0C759842758780758DFF758BFF3B
:0F15D500758920D29CD28ED2AFD2AE9000002268
:1024E3000A0D2048454C4C4F21205374617274658A
:1024F3006420696E205832204D6F6465200A0D00F8
:1025030048656C6C6F2C20496E2050434120446514
:102513006D6F206D6F6465200A0D00506C656173EB
:1025230065206D616B6520612076616C6964206351
:10253300686F696365200A0D00506C6561736520DF
:1025430027452720746F2065786974206F722052A5
:1025530065736574200A0D00436170747572656458
:102563002056616C7565204343504C202D3E202539
:10257300642043435048202D3E202564200A0D004B
:1025830054696D657220496E746572727570740A50
:102593000D00476F696E6720746F206D61696E204F
:1025A3006D656E752E2E200A0D0053657474696E69
:1025B300672050312E332061732066616C6C696E25
:1025C300672065646765206465746563746F722C46
:1025D30020656E61626C696E672050434120696EAD
:1025E30074657272757074200A0D00456E7465729D
:1025F300696E6720536F6674776172652054696DE5
:102603006572204D6F6465200A0D00456E74657216
:10261300696E672048696768205370656564205454
:102623006F67676C65204D6F64652C2050312E35C4
:10263300200A0D00456E746572696E672050574D10
:10264300204D6F64652C2032352070657263656E92
:10265300742044757479204379636C652050312E5E
:10266300360A0D00456E61626C696E6720576174AE
:102673006368646F672054696D65722E2E0A0D00BE
:1026830043757272656E746C792057617463686404
:102693006F67206973206265696E67207365727660
:1026A300696365640A0D507265737320275327208D
:1026B300746F2073746F7020616E642067656E653C
:1026C300726174652061207265736574200A0D0060
:1026D300456E61626C696E672048617264776172EE
:1026E30065205761746368646F672054696D657210
:1026F3002E2E0A0D0043757272656E746C79204834
:1027030061726477617265205761746368646F678F
:10271300206973206265696E6720736572766963E9
:1027230065640A0D50726573732027532720746FF5
:102733002073746F70207761746368646F672073AC
:1027430065727669636520616E642067656E657284
:10275300617465206120726573657420696E207EE3
:102763003173200A0D00456E746572696E672049E6
:10277300646C652C2057696C6C2045786974206FF4
:102783006E2065787465726E616C20696E74657213
:102793007275707420300A0D00576F6B6520757069
:1027A3002066726F6D2049646C652F506F77657278
:1027B30020646F776E2C20676F696E6720746F20BB
:1027C3006D61696E206D656E75200A0D00456E742E
:1027D3006572696E6720706F77657220646F776EBC
:1027E3002C2057696C6C2045786974206F6E2065C6
:1027F300787465726E616C20696E7465727275703F
:102803007420300A0D004368616E67696E67204368
:102813006C6F636B207072657363616C617220749B
:102823006F20676F20746F206C6F776573742066F9
:1028330072657175656E637920696E205832204D1B
:102843006F64652E2E0A0D0054686973205541523A
:10285300542053657373696F6E2077696C6C2073B2
:10286300746F7020776F726B696E672E2E2E0A0D50
:10287300000A0A0D5E5E5E5E5E5E5E5E5E5E5E5ECC
:102883005E5E5E5E5E5E5E2D4D454E552D5E5E5E0A
:102893005E5E5E5E5E5E5E5E5E5E5E5E5E5E5E5E55
:1028A3005E5E5E5E5E5E5E200A0A0D00274827209C
:1028B3002D3E20456E746572204865617020446525
:1028C3006D6F204D6F6465200A0D00275027202D62
:1028D3003E20456E746572205043412044656D6F00
:1028E300204D6F6465200A0D00274127202D3E20CF
:1028F300417373656D626C792043204D6978200ABA
:102903000D00274527202D3E20454550524F4D2091
:102913004D6F6465200A0D006C6F63202D3E2564A6
:102923002076616C206973202D3E202578200A0DC6
:10293300000A0D204769766520706172616D203150
:102943002C2038626974200A0D000A0D204769762D
:102953006520706172616D20322C203862697420A9
:102963000A0D000A0D204769766520706172616D5A
:1029730020332C2038626974200A0D000A0D20527E
:102983004553554C542D3E20706172616D333C4D5F
:102993006F643E706172616D32202A2070617261D2
:1029A3006D31203D202564200A0D000A0D20476F5C
:1029B300696E67206261636B20746F206D61696E5D
:1029C300206D656E752E2E200A0D004275666665B4
:1029D30072202564204672656564202E2E2E2E0AF1
:1029E3000D004C6574277320626567696E2061670B
:1029F30061696E2E2E0A0D000A0D47697665205611
:102A0300616C696420427566666572204E756D62FD
:102A1300657220746F2064656C65746528312D259B
:102A2300642920696E2033206469676974730A0D11
:102A3300004275666665722025642053756363657D
:102A4300737366756C6C792044656C657465642E6C
:102A53002E200A0D000A0A0D5E5E5E5E5E5E5E5EFD
:102A63005E5E5E5E5E5E5E5E5E5E5E2D5043412D2B
:102A73004D454E552D5E5E5E5E5E5E5E5E5E5E5EE7
:102A83005E5E5E5E5E5E5E5E5E5E5E5E5E5E5E20A1
:102A93000A0A0D00274627202D3E2046616C6C69EB
:102AA3006E672045646765204361707475726520A5
:102AB3004D6F64650A0D00275327202D3E20536F69
:102AC3006674776172652054696D6572204D6F6419
:102AD300650A0D00274827202D3E20486967682096
:102AE3005370656564204F7574707574204D6F6401
:102AF300650A0D00275027202D3E2050574D204DAD
:102B03006F6465200A0D00275727202D3E2057614B
:102B1300746368646F672054696D6572204D6F64D8
:102B2300650A0D00274927202D3E2049646C652046
:102B33004D6F646520776974682050574D0A0D0006
:102B4300274C27202D3E204368616E676520507215
:102B5300657363616C617220746F206C6F7765734A
:102B630074206672657175656E63790A0D00275569
:102B730027202D3E2048617264776172652057617A
:102B8300746368646F672054696D65720A0D00276A
:102B93004427202D3E20506F77657220446F776E57
:102BA300204D6F64650A0A0D00274D27202D3E2016
:102BB300476F20746F204D61696E204D656E7520DF
:102BC3000A0A0D000A0A0D5E5E5E5E5E5E5E5E5E72
:102BD3005E5E5E5E5E5E5E5E5E5E2D484541502DCE
:102BE3004D454E552D5E5E5E5E5E5E5E5E5E5E5E76
:102BF3005E5E5E5E5E5E5E5E5E5E5E5E5E5E5E2030
:102C03000A0A0D00596F752063616E20656E746545
:102C1300722063686172616374657273206F7220DE
:102C230075736520636F6D6D616E64732066726F7B
:102C33006D2062656C6F77200A0D00273F27202DDA
:102C43003E2053686F7720686561702073746174E8
:102C530075732C2064756D70202620636C6561721A
:102C6300204275666665722030200A0D00272B27E7
:102C7300202D3E204164642061206E6577204275DB
:102C8300666665720A0D00272D27202D3E204465B8
:102C93006C657465206578697374696E6720427525
:102CA300666665720A0D00273D27202D3E20447578
:102CB3006D7020427566666572203020696E2068EB
:102CC30065780A0D00274027202D3E204672656552
:102CD30020616C6C204865617020262062656769FD
:102CE3006E20616761696E0A0A0D000A0D476976F5
:102CF300652056616C69642042756666657220536F
:102D0300697A65283033302D333030293A004661F3
:102D1300696C65642C206769766520736D616C6CE2
:102D23006572206275666665720A0D000A0A0D23D4
:102D3300232323535543434553532C20425546469F
:102D430045522043726561746564232323230A0A71
:102D53000D004E6F2048656170204D656D6F72796F
:102D6300204C6566742C2044656C65746520736F14
:102D73006D6520627566666572732E2E2E0A0D00D0
:102D83000A0D476976652056616C696420496E694E
:102D93007469616C204275666665722053697A6551
:102DA30028303034382D34383030293A000A0D2396
:102DB3002323234641494C2C20506C6561736520C5
:102DC30067697665206120736D616C6C6572206242
:102DD30075666665722073697A65232323230A0A5D
:102DE3000D000A0A0D23232323535543434553530D
:102DF3002C20494E495449414C20425546464552A0
:102E0300532043726561746564232323230A0A0DE7
:102E1300000A0A0D2A2A2A2A2A2A2A2A2A2A2A427E
:102E230075666665722D302D436F6E74656E7473AF
:102E33002A2A2A2A2A2A2A2A2A2A2A200A0D000A80
:102E43000D000A0A0D0042756666657230206973CB
:102E530020456D7074792E2E2E2E0A0D000A0D2D2D
:102E63002D2D2D2D2D2D2D2D2D2D2D2D2D2D2D2D8F
:102E73002D2D2D2D2D2D2D2D48455844554D502D9F
:102E83002D2D2D2D2D2D2D2D2D2D2D2D2D2D2D2D6F
:102E93002D2D2D2D2D2D2D2D2D2D2D2D2D2D2D008C
:102EA3000A0D20202020414444523A202B30202B6D
:102EB30031202B32202B33202B34202B35202B3663
:102EC300202B37202B38202B39202B41202B42203D
:102ED3002B43202B44202B45202B46200A0D000A90
:102EE3000D25703A200025782000427566666572CC
:102EF300203020697320656D7074792E2E2E0A0D93
:102F0300000A0D2A2A2A2A2A2A2A2A2A2A2A2A2A85
:102F13002A2A2A484541502A53544154532A2A2ADB
:102F23002A2A2A2A2A2A2A2A2A2A0A0D00546F74AC
:102F3300616C20486561702053697A653A20256485
:102F4300200A0D00416C6C6F6361746564204865F1
:102F530061702053697A653A202564200A0D004187
:102F63006C6C2043686172733A202564200A0D005B
:102F730053746F726167652043686172733A2025E9
:102F830064200A0D00546F74616C20427566666597
:102F930072733A202564200A0D002A2A2A2A2A2A33
:102FA3002A2A2A2A2A2A2A2A2A2A425546464552C0
:102FB3002A25642A2A2A2A2A2A2A2A2A2A2A2A2A39
:102FC3002A2A0A0D00427566666572233A20256433
:102FD300200A0D0042756666657253746172743A15
:102FE300202570200A0D00427566666572456E6481
:102FF3003A202570200A0D00427566666572536992
:103003007A653A202564200A0D00546F74616C556B
:103013007365643A202564200A0D002A2A2A2A2A85
:103023002A2A2A2A2A2A2A2A2A2A2A2A2A2A2A2AFD
:103033002A2A2A2A2A2A2A2A2A2A2A2A2A2A2A2AED
:103043002A2A0A0D004552522C4E756D6265727321
:10305300204F4E4C59210A0D000A0A0D205468696D
:10306300732066756E6374696F6E20776173206376
:10307300616C6C65642066726F6D20617373656D3E
:10308300626C792C2063686172616374657220736A
:10309300656E742066726F6D207468657265202D8D
:0730A3003E2025630A0D0029
:0330B70002000014
:1015E400AF8290001AE0FE90001BE08EF084EFA41E
:1015F400F58290001AF075825512159F90001AE03A
:10160400F58222D290D297000000C29700000022F7
:10161400121607E5822344A07A09121680221216B4
:1016240007E5822344A17A09121680227A087400FD
:10163400C3121646000000C297121673F58222DA0E
:10164400012200D29000309709D33300C2900002E7
:101654001643C333C290000000021643E5827A09A0
:1016640012168022E5827A0912168012167322C29B
:1016740097000000D290000000D29722C290DA0BAB
:10168400D29700D2900000C2900022335003021679
:10169400A2C29700D290000000C290021680D29796
:0B16A40000D290000000C290021680EF
:0230AA008A1387
:1016AF00AFF0AE83E5829014FAF0EEA3F0EFA3F063
:1016BF009014FAE0FDA3E0FEA3E09014FAE0F5F039
:1016CF00A3E045F07001229014FFE4F0A3F0901511
:1016DF000CE0FBA3E0FC9014FDEBF0ECA3F09015F5
:1016EF0001740CF07415A3F09014FDE0FBA3E0FC63
:1016FF004B60418B018C02C003C0048D008E04C36C
:10170F00E998EA9CD004D003502A9014FFEBF0EC38
:10171F00A3F074022BFBE43CFC901501EBF0ECA35F
:10172F00F08B828C83E0FBA3E0FC9014FDEBF0ECDC
:10173F00A3F080B49014FDE0FEA3E0FF9014FAE054
:10174F00FBA3E0FCA3E0EB24FEFBEC34FFFC7402F4
:10175F002BFAE43CFD8A828D83EEF0EFA3F0901517
:10176F0001E0F8A3E0F988828983EBF0ECA3F08B1A
:10177F00828C83E0F8A3E0F9EEB50033EFB5012FCB
:10178F0088828983A3A3E0FEA3E0FF8A828D83EE84
:10179F00F0EFA3F08B828C83E0FEA3E0FF8E828FAD
:1017AF0083E0FEA3E0FF8B828C83EEF0EFA3F0903B
:1017BF0014FFE0FEA3E0FF4E603C8E828F83E0F8C3
:1017CF00A3E0F9E8B5032FE9B5042B8B828C83E0F6
:1017DF00FBA3E0FC8E828F83EBF0ECA3F074022E60
:1017EF00FEE43FFF8A828D83E0FAA3E0FD8E828FB5
:0717FF0083EAF0EDA3F022E4
:06006800E478FFF6D8FD6C
:10180600AFF0AE83E582901508F0EEA3F0EFA3F0FB
:10181600901508E0F51AA3E0F51BA3E0F51CAA1A3B
:10182600AB1BAC1C901503E0F8A3E0F9A3E0FF9016
:101836001506E0F51DA3E0F51EAD1DAE1E151D74C3
:10184600FFB51D02151EED4E6020888289838FF03C
:101856001224C7FEA3A882A9838A828B838CF0EE0A
:1018660012187AA3AA82AB8380CF851A82851B833E
:04187600851CF022BB
:100046007903E94400601B7A019030B7784D75A0BA
:1000560015E493F2A308B8000205A0D9F4DAF27504
:02006600A0FFF9
:10187A0020F71130F6138883A88220F509F6A88389
:10188A007583002280FEF280F5F02290150C7470A8
:10189A00F07401A3F09030AAE493FE740193FF1E42
:1018AA00BEFF011FEE2470FEEF3401FF900170EEBF
:1018BA00F0EFA3F090150CE0FEA3E0FF8E828F8379
:1018CA00A3A3E4F0A3F022AF83E58290150EF0EF14
:1018DA00A3F090150CE0F5F0A3E045F070031218A0
:1018EA009590150EE0FEA3E0FF4E600E74022EFCEA
:1018FA00E43FFDC3EC9EED9F50049000002290153A
:10190A000E74022EF0E43FA3F090150EE0FEA3E061
:10191A00FFC3EE9404EF9400500990150E7404F07E
:10192A00E4A3F090150CE0FEA3E0FF901510EEF092
:10193A00EFA3F0901512740CF07415A3F090151023
:10194A00E0FEA3E0FF4E7003021A368E828F83E018
:10195A00FCA3E0FD8C028D038E008F01EAC398FA86
:10196A00EB99FB8A008B0190150EE0F517A3E0F5C1
:10197A0018C3E89517E995185003021A1374042539
:10198A0017F8E43518F9C3EA98EB99404C8E028FA0
:10199A0003E5172AFAE5183BFB8A828B83ECF0ED04
:1019AA00A3F074022AFCE43BFD8E828F83A3A3E09A
:1019BA00F8A3E0F98C828D83E8F0E9A3F090151280
:1019CA00E0FCA3E0FD8C828D83EAF0EBA3F08E822B
:1019DA008F83EAF0EBA3F0801C901512E0FCA3E0E1
:1019EA00FD8E828F83A3A3E0FAA3E0FB8C828D8312
:1019FA00EAF0EBA3F0901510E0FCA3E0FD74022CD2
:101A0A00FCE43DFD8C828D832274022EFEE43FFFAE
:101A1A00901512EEF0EFA3F08E828F83E0FEA3E022
:101A2A00FF901510EEF0EFA3F00219479000002284
:101A3A00AA83AB828BF0901514E0A4F8A9F08AF07F
:101A4A00E0A429F98BF0A3E0A429F5838882222255
:10006E007800E84400600A790175A000E4F309D82D
:10007E00FC784CE84415600C7916900001E4F0A36E
:04008E00D8FCD9FAC7
:101A5A00C0198581197E008E83121538D01922AFDC
:101A6A00F0AE83E582901517F0EEA3F0EFA3F090A5
:101A7A001517E0FDA3E0FEA3E0FF901516E0FC9029
:101A8A00152BE4F0A3F0A3F090152EEDF0EEA3F0E1
:101A9A00EFA3F0901531ECF0901A5A021BAEC01960
:101AAA00E581F51924FBFF90152BE4F0A3F0A3F0D0
:101ABA00E51924FBF890152EE6F008E6A3F008E6EF
:101ACA00A3F0901531EFF0901A5A121BAED01922DA
:101ADA00E582901527F0E0FF90151DE0C0E0A3E035
:101AEA00C0E0A3E0C0E0121AF5800D90151BE0C01B
:101AFA00E0A3E0C0E08F822215811581158190153F
:101B0A0025E02401F0A3E03400F022E582901528B4
:101B1A00F0E02430FF24C6500D74072FFF90151AE9
:101B2A00E060034307208F82021ADAE582901529C2
:101B3A00F0E0FFC4540FF582C007121B15D00753FB
:101B4A00070F8F82021B15E58290152AF090152047
:101B5A00E0FCA3E0FDA3E0FEA3E0FF901524E0FB78
:101B6A0090152AE0FA79208B00E828F51AEF235419
:101B7A0001451AFBEC2CFCED33FDEE33FEEF33FF8F
:101B8A00C3EB9A4007EBC39AFB43040119E970D7E8
:101B9A00901520ECF0EDA3F0EEA3F0EFA3F0901572
:101BAA0024EBF022AF83E582901532F0EFA3F09098
:101BBA001532E0FEA3E0FF90151BEEF0EFA3F090C4
:101BCA00152BE0FDA3E0FEA3E0FF90151DEDF0EE5E
:101BDA00A3F0EFA3F0901525E4F0A3F090152EE002
:101BEA00FDA3E0FEA3E0FF8D828E838FF01224C74F
:101BFA00FC90152E74012DF0E43EA3F0EFA3F0EC57
:101C0A0070030224A3BC2502800302249B9015348E
:101C1A00E4F0901535F0901536F0901537F09015E0
:101C2A0038F0901539F090153AF090153BF0901570
:101C3A003DF090153EF0A3F090154014F0A3F090FB
:101C4A00152EE0FDA3E0FEA3E0FF8D828E838FF0C8
:101C5A001224C7FBA3AD82AE8390152EEDF0EEA33E
:101C6A00F0EFA3F0901544EBF0BB25088B82121A13
:101C7A00DA021BE6BB30005003021D47EB24C650B4
:101C8A0003021D47901540E0F521A3E0F52274FFF9
:101C9A00B52163B52260C005C006C00790153EE0B5
:101CAA00FAA3E0FF901514EAF0EFA3F090000AC03F
:101CBA0005C003121A3AAE82AF83D003D0058B0255
:101CCA007D00EA2EFEED3FFFEE24D0FEEF34FFFF4B
:101CDA0090153EEEF0EFA3F0D007D006D005901590
:101CEA003EE0F5F0A3E045F06003021C5490153580
:101CFA007401F0021C54C005C006C007901514E513
:101D0A0021F0E522A3F090000AC006C005C0031224
:101D1A001A3AAA82AF83D003D005D0067E00EB2AF6
:101D2A00FAEE3FFFEA24D0FAEF34FFFF901540EABB
:101D3A00F0EFA3F0D007D006D005021C549015444A
:101D4A00E0FBBB2E2FC005C006C007901540E0FA85
:101D5A00A3E0FFBAFF05BFFF028009D007D006D073
:101D6A0005021C54D007D006D005901540E4F0A314
:101D7A00F0021C54BB61004014EB2485400F9015FF
:101D8A004474DF5BF090151A7401F0800590151AFF
:101D9A00E4F0901544E0FBBB20028075BB2B028067
:101DAA0067BB2D028059BB4202806FBB4302807C15
:101DBA00BB440302203EBB4603022064BB48030225
:101DCA001C54BB490302203EBB4A03021C54BB4CB1
:101DDA00028050BB4F0302204CBB5003021FACBB16
:101DEA0053028077BB5403021C54BB550302205490
:101DFA00BB580302205CBB5A03021C5402206C909D
:101E0A0015347401F0021C549015367401F0021C4A
:101E1A00549015377401F0021C549015397401F06E
:101E2A00021C5490153A7401F0021C54901539E0C2
:101E3A00600E901531E014F9F0901544E7F0800F28
:101E4A00901531E024FEFFF08F01901544E7F090E1
:101E5A001544E0F582121ADA02207B901531E0244B
:101E6A00FDFFF08F01870509870609870719199071
:101E7A001520EDF0EEA3F0EFA3F08D828E838FF0A4
:101E8A001224AF858221858322901540E0FAA3E0CF
:101E9A00FDBAFF0DBDFF0A901540E521F0E522A32A
:101EAA00F0901534E0704B90153EE0FAA3E0FDC3C4
:101EBA00E5219AE5229D503A90153EEAC39521F014
:101ECA00ED9522A3F090153EE0FAA3E0FD8A068D77
:101EDA00071ABAFF011DEE4F6010758220C005C0B7
:101EEA0002121ADAD002D00580E390153EEAF0ED2C
:101EFA00A3F0901540E0F524A3E0F525901520E025
:101F0A00FAA3E0FDA3E0FF8A828D838FF01224C733
:101F1A00F523603CC3E4952474808525F063F08042
:101F2A0095F0502C152474FFB524021525852382BB
:101F3A00121ADA901520E0FAA3E0FDA3E0FF0ABA2C
:101F4A0000010D901520EAF0EDA3F0EFA3F080ACAC
:101F5A00901534E0700302207B90153EE0FEA3E06A
:101F6A00FFC3E5219EE5229F400302207B90153E98
:101F7A00EEC39521F0EF9522A3F090153EE0FEA363
:101F8A00E0FF8E028F051EBEFF011FEA4D7003029D
:101F9A002073758220C007C006121ADAD006D0074D
:101FAA0080E0901531E024FDFDF08D018726098738
:101FBA00270987281919901520E526F0E527A3F0A7
:101FCA00E528A3F0901522E0FDBD80004008901599
:101FDA00447443F08020BD6000400890154474505A
:101FEA00F08013BD400040089015447449F0800603
:101FFA009015447458F0901544E0FDF582C005121E
:10200A001ADA75823A121ADA758230121ADA758277
:10201A0078121ADAD005BD4902800EBD5002800935
:10202A00901521E0F582121B35901520E0F58212F9
:10203A001B35803D9015387401F090153D740AF0F7
:10204A00802F90153D7408F0802790153D740AF092
:10205A00801F90153D7410F0801790153B7401F0A5
:10206A00800F8B82121ADA800890153EEEF0EFA3E9
:10207A00F090153BE06071901531E024FCFFF08F81
:10208A00018703098705098706098707191919901E
:10209A001520EBF0EDA3F0EEA3F0EFA3F0901520DE
:1020AA0074ACF07430A3F07480A3F0901520E0F5BE
:1020BA0026A3E0F527A3E0F52874012526FAE435DE
:1020CA0027FBAF28901520EAF0EBA3F0EFA3F085E9
:1020DA0026828527838528F01224C7FF7003021BF6
:1020EA00E68F82121ADA80C390153DE07003021B54
:1020FA00E6901539E06047901531E014F9F087074A
:10210A007E007D007B00901520EFF0EEA3F0EDA39A
:10211A00F0EBA3F0901538E060030221BE90152081
:10212A00E0FBA3E0A3E0A3E07D007E007F00901522
:10213A0020EBF0EDA3F0EEA3F0EFA3F0807690157C
:10214A003AE06028901531E024FCFFF08F01870304
:10215A00098705098706098707191919901520EBB8
:10216A00F0EDA3F0EEA3F0EFA3F08048901531E074
:10217A0024FEFFF08F01870609870719EF3395E0E0
:10218A00FDFB901520EEF0EFA3F0EDA3F0EBA3F02A
:10219A00901538E0701E901520E0FBA3E0FDA3E047
:1021AA00A3E07E007F00901520EBF0EDA3F0EEA3F4
:1021BA00F0EFA3F0901538E06041901520E0FBA302
:1021CA00E0FDA3E0FEA3E0FF30E72B901520E0FB43
:1021DA00A3E0FDA3E0FEA3E0FFC3E49BFBE49DFDB7
:1021EA00E49EFEE49FFF901520EBF0EDA3F0EEA332
:1021FA00F0EFA3F08005901538E4F090153C7401D7
:10220A00F090153DE0F52475294A752A15E4F52163
:10221A00F522901524E4F0852482121B5190153C76
:10222A00E07026901524E0C4F526852982852A8344
:10223A00E0FFE5264207852982852A83EFF01529E2
:10224A0074FFB52902152A800C901524E0FF852910
:10225A0082852A83F00521E4B52102052290153CE6
:10226A00E0B40100E433F0901520E0FAA3E0FBA308
:10227A00E0FEA3E0FFEA4B4E4F709790154BE5291D
:10228A00F0E52AA3F0901542E521F0E522A3F090AB
:10229A00153EE0F5F0A3E045F0700990153E740193
:1022AA00F0E4A3F0901535E0FFE07047901534E0B4
:1022BA00704185212985222A90153EE0FAA3E0FB88
:1022CA00C007AF290F8F067F00C3EE9AEF9BD00796
:1022DA005019758220C007C003C002121ADAD00250
:1022EA00D003D0071ABAFF011B80D590153EEAF039
:1022FA00EBA3F0901538E0602075822DC007121A02
:10230A00DAD00790153EE024FFFDA3E034FFFE90EB
:10231A00153EEDF0EEA3F08056901542E0F5F0A3DD
:10232A00E045F0604A901536E0602075822BC007C0
:10233A00121ADAD00790153EE024FFFDA3E034FF1D
:10234A00FE90153EEDF0EEA3F08024901537E06084
:10235A001E758220C007121ADAD00790153EE024B3
:10236A00FFFDA3E034FFFE90153EEDF0EEA3F090E2
:10237A001534E07048901542E0F529A3E0F52A905B
:10238A00153EE0FAA3E0FBC0078A068B071ABAFFDC
:10239A00011BC3E5299EE52A9FD0075053EF60062B
:1023AA007D307E0080047D207E008D82C007C003C0
:1023BA00C002121ADAD002D003D00780CA90153EA2
:1023CA00E0FEA3E0FF901542E0F529A3E0F52AC359
:1023DA00E5299EE52A9F500F90153EEEC39529F0F8
:1023EA00EF952AA3F0801190153EE4F0A3F080083F
:1023FA0090153EEAF0EBA3F090154BE0FEA3E0FF48
:10240A00901542E0F529A3E0F52AAA29AD2A152953
:10241A0074FFB52902152AEA4D604590153CE0B4CF
:10242A000100E433F090153CE070140EBE00010F79
:10243A008E828F83E0C4540FFD901524F0800E8E97
:10244A00828F83E0FD53050F901524EDF09015243B
:10245A00E0F582C007C006121B15D006D00780AA75
:10246A00901534E07003021BE690153EE0FEA3E0EF
:10247A00FF8E038F051EBEFF011FEB4D7003021B6B
:10248A00E6758220C007C006121ADAD006D0078085
:10249A00E08C82121ADA021BE6901525E0FEA3E010
:0524AA008E82F5832283
:0B30AC003C4E4F20464C4F41543E006C
:1024AF00AA82AB831224C76003A380F8C3E5829A84
:0824BF00F582E5839BF5832201
:0D00390075812A1215C3E5826003020036AE
:1024C70020F71430F6148883A88220F507E6A8833E
:0C24D70075830022E280F7E49322E022EB
:00000001FF
