:060000000200390201E7D5
:01000B0032C2
:0100130032BA
:01001B0032B2
:0100230032AA
:01002B0032A2
:0300330002015B6C
:0300920002003633
:0300360002009530
:20009500747CC0E07421C0E07480C0E0121741158115811581758201121308C29102032821
:2000B5007582021213081209B7120FE8020B947582AA121308749CC0E07421C0E07480C022
:2000D500E01217411581158115811206B574B7C0E07421C0E07480C0E01217411581158108
:2000F50015811212CCAE82AF83BE4608BF00051201FE8050BE5308BF00051202198045BEC5
:200115004808BF000512023A803ABE5008BF000512025B802FBE5708BF000512027F80249E
:20013500BE4908BF00051202A38019BE4408BF00051202D8800EBE4C05BF000280030200EA
:20015500E212030D80FEC020C0E0C0F0C082C083C007C006C005C004C003C002C001C00037
:20017500C0D075D00830D82DAEFA7F00ACEA7D00C00EC00FC00CC00D74D5C0E07421C0E0CA
:200195007480C0E075D00012174175D008E58124F9F581C2D830D91D74FDC0E07421C0E0BB
:2001B5007480C0E075D00012174175D008158115811581C2D9D0D0D000D001D002D003D087
:2001D50004D005D006D007D083D082D0F0D0E0D02032C2A8758780C2DE75DA0075DB0075B3
:2001F500DC0075DD0075DE0032741BC0E07422C0E07480C0E012174115811581158175DAC3
:2002150021D2DE22745CC0E07422C0E07480C0E012174115811581158175DB4975EBFF7503
:20023500FBFFD2DE22747CC0E07422C0E07480C0E012174115811581158175DC4D75ECFF59
:2002550075FCFFD2DE22749EC0E07422C0E07480C0E012174115811581158175DD4275EDA9
:20027500C075FDC075D902D2DE2274C9C0E07422C0E07480C0E0121741158115811581750D
:20029500DE4875EEFF75FEFF75D940D2DE2212025B74E5C0E07422C0E07480C0E012174153
:2002B500158115811581D2A87587017418C0E07423C0E07480C0E0121741158115811581CD
:2002D50002032812025B744CC0E07423C0E07480C0E0121741158115811581D2A87587029E
:2002F5007418C0E07423C0E07480C0E01217411581158115810203287485C0E07423C0E0C9
:200315007480C0E012174115811581158175970002032874C7C0E07423C0E07480C0E01217
:2003350017411581158115817402C0E07424C0E07480C0E01217411581158115817421C02B
:20035500E07424C0E07480C0E0121741158115811581743FC0E07424C0E07480C0E0121768
:200375004115811581158174B7C0E07421C0E07480C0E01217411581158115811212CCAE07
:2003950082AF83BE4806BF00030200B5BE5006BF00030200C4BE41CFBF00CC0203B3745896
:2003B500C0E07424C0E07480C0E0121741158115811581900003121158AE82C0067471C0E7
:2003D500E07424C0E07480C0E0121741158115811581900003121158AD82C005748AC0E090
:2003F5007424C0E07480C0E0121741158115811581900003121158AC82D005D00690001A5F
:20041500EDF090001BECF08E82121335AF827E00C007C00674A3C0E07424C0E07480C0E03A
:20043500121741E58124FBF581227582031213087E007F00900009E0FCA3E0FDC3EE9CEFCB
:2004550064808DF063F08095F0506190150EEEF0EFA3F090000CC007C0061216D3AC82AD0B
:2004750083EC240BFCED3400FD8C828D83A3A3E0FBA3E0FCA3E0FD8B828C838DF01213486B
:20049500D006D007C007C006C006C00774D2C0E07424C0E07480C0E0121741E58124FBF5EA
:2004B50081D006D0070EBE008B0F808874E9C0E07424C0E07480C0E0121741158115811517
:2004D500810200B5758204121308900009E0FEA3E0FF1EBEFF011FC006C00774FFC0E0749F
:2004F50024C0E07480C0E0121741E58124FBF581900003121158AE82AF83C3E49E74808FF2
:20051500F063F08095F050C2900009E0FCA3E0FDC3EE9CEF64808DF063F08095F050AB90F7
:20053500150EEEF0EFA3F090000CC007C0061216D3AC82AD83D006D007EC240BFCED3400BC
:20055500FD8C828D83A3A3E0F514A3E0F515A3E0F51674082CF582E43DF583E0FCA3E0FD0D
:20057500E4F510F511C004C005900009E0F512A3E0F513E51224FFF8E51334FFFDC3E510F1
:2005950098E51164808DF063F08095F0D005D0044003020658C3E5109EE51164808FF063A1
:2005B500F08095F0500302064DC004C00590150E74012510F0E43511A3F090000CC007C0D3
:2005D50006C0041216D3A882AD83D004E8240BF582ED3400F583E510F0E511A3F090150ECB
:2005F500E510F0E511A3F090000CC005C0001216D3AB82AC83D000D005EB240BFBEC340026
:20061500FC7A00E8240BF8ED3400FD9014FDE8F0EDA3F0E4A3F0901500740CF0E4A3F08B9B
:20063500828C838AF0C005C00412149FD004D005D006D007D005D0040510E4B51002051177
:2006550002057AE51224FFFAE51334FFFB900009EAF0EBA3F0900003E0FAA3E0FBEAC39CA5
:20067500FCEB9DFD900003ECF0EDA3F0AB14AC15AD168B828C838DF0C007C006121348D04F
:2006950006D007C006C0077438C0E07425C0E07480C0E0121741E58124FBF58190000022AB
:2006B500758255121308745CC0E07425C0E07480C0E0121741158115811581749BC0E07420
:2006D50025C0E07480C0E012174115811581158174BEC0E07425C0E07480C0E01217411562
:2006F500811581158174DBC0E07425C0E07480C0E012174115811581158174FBC0E07425A8
:20071500C0E07480C0E0121741158115811581740EC0E07426C0E07480C0E0121741158174
:2007350015811581742BC0E07426C0E07480C0E01217411581158115817447C0E07426C08A
:20075500E07480C0E01217411581158115817475C0E07426C0E07480C0E012174115811578
:20077500811581748FC0E07426C0E07480C0E01217411581158115812275820512130874F1
:20079500AAC0E07426C0E07480C0E012174115811581158174EAC0E07426C0E07480C0E034
:2007B5001217411581158115817421C0E07427C0E07480C0E0121741158115811581745301
:2007D500C0E07427C0E07480C0E0121741158115811581746DC0E07427C0E07480C0E01207
:2007F5001741158115811581748DC0E07427C0E07480C0E012174115811581158174ABC04F
:20081500E07427C0E07480C0E0121741158115811581748FC0E07426C0E07480C0E012174E
:200835004115811581158122758206121308900003E0FEA3E0FF900001E0FCA3E0FDEEB5D1
:200855000407EFB5050302099E74D1C0E07427C0E07480C0E01217411581158115819000B3
:2008750003121158AE82AF83C3EE941EEF6480948040D6742C9E74818FF063F08095F040D9
:20089500C88E828F83C007C00612156AAC82AD83D006D0077B00900139ECF0EDA3F0EBA301
:2008B500F0EC4D701874F4C0E07427C0E07480C0E012174115811581158102099AC007C043
:2008D500067412C0E07428C0E07480C0E0121741158115811581D006D007900003E0FCA31C
:2008F500E0FDEE2CFCEF3DFD900003ECF0EDA3F090013FEEF0EFA3F0900009E0FCA3E0FDB3
:20091500900137ECF0EDA3F0900139E0FBA3E0FCA3E0FDEE2BFEEF3CFF8D0290013CEEF07F
:20093500EFA3F0EAA3F0900141E4F0A3F0900009E0FEA3E0FF90150EEEF0EFA3F090000CC2
:200955001216D3AE82AF83EE240BFEEF3400FF7D009014FD7437F07401A3F0E4A3F090150B
:2009750000740CF0E4A3F08E828F838DF012149F900009E0FEA3E0FF0EBE00010F900009A9
:20099500EEF0EFA3F0900000227438C0E07428C0E07480C0E0121741158115811581900058
:2009B50000227582071213087466C0E07428C0E07480C0E0121741158115811581900004CB
:2009D500121158AE82AF83C3EE9430EF6480948040D674C09E74928FF063F08095F040C8FC
:2009F5008E828F83C007C00612156AAC82AD83D006D0077B00900145ECF0EDA3F0EBA3F06C
:200A15008E828F83C007C00612156AAC82AD83D006D0077B00900151ECF0EDA3F0EBA3F03F
:200A3500900145E0FBA3E0FCA3E0EB4C600F900151E0FBA3E0FCA3E0FDEB4C70607493C0BE
:200A5500E07428C0E07480C0E0121741158115811581900145E0FBA3E0FCA3E0EB4C601447
:200A7500900145E0FBA3E0FCA3E0FD8B828C838DF0121348900151E0FBA3E0FCA3E0FDEB04
:200A95004C70030209BD900151E0FBA3E0FCA3E0FD8B828C838DF01213480209BDC007C0A9
:200AB5000674C8C0E07428C0E07480C0E0121741158115811581D006D007EE2EFCEF33FD5F
:200AD500900003ECF0EDA3F09000017484F07413A3F09000097402F0E4A3F090014BEEF04F
:200AF500EFA3F0900157EEF0EFA3F0900143E4F0A3F090014F04F0E4A3F0900151E0FBA331
:200B1500E0FCA3E0FDEE2BFBEF3CFC900154EBF0ECA3F0EDA3F0900145E0FBA3E0FCA3E0B7
:200B3500FDEE2BFEEF3CFF8D02900148EEF0EFA3F0EAA3F090014DE4F0A3F0900159F0A35B
:200B5500F09014FD7443F07401A3F0E4A3F0901500740CF0E4A3F090000B75F00012149F78
:200B75009014FD744FF07401A3F0E4A3F0901500740CF0E4A3F090001775F00002149F75CB
:200B9500820812130812078E1212CCAE82AF83C374609E74808FF063F08095F04003020C3F
:200BB50042C3EE947BEF648094804003020C42900015E0FCA3E0FD900013E0FAA3E0FBC3E5
:200BD500EC9AED64808BF063F08095F0503290000DE0F9A3E0FAA3E0FBEC29F9ED3AFA8E26
:200BF5000589828A838BF0ED121513900015E0FCA3E0FD0CBC00010D900015ECF0EDA3F049
:200C1500900005E0FCA3E0FD0CBC00010D900005ECF0EDA3F0900007E0FCA3E0FD0CBC004C
:200C3500010D900007ECF0EDA3F0020B9DBE3F1FBF001C120F27120FE8120CC4900005E451
:200C5500F0A3F0900007F0A3F012078E020B9DBE3D0CBF0009120DDA12078E020B9DBE407A
:200C75000CBF000912043F12078E020B9DBE2B0CBF000912083D12078E020B9DBE2D0CBFCA
:200C950000091204D912078E020B9DBE4D09BF0006120328020B9D900005E0FEA3E0FF0E33
:200CB500BE00010F900005EEF0EFA3F0020B9D75820912130890015B7440F0E4A3F09000EE
:200CD50015E0FEA3E0FFC3E49E74808FF063F08095F04003020DC474F7C0E07428C0E074A9
:200CF50080C0E01217411581158115817E007F00900015E0FCA3E0FDC3EE9CEF64808DF0F8
:200D150063F08095F04003020DA790015BE0FCA3E0FDBC4020BD001DC007C0067425C0E069
:200D35007429C0E07480C0E0121741158115811581D006D00790000DE0FBA3E0FCA3E0FD7D
:200D5500EE2BFBEF3CFC8B828C838DF0122160FB7D008B828D83C007C0061212ADD006D07E
:200D75000790015BE024FFFCA3E034FFFD90015BECF0EDA3F090015BE0F5F0A3E045F07098
:200D95000990015B7440F0E4A3F00EBE00010F020D05900015E4F0A3F07428C0E07429C099
:200DB500E07480C0E012174115811581158122742CC0E07429C0E07480C0E012174115814B
:200DD500158115812275820A121308900015E0FEA3E0FFC3E49E74808FF063F08095F0402D
:200DF50003020F117443C0E07429C0E07480C0E01217411581158115817486C0E07429C06E
:200E1500E07480C0E012174115811581158190015D7410F0E4A3F07E007F00900015E0FCC6
:200E3500A3E0FDC3EE9CEF64808DF063F08095F04003020EFB90015DE0FCA3E0FDBC10378D
:200E5500BD003490000DE0FBA3E0FCA3E0FDEE2BFBEF3CFCC007C006C003C004C00574C5C8
:200E7500C0E07429C0E07480C0E0121741E58124FAF581D006D00790000DE0FBA3E0FCA341
:200E9500E0FDEE2BFBEF3CFC8B828C838DF0122160FB7D00C007C006C003C00574CCC0E08C
:200EB5007429C0E07480C0E0121741E58124FBF581D006D00790015DE024FFFCA3E034FF97
:200ED500FD90015DECF0EDA3F090015DE0F5F0A3E045F0700990015D7410F0E4A3F00EBE2D
:200EF50000010F020E307428C0E07429C0E07480C0E01217411581158115812274D0C0E04E
:200F15007429C0E07480C0E01217411581158115812275820B12130874E7C0E07429C0E036
:200F35007480C0E0121741158115811581900001E0FEA3E0FFC006C0077413C0E0742AC0D9
:200F5500E07480C0E0121741E58124FBF581900003E0FEA3E0FFC006C007742AC0E0742A47
:200F7500C0E07480C0E0121741E58124FBF581900005E0FEA3E0FFC006C0077445C0E07474
:200F95002AC0E07480C0E0121741E58124FBF581900007E0FEA3E0FFC006C0077456C0E08B
:200FB500742AC0E07480C0E0121741E58124FBF581900009E0FEA3E0FFC006C007746BC0C0
:200FD500E0742AC0E07480C0E0121741E58124FBF5812275820C1213087E007F00900009FD
:200FF500E0FCA3E0FDC3EE9CEF64808DF063F08095F04003021142C007C006C006C0077465
:2010150080C0E0742AC0E07480C0E0121741E58124FBF581D006D00790150EEEF0EFA3F0A4
:2010350090000CC007C0061216D3AC82AD83EC240BF582ED3400F583E0FAA3E0FBC005C011
:2010550004C002C00374ABC0E0742AC0E07480C0E0121741E58124FBF581D004D005EC2443
:201075000BFCED3400FD8C828D83A3A3E0F9A3E0FAA3E0FBC005C004C001C002C00374BA01
:20109500C0E0742AC0E07480C0E0121741E58124FAF581D004D0058C828D83A3A3A3A3A36F
:2010B500E0F9A3E0FAA3E0FBC005C004C001C002C00374CDC0E0742AC0E07480C0E012179C
:2010D50041E58124FAF581D004D00574082CF582E43DF583E0FAA3E0FBC005C004C002C0FC
:2010F5000374DEC0E0742AC0E07480C0E0121741E58124FBF581D004D005740A2CF582E401
:201115003DF583E0FCA3E0FDC004C00574F0C0E0742AC0E07480C0E0121741E58124FBF566
:2011350081D006D0070EBE00010F020FF27401C0E0742BC0E07480C0E0121741158115810F
:20115500158122AF83E58290015FF0EFA3F075820D121308900161E4F0A3F090015FE0FE6F
:20117500A3E0FFC3E49E74808FF063F08095F04003021224C007C0061212CCAC82AD83D0A2
:2011950006D007C374399C74808DF063F08095F0405CEC9430ED648094804052EC24D0FCE9
:2011B500ED34FFFDEE24FFFAEF34FFFB8A828B83C007C006C005C004121230AA82AB83D027
:2011D50004D00590150EEAF0EBA3F08C828D831216D3AC82AD83D006D007900161E0FAA383
:2011F500E0FB900161EC2AF0ED3BA3F08019742BC0E0742BC0E07480C0E01217411581158C
:2012150081158190FFFF221EBEFF011F021178900161E0FEA3E08E82F58322AF83E5829046
:201235000163F0EFA3F09001657401F0E4A3F0900163E0FEA3E0FF7C007D00C3EC9EED6406
:20125500808FF063F08095F0503A900165E0FAA3E0FB90150EEAF0EBA3F090000AC007C01E
:2012750006C005C0041216D3E5828583F0D004D005D006D007900165F0E5F0A3F00CBC0004
:20129500BA0D80B7EE4F700490000122900165E0FEA3E08E82F58322AF83E582900167F055
:2012B500EFA3F0E59830E1FBC299900167E0FEA3E08E999000002210980280FB743FB5995B
:2012D500028027743DB5990280207440B599028019742BB599028012742DB59902800BAE67
:2012F500997F008E828F831212ADAE997F008E828F8322E582900169F0E0908000F022432E
:201315008F01758E0C759842758780758DFF758BFF758920D29CD28ED2AFD2AE90000022AF
:20217C000A0D2048454C4C4F21205374617274656420696E205832204D6F6465200A0D0003
:20219C0048656C6C6F2C20496E205043412044656D6F206D6F6465200A0D00506C656173A2
:2021BC0065206D616B6520612076616C69642063686F696365200A0D004361707475726599
:2021DC00642056616C7565204343504C202D3E2025642043435048202D3E202564200A0D43
:2021FC000054696D657220496E74657272757074206F6E2043434631212121200A0D0053CE
:20221C00657474696E672050312E332061732066616C6C696E6720656467652064657465AD
:20223C0063746F722C20656E61626C696E672050434120696E74657272757074200A0D0006
:20225C00456E746572696E6720536F6674776172652054696D6572204D6F6465200A0D00BE
:20227C00456E746572696E67204869676820537065656420546F67676C65204D6F64650A24
:20229C000D00456E746572696E672050574D204D6F64652C2032352070657263656E74203C
:2022BC0044757479204379636C650A0D00456E61626C696E67205761746368646F67205450
:2022DC00696D65722E2E0A0D00456E746572696E672049646C652C2057696C6C20457869BE
:2022FC0074206F6E2065787465726E616C20696E7465727275707420300A0D00576F6B65C4
:20231C002075702066726F6D2049646C652F506F77657220646F776E2C20676F696E672096
:20233C00746F206D61696E206D656E75200A0D00456E746572696E6720706F7765722064C0
:20235C006F776E2C2057696C6C2045786974206F6E2065787465726E616C20696E746572AD
:20237C007275707420300A0D004368616E67696E6720436C6F636B207072657363616C6179
:20239C007220746F20676F20746F206C6F77657374206672657175656E637920696E205894
:2023BC0032204D6F64652E2E0A0D000A0A0D5E5E5E5E5E5E5E5E5E5E5E5E5E5E5E5E5E5EFA
:2023DC005E2D4D454E552D5E5E5E5E5E5E5E5E5E5E5E5E5E5E5E5E5E5E5E5E5E5E5E5E5EC6
:2023FC005E200A0A0D00274827202D3E20456E74657220486561702044656D6F204D6F6460
:20241C0065200A0D00275027202D3E20456E746572205043412044656D6F204D6F6465205F
:20243C000A0D00274127202D3E20417373656D626C792043204D6978200A0D000A0D204789
:20245C0069766520706172616D20312C2038626974200A0D000A0D2047697665207061727B
:20247C00616D20322C2038626974200A0D000A0D204769766520706172616D20332C20385C
:20249C00626974200A0D000A0D20524553554C542D3E20706172616D333C4D6F643E70615A
:2024BC0072616D32202A20706172616D31203D202564200A0D004275666665722025642082
:2024DC004672656564202E2E2E2E0A0D004C6574277320626567696E20616761696E2E2EAB
:2024FC000A0D000A0D476976652056616C696420427566666572204E756D62657220746FF1
:20251C002064656C65746528312D25642920696E2033206469676974730A0D00427566664C
:20253C006572202564205375636365737366756C6C792044656C657465642E2E200A0D0070
:20255C000A0A0D5E5E5E5E5E5E5E5E5E5E5E5E5E5E5E5E5E5E5E2D5043412D4D454E552DB4
:20257C005E5E5E5E5E5E5E5E5E5E5E5E5E5E5E5E5E5E5E5E5E5E5E5E5E5E200A0A0D00274B
:20259C004627202D3E2046616C6C696E6720456467652043617074757265204D6F64650A12
:2025BC000D00275327202D3E20536F6674776172652054696D6572204D6F64650A0D002757
:2025DC004827202D3E2048696768205370656564204F7574707574204D6F64650A0D0027A0
:2025FC005027202D3E2050574D204D6F6465200A0D00275727202D3E205761746368646FB3
:20261C00672054696D6572204D6F64650A0D00274927202D3E2049646C65204D6F646520D5
:20263C00776974682050574D0A0D00274C27202D3E204368616E6765205072657363616C22
:20265C00617220746F206C6F77657374206672657175656E63790A0D00274427202D3E2084
:20267C00506F77657220446F776E204D6F64650A0A0D00274D27202D3E20476F20746F2094
:20269C004D61696E204D656E75200A0A0D000A0A0D5E5E5E5E5E5E5E5E5E5E5E5E5E5E5E00
:2026BC005E5E5E5E2D484541502D4D454E552D5E5E5E5E5E5E5E5E5E5E5E5E5E5E5E5E5E6E
:2026DC005E5E5E5E5E5E5E5E5E200A0A0D00596F752063616E20656E7465722063686172C4
:2026FC00616374657273206F722075736520636F6D6D616E64732066726F6D2062656C6FC6
:20271C0077200A0D00273F27202D3E2053686F772068656170207374617475732C2064756F
:20273C006D70202620636C656172204275666665722030200A0D00272B27202D3E20416469
:20275C00642061206E6577204275666665720A0D00272D27202D3E2044656C65746520657F
:20277C0078697374696E67204275666665720A0D00273D27202D3E2044756D70204275669D
:20279C00666572203020696E206865780A0D00274027202D3E204672656520616C6C2048A1
:2027BC00656170202620626567696E20616761696E0A0A0D000A0D476976652056616C69CD
:2027DC0064204275666665722053697A65283033302D333030293A004661696C65642C20D5
:2027FC006769766520736D616C6C6572206275666665720A0D000A0A0D23232323535543B9
:20281C00434553532C204255464645522043726561746564232323230A0A0D004E6F2048BE
:20283C00656170204D656D6F7279204C6566742C2044656C65746520736F6D652062756632
:20285C00666572732E2E2E0A0D000A0D476976652056616C696420496E697469616C20420D
:20287C0075666665722053697A6528303034382D34383030293A000A0D23232323464149A6
:20289C004C2C20506C656173652067697665206120736D616C6C6572206275666665722014
:2028BC0073697A65232323230A0A0D000A0A0D23232323535543434553532C20494E49544E
:2028DC0049414C20425546464552532043726561746564232323230A0A0D000A0A0D2A2ADF
:2028FC002A2A2A2A2A2A2A2A2A4275666665722D302D436F6E74656E74732A2A2A2A2A2A14
:20291C002A2A2A2A2A200A0D000A0D000A0A0D004275666665723020697320456D707479A5
:20293C002E2E2E2E0A0D000A0D2D2D2D2D2D2D2D2D2D2D2D2D2D2D2D2D2D2D2D2D2D2D2D8A
:20295C002D2D48455844554D502D2D2D2D2D2D2D2D2D2D2D2D2D2D2D2D2D2D2D2D2D2D2DDB
:20297C002D2D2D2D2D2D2D2D2D000A0D20202020414444523A202B30202B31202B32202BFB
:20299C0033202B34202B35202B36202B37202B38202B39202B41202B42202B43202B442089
:2029BC002B45202B46200A0D000A0D25703A2000257820004275666665722030206973203A
:2029DC00656D7074792E2E2E0A0D000A0D2A2A2A2A2A2A2A2A2A2A2A2A2A2A2A2A48454186
:2029FC00502A53544154532A2A2A2A2A2A2A2A2A2A2A2A2A0A0D00546F74616C2048656147
:202A1C00702053697A653A202564200A0D00416C6C6F636174656420486561702053697AD8
:202A3C00653A202564200A0D00416C6C2043686172733A202564200A0D0053746F72616747
:202A5C00652043686172733A202564200A0D00546F74616C20427566666572733A202564F6
:202A7C00200A0D002A2A2A2A2A2A2A2A2A2A2A2A2A2A2A2A4255464645522A25642A2A2A78
:202A9C002A2A2A2A2A2A2A2A2A2A2A2A0A0D00427566666572233A202564200A0D004275BD
:202ABC006666657253746172743A202570200A0D00427566666572456E643A202570200A99
:202ADC000D0042756666657253697A653A202564200A0D00546F74616C557365643A2025AA
:202AFC0064200A0D002A2A2A2A2A2A2A2A2A2A2A2A2A2A2A2A2A2A2A2A2A2A2A2A2A2A2AB1
:202B1C002A2A2A2A2A2A2A2A2A2A2A2A0A0D004552522C4E756D62657273204F4E4C592116
:032B3C000A0D007F
:012B4C000286
:13133500AF8290001AE0FE90001BE08EF084EFA4F5822233
:022B3F008A13F7
:20134800AFF0AE83E5829014F4F0EEA3F0EFA3F09014F4E0FDA3E0FEA3E09014F4E0F5F0ED
:20136800A3E045F07001229014F9E4F0A3F0901506E0FBA3E0FC9014F7EBF0ECA3F0901478
:20138800FB7406F07415A3F09014F7E0FBA3E0FC4B60418B018C02C003C0048D008E04C360
:2013A800E998EA9CD004D003502A9014F9EBF0ECA3F074022BFBE43CFC9014FBEBF0ECA345
:2013C800F08B828C83E0FBA3E0FC9014F7EBF0ECA3F080B49014F7E0FEA3E0FF9014F4E003
:2013E800FBA3E0FCA3E0EB24FEFBEC34FFFC74022BFAE43CFD8A828D83EEF0EFA3F09014ED
:20140800FBE0F8A3E0F988828983EBF0ECA3F08B828C83E0F8A3E0F9EEB50033EFB5012FEB
:2014280088828983A3A3E0FEA3E0FF8A828D83EEF0EFA3F08B828C83E0FEA3E0FF8E828F51
:2014480083E0FEA3E0FF8B828C83EEF0EFA3F09014F9E0FEA3E0FF4E603C8E828F83E0F844
:20146800A3E0F9E8B5032FE9B5042B8B828C83E0FBA3E0FC8E828F83EBF0ECA3F074022EB6
:17148800FEE43FFF8A828D83E0FAA3E0FD8E828F83EAF0EDA3F02219
:06006800E478FFF6D8FD6C
:20149F00AFF0AE83E582901502F0EEA3F0EFA3F0901502E0F51AA3E0F51BA3E0F51CAA1ADB
:2014BF00AB1BAC1C9014FDE0F8A3E0F9A3E0FF901500E0F51DA3E0F51EAD1DAE1E151D749F
:2014DF00FFB51D02151EED4E6020888289838FF0122160FEA3A882A9838A828B838CF0EE89
:1414FF00121513A3AA82AB8380CF851A82851B83851CF0225C
:200046007901E94400601B7A01902B4C784775A015E493F2A308B8000205A0D9F4DAF2758C
:02006600A0FFF9
:1B15130020F71130F6138883A88220F509F6A8837583002280FEF280F5F022D7
:20152E00901506746AF07401A3F0902B3FE493FE740193FF1EBEFF011FEE246AFEEF34010D
:20154E00FF90016AEEF0EFA3F0901506E0FEA3E0FF8E828F83A3A3E4F0A3F022AF83E5828E
:20156E00901508F0EFA3F0901506E0F5F0A3E045F0700312152E901508E0FEA3E0FF4E6093
:20158E000E74022EFCE43FFDC3EC9EED9F50049000002290150874022EF0E43FA3F09015F4
:2015AE0008E0FEA3E0FFC3EE9404EF940050099015087404F0E4A3F0901506E0FEA3E0FFF9
:2015CE0090150AEEF0EFA3F090150C7406F07415A3F090150AE0FEA3E0FF4E70030216CF00
:2015EE008E828F83E0FCA3E0FD8C028D038E008F01EAC398FAEB99FB8A008B01901508E0C2
:20160E00F517A3E0F518C3E89517E9951850030216AC74042517F8E43518F9C3EA98EB997D
:20162E00404C8E028F03E5172AFAE5183BFB8A828B83ECF0EDA3F074022AFCE43BFD8E825D
:20164E008F83A3A3E0F8A3E0F98C828D83E8F0E9A3F090150CE0FCA3E0FD8C828D83EAF059
:20166E00EBA3F08E828F83EAF0EBA3F0801C90150CE0FCA3E0FD8E828F83A3A3E0FAA3E0F6
:20168E00FB8C828D83EAF0EBA3F090150AE0FCA3E0FD74022CFCE43DFD8C828D832274024E
:2016AE002EFEE43FFF90150CEEF0EFA3F08E828F83E0FEA3E0FF90150AEEF0EFA3F0021515
:0516CE00E09000002285
:2016D300AA83AB828BF090150EE0A4F8A9F08AF0E0A429F98BF0A3E0A429F58388822222A9
:20006E007800E84400600A790175A000E4F309D8FC7846E84415600C7916900001E4F0A31F
:04008E00D8FCD9FAC7
:2016F300C0198581197E008E831212ADD01922AFF0AE83E582901511F0EEA3F0EFA3F09004
:201713001511E0FDA3E0FEA3E0FF901510E0FC901525E4F0A3F0A3F0901528EDF0EEA3F030
:20173300EFA3F090152BECF09016F3021847C019E581F51924FBFF901525E4F0A3F0A3F03F
:20175300E51924FBF8901528E6F008E6A3F008E6A3F090152BEFF09016F3121847D01922F8
:20177300E582901521F0E0FF901517E0C0E0A3E0C0E0A3E0C0E012178E800D901515E0C03A
:20179300E0A3E0C0E08F822215811581158190151FE02401F0A3E03400F022E5829015228E
:2017B300F0E02430FF24C6500D74072FFF901514E060034307208F82021773E582901523D1
:2017D300F0E0FFC4540FF582C0071217AED00753070F8F820217AEE582901524F090151AF4
:2017F300E0FCA3E0FDA3E0FEA3E0FF90151EE0FB901524E0FA79208B00E828F51AEF23548D
:2018130001451AFBEC2CFCED33FDEE33FEEF33FFC3EB9A4007EBC39AFB43040119E970D786
:2018330090151AECF0EDA3F0EEA3F0EFA3F090151EEBF022AF83E58290152CF0EFA3F0904B
:20185300152CE0FEA3E0FF901515EEF0EFA3F0901525E0FDA3E0FEA3E0FF901517EDF0EE89
:20187300A3F0EFA3F090151FE4F0A3F0901528E0FDA3E0FEA3E0FF8D828E838FF012216036
:20189300FC90152874012DF0E43EA3F0EFA3F0EC700302213CBC2502800302213490152E55
:2018B300E4F090152FF0901530F0901531F0901532F0901533F0901534F0901535F090152B
:2018D30037F0901538F0A3F090153A14F0A3F0901528E0FDA3E0FEA3E0FF8D828E838FF0AC
:2018F300122160FBA3AD82AE83901528EDF0EEA3F0EFA3F090153EEBF0BB25088B821217BB
:201913007302187FBB300050030219E0EB24C650030219E090153AE0F521A3E0F52274FF6A
:20193300B52163B52260C005C006C007901538E0FAA3E0FF90150EEAF0EFA3F090000AC030
:2019530005C0031216D3AE82AF83D003D0058B027D00EA2EFEED3FFFEE24D0FEEF34FFFF5B
:20197300901538EEF0EFA3F0D007D006D005901538E0F5F0A3E045F060030218ED90152FFD
:201993007401F00218EDC005C006C00790150EE521F0E522A3F090000AC006C005C0031239
:2019B30016D3AA82AF83D003D005D0067E00EB2AFAEE3FFFEA24D0FAEF34FFFF90153AEAD4
:2019D300F0EFA3F0D007D006D0050218ED90153EE0FBBB2E2FC005C006C00790153AE0FA18
:2019F300A3E0FFBAFF05BFFF028009D007D006D0050218EDD007D006D00590153AE4F0A3EA
:201A1300F00218EDBB61004014EB2485400F90153E74DF5BF09015147401F080059015148C
:201A3300E4F090153EE0FBBB20028075BB2B028067BB2D028059BB4202806FBB4302807CB3
:201A5300BB4403021CD7BB4603021CFDBB48030218EDBB4903021CD7BB4A030218EDBB4C3E
:201A7300028050BB4F03021CE5BB5003021C45BB53028077BB54030218EDBB5503021CEDC2
:201A9300BB5803021CF5BB5A030218ED021D0590152E7401F00218ED9015307401F0021834
:201AB300ED9015317401F00218ED9015337401F00218ED9015347401F00218ED901533E0A3
:201AD300600E90152BE014F9F090153EE7F0800F90152BE024FEFFF08F0190153EE7F090F4
:201AF300153EE0F582121773021D1490152BE024FDFFF08F0187050987060987071919908F
:201B1300151AEDF0EEA3F0EFA3F08D828E838FF012214885822185832290153AE0FAA3E0FB
:201B3300FDBAFF0DBDFF0A90153AE521F0E522A3F090152EE0704B901538E0FAA3E0FDC332
:201B5300E5219AE5229D503A901538EAC39521F0ED9522A3F0901538E0FAA3E0FD8A068DE9
:201B7300071ABAFF011DEE4F6010758220C005C002121773D002D00580E3901538EAF0EDC5
:201B9300A3F090153AE0F524A3E0F52590151AE0FAA3E0FDA3E0FF8A828D838FF012216061
:201BB300F523603CC3E4952474808525F063F08095F0502C152474FFB524021525852382B1
:201BD30012177390151AE0FAA3E0FDA3E0FF0ABA00010D90151AEAF0EDA3F0EFA3F080AC22
:201BF30090152EE07003021D14901538E0FEA3E0FFC3E5219EE5229F4003021D14901538DC
:201C1300EEC39521F0EF9522A3F0901538E0FEA3E0FF8E028F051EBEFF011FEA4D70030219
:201C33001D0C758220C007C006121773D006D00780E090152BE024FDFDF08D018726098792
:201C530027098728191990151AE526F0E527A3F0E528A3F090151CE0FDBD8000400890159F
:201C73003E7443F08020BD6000400890153E7450F08013BD4000400890153E7449F08006E2
:201C930090153E7458F090153EE0FDF582C00512177375823A121773758230121773758273
:201CB30078121773D005BD4902800EBD5002800990151BE0F5821217CE90151AE0F58212C4
:201CD30017CE803D9015327401F0901537740AF0802F9015377408F08027901537740AF0E1
:201CF300801F9015377410F080179015357401F0800F8B821217738008901538EEF0EFA3FF
:201D1300F0901535E0607190152BE024FCFFF08F01870309870509870609870719191990BF
:201D3300151AEBF0EDA3F0EEA3F0EFA3F090151A7441F0742BA3F07480A3F090151AE0F552
:201D530026A3E0F527A3E0F52874012526FAE43527FBAF2890151AEAF0EBA3F0EFA3F08521
:201D730026828527838528F0122160FF700302187F8F8212177380C3901537E07003021805
:201D93007F901533E0604790152BE014F9F087077E007D007B0090151AEFF0EEA3F0EDA3F2
:201DB300F0EBA3F0901532E06003021E5790151AE0FBA3E0A3E0A3E07D007E007F009015CF
:201DD3001AEBF0EDA3F0EEA3F0EFA3F08076901534E0602890152BE024FCFFF08F01870368
:201DF30009870509870609870719191990151AEBF0EDA3F0EEA3F0EFA3F0804890152BE02E
:201E130024FEFFF08F01870609870719EF3395E0FDFB90151AEEF0EFA3F0EDA3F0EBA3F025
:201E3300901532E0701E90151AE0FBA3E0FDA3E0A3E07E007F0090151AEBF0EDA3F0EEA382
:201E5300F0EFA3F0901532E0604190151AE0FBA3E0FDA3E0FEA3E0FF30E72B90151AE0FBAC
:201E7300A3E0FDA3E0FEA3E0FFC3E49BFBE49DFDE49EFEE49FFF90151AEBF0EDA3F0EEA364
:201E9300F0EFA3F08005901532E4F09015367401F0901537E0F524752944752A15E4F521E8
:201EB300F52290151EE4F08524821217EA901536E0702690151EE0C4F526852982852A83EE
:201ED300E0FFE5264207852982852A83EFF0152974FFB52902152A800C90151EE0FF8529CF
:201EF30082852A83F00521E4B521020522901536E0B40100E433F090151AE0FAA3E0FBA3F1
:201F1300E0FEA3E0FFEA4B4E4F7097901545E529F0E52AA3F090153CE521F0E522A3F090EA
:201F33001538E0F5F0A3E045F070099015387401F0E4A3F090152FE0FFE0704790152EE095
:201F5300704185212985222A901538E0FAA3E0FBC007AF290F8F067F00C3EE9AEF9BD0077A
:201F73005019758220C007C003C002121773D002D003D0071ABAFF011B80D5901538EAF06F
:201F9300EBA3F0901532E0602075822DC007121773D007901538E024FFFDA3E034FFFE90FA
:201FB3001538EDF0EEA3F0805690153CE0F5F0A3E045F0604A901530E0602075822BC00767
:201FD300121773D007901538E024FFFDA3E034FFFE901538EDF0EEA3F08024901531E060F5
:201FF3001E758220C007121773D007901538E024FFFDA3E034FFFE901538EDF0EEA3F09003
:20201300152EE0704890153CE0F529A3E0F52A901538E0FAA3E0FBC0078A068B071ABAFF60
:20203300011BC3E5299EE52A9FD0075053EF60067D307E0080047D207E008D82C007C00322
:20205300C002121773D002D003D00780CA901538E0FEA3E0FF90153CE0F529A3E0F52AC3C8
:20207300E5299EE52A9F500F901538EEC39529F0EF952AA3F08011901538E4F0A3F08008BA
:20209300901538EAF0EBA3F0901545E0FEA3E0FF90153CE0F529A3E0F52AAA29AD2A152945
:2020B30074FFB52902152AEA4D6045901536E0B40100E433F0901536E070140EBE00010F0D
:2020D3008E828F83E0C4540FFD90151EF0800E8E828F83E0FD53050F90151EEDF090151EBD
:2020F300E0F582C007C0061217AED006D00780AA90152EE0700302187F901538E0FEA3E03E
:20211300FF8E038F051EBEFF011FEB4D700302187F758220C007C006121773D006D00780DC
:15213300E08C8212177302187F90151FE0FEA3E08E82F58322A5
:0B2B41003C4E4F20464C4F41543E00DC
:18214800AA82AB831221606003A380F8C3E5829AF582E5839BF583223C
:0D00390075812A121314E58260030200365F
:1C21600020F71430F6148883A88220F507E6A88375830022E280F7E49322E0228E
:00000001FF
