:06000000020039020215A6
:01000B0032C2
:0100130032BA
:01001B0032B2
:0100230032AA
:01002B0032A2
:0300330002016D5A
:0300920002003633
:0300360002009530
:20009500020507758202121504120BB31211E4020D907582AA1215047472C0E07424C0E019
:2000B5007480C0E0121A3715811581158112089C748DC0E07424C0E07480C0E0121A3715D7
:2000D50081158115811214C8AE82AF83BE4609BF000612028A020148BE5308BF0005120262
:2000F500A58050BE4808BF00051202D68045BE5008BF00051202FA803ABE5708BF00051260
:20011500031E802FBE4908BF00051203C28024BE4408BF00051203F78019BE4C08BF000563
:2001350012042C800EBE5505BF000280030200C512037974ABC0E07424C0E07480C0E0128C
:200155001A371581158115811214C8AE82AF83BE45E1BF00DE0200A7C020C0E0C0F0C0828B
:20017500C083C007C006C005C004C003C002C001C000C0D075D00830D82DAEFA7F00ACEA3C
:200195007D00C00EC00FC00CC00D74CAC0E07424C0E07480C0E075D000121A3775D008E513
:2001B5008124F9F581C2D810D902800675F90075E90010DA02800C75F90075E90075A61EC2
:2001D50075A6E110DB02801B74F2C0E07424C0E07480C0E075D000121A3775D00815811514
:2001F500811581D0D0D000D001D002D003D004D005D006D007D083D082D0F0D0E0D0203260
:20021500C020C0E0C0F0C082C083C007C006C005C004C003C002C001C000C0D075D008C259
:20023500A8758780C2DE7597FFE4F5DAF5DBF5DCF5DDF5DE7404C0E07425C0E07480C0E0FC
:2002550075D000121A3775D00815811581158175D00012045E75D008D0D0D000D001D002B9
:20027500D003D004D005D006D007D083D082D0F0D0E0D02032741CC0E07425C0E07480C0EC
:20029500E0121A3715811581158175DA21D2DE22745DC0E07425C0E07480C0E0121A37154C
:2002B500811581158175EDFF75FDFF75DD49D2DE1214C8AE82AF83BE53F6BF00F375DD0004
:2002D50022747DC0E07425C0E07480C0E0121A3715811581158175ECFF75FC0275DC4D757E
:2002F500D902D2DE2274A6C0E07425C0E07480C0E0121A3715811581158175EDC075FDC03C
:2003150075DD4275D902D2DE2275EBFF75FB8075DB499015497401F0E4A3F074D6C0E07402
:2003350025C0E07480C0E0121A3715811581158175EEFF75FEFF75D94075DE48D2DE74F217
:20035500C0E07425C0E07480C0E0121A371581158115811214C8AE82AF83BE53F6BF00F3ED
:2003750075DB002275ECFF75FCFF75DC497442C0E07426C0E07480C0E0121A3715811581D9
:20039500158175A707D2DE7467C0E07426C0E07480C0E0121A371581158115811214C8AED5
:2003B50082AF83BE53F6BF00F375DC00221202FA74D8C0E07426C0E07480C0E0121A371508
:2003D5008115811581D2A8758701740BC0E07427C0E07480C0E0121A3715811581158102CF
:2003F500045E1202FA743FC0E07427C0E07480C0E0121A37158115811581D2A87587027445
:200415000BC0E07427C0E07480C0E0121A3715811581158102045E7478C0E07427C0E07489
:2004350080C0E0121A3715811581158174BAC0E07427C0E07480C0E0121A37158115811521
:2004550081D2A875970002045E74E3C0E07427C0E07480C0E0121A37158115811581741E9F
:20047500C0E07428C0E07480C0E0121A37158115811581743DC0E07428C0E07480C0E0129F
:200495001A37158115811581745BC0E07428C0E07480C0E0121A371581158115817474C028
:2004B500E07428C0E07480C0E0121A37158115811581748DC0E07424C0E07480C0E0121AB9
:2004D500371581158115811214C8AE82AF83BE4806BF0003020098BE5006BF00030200A7D7
:2004F500BE4106BF0003020583BE45C6BF00C3020507121578758200121585758244121599
:20051500CB7582771215D31215DB7E007F00C3EE9488EF64809493501D7C007D00C3EC9424
:20053500F4ED6480948150070CBC00F10D80EE0EBE00DB0F80D81214C8121578758200129D
:2005550015857582441215CB12157875820012159012159B1215DB748AC0E07428C0E07460
:2005750080C0E0121A3715811581158180FE74A9C0E07428C0E07480C0E0121A3715811508
:20059500811581900003121354AE82C00674C2C0E07428C0E07480C0E0121A3715811581F8
:2005B5001581900003121354AD82C00574DBC0E07428C0E07480C0E0121A3715811581152D
:2005D50081900003121354AC82D005D00690001AEDF090001BECF08E82121555AF827E0057
:2005F500C007C00674F4C0E07428C0E07480C0E0121A37E58124FBF5817423C0E07429C08F
:20061500E07480C0E0121A3715811581158102045E7582031215047E007F00900009E0FC31
:20063500A3E0FDC3EE9CEF64808DF063F08095F0506190150FEEF0EFA3F090000CC007C048
:20065500061219C9AC82AD83EC240BFCED3400FD8C828D83A3A3E0FBA3E0FCA3E0FD8B82AD
:200675008C838DF012163ED006D007C007C006C006C0077443C0E07429C0E07480C0E01272
:200695001A37E58124FBF581D006D0070EBE008B0F8088745AC0E07429C0E07480C0E0128D
:2006B5001A37158115811581020098758204121504900009E0FEA3E0FF1EBEFF011FC00698
:2006D500C0077470C0E07429C0E07480C0E0121A37E58124FBF581900003121354AE82AFA0
:2006F50083C3E49E74808FF063F08095F050C2900009E0FCA3E0FDC3EE9CEF64808DF0634B
:20071500F08095F050AB90150FEEF0EFA3F090000CC007C0061219C9AC82AD83D006D00798
:20073500EC240BFCED3400FD8C828D83A3A3E0F514A3E0F515A3E0F51674082CF582E43DC7
:20075500F583E0FCA3E0FDE4F510F511C004C005900009E0F512A3E0F513E51224FFF8E536
:200775001334FFFDC3E51098E51164808DF063F08095F0D005D004400302083FC3E5109E97
:20079500E51164808FF063F08095F05003020834C004C00590150F74012510F0E43511A35E
:2007B500F090000CC007C006C0041219C9A882AD83D004E8240BF582ED3400F583E510F019
:2007D500E511A3F090150FE510F0E511A3F090000CC005C0001219C9AB82AC83D000D00543
:2007F500EB240BFBEC3400FC7A00E8240BF8ED3400FD9014FEE8F0EDA3F0E4A3F0901501F5
:20081500740CF0E4A3F08B828C838AF0C005C004121795D004D005D006D007D005D00405FB
:2008350010E4B510020511020761E51224FFFAE51334FFFB900009EAF0EBA3F0900003E0CA
:20085500FAA3E0FBEAC39CFCEB9DFD900003ECF0EDA3F0AB14AC15AD168B828C838DF0C0B6
:2008750007C00612163ED006D007C006C00774A9C0E07429C0E07480C0E0121A37E581247B
:20089500FBF5819000002275825512150474CDC0E07429C0E07480C0E0121A371581158168
:2008B5001581740CC0E0742AC0E07480C0E0121A37158115811581742FC0E0742AC0E07481
:2008D50080C0E0121A37158115811581744CC0E0742AC0E07480C0E0121A371581158115E8
:2008F50081746CC0E0742AC0E07480C0E0121A37158115811581747FC0E0742AC0E0748026
:20091500C0E0121A37158115811581749CC0E0742AC0E07480C0E0121A3715811581158156
:2009350074B8C0E0742AC0E07480C0E0121A3715811581158174E6C0E0742AC0E07480C0F3
:20095500E0121A371581158115817407C0E0742BC0E07480C0E0121A3715811581158174F6
:2009750021C0E0742BC0E07480C0E0121A3715811581158122758205121504743CC0E0749C
:200995002BC0E07480C0E0121A37158115811581747CC0E0742BC0E07480C0E0121A3715E3
:2009B500811581158174B3C0E0742BC0E07480C0E0121A3715811581158174E5C0E0742B1E
:2009D500C0E07480C0E0121A3715811581158174FFC0E0742BC0E07480C0E0121A371581CA
:2009F50015811581741FC0E0742CC0E07480C0E0121A37158115811581743DC0E0742CC0D9
:200A1500E07480C0E0121A371581158115817421C0E0742BC0E07480C0E0121A3715811512
:200A350081158122758206121504900003E0FEA3E0FF900001E0FCA3E0FDEEB50407EFB50E
:200A55000503020B9A7463C0E0742CC0E07480C0E0121A3715811581158190000312135456
:200A7500AE82AF83C3EE941EEF6480948040D6742C9E74818FF063F08095F040C88E828FEE
:200A950083C007C006121860AC82AD83D006D0077B00900139ECF0EDA3F0EBA3F0EC4D70D4
:200AB500187486C0E0742CC0E07480C0E0121A37158115811581020B96C007C00674A4C06E
:200AD500E0742CC0E07480C0E0121A37158115811581D006D007900003E0FCA3E0FDEE2C72
:200AF500FCEF3DFD900003ECF0EDA3F090013FEEF0EFA3F0900009E0FCA3E0FD900137ECF4
:200B1500F0EDA3F0900139E0FBA3E0FCA3E0FDEE2BFEEF3CFF8D0290013CEEF0EFA3F0EAC5
:200B3500A3F0900141E4F0A3F0900009E0FEA3E0FF90150FEEF0EFA3F090000C1219C9AE89
:200B550082AF83EE240BFEEF3400FF7D009014FE7437F07401A3F0E4A3F0901501740CF040
:200B7500E4A3F08E828F838DF0121795900009E0FEA3E0FF0EBE00010F900009EEF0EFA3AE
:200B9500F09000002274CAC0E0742CC0E07480C0E0121A371581158115819000002275821E
:200BB5000712150474F8C0E0742CC0E07480C0E0121A37158115811581900004121354AE2E
:200BD50082AF83C3EE9430EF6480948040D674C09E74928FF063F08095F040C88E828F8301
:200BF500C007C006121860AC82AD83D006D0077B00900145ECF0EDA3F0EBA3F08E828F8371
:200C1500C007C006121860AC82AD83D006D0077B00900151ECF0EDA3F0EBA3F0900145E0B0
:200C3500FBA3E0FCA3E0EB4C600F900151E0FBA3E0FCA3E0FDEB4C70607425C0E0742DC09F
:200C5500E07480C0E0121A37158115811581900145E0FBA3E0FCA3E0EB4C6014900145E0D2
:200C7500FBA3E0FCA3E0FD8B828C838DF012163E900151E0FBA3E0FCA3E0FDEB4C700302FE
:200C95000BB9900151E0FBA3E0FCA3E0FD8B828C838DF012163E020BB9C007C006745AC0DF
:200CB500E0742DC0E07480C0E0121A37158115811581D006D007EE2EFCEF33FD900003ECE2
:200CD500F0EDA3F09000017484F07413A3F09000097402F0E4A3F090014BEEF0EFA3F090BA
:200CF5000157EEF0EFA3F0900143E4F0A3F090014F04F0E4A3F0900151E0FBA3E0FCA3E0E2
:200D1500FDEE2BFBEF3CFC900154EBF0ECA3F0EDA3F0900145E0FBA3E0FCA3E0FDEE2BFE00
:200D3500EF3CFF8D02900148EEF0EFA3F0EAA3F090014DE4F0A3F0900159F0A3F09014FEDB
:200D55007443F07401A3F0E4A3F0901501740CF0E4A3F090000B75F0001217959014FE74F7
:200D75004FF07401A3F0E4A3F0901501740CF0E4A3F090001775F000021795758208121533
:200D95000412098A1214C8AE82AF83C374609E74808FF063F08095F04003020E3EC3EE946F
:200DB5007BEF648094804003020E3E900015E0FCA3E0FD900013E0FAA3E0FBC3EC9AED6495
:200DD500808BF063F08095F0503290000DE0F9A3E0FAA3E0FBEC29F9ED3AFA8E0589828A61
:200DF500838BF0ED121809900015E0FCA3E0FD0CBC00010D900015ECF0EDA3F0900005E073
:200E1500FCA3E0FD0CBC00010D900005ECF0EDA3F0900007E0FCA3E0FD0CBC00010D900021
:200E350007ECF0EDA3F0020D99BE3F1FBF001C1211231211E4120EC0900005E4F0A3F090E2
:200E55000007F0A3F012098A020D99BE3D0CBF0009120FD612098A020D99BE400CBF0009C1
:200E750012062612098A020D99BE2B0CBF0009120A3912098A020D99BE2D0CBF000912069C
:200E9500C012098A020D99BE4D09BF000612045E020D99900005E0FEA3E0FF0EBE00010F6A
:200EB500900005EEF0EFA3F0020D9975820912150490015B7440F0E4A3F0900015E0FEA328
:200ED500E0FFC3E49E74808FF063F08095F04003020FC07489C0E0742DC0E07480C0E01276
:200EF5001A371581158115817E007F00900015E0FCA3E0FDC3EE9CEF64808DF063F08095C7
:200F1500F04003020FA390015BE0FCA3E0FDBC4020BD001DC007C00674B7C0E0742DC0E0FE
:200F35007480C0E0121A37158115811581D006D00790000DE0FBA3E0FCA3E0FDEE2BFBEFBC
:200F55003CFC8B828C838DF0122456FB7D008B828D83C007C0061214A9D006D00790015B95
:200F7500E024FFFCA3E034FFFD90015BECF0EDA3F090015BE0F5F0A3E045F0700990015B94
:200F95007440F0E4A3F00EBE00010F020F01900015E4F0A3F074BAC0E0742DC0E07480C064
:200FB500E0121A371581158115812274BEC0E0742DC0E07480C0E0121A3715811581158129
:200FD5002275820A121504900015E0FEA3E0FFC3E49E74808FF063F08095F0400302110D36
:200FF50074D5C0E0742DC0E07480C0E0121A371581158115817418C0E0742EC0E07480C0D7
:20101500E0121A3715811581158190015D7410F0E4A3F07E007F00900015E0FCA3E0FDC31C
:20103500EE9CEF64808DF063F08095F040030210F790015DE0FCA3E0FDBC1037BD0034904F
:20105500000DE0FBA3E0FCA3E0FDEE2BFBEF3CFCC007C006C003C004C0057457C0E0742E73
:20107500C0E07480C0E0121A37E58124FAF581D006D00790000DE0FBA3E0FCA3E0FDEE2B8D
:20109500FBEF3CFC8B828C838DF0122456FB7D00C007C006C003C005745EC0E0742EC0E0B3
:2010B5007480C0E0121A37E58124FBF581D006D00790015DE024FFFCA3E034FFFD90015DEE
:2010D500ECF0EDA3F090015DE0F5F0A3E045F0700990015D7410F0E4A3F00EBE00010F0204
:2010F500102C74BAC0E0742DC0E07480C0E0121A37158115811581227462C0E0742EC0E0FD
:201115007480C0E0121A371581158115812275820B1215047479C0E0742EC0E07480C0E04F
:20113500121A37158115811581900001E0FEA3E0FFC006C00774A5C0E0742EC0E07480C048
:20115500E0121A37E58124FBF581900003E0FEA3E0FFC006C00774BCC0E0742EC0E07480B6
:20117500C0E0121A37E58124FBF581900005E0FEA3E0FFC006C00774D7C0E0742EC0E07439
:2011950080C0E0121A37E58124FBF581900007E0FEA3E0FFC006C00774E8C0E0742EC0E0FA
:2011B5007480C0E0121A37E58124FBF581900009E0FEA3E0FFC006C00774FDC0E0742EC02F
:2011D500E07480C0E0121A37E58124FBF5812275820C1215047E007F00900009E0FCA3E0E3
:2011F500FDC3EE9CEF64808DF063F08095F0400302133EC007C006C006C0077412C0E0749E
:201215002FC0E07480C0E0121A37E58124FBF581D006D00790150FEEF0EFA3F090000CC0DB
:2012350007C0061219C9AC82AD83EC240BF582ED3400F583E0FAA3E0FBC005C004C002C0EC
:2012550003743DC0E0742FC0E07480C0E0121A37E58124FBF581D004D005EC240BFCED340F
:2012750000FD8C828D83A3A3E0F9A3E0FAA3E0FBC005C004C001C002C003744CC0E0742F52
:20129500C0E07480C0E0121A37E58124FAF581D004D0058C828D83A3A3A3A3A3E0F9A3E056
:2012B500FAA3E0FBC005C004C001C002C003745FC0E0742FC0E07480C0E0121A37E581249B
:2012D500FAF581D004D00574082CF582E43DF583E0FAA3E0FBC005C004C002C0037470C01E
:2012F500E0742FC0E07480C0E0121A37E58124FBF581D004D005740A2CF582E43DF583E081
:20131500FCA3E0FDC004C0057482C0E0742FC0E07480C0E0121A37E58124FBF581D006D042
:20133500070EBE00010F0211EE7493C0E0742FC0E07480C0E0121A3715811581158122AF40
:2013550083E58290015FF0EFA3F075820D121504900161E4F0A3F090015FE0FEA3E0FFC391
:20137500E49E74808FF063F08095F04003021420C007C0061214C8AC82AD83D006D007C349
:2013950074399C74808DF063F08095F0405CEC9430ED648094804052EC24D0FCED34FFFD6A
:2013B500EE24FFFAEF34FFFB8A828B83C007C006C005C00412142CAA82AB83D004D00590DB
:2013D500150FEAF0EBA3F08C828D831219C9AC82AD83D006D007900161E0FAA3E0FB900184
:2013F50061EC2AF0ED3BA3F0801974BDC0E0742FC0E07480C0E0121A3715811581158190C0
:20141500FFFF221EBEFF011F021374900161E0FEA3E08E82F58322AF83E582900163F0EFAA
:20143500A3F09001657401F0E4A3F0900163E0FEA3E0FF7C007D00C3EC9EED64808FF063E5
:20145500F08095F0503A900165E0FAA3E0FB90150FEAF0EBA3F090000AC007C006C005C0F2
:20147500041219C9E5828583F0D004D005D006D007900165F0E5F0A3F00CBC00BA0D80B796
:20149500EE4F700490000122900165E0FEA3E08E82F58322AF83E582900167F0EFA3F0E5EA
:2014B5009830E1FBC299900167E0FEA3E08E999000002210980280FB743FB59902802774A3
:2014D5003DB5990280207440B599028019742BB599028012742DB59902800BAE997F008EDC
:2014F500828F831214A9AE997F008E828F8322E582900169F0E0908000F022E58290016AB5
:20151500F0E0FF7E00C007C00674D1C0E0742FC0E07480C0E0121A37E58124FBF58122435D
:201535008F01758E0C759842758780758DFF758BFF758920D29CD28ED2AFD2AE900000228D
:2024720048656C6C6F2C20496E205043412044656D6F206D6F6465200A0D00506C656173C9
:2024920065206D616B6520612076616C69642063686F696365200A0D00506C65617365201A
:2024B20027452720746F2065786974206F72205265736574200A0D00436170747572656407
:2024D2002056616C7565204343504C202D3E2025642043435048202D3E202564200A0D00AE
:2024F20054696D657220496E746572727570740A0D00476F696E6720746F206D61696E20E9
:202512006D656E752E2E200A0D0053657474696E672050312E332061732066616C6C696EF7
:20253200672065646765206465746563746F722C20656E61626C696E672050434120696E7C
:2025520074657272757074200A0D00456E746572696E6720536F6674776172652054696D2B
:202572006572204D6F6465200A0D00456E746572696E672048696768205370656564205435
:202592006F67676C65204D6F64652C2050312E35200A0D00456E746572696E672050574DBF
:2025B200204D6F64652C2032352070657263656E742044757479204379636C652050312EFB
:2025D200360A0D00456E61626C696E67205761746368646F672054696D65722E2E0A0D0097
:2025F20043757272656E746C79205761746368646F67206973206265696E672073657276AF
:20261200696365640A0D50726573732027532720746F2073746F7020616E642067656E6533
:20263200726174652061207265736574200A0D00456E61626C696E672048617264776172D8
:2026520065205761746368646F672054696D65722E2E0A0D0043757272656E746C792048EE
:2026720061726477617265205761746368646F67206973206265696E672073657276696344
:2026920065640A0D50726573732027532720746F2073746F70207761746368646F6720738D
:2026B20065727669636520616E642067656E6572617465206120726573657420696E207E73
:2026D2003173200A0D00456E746572696E672049646C652C2057696C6C2045786974206F06
:2026F2006E2065787465726E616C20696E7465727275707420300A0D00576F6B65207570C8
:202712002066726F6D2049646C652F506F77657220646F776E2C20676F696E6720746F209E
:202732006D61696E206D656E75200A0D00456E746572696E6720706F77657220646F776E75
:202752002C2057696C6C2045786974206F6E2065787465726E616C20696E746572727570B0
:202772007420300A0D004368616E67696E6720436C6F636B207072657363616C61722074D0
:202792006F20676F20746F206C6F77657374206672657175656E637920696E205832204D01
:2027B2006F64652E2E0A0D005468697320554152542053657373696F6E2077696C6C2073F9
:2027D200746F7020776F726B696E672E2E2E0A0D000A0A0D5E5E5E5E5E5E5E5E5E5E5E5E49
:2027F2005E5E5E5E5E5E5E2D4D454E552D5E5E5E5E5E5E5E5E5E5E5E5E5E5E5E5E5E5E5EAC
:202812005E5E5E5E5E5E5E200A0A0D00274827202D3E20456E74657220486561702044652D
:202832006D6F204D6F6465200A0D00275027202D3E20456E746572205043412044656D6FEE
:20285200204D6F6465200A0D00274127202D3E20417373656D626C792043204D6978200A35
:202872000D00274527202D3E20454550524F4D204D6F6465200A0D004D617962652062796E
:20289200746520686173206265656E207772697474656E200A0D000A0D2047697665207081
:2028B2006172616D20312C2038626974200A0D000A0D204769766520706172616D20322CA9
:2028D2002038626974200A0D000A0D204769766520706172616D20332C2038626974200AE5
:2028F2000D000A0D20524553554C542D3E20706172616D333C4D6F643E706172616D3220D7
:202912002A20706172616D31203D202564200A0D000A0D20476F696E67206261636B20746C
:202932006F206D61696E206D656E752E2E200A0D00427566666572202564204672656564E0
:20295200202E2E2E2E0A0D004C6574277320626567696E20616761696E2E2E0A0D000A0DE8
:20297200476976652056616C696420427566666572204E756D62657220746F2064656C65EA
:20299200746528312D25642920696E2033206469676974730A0D004275666665722025640C
:2029B200205375636365737366756C6C792044656C657465642E2E200A0D000A0A0D5E5E99
:2029D2005E5E5E5E5E5E5E5E5E5E5E5E5E5E5E5E5E2D5043412D4D454E552D5E5E5E5E5E41
:2029F2005E5E5E5E5E5E5E5E5E5E5E5E5E5E5E5E5E5E5E5E5E200A0A0D00274627202D3EAF
:202A12002046616C6C696E6720456467652043617074757265204D6F64650A0D00275327E1
:202A3200202D3E20536F6674776172652054696D6572204D6F64650A0D00274827202D3E90
:202A52002048696768205370656564204F7574707574204D6F64650A0D00275027202D3E1D
:202A72002050574D204D6F6465200A0D00275727202D3E205761746368646F672054696D89
:202A92006572204D6F64650A0D00274927202D3E2049646C65204D6F646520776974682030
:202AB20050574D0A0D00274C27202D3E204368616E6765205072657363616C617220746FAE
:202AD200206C6F77657374206672657175656E63790A0D00275527202D3E204861726477D9
:202AF200617265205761746368646F672054696D65720A0D00274427202D3E20506F77652B
:202B12007220446F776E204D6F64650A0A0D00274D27202D3E20476F20746F204D61696E0F
:202B3200204D656E75200A0A0D000A0A0D5E5E5E5E5E5E5E5E5E5E5E5E5E5E5E5E5E5E5E72
:202B52002D484541502D4D454E552D5E5E5E5E5E5E5E5E5E5E5E5E5E5E5E5E5E5E5E5E5ED3
:202B72005E5E5E5E5E200A0A0D00596F752063616E20656E74657220636861726163746504
:202B92007273206F722075736520636F6D6D616E64732066726F6D2062656C6F77200A0D1A
:202BB20000273F27202D3E2053686F772068656170207374617475732C2064756D70202660
:202BD20020636C656172204275666665722030200A0D00272B27202D3E20416464206120ED
:202BF2006E6577204275666665720A0D00272D27202D3E2044656C65746520657869737422
:202C1200696E67204275666665720A0D00273D27202D3E2044756D7020427566666572206D
:202C32003020696E206865780A0D00274027202D3E204672656520616C6C2048656170200D
:202C52002620626567696E20616761696E0A0A0D000A0D476976652056616C69642042754D
:202C7200666665722053697A65283033302D333030293A004661696C65642C2067697665CA
:202C920020736D616C6C6572206275666665720A0D000A0A0D23232323535543434553539B
:202CB2002C204255464645522043726561746564232323230A0A0D004E6F204865617020FC
:202CD2004D656D6F7279204C6566742C2044656C65746520736F6D6520627566666572733E
:202CF2002E2E2E0A0D000A0D476976652056616C696420496E697469616C2042756666657D
:202D1200722053697A6528303034382D34383030293A000A0D232323234641494C2C2050C9
:202D32006C656173652067697665206120736D616C6C6572206275666665722073697A65A6
:202D5200232323230A0A0D000A0A0D23232323535543434553532C20494E495449414C2078
:202D7200425546464552532043726561746564232323230A0A0D000A0A0D2A2A2A2A2A2A92
:202D92002A2A2A2A2A4275666665722D302D436F6E74656E74732A2A2A2A2A2A2A2A2A2A79
:202DB2002A200A0D000A0D000A0A0D004275666665723020697320456D7074792E2E2E2EFB
:202DD2000A0D000A0D2D2D2D2D2D2D2D2D2D2D2D2D2D2D2D2D2D2D2D2D2D2D2D2D2D4845C1
:202DF2005844554D502D2D2D2D2D2D2D2D2D2D2D2D2D2D2D2D2D2D2D2D2D2D2D2D2D2D2D74
:202E12002D2D2D2D2D000A0D20202020414444523A202B30202B31202B32202B33202B3462
:202E3200202B35202B36202B37202B38202B39202B41202B42202B43202B44202B45202BE5
:202E520046200A0D000A0D25703A200025782000427566666572203020697320656D7074A4
:202E7200792E2E2E0A0D000A0D2A2A2A2A2A2A2A2A2A2A2A2A2A2A2A2A484541502A535480
:202E92004154532A2A2A2A2A2A2A2A2A2A2A2A2A0A0D00546F74616C204865617020536981
:202EB2007A653A202564200A0D00416C6C6F636174656420486561702053697A653A2025A6
:202ED20064200A0D00416C6C2043686172733A202564200A0D0053746F7261676520436861
:202EF2006172733A202564200A0D00546F74616C20427566666572733A202564200A0D0055
:202F12002A2A2A2A2A2A2A2A2A2A2A2A2A2A2A2A4255464645522A25642A2A2A2A2A2A2A6C
:202F32002A2A2A2A2A2A2A2A0A0D00427566666572233A202564200A0D0042756666657227
:202F520053746172743A202570200A0D00427566666572456E643A202570200A0D004275DD
:202F72006666657253697A653A202564200A0D00546F74616C557365643A202564200A0D38
:202F9200002A2A2A2A2A2A2A2A2A2A2A2A2A2A2A2A2A2A2A2A2A2A2A2A2A2A2A2A2A2A2A09
:202FB2002A2A2A2A2A2A2A2A0A0D004552522C4E756D62657273204F4E4C59210A0D000A03
:202FD2000A0D20546869732066756E6374696F6E207761732063616C6C65642066726F6DC6
:202FF20020617373656D626C792C206368617261637465722073656E742066726F6D207404
:0D30120068657265202D3E2025630A0D00C3
:03302C000200009F
:20155500AF8290001AE0FE90001BE08EF084EFA4F58290001AF075825512151090001AE07F
:20157500F58222D290D297000000C29700000022E5822344A07A090215E822E5822344A1F6
:201595007A090215E8227A090215B6C290C2970000D29000000000C2900000000022DA01E6
:2015B50022000000D29000000000000000C290000000000215B3E5827A090215E822E58204
:2015D5007A090215E822C297000000D290000000D29722C290DA1AD297000000000000D28B
:2015F5009000000000C29000000000000000000022335003021625C29700000000000000B6
:20161500D290000000000000000000C2900215E8D29700000000000000D290000000000037
:0916350000000000C2900215E85B
:02301F008A1312
:20163E00AFF0AE83E5829014F5F0EEA3F0EFA3F09014F5E0FDA3E0FEA3E09014F5E0F5F0F1
:20165E00A3E045F07001229014FAE4F0A3F0901507E0FBA3E0FC9014F8EBF0ECA3F090147C
:20167E00FC7407F07415A3F09014F8E0FBA3E0FC4B60418B018C02C003C0048D008E04C364
:20169E00E998EA9CD004D003502A9014FAEBF0ECA3F074022BFBE43CFC9014FCEBF0ECA34A
:2016BE00F08B828C83E0FBA3E0FC9014F8EBF0ECA3F080B49014F8E0FEA3E0FF9014F5E007
:2016DE00FBA3E0FCA3E0EB24FEFBEC34FFFC74022BFAE43CFD8A828D83EEF0EFA3F09014F4
:2016FE00FCE0F8A3E0F988828983EBF0ECA3F08B828C83E0F8A3E0F9EEB50033EFB5012FF2
:20171E0088828983A3A3E0FEA3E0FF8A828D83EEF0EFA3F08B828C83E0FEA3E0FF8E828F58
:20173E0083E0FEA3E0FF8B828C83EEF0EFA3F09014FAE0FEA3E0FF4E603C8E828F83E0F84A
:20175E00A3E0F9E8B5032FE9B5042B8B828C83E0FBA3E0FC8E828F83EBF0ECA3F074022EBD
:17177E00FEE43FFF8A828D83E0FAA3E0FD8E828F83EAF0EDA3F02220
:06006800E478FFF6D8FD6C
:20179500AFF0AE83E582901503F0EEA3F0EFA3F0901503E0F51AA3E0F51BA3E0F51CAA1AE0
:2017B500AB1BAC1C9014FEE0F8A3E0F9A3E0FF901501E0F51DA3E0F51EAD1DAE1E151D74A4
:2017D500FFB51D02151EED4E6020888289838FF0122456FEA3A882A9838A828B838CF0EE97
:1417F500121809A3AA82AB8380CF851A82851B83851CF0226A
:200046007903E94400601B7A0190302C784875A015E493F2A308B8000205A0D9F4DAF275A4
:02006600A0FFF9
:1B18090020F71130F6138883A88220F509F6A8837583002280FEF280F5F022DE
:20182400901507746BF07401A3F090301FE493FE740193FF1EBEFF011FEE246BFEEF34012C
:20184400FF90016BEEF0EFA3F0901507E0FEA3E0FF8E828F83A3A3E4F0A3F022AF83E58293
:20186400901509F0EFA3F0901507E0F5F0A3E045F07003121824901509E0FEA3E0FF4E609E
:201884000E74022EFCE43FFDC3EC9EED9F50049000002290150974022EF0E43FA3F09015FA
:2018A40009E0FEA3E0FFC3EE9404EF940050099015097404F0E4A3F0901507E0FEA3E0FFFD
:2018C40090150BEEF0EFA3F090150D7407F07415A3F090150BE0FEA3E0FF4E70030219C50A
:2018E4008E828F83E0FCA3E0FD8C028D038E008F01EAC398FAEB99FB8A008B01901509E0C8
:20190400F517A3E0F518C3E89517E9951850030219A274042517F8E43518F9C3EA98EB998B
:20192400404C8E028F03E5172AFAE5183BFB8A828B83ECF0EDA3F074022AFCE43BFD8E8264
:201944008F83A3A3E0F8A3E0F98C828D83E8F0E9A3F090150DE0FCA3E0FD8C828D83EAF05F
:20196400EBA3F08E828F83EAF0EBA3F0801C90150DE0FCA3E0FD8E828F83A3A3E0FAA3E0FC
:20198400FB8C828D83EAF0EBA3F090150BE0FCA3E0FD74022CFCE43DFD8C828D8322740254
:2019A4002EFEE43FFF90150DEEF0EFA3F08E828F83E0FEA3E0FF90150BEEF0EFA3F0021817
:0519C400D69000002296
:2019C900AA83AB828BF090150FE0A4F8A9F08AF0E0A429F98BF0A3E0A429F58388822222AF
:20006E007800E84400600A790175A000E4F309D8FC7847E84415600C7916900001E4F0A31E
:04008E00D8FCD9FAC7
:2019E900C0198581197E008E831214A9D01922AFF0AE83E582901512F0EEA3F0EFA3F0900C
:201A09001512E0FDA3E0FEA3E0FF901511E0FC901526E4F0A3F0A3F0901529EDF0EEA3F033
:201A2900EFA3F090152CECF09019E9021B3DC019E581F51924FBFF901526E4F0A3F0A3F052
:201A4900E51924FBF8901529E6F008E6A3F008E6A3F090152CEFF09019E9121B3DD019220B
:201A6900E582901522F0E0FF901518E0C0E0A3E0C0E0A3E0C0E0121A84800D901516E0C045
:201A8900E0A3E0C0E08F8222158115811581901520E02401F0A3E03400F022E58290152393
:201AA900F0E02430FF24C6500D74072FFF901515E060034307208F82021A69E582901524DD
:201AC900F0E0FFC4540FF582C007121AA4D00753070F8F82021AA4E582901525F090151B07
:201AE900E0FCA3E0FDA3E0FEA3E0FF90151FE0FB901525E0FA79208B00E828F51AEF235492
:201B090001451AFBEC2CFCED33FDEE33FEEF33FFC3EB9A4007EBC39AFB43040119E970D78D
:201B290090151BECF0EDA3F0EEA3F0EFA3F090151FEBF022AF83E58290152DF0EFA3F0904F
:201B4900152DE0FEA3E0FF901516EEF0EFA3F0901526E0FDA3E0FEA3E0FF901518EDF0EE8C
:201B6900A3F0EFA3F0901520E4F0A3F0901529E0FDA3E0FEA3E0FF8D828E838FF012245642
:201B8900FC90152974012DF0E43EA3F0EFA3F0EC7003022432BC2502800302242A90152F68
:201BA900E4F0901530F0901531F0901532F0901533F0901534F0901535F0901536F090152B
:201BC90038F0901539F0A3F090153B14F0A3F0901529E0FDA3E0FEA3E0FF8D828E838FF0AF
:201BE900122456FBA3AD82AE83901529EDF0EEA3F0EFA3F090153FEBF0BB25088B82121AC4
:201C090069021B75BB30005003021CD6EB24C65003021CD690153BE0F521A3E0F52274FF8F
:201C2900B52163B52260C005C006C007901539E0FAA3E0FF90150FEAF0EFA3F090000AC035
:201C490005C0031219C9AE82AF83D003D0058B027D00EA2EFEED3FFFEE24D0FEEF34FFFF69
:201C6900901539EEF0EFA3F0D007D006D005901539E0F5F0A3E045F06003021BE390153008
:201C89007401F0021BE3C005C006C00790150FE521F0E522A3F090000AC006C005C0031246
:201CA90019C9AA82AF83D003D005D0067E00EB2AFAEE3FFFEA24D0FAEF34FFFF90153BEAE1
:201CC900F0EFA3F0D007D006D005021BE390153FE0FBBB2E2FC005C006C00790153BE0FA24
:201CE900A3E0FFBAFF05BFFF028009D007D006D005021BE3D007D006D00590153BE4F0A3F7
:201D0900F0021BE3BB61004014EB2485400F90153F74DF5BF09015157401F0800590151597
:201D2900E4F090153FE0FBBB20028075BB2B028067BB2D028059BB4202806FBB4302807CB9
:201D4900BB4403021FCDBB4603021FF3BB4803021BE3BB4903021FCDBB4A03021BE3BB4C68
:201D6900028050BB4F03021FDBBB5003021F3BBB53028077BB5403021BE3BB5503021FE3E5
:201D8900BB5803021FEBBB5A03021BE3021FFB90152F7401F0021BE39015317401F0021B53
:201DA900E39015327401F0021BE39015347401F0021BE39015357401F0021BE3901534E0C5
:201DC900600E90152CE014F9F090153FE7F0800F90152CE024FEFFF08F0190153FE7F090F7
:201DE900153FE0F582121A6902200A90152CE024FDFFF08F018705098706098707191990A2
:201E0900151BEDF0EEA3F0EFA3F08D828E838FF012243E85822185832290153BE0FAA3E007
:201E2900FDBAFF0DBDFF0A90153BE521F0E522A3F090152FE0704B901539E0FAA3E0FDC336
:201E4900E5219AE5229D503A901539EAC39521F0ED9522A3F0901539E0FAA3E0FD8A068DEE
:201E6900071ABAFF011DEE4F6010758220C005C002121A69D002D00580E3901539EAF0EDD2
:201E8900A3F090153BE0F524A3E0F52590151BE0FAA3E0FDA3E0FF8A828D838FF01224566D
:201EA900F523603CC3E4952474808525F063F08095F0502C152474FFB524021525852382B8
:201EC900121A6990151BE0FAA3E0FDA3E0FF0ABA00010D90151BEAF0EDA3F0EFA3F080AC2E
:201EE90090152FE0700302200A901539E0FEA3E0FFC3E5219EE5229F400302200A901539EE
:201F0900EEC39521F0EF9522A3F0901539E0FEA3E0FF8E028F051EBEFF011FEA4D7003021F
:201F29002002758220C007C006121A69D006D00780E090152CE024FDFDF08D0187260987A6
:201F490027098728191990151BE526F0E527A3F0E528A3F090151DE0FDBD800040089015A4
:201F69003F7443F08020BD6000400890153F7450F08013BD4000400890153F7449F08006E6
:201F890090153F7458F090153FE0FDF582C005121A6975823A121A69758230121A6975828D
:201FA90078121A69D005BD4902800EBD5002800990151CE0F582121AC490151BE0F58212D7
:201FC9001AC4803D9015337401F0901538740AF0802F9015387408F08027901538740AF0EB
:201FE900801F9015387410F080179015367401F0800F8B82121A698008901539EEF0EFA30A
:20200900F0901536E0607190152CE024FCFFF08F01870309870509870609870719191990C4
:20202900151BEBF0EDA3F0EEA3F0EFA3F090151B7421F07430A3F07480A3F090151BE0F571
:2020490026A3E0F527A3E0F52874012526FAE43527FBAF2890151BEAF0EBA3F0EFA3F08527
:2020690026828527838528F0122456FF7003021B758F82121A6980C3901538E07003021B1D
:2020890075901534E0604790152CE014F9F087077E007D007B0090151BEFF0EEA3F0EDA300
:2020A900F0EBA3F0901533E0600302214D90151BE0FBA3E0A3E0A3E07D007E007F009015DB
:2020C9001BEBF0EDA3F0EEA3F0EFA3F08076901535E0602890152CE024FCFFF08F0187036C
:2020E90009870509870609870719191990151BEBF0EDA3F0EEA3F0EFA3F0804890152CE033
:2021090024FEFFF08F01870609870719EF3395E0FDFB90151BEEF0EFA3F0EDA3F0EBA3F02B
:20212900901533E0701E90151BE0FBA3E0FDA3E0A3E07E007F0090151BEBF0EDA3F0EEA386
:20214900F0EFA3F0901533E0604190151BE0FBA3E0FDA3E0FEA3E0FF30E72B90151BE0FBB0
:20216900A3E0FDA3E0FEA3E0FFC3E49BFBE49DFDE49EFEE49FFF90151BEBF0EDA3F0EEA36A
:20218900F0EFA3F08005901533E4F09015377401F0901538E0F524752945752A15E4F521EB
:2021A900F52290151FE4F0852482121AE0901537E0702690151FE0C4F526852982852A83F9
:2021C900E0FFE5264207852982852A83EFF0152974FFB52902152A800C90151FE0FF8529D5
:2021E90082852A83F00521E4B521020522901537E0B40100E433F090151BE0FAA3E0FBA3F6
:20220900E0FEA3E0FFEA4B4E4F7097901546E529F0E52AA3F090153DE521F0E522A3F090EF
:202229001539E0F5F0A3E045F070099015397401F0E4A3F0901530E0FFE0704790152FE098
:20224900704185212985222A901539E0FAA3E0FBC007AF290F8F067F00C3EE9AEF9BD00780
:202269005019758220C007C003C002121A69D002D003D0071ABAFF011B80D5901539EAF07C
:20228900EBA3F0901533E0602075822DC007121A69D007901539E024FFFDA3E034FFFE9006
:2022A9001539EDF0EEA3F0805690153DE0F5F0A3E045F0604A901531E0602075822BC0076B
:2022C900121A69D007901539E024FFFDA3E034FFFE901539EDF0EEA3F08024901532E06000
:2022E9001E758220C007121A69D007901539E024FFFDA3E034FFFE901539EDF0EEA3F0900F
:20230900152FE0704890153DE0F529A3E0F52A901539E0FAA3E0FBC0078A068B071ABAFF64
:20232900011BC3E5299EE52A9FD0075053EF60067D307E0080047D207E008D82C007C00329
:20234900C002121A69D002D003D00780CA901539E0FEA3E0FF90153DE0F529A3E0F52AC3D4
:20236900E5299EE52A9F500F901539EEC39529F0EF952AA3F08011901539E4F0A3F08008BF
:20238900901539EAF0EBA3F0901546E0FEA3E0FF90153DE0F529A3E0F52AAA29AD2A152949
:2023A90074FFB52902152AEA4D6045901537E0B40100E433F0901537E070140EBE00010F12
:2023C9008E828F83E0C4540FFD90151FF0800E8E828F83E0FD53050F90151FEDF090151FC1
:2023E900E0F582C007C006121AA4D006D00780AA90152FE07003021B75901539E0FEA3E051
:20240900FF8E038F051EBEFF011FEB4D7003021B75758220C007C006121A69D006D00780F1
:15242900E08C82121A69021B75901520E0FEA3E08E82F58322B9
:0B3021003C4E4F20464C4F41543E00F7
:18243E00AA82AB831224566003A380F8C3E5829AF582E5839BF583224A
:0D00390075812A121534E58260030200363D
:1C24560020F71430F6148883A88220F507E6A88375830022E280F7E49322E02295
:00000001FF
