:0600000002003902020CAF
:01000B0032C2
:0100130032BA
:01001B0032B2
:0100230032AA
:01002B0032A2
:0300330002016463
:0300920002003633
:0300360002009530
:10009500745EC0E07424C0E07480C0E0121A2315B9
:1000A5008115811581758201120281C2910200B507
:1000B500758202120281747EC0E07424C0E07480EF
:1000C500C0E0121A2315811581158174B9C0E07439
:1000D50024C0E07480C0E0121A23158115811581B2
:1000E50074D8C0E07424C0E07480C0E0121A2315EF
:1000F500811581158174F6C0E07424C0E07480C058
:10010500E0121A23158115811581740FC0E074253D
:10011500C0E07480C0E0121A231581158115817421
:1001250025C0E07425C0E07480C0E0121A23158153
:1001350015811581120532AE82AF83BE4806BF0018
:100145000302056EBE5006BF000302117BBE4106C9
:10015500BF0003021563BE45C6BF00C30214E2C05B
:1001650020C0E0C0F0C082C083C007C006C005C083
:1001750004C003C002C001C000C0D075D00830D88B
:100185002DAEFA7F00ACEA7D00C00EC00FC00CC0DA
:100195000D7443C0E07425C0E07480C0E075D000E4
:1001A500121A2375D008E58124F9F581C2D810D932
:1001B50002800675F90075E90010DA02800C75F900
:1001C5000075E90075A61E75A6E110DB02801B749B
:1001D5006BC0E07425C0E07480C0E075D000121AD1
:1001E5002375D008158115811581D0D0D000D00197
:1001F500D002D003D004D005D006D007D083D0825A
:10020500D0F0D0E0D02032C020C0E0C0F0C082C025
:1002150083C007C006C005C004C003C002C001C03A
:1002250000C0D075D008C2A8758780C2DE7597FF5B
:10023500E4F5DAF5DBF5DCF5DDF5DE747DC0E074BB
:1002450025C0E07480C0E075D000121A2375D0086F
:1002550015811581158175D0001200B575D008D0AE
:10026500D0D000D001D002D003D004D005D006D024
:1002750007D083D082D0F0D0E0D02032E582900044
:1002850001F0E0908000F022438F01758E0C759887
:1002950042758780758DFF758BFF758920D29CD23D
:0902A5008ED2AFD2AE900000220F
:10245E000A0D2048454C4C4F21205374617274650F
:10246E006420696E205832204D6F6465200A0D007D
:10247E000A0A0D5E5E5E5E5E5E5E5E5E5E5E5E5E67
:10248E005E5E5E5E5E5E2D4D454E552D5E5E5E5E03
:10249E005E5E5E5E5E5E5E5E5E5E5E5E5E5E5E5E4E
:1024AE005E5E5E5E5E5E200A0A0D00274827202DC6
:1024BE003E20456E74657220486561702044656DDE
:1024CE006F204D6F6465200A0D00275027202D3E8A
:1024DE0020456E746572205043412044656D6F2017
:1024EE004D6F6465200A0D00274127202D3E2041A7
:1024FE007373656D626C792043204D6978200A0DE7
:10250E0000274527202D3E20454550524F4D204D4A
:10251E006F6465200A0D00506C65617365206D61F6
:10252E006B6520612076616C69642063686F6963F6
:10253E0065200A0D004361707475726564205661E2
:10254E006C7565204343504C202D3E20256420435E
:10255E00435048202D3E202564200A0D0054696DFD
:10256E00657220496E746572727570740A0D00473B
:10257E006F696E6720746F206D61696E206D656E78
:07258E00752E2E200A0D003E
:01305000027D
:1002AE00E582900004F0E0F582120345900002E032
:1002BE00F582120387900003E0F58212038F7E0011
:1002CE007F00C3EE945AEF64809480501D7C007DB5
:1002DE0000C3EC940AED6480948050070CBC00F1CE
:1002EE000D80EE0EBE00DB0F80D822E58290000658
:1002FE00F0E0FFF582C007120345900005E0F5829D
:10030E00120387D0078F82120353020361AF8290CC
:10031E00001AE0FE90001BE08EF084EFA4F58290B0
:10032E00001AF075825512160690001AE0F5822218
:10033E00D290D297C2972212033EE5822344A07A2E
:10034E00091203A12212033EE5822344A17A091267
:10035E0003A1227A087400C3120374C29712039A7F
:10036E00F58222DA0122D290309707D333C290025F
:10037E000371C333C290020371E5827A091203A19D
:10038E0022E5827A091203A112039A22C297D29011
:10039E00D29722C290DA07D297D290C290223350CF
:1003AE00030203BBC297D290C2900203A1D297D28E
:1003BE0090C2900203A1AF83E582900007F0EFA3F5
:1003CE00F0900009E4F0A3F0900007E0FEA3E0FF38
:1003DE00C3E49E74808FF063F08095F040030204B6
:1003EE008AC007C006120532AC82AD83D006D00794
:1003FE00C374399C74808DF063F08095F0405CEC92
:10040E009430ED648094804052EC24D0FCED34FFA7
:10041E00FDEE24FFFAEF34FFFB8A828B83C007C008
:10042E0006C005C004120496AA82AB83D004D00580
:10043E00901514EAF0EBA3F08C828D831219B5ACF3
:10044E0082AD83D006D007900009E0FAA3E0FB90BE
:10045E000009EC2AF0ED3BA3F080197495C0E0740E
:10046E0025C0E07480C0E0121A2315811581158114
:10047E0090FFFF221EBEFF011F0203DE900009E067
:10048E00FEA3E08E82F58322AF83E58290000BF00F
:10049E00EFA3F090000D7401F0E4A3F090000BE0D8
:1004AE00FEA3E0FF7C007D00C3EC9EED64808FF028
:1004BE0063F08095F0503A90000DE0FAA3E0FB90C7
:1004CE001514EAF0EBA3F090000AC007C006C005B1
:1004DE00C0041219B5E5828583F0D004D005D0068C
:1004EE00D00790000DF0E5F0A3F00CBC00BA0D8023
:1004FE00B7EE4F70049000012290000DE0FEA3E0D5
:10050E008E82F58322AF83E58290000FF0EFA3F089
:10051E00E59830E1FBC29990000FE0FEA3E08E99C2
:10052E009000002210980280FB743FB5990280273C
:10053E00743DB5990280207440B599028019742BD0
:10054E00B599028012742DB59902800BAE997F0079
:10055E008E828F83120513AE997F008E828F832237
:102595004552522C4E756D62657273204F4E4C59E3
:0425A500210A0D00FA
:10056E001209FE121011020BD57E007F00900019A9
:10057E00E0FCA3E0FDC3EE9CEF64808DF063F080A1
:10058E0095F05061901514EEF0EFA3F090000CC0B2
:10059E0007C0061219B5AC82AD83EC241BFCED34FA
:1005AE0000FD8C828D83A3A3E0FBA3E0FCA3E0FD02
:1005BE008B828C838DF012162AD006D007C007C00E
:1005CE0006C006C00774A9C0E07425C0E07480C0E0
:1005DE00E0121A23E58124FBF581D006D0070EBE6A
:1005EE00008B0F808874C0C0E07425C0E07480C09A
:1005FE00E0121A2315811581158102056E900019DE
:10060E00E0FEA3E0FF1EBEFF011FC006C00774D6AA
:10061E00C0E07425C0E07480C0E0121A23E5812486
:10062E00FBF5819000031203C4AE82AF83C3E49E38
:10063E0074808FF063F08095F050C2900019E0FC4A
:10064E00A3E0FDC3EE9CEF64808DF063F08095F027
:10065E0050AB901514EEF0EFA3F090000CC007C055
:10066E00061219B5AC82AD83D006D007EC241BFC64
:10067E00ED3400FD8C828D83A3A3E0F514A3E0F589
:10068E0015A3E0F51674082CF582E43DF583E0FC25
:10069E00A3E0FDE4F510F511C004C005900019E0CB
:1006AE00F512A3E0F513E51224FFF8E51334FFFD70
:1006BE00C3E51098E51164808DF063F08095F0D05D
:1006CE0005D0044003020784C3E5109EE511648043
:1006DE008FF063F08095F05003020779C004C005D7
:1006EE0090151474012510F0E43511A3F090000C50
:1006FE00C007C006C0041219B5A882AD83D004E8A5
:10070E00241BF582ED3400F583E510F0E511A3F01E
:10071E00901514E510F0E511A3F090000CC005C083
:10072E00001219B5AB82AC83D000D005EB241BFBB5
:10073E00EC3400FC7A00E8241BF8ED3400FD901533
:10074E0003E8F0EDA3F0E4A3F0901506740CF0E4CA
:10075E00A3F08B828C838AF0C005C004121781D05F
:10076E0004D005D006D007D005D0040510E4B5108E
:10077E000205110206A6E51224FFFAE51334FFFB6B
:10078E00900019EAF0EBA3F0900013E0FAA3E0FB5F
:10079E00EAC39CFCEB9DFD900013ECF0EDA3F0ABD7
:1007AE0014AC15AD168B828C838DF0C007C006126B
:1007BE00162AD006D007C006C007740FC0E07426F4
:1007CE00C0E07480C0E0121A23E58124FBF581900D
:1007DE000000227433C0E07426C0E07480C0E012C2
:1007EE001A231581158115817473C0E07426C0E03B
:1007FE007480C0E0121A2315811581158174AAC068
:10080E00E07426C0E07480C0E0121A2315811581B1
:10081E00158174DCC0E07426C0E07480C0E0121A4A
:10082E002315811581158174F6C0E07426C0E0741D
:10083E0080C0E0121A231581158115817416C0E04F
:10084E007427C0E07480C0E0121A2315811581153B
:10085E00817434C0E07427C0E07480C0E0121A23A3
:10086E00158115811581745AC0E07427C0E074801B
:10087E00C0E0121A2315811581158122900013E014
:10088E00FEA3E0FF900011E0FCA3E0FDEEB504072F
:10089E00EFB505030209E57475C0E07427C0E07476
:1008AE0080C0E0121A231581158115819000031264
:1008BE0003C4AE82AF83C3EE941EEF648094804077
:1008CE00D6742C9E74818FF063F08095F040C88EA4
:1008DE00828F83C007C00612184CAC82AD83D0063F
:1008EE00D0077B00900149ECF0EDA3F0EBA3F0EC08
:1008FE004D70187498C0E07427C0E07480C0E01288
:10090E001A231581158115810209E1C007C00674ED
:10091E00B6C0E07427C0E07480C0E0121A231581BF
:10092E0015811581D006D007900013E0FCA3E0FDE1
:10093E00EE2CFCEF3DFD900013ECF0EDA3F09001DA
:10094E004FEEF0EFA3F0900019E0FCA3E0FD900154
:10095E0047ECF0EDA3F0900149E0FBA3E0FCA3E02F
:10096E00FDEE2BFEEF3CFF8D0290014CEEF0EFA35F
:10097E00F0EAA3F0900151E4F0A3F0900019E0FE2C
:10098E00A3E0FF901514EEF0EFA3F090000C1219F7
:10099E00B5AE82AF83EE241BFEEF3400FF7D0090D8
:1009AE0015037447F07401A3F0E4A3F090150674D8
:1009BE000CF0E4A3F08E828F838DF01217819000DD
:1009CE0019E0FEA3E0FF0EBE00010F900019EEF03D
:1009DE00EFA3F09000002274DCC0E07427C0E07436
:1009EE0080C0E0121A231581158115819000002216
:1009FE00740AC0E07428C0E07480C0E0121A231597
:100A0E0081158115819000041203C4AE82AF83C399
:100A1E00EE9430EF6480948040D674C09E74928FB2
:100A2E00F063F08095F040C88E828F83C007C006B9
:100A3E0012184CAC82AD83D006D0077B00900155C6
:100A4E00ECF0EDA3F0EBA3F08E828F83C007C0060F
:100A5E0012184CAC82AD83D006D0077B009001619A
:100A6E00ECF0EDA3F0EBA3F0900155E0FBA3E0FC5E
:100A7E00A3E0EB4C600F900161E0FBA3E0FCA3E070
:100A8E00FDEB4C70607437C0E07428C0E07480C019
:100A9E00E0121A23158115811581900155E0FBA3F3
:100AAE00E0FCA3E0EB4C6014900155E0FBA3E0FCEE
:100ABE00A3E0FD8B828C838DF012162A900161E0EB
:100ACE00FBA3E0FCA3E0FDEB4C70030209FE9001DA
:100ADE0061E0FBA3E0FCA3E0FD8B828C838DF01222
:100AEE00162A0209FEC007C006746CC0E07428C046
:100AFE00E07480C0E0121A23158115811581D0068D
:100B0E00D007EE2EFCEF33FD900013ECF0EDA3F0CA
:100B1E009000117484F07413A3F09000197402F015
:100B2E00E4A3F090015BEEF0EFA3F0900167EEF01E
:100B3E00EFA3F0900153E4F0A3F090015F04F0E412
:100B4E00A3F0900161E0FBA3E0FCA3E0FDEE2BFB24
:100B5E00EF3CFC900164EBF0ECA3F0EDA3F0900100
:100B6E0055E0FBA3E0FCA3E0FDEE2BFEEF3CFF8D7A
:100B7E0002900158EEF0EFA3F0EAA3F090015DE4CD
:100B8E00F0A3F0900169F0A3F09015037453F07484
:100B9E0001A3F0E4A3F0901506740CF0E4A3F0901A
:100BAE00001B75F000121781901503745FF074012D
:100BBE00A3F0E4A3F0901506740CF0E4A3F09000FB
:100BCE002775F0000217811207E1120532AE82AFCF
:100BDE0083C374609E74808FF063F08095F0400341
:100BEE00020C7DC3EE947BEF648094804003020C74
:100BFE007D900025E0FCA3E0FD900023E0FAA3E049
:100C0E00FBC3EC9AED64808BF063F08095F050326C
:100C1E0090001DE0F9A3E0FAA3E0FBEC29F9ED3A10
:100C2E00FA8E0589828A838BF0ED1217F5900025D6
:100C3E00E0FCA3E0FD0CBC00010D900025ECF0EDF6
:100C4E00A3F0900015E0FCA3E0FD0CBC00010D909C
:100C5E000015ECF0EDA3F0900017E0FCA3E0FD0C06
:100C6E00BC00010D900017ECF0EDA3F0020BD8BE06
:100C7E003F1FBF001C120F56121011120CFF9000D6
:100C8E0015E4F0A3F0900017F0A3F01207E1020BA9
:100C9E00D8BE3D0CBF0009120E0F1207E1020BD891
:100CAE00BE400CBF00091205771207E1020BD8BE39
:100CBE002B0CBF000912088A1207E1020BD8BE2DB9
:100CCE000CBF000912060B1207E1020BD8BE4D092C
:100CDE00BF00061200B5020BD8900015E0FEA3E08F
:100CEE00FF0EBE00010F900015EEF0EFA3F0020B09
:100CFE00D890016B7440F0E4A3F0900025E0FEA3C1
:100D0E00E0FFC3E49E74808FF063F08095F04003A3
:100D1E00020DF9749BC0E07428C0E07480C0E0122C
:100D2E001A231581158115817E007F00900025E024
:100D3E00FCA3E0FDC3EE9CEF64808DF063F0809524
:100D4E00F04003020DDC90016BE0FCA3E0FDBC4023
:100D5E0020BD001DC007C00674C9C0E07428C0E0E5
:100D6E007480C0E0121A23158115811581D006D02A
:100D7E000790001DE0FBA3E0FCA3E0FDEE2BFBEFD4
:100D8E003CFC8B828C838DF0122442FB7D008B8287
:100D9E008D83C007C006120513D006D00790016BD5
:100DAE00E024FFFCA3E034FFFD90016BECF0EDA31B
:100DBE00F090016BE0F5F0A3E045F0700990016B47
:100DCE007440F0E4A3F00EBE00010F020D3A900045
:100DDE0025E4F0A3F074CCC0E07428C0E07480C0A9
:100DEE00E0121A231581158115812274D0C0E0748A
:100DFE0028C0E07480C0E0121A2315811581158178
:100E0E0022900025E0FEA3E0FFC3E49E74808FF0E5
:100E1E0063F08095F04003020F4074E7C0E0742841
:100E2E00C0E07480C0E0121A2315811581158174FB
:100E3E002AC0E07429C0E07480C0E0121A23158124
:100E4E001581158190016D7410F0E4A3F07E007F82
:100E5E0000900025E0FCA3E0FDC3EE9CEF64808DC6
:100E6E00F063F08095F04003020F2A90016DE0FCD4
:100E7E00A3E0FDBC1037BD003490001DE0FBA3E0E5
:100E8E00FCA3E0FDEE2BFBEF3CFCC007C006C0034D
:100E9E00C004C0057469C0E07429C0E07480C0E06D
:100EAE00121A23E58124FAF581D006D00790001D91
:100EBE00E0FBA3E0FCA3E0FDEE2BFBEF3CFC8B8202
:100ECE008C838DF0122442FB7D00C007C006C00348
:100EDE00C0057470C0E07429C0E07480C0E0121ABE
:100EEE0023E58124FBF581D006D00790016DE02427
:100EFE00FFFCA3E034FFFD90016DECF0EDA3F0904C
:100F0E00016DE0F5F0A3E045F0700990016D7410ED
:100F1E00F0E4A3F00EBE00010F020E5F74CCC0E031
:100F2E007428C0E07480C0E0121A23158115811553
:100F3E0081227474C0E07429C0E07480C0E0121A7B
:100F4E002315811581158122748BC0E07429C0E0B0
:100F5E007480C0E0121A231581158115819000113D
:100F6E00E0FEA3E0FFC006C00774B7C0E07429C05E
:100F7E00E07480C0E0121A23E58124FBF581900015
:100F8E0013E0FEA3E0FFC006C00774CEC0E07429D4
:100F9E00C0E07480C0E0121A23E58124FBF5819035
:100FAE000015E0FEA3E0FFC006C00774E9C0E074C0
:100FBE0029C0E07480C0E0121A23E58124FBF5817C
:100FCE00900017E0FEA3E0FFC006C00774FAC0E071
:100FDE007429C0E07480C0E0121A23E58124FBF569
:100FEE0081900019E0FEA3E0FFC006C007740FC099
:100FFE00E0742AC0E07480C0E0121A23E58124FB5D
:10100E00F581227E007F00900019E0FCA3E0FDC375
:10101E00EE9CEF64808DF063F08095F0400302113A
:10102E0065C007C006C006C0077424C0E0742AC09D
:10103E00E07480C0E0121A23E58124FBF581D0060E
:10104E00D007901514EEF0EFA3F090000CC007C07F
:10105E00061219B5AC82AD83EC241BF582ED34007B
:10106E00F583E0FAA3E0FBC005C004C002C0037420
:10107E004FC0E0742AC0E07480C0E0121A23E581EC
:10108E0024FBF581D004D005EC241BFCED3400FDCF
:10109E008C828D83A3A3E0F9A3E0FAA3E0FBC00545
:1010AE00C004C001C002C003745EC0E0742AC0E078
:1010BE007480C0E0121A23E58124FAF581D004D0A1
:1010CE00058C828D83A3A3A3A3A3E0F9A3E0FAA3C7
:1010DE00E0FBC005C004C001C002C0037471C0E0D3
:1010EE00742AC0E07480C0E0121A23E58124FAF558
:1010FE0081D004D00574082CF582E43DF583E0FA26
:10110E00A3E0FBC005C004C002C0037482C0E0743B
:10111E002AC0E07480C0E0121A23E58124FBF58119
:10112E00D004D005740A2CF582E43DF583E0FCA3CF
:10113E00E0FDC004C0057494C0E0742AC0E0748061
:10114E00C0E0121A23E58124FBF581D006D0070EEC
:10115E00BE00010F02101574A5C0E0742AC0E07421
:0D116E0080C0E0121A231581158115812221
:1025A90042756666657220256420467265656420F9
:1025B9002E2E2E2E0A0D004C657427732062656736
:1025C900696E20616761696E2E2E0A0D000A0D473A
:1025D9006976652056616C69642042756666657224
:1025E900204E756D62657220746F2064656C657428
:1025F9006528312D25642920696E20332064696797
:102609006974730A0D004275666665722025642037
:102619005375636365737366756C6C792044656C77
:10262900657465642E2E200A0D000A0A0D5E5E5E31
:102639005E5E5E5E5E5E5E5E5E5E5E5E5E5E5E5EB1
:102649002D484541502D4D454E552D5E5E5E5E5ED1
:102659005E5E5E5E5E5E5E5E5E5E5E5E5E5E5E5E91
:102669005E5E5E5E5E200A0A0D00596F7520636129
:102679006E20656E7465722063686172616374654A
:102689007273206F722075736520636F6D6D616E53
:1026990064732066726F6D2062656C6F77200A0D16
:1026A90000273F27202D3E2053686F7720686561FA
:1026B90070207374617475732C2064756D70202695
:1026C90020636C65617220427566666572203020F0
:1026D9000A0D00272B27202D3E204164642061200C
:1026E9006E6577204275666665720A0D00272D278B
:1026F900202D3E2044656C65746520657869737486
:10270900696E67204275666665720A0D00273D2766
:10271900202D3E2044756D702042756666657220D5
:102729003020696E206865780A0D00274027202D22
:102739003E204672656520616C6C20486561702099
:102749002620626567696E20616761696E0A0A0DF4
:1027590000274D27202D3E20476F20746F204D61A3
:10276900696E204D656E75200A0A0D000A0D4769CC
:1027790076652056616C69642042756666657220CB
:1027890053697A65283033302D333030293A004681
:1027990061696C65642C206769766520736D616C6D
:1027A9006C6572206275666665720A0D000A0A0D0B
:1027B90023232323535543434553532C2042554642
:1027C9004645522043726561746564232323230AB5
:1027D9000A0D004E6F2048656170204D656D6F725E
:1027E90079204C6566742C2044656C65746520738A
:1027F9006F6D6520627566666572732E2E2E0A0DE1
:10280900000A0D476976652056616C696420496E36
:10281900697469616C204275666665722053697ACC
:102829006528303034382D34383030293A000A0DD3
:10283900232323234641494C2C20506C6561736541
:102849002067697665206120736D616C6C65722003
:102859006275666665722073697A65232323230A84
:102869000A0D000A0A0D23232323535543434553D5
:10287900532C20494E495449414C2042554646451E
:1028890052532043726561746564232323230A0A22
:102899000D000A0A0D2A2A2A2A2A2A2A2A2A2A2A33
:1028A9004275666665722D302D436F6E74656E7460
:1028B900732A2A2A2A2A2A2A2A2A2A2A200A0D0097
:1028C9000A0D000A0A0D00427566666572302069B4
:1028D9007320456D7074792E2E2E2E0A0D000A0D67
:1028E9002D2D2D2D2D2D2D2D2D2D2D2D2D2D2D2D0F
:1028F9002D2D2D2D2D2D2D2D2D48455844554D501F
:102909002D2D2D2D2D2D2D2D2D2D2D2D2D2D2D2DEE
:102919002D2D2D2D2D2D2D2D2D2D2D2D2D2D2D2DDE
:10292900000A0D20202020414444523A202B302017
:102939002B31202B32202B33202B34202B35202BED
:1029490036202B37202B38202B39202B41202B42A6
:10295900202B43202B44202B45202B46200A0D00F9
:102969000A0D25703A2000257820004275666665B3
:1029790072203020697320656D7074792E2E2E0AAD
:102989000D000A0D2A2A2A2A2A2A2A2A2A2A2A2A22
:102999002A2A2A2A484541502A53544154532A2A5B
:1029A9002A2A2A2A2A2A2A2A2A2A2A0A0D00546F76
:1029B90074616C20486561702053697A653A2025F5
:1029C90064200A0D00416C6C6F6361746564204872
:1029D9006561702053697A653A202564200A0D00E3
:1029E900416C6C2043686172733A202564200A0D9A
:1029F9000053746F726167652043686172733A208E
:102A09002564200A0D00546F74616C204275666656
:102A19006572733A202564200A0D002A2A2A2A2A77
:102A29002A2A2A2A2A2A2A2A2A2A2A425546464567
:102A3900522A25642A2A2A2A2A2A2A2A2A2A2A2A90
:102A49002A2A2A0A0D00427566666572233A2025EC
:102A590064200A0D0042756666657253746172746A
:102A69003A202570200A0D00427566666572456E2A
:102A7900643A202570200A0D004275666665725316
:102A8900697A653A202564200A0D00546F74616CD7
:102A9900557365643A202564200A0D002A2A2A2ADA
:102AA9002A2A2A2A2A2A2A2A2A2A2A2A2A2A2A2A7D
:102AB9002A2A2A2A2A2A2A2A2A2A2A2A2A2A2A2A6D
:062AC9002A2A2A0A0D0072
:10117B0074CFC0E0742AC0E07480C0E0121A23154B
:10118B00811581158112140F74EAC0E0742AC0E036
:10119B007480C0E0121A2315811581158112053256
:1011AB00AE82AF83BE4609BF000612123B02121677
:1011BB00BE5308BF00051212568050BE4808BF0030
:1011CB00051212878045BE5008BF00051212AB8076
:1011DB003ABE5708BF00051212CF802FBE4908BF79
:1011EB0000051213738024BE4408BF00051213A818
:1011FB008019BE4C08BF00051213DD800EBE5505CD
:10120B00BF0002800302119312132A7408C0E0740A
:10121B002BC0E07480C0E0121A2315811581158153
:10122B00120532AE82AF83BE45E1BF00DE02117BF9
:10123B007427C0E0742BC0E07480C0E0121A231531
:10124B00811581158175DA21D2DE227468C0E074B4
:10125B002BC0E07480C0E0121A2315811581158113
:10126B0075EDFF75FDFF75DD49D2DE120532AE82DD
:10127B00AF83BE53F6BF00F375DD00227488C0E068
:10128B00742BC0E07480C0E0121A231581158115F0
:10129B008175ECFF75FC0275DC4D75D902D2DE222F
:1012AB0074B1C0E0742BC0E07480C0E0121A231537
:1012BB00811581158175EDC075FDC075DD4275D940
:1012CB0002D2DE2275EBFF75FB8075DB4990154E64
:1012DB007401F0E4A3F074E1C0E0742BC0E07480FF
:1012EB00C0E0121A2315811581158175EEFF75FE6D
:1012FB00FF75D94075DE48D2DE74FDC0E0742BC09B
:10130B00E07480C0E0121A23158115811581120536
:10131B0032AE82AF83BE53F6BF00F375DB0022758E
:10132B00ECFF75FCFF75DC49744DC0E0742CC0E01C
:10133B007480C0E0121A2315811581158175A707DA
:10134B00D2DE7472C0E0742CC0E07480C0E0121A5C
:10135B0023158115811581120532AE82AF83BE53E1
:10136B00F6BF00F375DC00221212AB74E3C0E0741D
:10137B002CC0E07480C0E0121A23158115811581F1
:10138B00D2A87587017416C0E0742DC0E07480C0BC
:10139B00E0121A231581158115810200B51212ABCB
:1013AB00744AC0E0742DC0E07480C0E0121A23159B
:1013BB008115811581D2A87587027416C0E0742D32
:1013CB00C0E07480C0E0121A2315811581158102CB
:1013DB0000B57483C0E0742DC0E07480C0E0121AB5
:1013EB002315811581158174C5C0E0742DC0E0747F
:1013FB0080C0E0121A23158115811581D2A875972B
:10140B00000200B574EEC0E0742DC0E07480C0E043
:10141B00121A23158115811581742DC0E0742EC00D
:10142B00E07480C0E0121A23158115811581745068
:10143B00C0E0742EC0E07480C0E0121A2315811531
:10144B00811581746DC0E0742EC0E07480C0E01211
:10145B001A23158115811581748DC0E0742EC0E09F
:10146B007480C0E0121A2315811581158174A0C0F8
:10147B00E0742EC0E07480C0E0121A231581158130
:10148B00158174BDC0E0742EC0E07480C0E0121AE8
:10149B002315811581158174D9C0E0742EC0E074B9
:1014AB0080C0E0121A231581158115817407C0E0E5
:1014BB00742FC0E07480C0E0121A231581158115BA
:1014CB00817428C0E0742FC0E07480C0E0121A232E
:0714DB001581158115812226
:102ACF0048656C6C6F2C20496E2050434120446543
:102ADF006D6F206D6F6465200A0D00506C6561731A
:102AEF0065206D616B6520612076616C6964206380
:102AFF00686F696365200A0D00506C65617365200E
:102B0F0027452720746F2065786974206F722052D3
:102B1F0065736574200A0D0053657474696E6720C0
:102B2F0050312E332061732066616C6C696E6720A3
:102B3F0065646765206465746563746F722C2065C6
:102B4F006E61626C696E672050434120696E7465D7
:102B5F007272757074200A0D00456E746572696E1D
:102B6F006720536F6674776172652054696D657263
:102B7F00204D6F6465200A0D00456E746572696E95
:102B8F0067204869676820537065656420546F67D4
:102B9F00676C65204D6F64652C2050312E35200AEF
:102BAF000D00456E746572696E672050574D204D4C
:102BBF006F64652C2032352070657263656E7420EA
:102BCF0044757479204379636C652050312E360A31
:102BDF000D00456E61626C696E67205761746368A2
:102BEF00646F672054696D65722E2E0A0D00437550
:102BFF007272656E746C79205761746368646F6765
:102C0F00206973206265696E6720736572766963E8
:102C1F0065640A0D50726573732027532720746FF4
:102C2F002073746F7020616E642067656E657261CA
:102C3F0074652061207265736574200A0D00456EFE
:102C4F0061626C696E67204861726477617265209A
:102C5F005761746368646F672054696D65722E2EB7
:102C6F000A0D0043757272656E746C79204861723B
:102C7F006477617265205761746368646F67206958
:102C8F0073206265696E6720736572766963656428
:102C9F000A0D50726573732027532720746F2073AA
:102CAF00746F70207761746368646F6720736572E7
:102CBF007669636520616E642067656E6572617405
:102CCF0065206120726573657420696E207E317393
:102CDF00200A0D00456E746572696E672049646C39
:102CEF00652C2057696C6C2045786974206F6E20B5
:102CFF0065787465726E616C20696E746572727539
:102D0F00707420300A0D00576F6B65207570206648
:102D1F00726F6D2049646C652F506F7765722064F8
:102D2F006F776E2C20676F696E6720746F206D61EF
:102D3F00696E206D656E75200A0D00456E746572A3
:102D4F00696E6720706F77657220646F776E2C20C5
:102D5F0057696C6C2045786974206F6E20657874A4
:102D6F0065726E616C20696E746572727570742015
:102D7F00300A0D004368616E67696E6720436C6FA0
:102D8F00636B207072657363616C617220746F2066
:102D9F00676F20746F206C6F776573742066726530
:102DAF007175656E637920696E205832204D6F649E
:102DBF00652E2E0A0D005468697320554152542018
:102DCF0053657373696F6E2077696C6C2073746FC2
:102DDF007020776F726B696E672E2E2E0A0D000AA8
:102DEF000A0D5E5E5E5E5E5E5E5E5E5E5E5E5E5E99
:102DFF005E5E5E5E5E2D5043412D4D454E552D5E00
:102E0F005E5E5E5E5E5E5E5E5E5E5E5E5E5E5E5ED3
:102E1F005E5E5E5E5E5E5E5E5E200A0A0D002746A7
:102E2F0027202D3E2046616C6C696E6720456467D4
:102E3F00652043617074757265204D6F64650A0D6E
:102E4F0000275327202D3E20536F667477617265DC
:102E5F002054696D6572204D6F64650A0D00274817
:102E6F0027202D3E204869676820537065656420D0
:102E7F004F7574707574204D6F64650A0D0027507F
:102E8F0027202D3E2050574D204D6F6465200A0D91
:102E9F0000275727202D3E205761746368646F67A2
:102EAF002054696D6572204D6F64650A0D002749C6
:102EBF0027202D3E2049646C65204D6F6465207777
:102ECF006974682050574D0A0D00274C27202D3E5E
:102EDF00204368616E6765205072657363616C6132
:102EEF007220746F206C6F776573742066726571D2
:102EFF0075656E63790A0D00275527202D3E2048F2
:102F0F0061726477617265205761746368646F677B
:102F1F002054696D65720A0D00274427202D3E202D
:102F2F00506F77657220446F776E204D6F64650A1E
:032F3F000A0D0078
:0230510000007D
:1014E2007E007F00C3EF6480948150218E059000BE
:1014F20002EDF0900003EDF0758200C007C0061205
:1015020002AED006D0070EBE00DA0F80D712053227
:101512007E007F00C3EF648094815043900005EE0B
:10152200F0758200C007C0061202F9AD82D006D063
:10153200077C00C007C006C005C004C006C007740F
:1015420042C0E0742FC0E07480C0E0121A23E5812B
:1015520024F9F581D006D0070EBE00B80F80B58001
:01156200FE8A
:102F42006C6F63202D3E25642076616C20697320AE
:092F52002D3E202578200A0D0017
:10156300745BC0E0742FC0E07480C0E0121A2315CE
:1015730081158115819000031203C4AE82C00674E5
:1015830074C0E0742FC0E07480C0E0121A23158188
:10159300158115819000031203C4AD82C005748DBB
:1015A300C0E0742FC0E07480C0E0121A23158115C7
:1015B3008115819000031203C4AC82D005D006903C
:1015C300001AEDF090001BECF08E8212031BAF8229
:1015D3007E00C007C00674A6C0E0742FC0E074800C
:1015E300C0E0121A23E58124FBF58174D5C0E074B1
:1015F3002FC0E07480C0E0121A2315811581158174
:101603000200B5E58290016FF0E0FF7E00C007C0E5
:101613000674F5C0E0742FC0E07480C0E0121A2392
:07162300E58124FBF58122A3
:102F5B000A0D204769766520706172616D20312CF6
:102F6B002038626974200A0D000A0D2047697665C6
:102F7B0020706172616D20322C2038626974200AD6
:102F8B000D000A0D204769766520706172616D2016
:102F9B00332C2038626974200A0D000A0D2052452B
:102FAB0053554C542D3E20706172616D333C4D6F07
:102FBB00643E706172616D32202A20706172616DA6
:102FCB0031203D202564200A0D000A0D20476F6932
:102FDB006E67206261636B20746F206D61696E2078
:102FEB006D656E752E2E200A0D000A0A0D20546891
:102FFB0069732066756E6374696F6E2077617320D9
:10300B0063616C6C65642066726F6D2061737365B0
:10301B006D626C792C2063686172616374657220D8
:10302B0073656E742066726F6D20746865726520AF
:0A303B002D3E2025630A0D008A13C4
:10162A00AFF0AE83E5829014FAF0EEA3F0EFA3F0E8
:10163A009014FAE0FDA3E0FEA3E09014FAE0F5F0BE
:10164A00A3E045F07001229014FFE4F0A3F0901596
:10165A000CE0FBA3E0FC9014FDEBF0ECA3F090157A
:10166A0001740CF07415A3F09014FDE0FBA3E0FCE8
:10167A004B60418B018C02C003C0048D008E04C3F1
:10168A00E998EA9CD004D003502A9014FFEBF0ECBE
:10169A00A3F074022BFBE43CFC901501EBF0ECA3E5
:1016AA00F08B828C83E0FBA3E0FC9014FDEBF0EC62
:1016BA00A3F080B49014FDE0FEA3E0FF9014FAE0DA
:1016CA00FBA3E0FCA3E0EB24FEFBEC34FFFC74027A
:1016DA002BFAE43CFD8A828D83EEF0EFA3F090159D
:1016EA0001E0F8A3E0F988828983EBF0ECA3F08BA0
:1016FA00828C83E0F8A3E0F9EEB50033EFB5012F51
:10170A0088828983A3A3E0FEA3E0FF8A828D83EE09
:10171A00F0EFA3F08B828C83E0FEA3E0FF8E828F32
:10172A0083E0FEA3E0FF8B828C83EEF0EFA3F090C0
:10173A0014FFE0FEA3E0FF4E603C8E828F83E0F848
:10174A00A3E0F9E8B5032FE9B5042B8B828C83E07B
:10175A00FBA3E0FC8E828F83EBF0ECA3F074022EE5
:10176A00FEE43FFF8A828D83E0FAA3E0FD8E828F3A
:07177A0083EAF0EDA3F02269
:06006800E478FFF6D8FD6C
:10178100AFF0AE83E582901508F0EEA3F0EFA3F081
:10179100901508E0F51AA3E0F51BA3E0F51CAA1AC1
:1017A100AB1BAC1C901503E0F8A3E0F9A3E0FF909C
:1017B1001506E0F51DA3E0F51EAD1DAE1E151D7449
:1017C100FFB51D02151EED4E6020888289838FF0C2
:1017D100122442FEA3A882A9838A828B838CF0EE15
:1017E1001217F5A3AA82AB8380CF851A82851B834A
:0417F100851CF02241
:100046007903E94400601B7A01903050784D75A021
:1000560015E493F2A308B8000205A0D9F4DAF27504
:02006600A0FFF9
:1017F50020F71130F6138883A88220F509F6A8830F
:101805007583002280FEF280F5F02290150C74702D
:10181500F07401A3F0903043E493FE740193FF1E2E
:10182500BEFF011FEE2470FEEF3401FF900170EE44
:10183500F0EFA3F090150CE0FEA3E0FF8E828F83FE
:10184500A3A3E4F0A3F022AF83E58290150EF0EF99
:10185500A3F090150CE0F5F0A3E045F07003121825
:101865001090150EE0FEA3E0FF4E600E74022EFCF4
:10187500E43FFDC3EC9EED9F5004900000229015BF
:101885000E74022EF0E43FA3F090150EE0FEA3E0E7
:10189500FFC3EE9404EF9400500990150E7404F004
:1018A500E4A3F090150CE0FEA3E0FF901510EEF018
:1018B500EFA3F0901512740CF07415A3F0901510A9
:1018C500E0FEA3E0FF4E70030219B18E828F83E024
:1018D500FCA3E0FD8C028D038E008F01EAC398FA0C
:1018E500EB99FB8A008B0190150EE0F517A3E0F547
:1018F50018C3E89517E99518500302198E74042545
:1019050017F8E43518F9C3EA98EB99404C8E028F25
:1019150003E5172AFAE5183BFB8A828B83ECF0ED89
:10192500A3F074022AFCE43BFD8E828F83A3A3E01F
:10193500F8A3E0F98C828D83E8F0E9A3F090151205
:10194500E0FCA3E0FD8C828D83EAF0EBA3F08E82B0
:101955008F83EAF0EBA3F0801C901512E0FCA3E066
:10196500FD8E828F83A3A3E0FAA3E0FB8C828D8397
:10197500EAF0EBA3F0901510E0FCA3E0FD74022C57
:10198500FCE43DFD8C828D832274022EFEE43FFF34
:10199500901512EEF0EFA3F08E828F83E0FEA3E0A8
:1019A500FF901510EEF0EFA3F00218C29000002290
:1019B500AA83AB828BF0901514E0A4F8A9F08AF005
:1019C500E0A429F98BF0A3E0A429F58388822222DB
:10006E007800E84400600A790175A000E4F309D82D
:10007E00FC784CE84415600C7916900001E4F0A36E
:04008E00D8FCD9FAC7
:1019D500C0198581197E008E83120513D01922AF97
:1019E500F0AE83E582901517F0EEA3F0EFA3F0902B
:1019F5001517E0FDA3E0FEA3E0FF901516E0FC90AF
:101A0500152BE4F0A3F0A3F090152EEDF0EEA3F066
:101A1500EFA3F0901531ECF09019D5021B29C019F0
:101A2500E581F51924FBFF90152BE4F0A3F0A3F055
:101A3500E51924FBF890152EE6F008E6A3F008E674
:101A4500A3F0901531EFF09019D5121B29D019226A
:101A5500E582901527F0E0FF90151DE0C0E0A3E0BA
:101A6500C0E0A3E0C0E0121A70800D90151BE0C025
:101A7500E0A3E0C0E08F82221581158115819015C4
:101A850025E02401F0A3E03400F022E5829015283A
:101A9500F0E02430FF24C6500D74072FFF90151A6F
:101AA500E060034307208F82021A55E582901529CD
:101AB500F0E0FFC4540FF582C007121A90D0075307
:101AC500070F8F82021A90E58290152AF090152053
:101AD500E0FCA3E0FDA3E0FEA3E0FF901524E0FBFE
:101AE50090152AE0FA79208B00E828F51AEF23549F
:101AF50001451AFBEC2CFCED33FDEE33FEEF33FF15
:101B0500C3EB9A4007EBC39AFB43040119E970D76D
:101B1500901520ECF0EDA3F0EEA3F0EFA3F09015F7
:101B250024EBF022AF83E582901532F0EFA3F0901D
:101B35001532E0FEA3E0FF90151BEEF0EFA3F09049
:101B4500152BE0FDA3E0FEA3E0FF90151DEDF0EEE3
:101B5500A3F0EFA3F0901525E4F0A3F090152EE087
:101B6500FDA3E0FEA3E0FF8D828E838FF012244259
:101B7500FC90152E74012DF0E43EA3F0EFA3F0ECDC
:101B8500700302241EBC250280030224169015341E
:101B9500E4F0901535F0901536F0901537F0901566
:101BA50038F0901539F090153AF090153BF09015F6
:101BB5003DF090153EF0A3F090154014F0A3F09081
:101BC500152EE0FDA3E0FEA3E0FF8D828E838FF04E
:101BD500122442FBA3AD82AE8390152EEDF0EEA349
:101BE500F0EFA3F0901544EBF0BB25088B82121A99
:101BF50055021B61BB30005003021CC2EB24C650CA
:101C050003021CC2901540E0F521A3E0F52274FF04
:101C1500B52163B52260C005C006C00790153EE03A
:101C2500FAA3E0FF901514EAF0EFA3F090000AC0C4
:101C350005C0031219B5AE82AF83D003D0058B0260
:101C45007D00EA2EFEED3FFFEE24D0FEEF34FFFFD0
:101C550090153EEEF0EFA3F0D007D006D005901515
:101C65003EE0F5F0A3E045F06003021BCF9015358B
:101C75007401F0021BCFC005C006C007901514E51E
:101C850021F0E522A3F090000AC006C005C00312AA
:101C950019B5AA82AF83D003D005D0067E00EB2A02
:101CA500FAEE3FFFEA24D0FAEF34FFFF901540EA41
:101CB500F0EFA3F0D007D006D005021BCF90154456
:101CC500E0FBBB2E2FC005C006C007901540E0FA0B
:101CD500A3E0FFBAFF05BFFF028009D007D006D0F9
:101CE50005021BCFD007D006D005901540E4F0A320
:101CF500F0021BCFBB61004014EB2485400F90150B
:101D05004474DF5BF090151A7401F0800590151A84
:101D1500E4F0901544E0FBBB20028075BB2B0280EC
:101D250067BB2D028059BB4202806FBB4302807C9A
:101D3500BB4403021FB9BB4603021FDFBB480302B6
:101D45001BCFBB4903021FB9BB4A03021BCFBB4CC8
:101D5500028050BB4F03021FC7BB5003021F27BBA6
:101D650053028077BB5403021BCFBB5503021FCF21
:101D7500BB5803021FD7BB5A03021BCF021FE790B4
:101D850015347401F0021BCF9015367401F0021B57
:101D9500CF9015377401F0021BCF9015397401F0FF
:101DA500021BCF90153A7401F0021BCF901539E054
:101DB500600E901531E014F9F0901544E7F0800FAE
:101DC500901531E024FEFFF08F01901544E7F09067
:101DD5001544E0F582121A55021FF6901531E024DC
:101DE500FDFFF08F018705098706098707191990F7
:101DF5001520EDF0EEA3F0EFA3F08D828E838FF02A
:101E050012242A858221858322901540E0FAA3E0D9
:101E1500FDBAFF0DBDFF0A901540E521F0E522A3AF
:101E2500F0901534E0704B90153EE0FAA3E0FDC349
:101E3500E5219AE5229D503A90153EEAC39521F099
:101E4500ED9522A3F090153EE0FAA3E0FD8A068DFC
:101E5500071ABAFF011DEE4F6010758220C005C03C
:101E650002121A55D002D00580E390153EEAF0ED36
:101E7500A3F0901540E0F524A3E0F525901520E0AA
:101E8500FAA3E0FDA3E0FF8A828D838FF01224423E
:101E9500F523603CC3E4952474808525F063F080C8
:101EA50095F0502C152474FFB52402152585238241
:101EB500121A55901520E0FAA3E0FDA3E0FF0ABA37
:101EC50000010D901520EAF0EDA3F0EFA3F080AC32
:101ED500901534E07003021FF690153EE0FEA3E076
:101EE500FFC3E5219EE5229F4003021FF690153EA4
:101EF500EEC39521F0EF9522A3F090153EE0FEA3E9
:101F0500E0FF8E028F051EBEFF011FEA4D70030222
:101F15001FEE758220C007C006121A55D006D007DD
:101F250080E0901531E024FDFDF08D0187260987BD
:101F3500270987281919901520E526F0E527A3F02C
:101F4500E528A3F0901522E0FDBD8000400890151E
:101F5500447443F08020BD600040089015447450DF
:101F6500F08013BD400040089015447449F0800688
:101F75009015447458F0901544E0FDF582C00512A3
:101F85001A5575823A121A55758230121A5575828C
:101F950078121A55D005BD4902800EBD5002800940
:101FA500901521E0F582121AB0901520E0F5821205
:101FB5001AB0803D9015387401F090153D740AF003
:101FC500802F90153D7408F0802790153D740AF018
:101FD500801F90153D7410F0801790153B7401F02B
:101FE500800F8B82121A55800890153EEEF0EFA3F4
:101FF500F090153BE06071901531E024FCFFF08F07
:1020050001870309870509870609870719191990A3
:102015001520EBF0EDA3F0EEA3F0EFA3F090152063
:102025007445F07430A3F07480A3F0901520E0F5AA
:1020350026A3E0F527A3E0F52874012526FAE43563
:1020450027FBAF28901520EAF0EBA3F0EFA3F0856E
:1020550026828527838528F0122442FF7003021B00
:10206500618F82121A5580C390153DE07003021BE3
:1020750061901539E06047901531E014F9F0870754
:102085007E007D007B00901520EFF0EEA3F0EDA320
:10209500F0EBA3F0901538E060030221399015208C
:1020A500E0FBA3E0A3E0A3E07D007E007F009015A8
:1020B50020EBF0EDA3F0EEA3F0EFA3F08076901502
:1020C5003AE06028901531E024FCFFF08F0187038A
:1020D500098705098706098707191919901520EB3E
:1020E500F0EDA3F0EEA3F0EFA3F08048901531E0FA
:1020F50024FEFFF08F01870609870719EF3395E066
:10210500FDFB901520EEF0EFA3F0EDA3F0EBA3F0AF
:10211500901538E0701E901520E0FBA3E0FDA3E0CC
:10212500A3E07E007F00901520EBF0EDA3F0EEA379
:10213500F0EFA3F0901538E06041901520E0FBA387
:10214500E0FDA3E0FEA3E0FF30E72B901520E0FBC8
:10215500A3E0FDA3E0FEA3E0FFC3E49BFBE49DFD3C
:10216500E49EFEE49FFF901520EBF0EDA3F0EEA3B7
:10217500F0EFA3F08005901538E4F090153C74015C
:10218500F090153DE0F52475294A752A15E4F521E9
:10219500F522901524E4F0852482121ACC90153C82
:1021A500E07026901524E0C4F526852982852A83CA
:1021B500E0FFE5264207852982852A83EFF0152968
:1021C50074FFB52902152A800C901524E0FF852996
:1021D50082852A83F00521E4B52102052290153C6C
:1021E500E0B40100E433F0901520E0FAA3E0FBA38E
:1021F500E0FEA3E0FFEA4B4E4F709790154BE529A3
:10220500F0E52AA3F0901542E521F0E522A3F09030
:10221500153EE0F5F0A3E045F0700990153E740118
:10222500F0E4A3F0901535E0FFE07047901534E039
:10223500704185212985222A90153EE0FAA3E0FB0D
:10224500C007AF290F8F067F00C3EE9AEF9BD0071B
:102255005019758220C007C003C002121A55D0025A
:10226500D003D0071ABAFF011B80D590153EEAF0BE
:10227500EBA3F0901538E0602075822DC007121A87
:1022850055D00790153EE024FFFDA3E034FFFE90F6
:10229500153EEDF0EEA3F08056901542E0F5F0A363
:1022A500E045F0604A901536E0602075822BC00746
:1022B500121A55D00790153EE024FFFDA3E034FF28
:1022C500FE90153EEDF0EEA3F08024901537E0600A
:1022D5001E758220C007121A55D00790153EE024BE
:1022E500FFFDA3E034FFFE90153EEDF0EEA3F09068
:1022F5001534E07048901542E0F529A3E0F52A90E1
:10230500153EE0FAA3E0FBC0078A068B071ABAFF61
:10231500011BC3E5299EE52A9FD0075053EF6006B0
:102325007D307E0080047D207E008D82C007C00345
:10233500C002121A55D002D003D00780CA90153EAC
:10234500E0FEA3E0FF901542E0F529A3E0F52AC3DE
:10235500E5299EE52A9F500F90153EEEC39529F07D
:10236500EF952AA3F0801190153EE4F0A3F08008C4
:1023750090153EEAF0EBA3F090154BE0FEA3E0FFCD
:10238500901542E0F529A3E0F52AAA29AD2A1529D9
:1023950074FFB52902152AEA4D604590153CE0B455
:1023A5000100E433F090153CE070140EBE00010FFF
:1023B5008E828F83E0C4540FFD901524F0800E8E1D
:1023C500828F83E0FD53050F901524EDF0901524C1
:1023D500E0F582C007C006121A90D006D00780AA81
:1023E500901534E07003021B6190153EE0FEA3E0FA
:1023F500FF8E038F051EBEFF011FEB4D7003021BF1
:1024050061758220C007C006121A55D006D0078014
:10241500E08C82121A55021B61901525E0FEA3E09F
:052425008E82F5832208
:0B3045003C4E4F20464C4F41543E00D3
:10242A00AA82AB831224426003A380F8C3E5829A8E
:08243A00F582E5839BF5832286
:0D00390075812A12028DE5826003020036F7
:1024420020F71430F6148883A88220F507E6A883C3
:0C24520075830022E280F7E49322E02270
:00000001FF
