:03000000020006F5
:03005F0002000399
:0300030002006296
:20006200745EC0E0741CC0E07480C0E012122315811581158102007A1204F5120AFC020698
:20008200CC7E007F00900009E0FCA3E0FDC3EE9CEF64808DF063F08095F0506190150FEE58
:2000A200F0EFA3F090000CC007C0061211B5AC82AD83EC240BFCED3400FD8C828D83A3A3D4
:2000C200E0FBA3E0FCA3E0FD8B828C838DF0120E2AD006D007C007C006C006C0077468C0FE
:2000E200E0741CC0E07480C0E0121223E58124FBF581D006D0070EBE008B0F8088747FC04A
:20010200E0741CC0E07480C0E012122315811581158102007A900009E0FEA3E0FF1EBEFFE0
:20012200011FC006C0077495C0E0741CC0E07480C0E0121223E58124FBF581900003120CB0
:2001420066AE82AF83C3E49E74808FF063F08095F050C2900009E0FCA3E0FDC3EE9CEF641E
:20016200808DF063F08095F050AB90150FEEF0EFA3F090000CC007C0061211B5AC82AD83BA
:20018200D006D007EC240BFCED3400FD8C828D83A3A3E0F50CA3E0F50DA3E0F50E74082C83
:2001A200F582E43DF583E0FCA3E0FDE4F508F509C004C005900009E0F50AA3E0F50BE50A7F
:2001C20024FFF8E50B34FFFDC3E50898E50964808DF063F08095F0D005D004400302029073
:2001E200C3E5089EE50964808FF063F08095F05003020285C004C00590150F74012508F05B
:20020200E43509A3F090000CC007C006C0041211B5A882AD83D004E8240BF582ED3400F590
:2002220083E508F0E509A3F090150FE508F0E509A3F090000CC005C0001211B5AB82AC8374
:20024200D000D005EB240BFBEC3400FC7A00E8240BF8ED3400FD9014FEE8F0EDA3F0E4A39E
:20026200F0901501740CF0E4A3F08B828C838AF0C005C004120F81D004D005D006D007D018
:2002820005D0040508E4B5080205090201B2E50A24FFFAE50B34FFFB900009EAF0EBA3F0F5
:2002A200900003E0FAA3E0FBEAC39CFCEB9DFD900003ECF0EDA3F0AB0CAC0DAD0E8B828CD4
:2002C200838DF0C007C006120E2AD006D007C006C00774CEC0E0741CC0E07480C0E0121241
:2002E20023E58124FBF5819000002274F2C0E0741CC0E07480C0E012122315811581158159
:20030200742DC0E0741DC0E07480C0E01212231581158115817464C0E0741DC0E07480C06F
:20032200E01212231581158115817496C0E0741DC0E07480C0E012122315811581158174E6
:20034200B0C0E0741DC0E07480C0E012122315811581158174D0C0E0741DC0E07480C0E0D4
:2003620012122315811581158174EEC0E0741DC0E07480C0E01212231581158115812290F0
:200382000003E0FEA3E0FF900001E0FCA3E0FDEEB50407EFB505030204DC7414C0E0741E15
:2003A200C0E07480C0E0121223158115811581900003120C66AE82AF83C3EE941EEF64804F
:2003C200948040D6742C9E74818FF063F08095F040C88E828F83C007C00612104CAC82ADE7
:2003E20083D006D0077B0090013BECF0EDA3F0EBA3F0EC4D70187437C0E0741EC0E0748078
:20040200C0E01212231581158115810204D8C007C0067455C0E0741EC0E07480C0E0121273
:2004220023158115811581D006D007900003E0FCA3E0FDEE2CFCEF3DFD900003ECF0EDA3FB
:20044200F0900141EEF0EFA3F0900009E0FCA3E0FD900139ECF0EDA3F090013BE0FBA3E033
:20046200FCA3E0FDEE2BFEEF3CFF8D0290013EEEF0EFA3F0EAA3F0900143E4F0A3F09000B7
:2004820009E0FEA3E0FF90150FEEF0EFA3F090000C1211B5AE82AF83EE240BFEEF3400FFCA
:2004A2007D009014FE7439F07401A3F0E4A3F0901501740CF0E4A3F08E828F838DF0120FB2
:2004C20081900009E0FEA3E0FF0EBE00010F900009EEF0EFA3F090000022747BC0E0741EF8
:2004E200C0E07480C0E01212231581158115819000002274A9C0E0741EC0E07480C0E01276
:200502001223158115811581900004120C66AE82AF83C3EE9430EF6480948040D674C09E24
:2005220074928FF063F08095F040C88E828F83C007C00612104CAC82AD83D006D0077B0031
:20054200900147ECF0EDA3F0EBA3F08E828F83C007C00612104CAC82AD83D006D0077B0044
:20056200900153ECF0EDA3F0EBA3F0900147E0FBA3E0FCA3E0EB4C600F900153E0FBA3E01E
:20058200FCA3E0FDEB4C706074D6C0E0741EC0E07480C0E012122315811581158190014745
:2005A200E0FBA3E0FCA3E0EB4C6014900147E0FBA3E0FCA3E0FD8B828C838DF0120E2A908C
:2005C2000153E0FBA3E0FCA3E0FDEB4C70030204F5900153E0FBA3E0FCA3E0FD8B828C836C
:2005E2008DF0120E2A0204F5C007C006740BC0E0741FC0E07480C0E012122315811581153C
:2006020081D006D007EE2EFCEF33FD900003ECF0EDA3F09000017484F07413A3F090000958
:200622007402F0E4A3F090014DEEF0EFA3F0900159EEF0EFA3F0900145E4F0A3F090015134
:2006420004F0E4A3F0900153E0FBA3E0FCA3E0FDEE2BFBEF3CFC900156EBF0ECA3F0EDA363
:20066200F0900147E0FBA3E0FCA3E0FDEE2BFEEF3CFF8D0290014AEEF0EFA3F0EAA3F090BE
:20068200014FE4F0A3F090015BF0A3F09014FE7445F07401A3F0E4A3F0901501740CF0E46E
:2006A200A3F090000B75F000120F819014FE7451F07401A3F0E4A3F0901501740CF0E4A390
:2006C200F090001775F000020F811202ED120DD4AE82AF83C374609E74808FF063F0809524
:2006E200F04003020774C3EE947BEF648094804003020774900015E0FCA3E0FD900013E05D
:20070200FAA3E0FBC3EC9AED64808BF063F08095F0503290000DE0F9A3E0FAA3E0FBEC296A
:20072200F9ED3AFA8E0589828A838BF0ED120FF5900015E0FCA3E0FD0CBC00010D900015F8
:20074200ECF0EDA3F0900005E0FCA3E0FD0CBC00010D900005ECF0EDA3F0900007E0FCA36D
:20076200E0FD0CBC00010D900007ECF0EDA3F00206CFBE3F1FBF001C120A41120AFC120775
:20078200EA900005E4F0A3F0900007F0A3F01202ED0206CFBE3D0CBF00091208FA1202ED9B
:2007A2000206CFBE400CBF00091200831202ED0206CFBE2B0CBF00091203811202ED0206C5
:2007C200CFBE2D0CBF00091201171202ED0206CF900005E0FEA3E0FF0EBE00010F90000521
:2007E200EEF0EFA3F00206CF90015D7440F0E4A3F0900015E0FEA3E0FFC3E49E74808FF0FA
:2008020063F08095F040030208E4743AC0E0741FC0E07480C0E01212231581158115817EB1
:20082200007F00900015E0FCA3E0FDC3EE9CEF64808DF063F08095F040030208C790015D3F
:20084200E0FCA3E0FDBC4020BD001DC007C0067468C0E0741FC0E07480C0E0121223158197
:2008620015811581D006D00790000DE0FBA3E0FCA3E0FDEE2BFBEF3CFC8B828C838DF01240
:200882001C42FB7D008B828D83C007C006120DB5D006D00790015DE024FFFCA3E034FFFDB5
:2008A20090015DECF0EDA3F090015DE0F5F0A3E045F0700990015D7440F0E4A3F00EBE0033
:2008C200010F020825900015E4F0A3F0746BC0E0741FC0E07480C0E01212231581158115FD
:2008E2008122746FC0E0741FC0E07480C0E012122315811581158122900015E0FEA3E0FFD9
:20090200C3E49E74808FF063F08095F04003020A2B7486C0E0741FC0E07480C0E0121223A3
:2009220015811581158174C9C0E0741FC0E07480C0E012122315811581158190015F7410D2
:20094200F0E4A3F07E007F00900015E0FCA3E0FDC3EE9CEF64808DF063F08095F0400302F6
:200962000A1590015FE0FCA3E0FDBC1037BD003490000DE0FBA3E0FCA3E0FDEE2BFBEF3C60
:20098200FCC007C006C003C004C0057408C0E07420C0E07480C0E0121223E58124FAF5815B
:2009A200D006D00790000DE0FBA3E0FCA3E0FDEE2BFBEF3CFC8B828C838DF0121C42FB7D55
:2009C20000C007C006C003C005740FC0E07420C0E07480C0E0121223E58124FBF581D006FD
:2009E200D00790015FE024FFFCA3E034FFFD90015FECF0EDA3F090015FE0F5F0A3E045F0C3
:200A0200700990015F7410F0E4A3F00EBE00010F02094A746BC0E0741FC0E07480C0E012F7
:200A22001223158115811581227413C0E07420C0E07480C0E012122315811581158122740D
:200A42002AC0E07420C0E07480C0E0121223158115811581900001E0FEA3E0FFC006C0077B
:200A62007456C0E07420C0E07480C0E0121223E58124FBF581900003E0FEA3E0FFC006C087
:200A820007746DC0E07420C0E07480C0E0121223E58124FBF581900005E0FEA3E0FFC00607
:200AA200C0077488C0E07420C0E07480C0E0121223E58124FBF581900007E0FEA3E0FFC010
:200AC20006C0077499C0E07420C0E07480C0E0121223E58124FBF581900009E0FEA3E0FF97
:200AE200C006C00774AEC0E07420C0E07480C0E0121223E58124FBF581227E007F009000EC
:200B020009E0FCA3E0FDC3EE9CEF64808DF063F08095F04003020C50C007C006C006C007BE
:200B220074C3C0E07420C0E07480C0E0121223E58124FBF581D006D00790150FEEF0EFA301
:200B4200F090000CC007C0061211B5AC82AD83EC240BF582ED3400F583E0FAA3E0FBC005FC
:200B6200C004C002C00374EEC0E07420C0E07480C0E0121223E58124FBF581D004D005EC89
:200B8200240BFCED3400FD8C828D83A3A3E0F9A3E0FAA3E0FBC005C004C001C002C003748F
:200BA200FDC0E07420C0E07480C0E0121223E58124FAF581D004D0058C828D83A3A3A3A33A
:200BC200A3E0F9A3E0FAA3E0FBC005C004C001C002C0037410C0E07421C0E07480C0E012CE
:200BE2001223E58124FAF581D004D00574082CF582E43DF583E0FAA3E0FBC005C004C002C0
:200C0200C0037421C0E07421C0E07480C0E0121223E58124FBF581D004D005740A2CF58205
:200C2200E43DF583E0FCA3E0FDC004C0057433C0E07421C0E07480C0E0121223E58124FB58
:200C4200F581D006D0070EBE00010F020B007444C0E07421C0E07480C0E012122315811573
:200C620081158122AF83E582900161F0EFA3F0900163E4F0A3F0900161E0FEA3E0FFC3E4E8
:200C82009E74808FF063F08095F04003020D2CC007C006120DD4AC82AD83D006D007C374A9
:200CA200399C74808DF063F08095F0405CEC9430ED648094804052EC24D0FCED34FFFDEEEA
:200CC20024FFFAEF34FFFB8A828B83C007C006C005C004120D38AA82AB83D004D0059015A9
:200CE2000FEAF0EBA3F08C828D831211B5AC82AD83D006D007900163E0FAA3E0FB9001634A
:200D0200EC2AF0ED3BA3F08019746EC0E07421C0E07480C0E012122315811581158190FF94
:200D2200FF221EBEFF011F020C80900163E0FEA3E08E82F58322AF83E582900165F0EFA3F7
:200D4200F09001677401F0E4A3F0900165E0FEA3E0FF7C007D00C3EC9EED64808FF063F08E
:200D62008095F0503A900167E0FAA3E0FB90150FEAF0EBA3F090000AC007C006C005C004D6
:200D82001211B5E5828583F0D004D005D006D007900167F0E5F0A3F00CBC00BA0D80B7EEC0
:200DA2004F700490000122900167E0FEA3E08E82F58322AF83E582900169F0EFA3F0E59836
:200DC20030E1FBC299900169E0FEA3E08E999000002210980280FB743FB599028027743DF6
:200DE200B5990280207440B599028019742BB599028012742DB59902800BAE997F008E8291
:200E02008F83120DB5AE997F008E828F8322758E0C759842758780758DFF758BFF758920E8
:080E2200D29CD28E9000002248
:201C5E0048454C4C4F21200A0D00427566666572202564204672656564202E2E2E2E0A0DA2
:201C7E00004C6574277320626567696E20616761696E2E2E0A0D000A0D4769766520566156
:201C9E006C696420427566666572204E756D62657220746F2064656C65746528312D256445
:201CBE002920696E2033206469676974730A0D00427566666572202564205375636365734F
:201CDE007366756C6C792044656C657465642E2E200A0D000A0A0D5E5E5E5E5E5E5E5E5E6E
:201CFE005E5E5E5E5E5E5E5E5E5E2D4D454E552D5E5E5E5E5E5E5E5E5E5E5E5E5E5E5E5EAB
:201D1E005E5E5E5E5E5E5E5E5E5E200A0A0D00596F752063616E20656E746572206368619F
:201D3E0072616374657273206F722075736520636F6D6D616E64732066726F6D2062656C8A
:201D5E006F77200A0D00273F27202D3E2053686F772068656170207374617475732C20643D
:201D7E00756D70202620636C656172204275666665722030200A0D00272B27202D3E204120
:201D9E0064642061206E6577204275666665720A0D00272D27202D3E2044656C6574652048
:201DBE006578697374696E67204275666665720A0D00273D27202D3E2044756D7020427566
:201DDE0066666572203020696E206865780A0D00274027202D3E204672656520616C6C204B
:201DFE0048656170202620626567696E20616761696E0A0A0D000A0D476976652056616CB6
:201E1E006964204275666665722053697A65283033302D333030293A004661696C65642C53
:201E3E00206769766520736D616C6C6572206275666665720A0D000A0A0D232323235355A3
:201E5E0043434553532C204255464645522043726561746564232323230A0A0D004E6F208B
:201E7E0048656170204D656D6F7279204C6566742C2044656C65746520736F6D6520627518
:201E9E0066666572732E2E2E0A0D000A0D476976652056616C696420496E697469616C20B1
:201EBE004275666665722053697A6528303034382D34383030293A000A0D23232323464175
:201EDE00494C2C20506C656173652067697665206120736D616C6C657220627566666572B3
:201EFE002073697A65232323230A0A0D000A0A0D23232323535543434553532C20494E494A
:201F1E005449414C20425546464552532043726561746564232323230A0A0D000A0A0D2A7C
:201F3E002A2A2A2A2A2A2A2A2A2A4275666665722D302D436F6E74656E74732A2A2A2A2ADB
:201F5E002A2A2A2A2A2A200A0D000A0D000A0A0D004275666665723020697320456D7074BC
:201F7E00792E2E2E2E0A0D000A0D2D2D2D2D2D2D2D2D2D2D2D2D2D2D2D2D2D2D2D2D2D2D06
:201F9E002D2D2D48455844554D502D2D2D2D2D2D2D2D2D2D2D2D2D2D2D2D2D2D2D2D2D2DA3
:201FBE002D2D2D2D2D2D2D2D2D2D000A0D20202020414444523A202B30202B31202B3220C1
:201FDE002B33202B34202B35202B36202B37202B38202B39202B41202B42202B43202B4446
:201FFE00202B45202B46200A0D000A0D25703A200025782000427566666572203020697302
:20201E0020656D7074792E2E2E0A0D000A0D2A2A2A2A2A2A2A2A2A2A2A2A2A2A2A2A48456E
:20203E0041502A53544154532A2A2A2A2A2A2A2A2A2A2A2A2A0A0D00546F74616C2048652E
:20205E0061702053697A653A202564200A0D00416C6C6F63617465642048656170205369B9
:20207E007A653A202564200A0D00416C6C2043686172733A202564200A0D0053746F7261FC
:20209E0067652043686172733A202564200A0D00546F74616C20427566666572733A2025BB
:2020BE0064200A0D002A2A2A2A2A2A2A2A2A2A2A2A2A2A2A2A4255464645522A25642A2A06
:2020DE002A2A2A2A2A2A2A2A2A2A2A2A2A0A0D00427566666572233A202564200A0D0042D0
:2020FE00756666657253746172743A202570200A0D00427566666572456E643A20257020F6
:20211E000A0D0042756666657253697A653A202564200A0D00546F74616C557365643A208C
:20213E002564200A0D002A2A2A2A2A2A2A2A2A2A2A2A2A2A2A2A2A2A2A2A2A2A2A2A2A2A7D
:20215E002A2A2A2A2A2A2A2A2A2A2A2A2A0A0D004552522C4E756D62657273204F4E4C59D5
:04217E00210A0D0025
:022182008A13BE
:200E2A00AFF0AE83E5829014F5F0EEA3F0EFA3F09014F5E0FDA3E0FEA3E09014F5E0F5F00D
:200E4A00A3E045F07001229014FAE4F0A3F0901507E0FBA3E0FC9014F8EBF0ECA3F0901498
:200E6A00FC7407F07415A3F09014F8E0FBA3E0FC4B60418B018C02C003C0048D008E04C380
:200E8A00E998EA9CD004D003502A9014FAEBF0ECA3F074022BFBE43CFC9014FCEBF0ECA366
:200EAA00F08B828C83E0FBA3E0FC9014F8EBF0ECA3F080B49014F8E0FEA3E0FF9014F5E023
:200ECA00FBA3E0FCA3E0EB24FEFBEC34FFFC74022BFAE43CFD8A828D83EEF0EFA3F0901410
:200EEA00FCE0F8A3E0F988828983EBF0ECA3F08B828C83E0F8A3E0F9EEB50033EFB5012F0E
:200F0A0088828983A3A3E0FEA3E0FF8A828D83EEF0EFA3F08B828C83E0FEA3E0FF8E828F74
:200F2A0083E0FEA3E0FF8B828C83EEF0EFA3F09014FAE0FEA3E0FF4E603C8E828F83E0F866
:200F4A00A3E0F9E8B5032FE9B5042B8B828C83E0FBA3E0FC8E828F83EBF0ECA3F074022ED9
:170F6A00FEE43FFF8A828D83E0FAA3E0FD8E828F83EAF0EDA3F0223C
:06003500E478FFF6D8FD9F
:200F8100AFF0AE83E582901503F0EEA3F0EFA3F0901503E0F51CA3E0F51DA3E0F51EAA1CF4
:200FA100AB1DAC1E9014FEE0F8A3E0F9A3E0FF901501E0F51FA3E0F520AD1FAE20151F74B2
:200FC100FFB51F021520ED4E6020888289838FF0121C42FEA3A882A9838A828B838CF0EECB
:140FE100120FF5A3AA82AB8380CF851C82851D83851EF0229D
:200013007900E94400601B7A0090218F784875A015E493F2A308B8000205A0D9F4DAF27587
:02003300A0FF2C
:1B0FF50020F71130F6138883A88220F509F6A8837583002280FEF280F5F022FB
:20101000901507746BF07401A3F0902182E493FE740193FF1EBEFF011FEE246BFEEF3401F4
:20103000FF90016BEEF0EFA3F0901507E0FEA3E0FF8E828F83A3A3E4F0A3F022AF83E582AF
:20105000901509F0EFA3F0901507E0F5F0A3E045F07003121010901509E0FEA3E0FF4E60D6
:201070000E74022EFCE43FFDC3EC9EED9F50049000002290150974022EF0E43FA3F0901516
:2010900009E0FEA3E0FFC3EE9404EF940050099015097404F0E4A3F0901507E0FEA3E0FF19
:2010B00090150BEEF0EFA3F090150D7407F07415A3F090150BE0FEA3E0FF4E70030211B142
:2010D0008E828F83E0FCA3E0FD8C028D038E008F01EAC398FAEB99FB8A008B01901509E0E4
:2010F000F50FA3E0F510C3E8950FE99510500302118E7404250FF8E43510F9C3EA98EB99F4
:20111000404C8E028F03E50F2AFAE5103BFB8A828B83ECF0EDA3F074022AFCE43BFD8E8290
:201130008F83A3A3E0F8A3E0F98C828D83E8F0E9A3F090150DE0FCA3E0FD8C828D83EAF07B
:20115000EBA3F08E828F83EAF0EBA3F0801C90150DE0FCA3E0FD8E828F83A3A3E0FAA3E018
:20117000FB8C828D83EAF0EBA3F090150BE0FCA3E0FD74022CFCE43DFD8C828D8322740270
:201190002EFEE43FFF90150DEEF0EFA3F08E828F83E0FEA3E0FF90150BEEF0EFA3F002103B
:0511B000C290000022C6
:2011B500AA83AB828BF090150FE0A4F8A9F08AF0E0A429F98BF0A3E0A429F58388822222CB
:20003B007800E84400600A790175A000E4F309D8FC7847E84415600C7916900001E4F0A351
:04005B00D8FCD9FAFA
:2011D500C01B85811B7E008E83120DB5D01B22AFF0AE83E582901512F0EEA3F0EFA3F0901D
:2011F5001512E0FDA3E0FEA3E0FF901511E0FC901526E4F0A3F0A3F0901529EDF0EEA3F050
:20121500EFA3F090152CECF09011D5021329C01BE581F51B24FBFF901526E4F0A3F0A3F0A2
:20123500E51B24FBF8901529E6F008E6A3F008E6A3F090152CEFF09011D5121329D01B225B
:20125500E582901522F0E0FF901518E0C0E0A3E0C0E0A3E0C0E0121270800D901516E0C07D
:20127500E0A3E0C0E08F8222158115811581901520E02401F0A3E03400F022E582901523AF
:20129500F0E02430FF24C6500D74072FFF901515E060034307208F82021255E58290152415
:2012B500F0E0FFC4540FF582C007121290D00753070F8F82021290E582901525F090151B5B
:2012D500E0FCA3E0FDA3E0FEA3E0FF90151FE0FB901525E0FA79208B00E828F51CEF2354AC
:2012F50001451CFBEC2CFCED33FDEE33FEEF33FFC3EB9A4007EBC39AFB43040119E970D7A8
:2013150090151BECF0EDA3F0EEA3F0EFA3F090151FEBF022AF83E58290152DF0EFA3F0906B
:20133500152DE0FEA3E0FF901516EEF0EFA3F0901526E0FDA3E0FEA3E0FF901518EDF0EEA8
:20135500A3F0EFA3F0901520E4F0A3F0901529E0FDA3E0FEA3E0FF8D828E838FF0121C427A
:20137500FC90152974012DF0E43EA3F0EFA3F0EC7003021C1EBC25028003021C1690152FBC
:20139500E4F0901530F0901531F0901532F0901533F0901534F0901535F0901536F0901547
:2013B50038F0901539F0A3F090153B14F0A3F0901529E0FDA3E0FEA3E0FF8D828E838FF0CB
:2013D500121C42FBA3AD82AE83901529EDF0EEA3F0EFA3F090153FEBF0BB25088B82121204
:2013F50055021361BB300050030214C2EB24C650030214C290153BE0F511A3E0F51274FF34
:20141500B51163B51260C005C006C007901539E0FAA3E0FF90150FEAF0EFA3F090000AC071
:2014350005C0031211B5AE82AF83D003D0058B027D00EA2EFEED3FFFEE24D0FEEF34FFFFA1
:20145500901539EEF0EFA3F0D007D006D005901539E0F5F0A3E045F060030213CF90153040
:201475007401F00213CFC005C006C00790150FE511F0E512A3F090000AC006C005C003129E
:2014950011B5AA82AF83D003D005D0067E00EB2AFAEE3FFFEA24D0FAEF34FFFF90153BEA19
:2014B500F0EFA3F0D007D006D0050213CF90153FE0FBBB2E2FC005C006C00790153BE0FA5C
:2014D500A3E0FFBAFF05BFFF028009D007D006D0050213CFD007D006D00590153BE4F0A32F
:2014F500F00213CFBB61004014EB2485400F90153F74DF5BF09015157401F08005901515D0
:20151500E4F090153FE0FBBB20028075BB2B028067BB2D028059BB4202806FBB4302807CD5
:20153500BB44030217B9BB46030217DFBB48030213CFBB49030217B9BB4A030213CFBB4C10
:20155500028050BB4F030217C7BB5003021727BB53028077BB54030213CFBB55030217CF71
:20157500BB58030217D7BB5A030213CF0217E790152F7401F00213CF9015317401F00213E7
:20159500CF9015327401F00213CF9015347401F00213CF9015357401F00213CF901534E049
:2015B500600E90152CE014F9F090153FE7F0800F90152CE024FEFFF08F0190153FE7F09013
:2015D500153FE0F5821212550217F690152CE024FDFFF08F018705098706098707191990F7
:2015F500151BEDF0EEA3F0EFA3F08D828E838FF0121C2A85821185831290153BE0FAA3E060
:20161500FDBAFF0DBDFF0A90153BE511F0E512A3F090152FE0704B901539E0FAA3E0FDC372
:20163500E5119AE5129D503A901539EAC39511F0ED9512A3F0901539E0FAA3E0FD8A068D4A
:20165500071ABAFF011DEE4F6010758220C005C002121255D002D00580E3901539EAF0ED0A
:20167500A3F090153BE0F514A3E0F51590151BE0FAA3E0FDA3E0FF8A828D838FF0121C42C5
:20169500F513603CC3E4951474808515F063F08095F0502C151474FFB51402151585138244
:2016B50012125590151BE0FAA3E0FDA3E0FF0ABA00010D90151BEAF0EDA3F0EFA3F080AC66
:2016D50090152FE070030217F6901539E0FEA3E0FFC3E5119EE5129F40030217F690153964
:2016F500EEC39511F0EF9512A3F0901539E0FEA3E0FF8E028F051EBEFF011FEA4D7003025C
:2017150017EE758220C007C006121255D006D00780E090152CE024FDFDF08D01871609870B
:2017350017098718191990151BE516F0E517A3F0E518A3F090151DE0FDBD80004008901510
:201755003F7443F08020BD6000400890153F7450F08013BD4000400890153F7449F0800602
:2017750090153F7458F090153FE0FDF582C00512125575823A1212557582301212557582FD
:2017950078121255D005BD4902800EBD5002800990151CE0F5821212B090151BE0F582122B
:2017B50012B0803D9015337401F0901538740AF0802F9015387408F08027901538740AF023
:2017D500801F9015387410F080179015367401F0800F8B821212558008901539EEF0EFA342
:2017F500F0901536E0607190152CE024FCFFF08F01870309870509870609870719191990E1
:20181500151BEBF0EDA3F0EEA3F0EFA3F090151B7484F07421A3F07480A3F090151BE0F539
:2018350016A3E0F517A3E0F51874012516FAE43517FBAF1890151BEAF0EBA3F0EFA3F085A3
:2018550016828517838518F0121C42FF70030213618F8212125580C3901538E070030213C5
:2018750061901534E0604790152CE014F9F087077E007D007B0090151BEFF0EEA3F0EDA330
:20189500F0EBA3F0901533E0600302193990151BE0FBA3E0A3E0A3E07D007E007F00901513
:2018B5001BEBF0EDA3F0EEA3F0EFA3F08076901535E0602890152CE024FCFFF08F01870388
:2018D50009870509870609870719191990151BEBF0EDA3F0EEA3F0EFA3F0804890152CE04F
:2018F50024FEFFF08F01870609870719EF3395E0FDFB90151BEEF0EFA3F0EDA3F0EBA3F048
:20191500901533E0701E90151BE0FBA3E0FDA3E0A3E07E007F0090151BEBF0EDA3F0EEA3A2
:20193500F0EFA3F0901533E0604190151BE0FBA3E0FDA3E0FEA3E0FF30E72B90151BE0FBCC
:20195500A3E0FDA3E0FEA3E0FFC3E49BFBE49DFDE49EFEE49FFF90151BEBF0EDA3F0EEA386
:20197500F0EFA3F08005901533E4F09015377401F0901538E0F514751945751A15E4F51147
:20199500F51290151FE4F08514821212CC901537E0702690151FE0C4F516851982851A8381
:2019B500E0FFE5164207851982851A83EFF0151974FFB51902151A800C90151FE0FF851961
:2019D50082851A83F00511E4B511020512901537E0B40100E433F090151BE0FAA3E0FBA352
:2019F500E0FEA3E0FFEA4B4E4F7097901546E519F0E51AA3F090153DE511F0E512A3F0904C
:201A15001539E0F5F0A3E045F070099015397401F0E4A3F0901530E0FFE0704790152FE0B4
:201A3500704185111985121A901539E0FAA3E0FBC007AF190F8F067F00C3EE9AEF9BD007EC
:201A55005019758220C007C003C002121255D002D003D0071ABAFF011B80D5901539EAF0B4
:201A7500EBA3F0901533E0602075822DC007121255D007901539E024FFFDA3E034FFFE903E
:201A95001539EDF0EEA3F0805690153DE0F5F0A3E045F0604A901531E0602075822BC00787
:201AB500121255D007901539E024FFFDA3E034FFFE901539EDF0EEA3F08024901532E06038
:201AD5001E758220C007121255D007901539E024FFFDA3E034FFFE901539EDF0EEA3F09047
:201AF500152FE0704890153DE0F519A3E0F51A901539E0FAA3E0FBC0078A068B071ABAFFA1
:201B1500011BC3E5199EE51A9FD0075053EF60067D307E0080047D207E008D82C007C00365
:201B3500C002121255D002D003D00780CA901539E0FEA3E0FF90153DE0F519A3E0F51AC32C
:201B5500E5199EE51A9F500F901539EEC39519F0EF951AA3F08011901539E4F0A3F080081B
:201B7500901539EAF0EBA3F0901546E0FEA3E0FF90153DE0F519A3E0F51AAA19AD1A1519B5
:201B950074FFB51902151AEA4D6045901537E0B40100E433F0901537E070140EBE00010F4E
:201BB5008E828F83E0C4540FFD90151FF0800E8E828F83E0FD53050F90151FEDF090151FDD
:201BD500E0F582C007C006121290D006D00780AA90152FE07003021361901539E0FEA3E0A5
:201BF500FF8E038F051EBEFF011FEB4D7003021361758220C007C006121255D006D0078046
:151C1500E08C82121255021361901520E0FEA3E08E82F583220D
:0B2184003C4E4F20464C4F41543E00A3
:181C2A00AA82AB83121C426003A380F8C3E5829AF582E5839BF5832282
:0D000600758120120E10E5826003020003D8
:1C1C420020F71430F6148883A88220F507E6A88375830022E280F7E49322E022B1
:00000001FF
