:06000000020039020216A5
:01000B0032C2
:0100130032BA
:01001B0032B2
:0100230032AA
:01002B0032A2
:0300330002017E49
:0300920002003633
:0300360002009530
:20009500746EC0E07422C0E07480C0E01218331581158115817582011213FAC2910204036D
:2000B5007582021213FA120AA91210DA020C867582AA1213FA748EC0E07422C0E07480C072
:2000D500E01218331581158115811207A774A9C0E07422C0E07480C0E0121833158115813C
:2000F50015811213BEAE82AF83BE4608BF000512028B8050BE5308BF00051202A68045BEB7
:200115004808BF00051202C7803ABE5008BF00051202EB802FBE5708BF000512030F8024F0
:20013500BE4908BF00051203678019BE4408BF000512039C800EBE4C05BF00028003020060
:20015500E21203D174C7C0E07422C0E07480C0E01218331581158115811213BEAE82AF83B9
:20017500BE45E1BF00DE0200C4C020C0E0C0F0C082C083C007C006C005C004C003C002C013
:2001950001C000C0D075D00830D82DAEFA7F00ACEA7D00C00EC00FC00CC00D74E6C0E07499
:2001B50022C0E07480C0E075D00012183375D008E58124F9F581C2D810D902802775F90052
:2001D50075E900901548E0701B740EC0E07423C0E07480C0E075D00012183375D0081581E2
:2001F50015811581D0D0D000D001D002D003D004D005D006D007D083D082D0F0D0E0D0207D
:2002150032C020C0E0C0F0C082C083C007C006C005C004C003C002C001C000C0D075D008E9
:20023500C2A8758780C2DE7597FFE4F5DAF5DBF5DCF5DDF5DE7420C0E07423C0E07480C000
:20025500E075D00012183375D00815811581158175D00012040375D008D0D0D000D001D03C
:2002750002D003D004D005D006D007D083D082D0F0D0E0D020327438C0E07423C0E0748090
:20029500C0E012183315811581158175DA21D2DE227479C0E07423C0E07480C0E012183393
:2002B50015811581158175EBFF75FBFF75DB49D2DE227499C0E07423C0E07480C0E012188C
:2002D5003315811581158175ECFF75FC0275DC4D75D902D2DE2274C2C0E07423C0E0748080
:2002F500C0E012183315811581158175EDC075FDC075DD4275D902D2DE2275EBFF75FB80D1
:2003150075DB499015487401F074F2C0E07423C0E07480C0E012183315811581158175EE8A
:20033500FF75FEFF75D94075DE48D2DE740EC0E07424C0E07480C0E01218331581158115D2
:20035500811213BEAE82AF83BE53F6BF00F375DB00221202EB745EC0E07424C0E07480C03A
:20037500E0121833158115811581D2A87587017491C0E07424C0E07480C0E012183315818E
:20039500158115810204031202EB74C5C0E07424C0E07480C0E0121833158115811581D27E
:2003B500A87587027491C0E07424C0E07480C0E012183315811581158102040374FEC0E0D7
:2003D5007424C0E07480C0E01218331581158115817440C0E07425C0E07480C0E01218339F
:2003F500158115811581D2A87597000204037469C0E07425C0E07480C0E012183315811545
:2004150081158174A4C0E07425C0E07480C0E012183315811581158174C3C0E07425C0E0FC
:200435007480C0E012183315811581158174E1C0E07425C0E07480C0E012183315811581A9
:20045500158174A9C0E07422C0E07480C0E01218331581158115811213BEAE82AF83BE4800
:2004750006BF00030200B5BE5006BF00030200C4BE41CFBF00CC02048E74FAC0E07425C0F8
:20049500E07480C0E012183315811581158190000312124AAE82C0067413C0E07426C0E05C
:2004B5007480C0E012183315811581158190000312124AAD82C005742CC0E07426C0E07491
:2004D50080C0E012183315811581158190000312124AAC82D005D00690001AEDF090001BBC
:2004F500ECF08E82121427AF827E00C007C0067445C0E07426C0E07480C0E0121833E58188
:2005150024FBF5817474C0E07426C0E07480C0E012183315811581158102040375820312A7
:2005350013FA7E007F00900009E0FCA3E0FDC3EE9CEF64808DF063F08095F0506190150E4E
:20055500EEF0EFA3F090000CC007C0061217C5AC82AD83EC240BFCED3400FD8C828D83A3BB
:20057500A3E0FBA3E0FCA3E0FD8B828C838DF012143AD006D007C007C006C006C007749421
:20059500C0E07426C0E07480C0E0121833E58124FBF581D006D0070EBE008B0F808874AB46
:2005B500C0E07426C0E07480C0E01218331581158115810200B57582041213FA900009E04F
:2005D500FEA3E0FF1EBEFF011FC006C00774C1C0E07426C0E07480C0E0121833E58124FB79
:2005F500F58190000312124AAE82AF83C3E49E74808FF063F08095F050C2900009E0FCA3D3
:20061500E0FDC3EE9CEF64808DF063F08095F050AB90150EEEF0EFA3F090000CC007C006BC
:200635001217C5AC82AD83D006D007EC240BFCED3400FD8C828D83A3A3E0F514A3E0F5159D
:20065500A3E0F51674082CF582E43DF583E0FCA3E0FDE4F510F511C004C005900009E0F5FD
:2006750012A3E0F513E51224FFF8E51334FFFDC3E51098E51164808DF063F08095F0D005BA
:20069500D004400302074AC3E5109EE51164808FF063F08095F0500302073FC004C0059020
:2006B500150E74012510F0E43511A3F090000CC007C006C0041217C5A882AD83D004E82496
:2006D5000BF582ED3400F583E510F0E511A3F090150EE510F0E511A3F090000CC005C0003A
:2006F5001217C5AB82AC83D000D005EB240BFBEC3400FC7A00E8240BF8ED3400FD9014FD7D
:20071500E8F0EDA3F0E4A3F0901500740CF0E4A3F08B828C838AF0C005C004121591D004BE
:20073500D005D006D007D005D0040510E4B51002051102066CE51224FFFAE51334FFFB9065
:200755000009EAF0EBA3F0900003E0FAA3E0FBEAC39CFCEB9DFD900003ECF0EDA3F0AB14C0
:20077500AC15AD168B828C838DF0C007C00612143AD006D007C006C00774FAC0E07426C0B8
:20079500E07480C0E0121833E58124FBF581900000227582551213FA741EC0E07427C0E0EE
:2007B5007480C0E0121833158115811581745DC0E07427C0E07480C0E012183315811581A8
:2007D50015817480C0E07427C0E07480C0E0121833158115811581749DC0E07427C0E0748C
:2007F50080C0E012183315811581158174BDC0E07427C0E07480C0E0121833158115811567
:200815008174D0C0E07427C0E07480C0E012183315811581158174EDC0E07427C0E0748040
:20083500C0E01218331581158115817409C0E07428C0E07480C0E0121833158115811581D8
:200855007437C0E07428C0E07480C0E01218331581158115817451C0E07428C0E07480C0F4
:20087500E0121833158115811581227582051213FA746CC0E07428C0E07480C0E01218337A
:2008950015811581158174ACC0E07428C0E07480C0E012183315811581158174E3C0E07467
:2008B50028C0E07480C0E01218331581158115817415C0E07429C0E07480C0E0121833153C
:2008D5008115811581742FC0E07429C0E07480C0E0121833158115811581744FC0E0742923
:2008F500C0E07480C0E0121833158115811581746DC0E07429C0E07480C0E012183315814B
:20091500158115817451C0E07428C0E07480C0E0121833158115811581227582061213FA04
:20093500900003E0FEA3E0FF900001E0FCA3E0FDEEB50407EFB50503020A907493C0E074B1
:2009550029C0E07480C0E012183315811581158190000312124AAE82AF83C3EE941EEF64ED
:2009750080948040D6742C9E74818FF063F08095F040C88E828F83C007C00612165CAC8245
:20099500AD83D006D0077B00900139ECF0EDA3F0EBA3F0EC4D701874B6C0E07429C0E0740A
:2009B50080C0E0121833158115811581020A8CC007C00674D4C0E07429C0E07480C0E012F3
:2009D5001833158115811581D006D007900003E0FCA3E0FDEE2CFCEF3DFD900003ECF0EDBE
:2009F500A3F090013FEEF0EFA3F0900009E0FCA3E0FD900137ECF0EDA3F0900139E0FBA3BE
:200A1500E0FCA3E0FDEE2BFEEF3CFF8D0290013CEEF0EFA3F0EAA3F0900141E4F0A3F09022
:200A35000009E0FEA3E0FF90150EEEF0EFA3F090000C1217C5AE82AF83EE240BFEEF3400FB
:200A5500FF7D009014FD7437F07401A3F0E4A3F0901500740CF0E4A3F08E828F838DF0120D
:200A75001591900009E0FEA3E0FF0EBE00010F900009EEF0EFA3F09000002274FAC0E074B9
:200A950029C0E07480C0E0121833158115811581900000227582071213FA7428C0E0742A1C
:200AB500C0E07480C0E012183315811581158190000412124AAE82AF83C3EE9430EF648022
:200AD500948040D674C09E74928FF063F08095F040C88E828F83C007C00612165CAC82AD12
:200AF50083D006D0077B00900145ECF0EDA3F0EBA3F08E828F83C007C00612165CAC82AD78
:200B150083D006D0077B00900151ECF0EDA3F0EBA3F0900145E0FBA3E0FCA3E0EB4C600F00
:200B3500900151E0FBA3E0FCA3E0FDEB4C70607455C0E0742AC0E07480C0E01218331581AF
:200B550015811581900145E0FBA3E0FCA3E0EB4C6014900145E0FBA3E0FCA3E0FD8B828CAD
:200B7500838DF012143A900151E0FBA3E0FCA3E0FDEB4C7003020AAF900151E0FBA3E0FCA3
:200B9500A3E0FD8B828C838DF012143A020AAFC007C006748AC0E0742AC0E07480C0E012FD
:200BB5001833158115811581D006D007EE2EFCEF33FD900003ECF0EDA3F09000017484F0C7
:200BD5007413A3F09000097402F0E4A3F090014BEEF0EFA3F0900157EEF0EFA3F090014318
:200BF500E4F0A3F090014F04F0E4A3F0900151E0FBA3E0FCA3E0FDEE2BFBEF3CFC90015452
:200C1500EBF0ECA3F0EDA3F0900145E0FBA3E0FCA3E0FDEE2BFEEF3CFF8D02900148EEF0AE
:200C3500EFA3F0EAA3F090014DE4F0A3F0900159F0A3F09014FD7443F07401A3F0E4A3F027
:200C5500901500740CF0E4A3F090000B75F0001215919014FD744FF07401A3F0E4A3F090D8
:200C75001500740CF0E4A3F090001775F0000215917582081213FA1208801213BEAE82AF35
:200C950083C374609E74808FF063F08095F04003020D34C3EE947BEF648094804003020D3D
:200CB50034900015E0FCA3E0FD900013E0FAA3E0FBC3EC9AED64808BF063F08095F0503280
:200CD50090000DE0F9A3E0FAA3E0FBEC29F9ED3AFA8E0589828A838BF0ED1216059000157A
:200CF500E0FCA3E0FD0CBC00010D900015ECF0EDA3F0900005E0FCA3E0FD0CBC00010D9055
:200D15000005ECF0EDA3F0900007E0FCA3E0FD0CBC00010D900007ECF0EDA3F0020C8FBE46
:200D35003F1FBF001C1210191210DA120DB6900005E4F0A3F0900007F0A3F0120880020C9B
:200D55008FBE3D0CBF0009120ECC120880020C8FBE400CBF0009120531120880020C8FBEEE
:200D75002B0CBF000912092F120880020C8FBE2D0CBF00091205CB120880020C8FBE4D09F2
:200D9500BF0006120403020C8F900005E0FEA3E0FF0EBE00010F900005EEF0EFA3F0020CEF
:200DB5008F7582091213FA90015B7440F0E4A3F0900015E0FEA3E0FFC3E49E74808FF06349
:200DD500F08095F04003020EB674B9C0E0742AC0E07480C0E01218331581158115817E00C4
:200DF5007F00900015E0FCA3E0FDC3EE9CEF64808DF063F08095F04003020E9990015BE0B1
:200E1500FCA3E0FDBC4020BD001DC007C00674E7C0E0742AC0E07480C0E0121833158115E9
:200E3500811581D006D00790000DE0FBA3E0FCA3E0FDEE2BFBEF3CFC8B828C838DF012225A
:200E550052FB7D008B828D83C007C00612139FD006D00790015BE024FFFCA3E034FFFD906A
:200E7500015BECF0EDA3F090015BE0F5F0A3E045F0700990015B7440F0E4A3F00EBE0001EF
:200E95000F020DF7900015E4F0A3F074EAC0E0742AC0E07480C0E01218331581158115812D
:200EB5002274EEC0E0742AC0E07480C0E01218331581158115812275820A1213FA90001521
:200ED500E0FEA3E0FFC3E49E74808FF063F08095F040030210037405C0E0742BC0E07480E9
:200EF500C0E01218331581158115817448C0E0742BC0E07480C0E0121833158115811581D0
:200F150090015D7410F0E4A3F07E007F00900015E0FCA3E0FDC3EE9CEF64808DF063F08075
:200F350095F04003020FED90015DE0FCA3E0FDBC1037BD003490000DE0FBA3E0FCA3E0FD21
:200F5500EE2BFBEF3CFCC007C006C003C004C0057487C0E0742BC0E07480C0E0121833E5B8
:200F75008124FAF581D006D00790000DE0FBA3E0FCA3E0FDEE2BFBEF3CFC8B828C838DF04F
:200F9500122252FB7D00C007C006C003C005748EC0E0742BC0E07480C0E0121833E58124CD
:200FB500FBF581D006D00790015DE024FFFCA3E034FFFD90015DECF0EDA3F090015DE0F551
:200FD500F0A3E045F0700990015D7410F0E4A3F00EBE00010F020F2274EAC0E0742AC0E0B7
:200FF5007480C0E0121833158115811581227492C0E0742BC0E07480C0E012183315811586
:201015008115812275820B1213FA74A9C0E0742BC0E07480C0E01218331581158115819022
:201035000001E0FEA3E0FFC006C00774D5C0E0742BC0E07480C0E0121833E58124FBF58199
:20105500900003E0FEA3E0FFC006C00774ECC0E0742BC0E07480C0E0121833E58124FBF551
:2010750081900005E0FEA3E0FFC006C0077407C0E0742CC0E07480C0E0121833E58124FB87
:20109500F581900007E0FEA3E0FFC006C0077418C0E0742CC0E07480C0E0121833E581245A
:2010B500FBF581900009E0FEA3E0FFC006C007742DC0E0742CC0E07480C0E0121833E5814C
:2010D50024FBF5812275820C1213FA7E007F00900009E0FCA3E0FDC3EE9CEF64808DF06330
:2010F500F08095F04003021234C007C006C006C0077442C0E0742CC0E07480C0E0121833BA
:20111500E58124FBF581D006D00790150EEEF0EFA3F090000CC007C0061217C5AC82AD838A
:20113500EC240BF582ED3400F583E0FAA3E0FBC005C004C002C003746DC0E0742CC0E074D4
:2011550080C0E0121833E58124FBF581D004D005EC240BFCED3400FD8C828D83A3A3E0F9E7
:20117500A3E0FAA3E0FBC005C004C001C002C003747CC0E0742CC0E07480C0E0121833E5EA
:201195008124FAF581D004D0058C828D83A3A3A3A3A3E0F9A3E0FAA3E0FBC005C004C00111
:2011B500C002C003748FC0E0742CC0E07480C0E0121833E58124FAF581D004D00574082C76
:2011D500F582E43DF583E0FAA3E0FBC005C004C002C00374A0C0E0742CC0E07480C0E012EA
:2011F5001833E58124FBF581D004D005740A2CF582E43DF583E0FCA3E0FDC004C00574B226
:20121500C0E0742CC0E07480C0E0121833E58124FBF581D006D0070EBE00010F0210E474FA
:20123500C3C0E0742CC0E07480C0E012183315811581158122AF83E58290015FF0EFA3F026
:2012550075820D1213FA900161E4F0A3F090015FE0FEA3E0FFC3E49E74808FF063F080958D
:20127500F04003021316C007C0061213BEAC82AD83D006D007C374399C74808DF063F08030
:2012950095F0405CEC9430ED648094804052EC24D0FCED34FFFDEE24FFFAEF34FFFB8A82C4
:2012B5008B83C007C006C005C004121322AA82AB83D004D00590150EEAF0EBA3F08C828D05
:2012D500831217C5AC82AD83D006D007900161E0FAA3E0FB900161EC2AF0ED3BA3F08019E7
:2012F50074EDC0E0742CC0E07480C0E012183315811581158190FFFF221EBEFF011F021226
:201315006A900161E0FEA3E08E82F58322AF83E582900163F0EFA3F09001657401F0E4A370
:20133500F0900163E0FEA3E0FF7C007D00C3EC9EED64808FF063F08095F0503A900165E006
:20135500FAA3E0FB90150EEAF0EBA3F090000AC007C006C005C0041217C5E5828583F0D028
:2013750004D005D006D007900165F0E5F0A3F00CBC00BA0D80B7EE4F7004900001229001C9
:2013950065E0FEA3E08E82F58322AF83E582900167F0EFA3F0E59830E1FBC299900167E009
:2013B500FEA3E08E999000002210980280FB743FB599028027743DB5990280207440B5994C
:2013D500028019742BB599028012742DB59902800BAE997F008E828F8312139FAE997F00EE
:2013F5008E828F8322E582900169F0E0908000F022438F01758E0C759842758780758DFF93
:12141500758BFF758920D29CD28ED2AFD2AE9000002227
:20226E000A0D2048454C4C4F21205374617274656420696E205832204D6F6465200A0D0010
:20228E0048656C6C6F2C20496E205043412044656D6F206D6F6465200A0D00506C656173AF
:2022AE0065206D616B6520612076616C69642063686F696365200A0D00506C656173652000
:2022CE0027452720746F2065786974206F72205265736574200A0D004361707475726564ED
:2022EE002056616C7565204343504C202D3E2025642043435048202D3E202564200A0D0094
:20230E0054696D657220496E746572727570740A0D00476F696E6720746F206D61696E20CE
:20232E006D656E752E2E200A0D0053657474696E672050312E332061732066616C6C696EDD
:20234E00672065646765206465746563746F722C20656E61626C696E672050434120696E62
:20236E0074657272757074200A0D00456E746572696E6720536F6674776172652054696D11
:20238E006572204D6F6465200A0D00456E746572696E67204869676820537065656420541B
:2023AE006F67676C65204D6F64652C2050312E35200A0D00456E746572696E672050574DA5
:2023CE00204D6F64652C2032352070657263656E742044757479204379636C652050312EE1
:2023EE00360A0D00456E61626C696E67205761746368646F672054696D65722E2E0A0D007D
:20240E0043757272656E746C79205761746368646F67206973206265696E67207365727694
:20242E00696365640A0D50726573732027532720746F2073746F7020616E642067656E6519
:20244E00726174652061207265736574200A0D00456E746572696E672049646C652C20574A
:20246E00696C6C2045786974206F6E2065787465726E616C20696E74657272757074203076
:20248E000A0D00576F6B652075702066726F6D2049646C652F506F77657220646F776E2CCA
:2024AE0020676F696E6720746F206D61696E206D656E75200A0D00456E746572696E6720AA
:2024CE00706F77657220646F776E2C2057696C6C2045786974206F6E2065787465726E6137
:2024EE006C20696E7465727275707420300A0D004368616E67696E6720436C6F636B207033
:20250E0072657363616C617220746F20676F20746F206C6F77657374206672657175656E90
:20252E00637920696E205832204D6F64652E2E0A0D00546869732055415254205365737346
:20254E00696F6E2077696C6C2073746F7020776F726B696E672E2E2E0A0D000A0A0D5E5ECA
:20256E005E5E5E5E5E5E5E5E5E5E5E5E5E5E5E5E5E2D4D454E552D5E5E5E5E5E5E5E5E5E32
:20258E005E5E5E5E5E5E5E5E5E5E5E5E5E5E5E5E5E200A0A0D00274827202D3E20456E7446
:2025AE00657220486561702044656D6F204D6F6465200A0D00275027202D3E20456E746542
:2025CE0072205043412044656D6F204D6F6465200A0D00274127202D3E20417373656D6271
:2025EE006C792043204D6978200A0D000A0D204769766520706172616D20312C203862696D
:20260E0074200A0D000A0D204769766520706172616D20322C2038626974200A0D000A0DAB
:20262E00204769766520706172616D20332C2038626974200A0D000A0D20524553554C544D
:20264E002D3E20706172616D333C4D6F643E706172616D32202A20706172616D31203D2097
:20266E002564200A0D000A0D20476F696E67206261636B20746F206D61696E206D656E7513
:20268E002E2E200A0D00427566666572202564204672656564202E2E2E2E0A0D004C65747C
:2026AE00277320626567696E20616761696E2E2E0A0D000A0D476976652056616C696420E8
:2026CE00427566666572204E756D62657220746F2064656C65746528312D25642920696E44
:2026EE002033206469676974730A0D00427566666572202564205375636365737366756C7B
:20270E006C792044656C657465642E2E200A0D000A0A0D5E5E5E5E5E5E5E5E5E5E5E5E5E75
:20272E005E5E5E5E5E5E2D5043412D4D454E552D5E5E5E5E5E5E5E5E5E5E5E5E5E5E5E5EE7
:20274E005E5E5E5E5E5E5E5E5E5E200A0A0D00274627202D3E2046616C6C696E67204564B9
:20276E0067652043617074757265204D6F64650A0D00275327202D3E20536F66747761729D
:20278E00652054696D6572204D6F64650A0D00274827202D3E204869676820537065656417
:2027AE00204F7574707574204D6F64650A0D00275027202D3E2050574D204D6F6465200A92
:2027CE000D00275727202D3E205761746368646F672054696D6572204D6F64650A0D002759
:2027EE004927202D3E2049646C65204D6F646520776974682050574D0A0D00274C27202D9F
:20280E003E204368616E6765205072657363616C617220746F206C6F77657374206672652B
:20282E007175656E63790A0D00274427202D3E20506F77657220446F776E204D6F64650A2D
:20284E000A0D00274D27202D3E20476F20746F204D61696E204D656E75200A0A0D000A0AA5
:20286E000D5E5E5E5E5E5E5E5E5E5E5E5E5E5E5E5E5E5E5E2D484541502D4D454E552D5E0B
:20288E005E5E5E5E5E5E5E5E5E5E5E5E5E5E5E5E5E5E5E5E5E5E5E5E5E200A0A0D00596FF3
:2028AE00752063616E20656E7465722063686172616374657273206F722075736520636F65
:2028CE006D6D616E64732066726F6D2062656C6F77200A0D00273F27202D3E2053686F774D
:2028EE002068656170207374617475732C2064756D70202620636C656172204275666665D1
:20290E00722030200A0D00272B27202D3E204164642061206E6577204275666665720A0D07
:20292E0000272D27202D3E2044656C657465206578697374696E67204275666665720A0DF4
:20294E0000273D27202D3E2044756D7020427566666572203020696E206865780A0D002739
:20296E004027202D3E204672656520616C6C2048656170202620626567696E2061676169A1
:20298E006E0A0A0D000A0D476976652056616C6964204275666665722053697A6528303328
:2029AE00302D333030293A004661696C65642C206769766520736D616C6C6572206275660D
:2029CE006665720A0D000A0A0D23232323535543434553532C20425546464552204372658F
:2029EE0061746564232323230A0A0D004E6F2048656170204D656D6F7279204C6566742CB3
:202A0E002044656C65746520736F6D6520627566666572732E2E2E0A0D000A0D4769766511
:202A2E002056616C696420496E697469616C204275666665722053697A6528303034382D38
:202A4E0034383030293A000A0D232323234641494C2C20506C656173652067697665206188
:202A6E0020736D616C6C6572206275666665722073697A65232323230A0A0D000A0A0D23D2
:202A8E00232323535543434553532C20494E495449414C2042554646455253204372656188
:202AAE00746564232323230A0A0D000A0A0D2A2A2A2A2A2A2A2A2A2A2A4275666665722DA8
:202ACE00302D436F6E74656E74732A2A2A2A2A2A2A2A2A2A2A200A0D000A0D000A0A0D0000
:202AEE004275666665723020697320456D7074792E2E2E2E0A0D000A0D2D2D2D2D2D2D2DF2
:202B0E002D2D2D2D2D2D2D2D2D2D2D2D2D2D2D2D2D2D48455844554D502D2D2D2D2D2D2D27
:202B2E002D2D2D2D2D2D2D2D2D2D2D2D2D2D2D2D2D2D2D2D2D2D2D2D2D000A0D202020208B
:202B4E00414444523A202B30202B31202B32202B33202B34202B35202B36202B37202B389B
:202B6E00202B39202B41202B42202B43202B44202B45202B46200A0D000A0D25703A20002F
:202B8E0025782000427566666572203020697320656D7074792E2E2E0A0D000A0D2A2A2A3F
:202BAE002A2A2A2A2A2A2A2A2A2A2A2A2A484541502A53544154532A2A2A2A2A2A2A2A2A94
:202BCE002A2A2A2A0A0D00546F74616C20486561702053697A653A202564200A0D00416C04
:202BEE006C6F636174656420486561702053697A653A202564200A0D00416C6C2043686133
:202C0E0072733A202564200A0D0053746F726167652043686172733A202564200A0D005453
:202C2E006F74616C20427566666572733A202564200A0D002A2A2A2A2A2A2A2A2A2A2A2AD7
:202C4E002A2A2A2A4255464645522A25642A2A2A2A2A2A2A2A2A2A2A2A2A2A2A0A0D004282
:202C6E007566666572233A202564200A0D0042756666657253746172743A202570200A0D63
:202C8E0000427566666572456E643A202570200A0D0042756666657253697A653A202564B7
:202CAE00200A0D00546F74616C557365643A202564200A0D002A2A2A2A2A2A2A2A2A2A2A52
:202CCE002A2A2A2A2A2A2A2A2A2A2A2A2A2A2A2A2A2A2A2A2A2A2A2A2A2A2A2A0A0D0045F2
:132CEE0052522C4E756D62657273204F4E4C59210A0D008D
:022D0E000200C1
:13142700AF8290001AE0FE90001BE08EF084EFA4F5822240
:022D01008A1333
:20143A00AFF0AE83E5829014F4F0EEA3F0EFA3F09014F4E0FDA3E0FEA3E09014F4E0F5F0FA
:20145A00A3E045F07001229014F9E4F0A3F0901506E0FBA3E0FC9014F7EBF0ECA3F0901485
:20147A00FB7406F07415A3F09014F7E0FBA3E0FC4B60418B018C02C003C0048D008E04C36D
:20149A00E998EA9CD004D003502A9014F9EBF0ECA3F074022BFBE43CFC9014FBEBF0ECA352
:2014BA00F08B828C83E0FBA3E0FC9014F7EBF0ECA3F080B49014F7E0FEA3E0FF9014F4E010
:2014DA00FBA3E0FCA3E0EB24FEFBEC34FFFC74022BFAE43CFD8A828D83EEF0EFA3F09014FA
:2014FA00FBE0F8A3E0F988828983EBF0ECA3F08B828C83E0F8A3E0F9EEB50033EFB5012FF9
:20151A0088828983A3A3E0FEA3E0FF8A828D83EEF0EFA3F08B828C83E0FEA3E0FF8E828F5E
:20153A0083E0FEA3E0FF8B828C83EEF0EFA3F09014F9E0FEA3E0FF4E603C8E828F83E0F851
:20155A00A3E0F9E8B5032FE9B5042B8B828C83E0FBA3E0FC8E828F83EBF0ECA3F074022EC3
:17157A00FEE43FFF8A828D83E0FAA3E0FD8E828F83EAF0EDA3F02226
:06006800E478FFF6D8FD6C
:20159100AFF0AE83E582901502F0EEA3F0EFA3F0901502E0F51AA3E0F51BA3E0F51CAA1AE8
:2015B100AB1BAC1C9014FDE0F8A3E0F9A3E0FF901500E0F51DA3E0F51EAD1DAE1E151D74AC
:2015D100FFB51D02151EED4E6020888289838FF0122252FEA3A882A9838A828B838CF0EEA3
:1415F100121605A3AA82AB8380CF851A82851B83851CF02276
:200046007902E94400601B7A01902D0E784775A015E493F2A308B8000205A0D9F4DAF275C7
:02006600A0FFF9
:1B16050020F71130F6138883A88220F509F6A8837583002280FEF280F5F022E4
:20162000901506746AF07401A3F0902D01E493FE740193FF1EBEFF011FEE246AFEEF340156
:20164000FF90016AEEF0EFA3F0901506E0FEA3E0FF8E828F83A3A3E4F0A3F022AF83E5829B
:20166000901508F0EFA3F0901506E0F5F0A3E045F07003121620901508E0FEA3E0FF4E60AD
:201680000E74022EFCE43FFDC3EC9EED9F50049000002290150874022EF0E43FA3F0901501
:2016A00008E0FEA3E0FFC3EE9404EF940050099015087404F0E4A3F0901506E0FEA3E0FF06
:2016C00090150AEEF0EFA3F090150C7406F07415A3F090150AE0FEA3E0FF4E70030217C11A
:2016E0008E828F83E0FCA3E0FD8C028D038E008F01EAC398FAEB99FB8A008B01901508E0CF
:20170000F517A3E0F518C3E89517E99518500302179E74042517F8E43518F9C3EA98EB9997
:20172000404C8E028F03E5172AFAE5183BFB8A828B83ECF0EDA3F074022AFCE43BFD8E826A
:201740008F83A3A3E0F8A3E0F98C828D83E8F0E9A3F090150CE0FCA3E0FD8C828D83EAF066
:20176000EBA3F08E828F83EAF0EBA3F0801C90150CE0FCA3E0FD8E828F83A3A3E0FAA3E003
:20178000FB8C828D83EAF0EBA3F090150AE0FCA3E0FD74022CFCE43DFD8C828D832274025B
:2017A0002EFEE43FFF90150CEEF0EFA3F08E828F83E0FEA3E0FF90150AEEF0EFA3F0021621
:0517C000D290000022A0
:2017C500AA83AB828BF090150EE0A4F8A9F08AF0E0A429F98BF0A3E0A429F58388822222B6
:20006E007800E84400600A790175A000E4F309D8FC7846E84415600C7916900001E4F0A31F
:04008E00D8FCD9FAC7
:2017E500C0198581197E008E8312139FD01922AFF0AE83E582901511F0EEA3F0EFA3F0901E
:201805001511E0FDA3E0FEA3E0FF901510E0FC901525E4F0A3F0A3F0901528EDF0EEA3F03D
:20182500EFA3F090152BECF09017E5021939C019E581F51924FBFF901525E4F0A3F0A3F066
:20184500E51924FBF8901528E6F008E6A3F008E6A3F090152BEFF09017E5121939D019221F
:20186500E582901521F0E0FF901517E0C0E0A3E0C0E0A3E0C0E0121880800D901515E0C054
:20188500E0A3E0C0E08F822215811581158190151FE02401F0A3E03400F022E5829015229B
:2018A500F0E02430FF24C6500D74072FFF901514E060034307208F82021865E582901523EB
:2018C500F0E0FFC4540FF582C0071218A0D00753070F8F820218A0E582901524F090151A1B
:2018E500E0FCA3E0FDA3E0FEA3E0FF90151EE0FB901524E0FA79208B00E828F51AEF23549A
:2019050001451AFBEC2CFCED33FDEE33FEEF33FFC3EB9A4007EBC39AFB43040119E970D793
:2019250090151AECF0EDA3F0EEA3F0EFA3F090151EEBF022AF83E58290152CF0EFA3F09058
:20194500152CE0FEA3E0FF901515EEF0EFA3F0901525E0FDA3E0FEA3E0FF901517EDF0EE96
:20196500A3F0EFA3F090151FE4F0A3F0901528E0FDA3E0FEA3E0FF8D828E838FF012225250
:20198500FC90152874012DF0E43EA3F0EFA3F0EC700302222EBC2502800302222690152E7C
:2019A500E4F090152FF0901530F0901531F0901532F0901533F0901534F0901535F0901538
:2019C50037F0901538F0A3F090153A14F0A3F0901528E0FDA3E0FEA3E0FF8D828E838FF0B9
:2019E500122252FBA3AD82AE83901528EDF0EEA3F0EFA3F090153EEBF0BB25088B821218D4
:201A050065021971BB30005003021AD2EB24C65003021AD290153AE0F521A3E0F52274FFAC
:201A2500B52163B52260C005C006C007901538E0FAA3E0FF90150EEAF0EFA3F090000AC03D
:201A450005C0031217C5AE82AF83D003D0058B027D00EA2EFEED3FFFEE24D0FEEF34FFFF75
:201A6500901538EEF0EFA3F0D007D006D005901538E0F5F0A3E045F060030219DF90152F17
:201A85007401F00219DFC005C006C00790150EE521F0E522A3F090000AC006C005C0031253
:201AA50017C5AA82AF83D003D005D0067E00EB2AFAEE3FFFEA24D0FAEF34FFFF90153AEAEE
:201AC500F0EFA3F0D007D006D0050219DF90153EE0FBBB2E2FC005C006C00790153AE0FA32
:201AE500A3E0FFBAFF05BFFF028009D007D006D0050219DFD007D006D00590153AE4F0A304
:201B0500F00219DFBB61004014EB2485400F90153E74DF5BF09015147401F08005901514A6
:201B2500E4F090153EE0FBBB20028075BB2B028067BB2D028059BB4202806FBB4302807CC0
:201B4500BB4403021DC9BB4603021DEFBB48030219DFBB4903021DC9BB4A030219DFBB4C8C
:201B6500028050BB4F03021DD7BB5003021D37BB53028077BB54030219DFBB5503021DDF03
:201B8500BB5803021DE7BB5A030219DF021DF790152E7401F00219DF9015307401F0021975
:201BA500DF9015317401F00219DF9015337401F00219DF9015347401F00219DF901533E0E5
:201BC500600E90152BE014F9F090153EE7F0800F90152BE024FEFFF08F0190153EE7F09001
:201BE500153EE0F582121865021E0690152BE024FDFFF08F018705098706098707191990B6
:201C0500151AEDF0EEA3F0EFA3F08D828E838FF012223A85822185832290153AE0FAA3E015
:201C2500FDBAFF0DBDFF0A90153AE521F0E522A3F090152EE0704B901538E0FAA3E0FDC33F
:201C4500E5219AE5229D503A901538EAC39521F0ED9522A3F0901538E0FAA3E0FD8A068DF6
:201C6500071ABAFF011DEE4F6010758220C005C002121865D002D00580E3901538EAF0EDDF
:201C8500A3F090153AE0F524A3E0F52590151AE0FAA3E0FDA3E0FF8A828D838FF01222527B
:201CA500F523603CC3E4952474808525F063F08095F0502C152474FFB524021525852382BE
:201CC50012186590151AE0FAA3E0FDA3E0FF0ABA00010D90151AEAF0EDA3F0EFA3F080AC3C
:201CE50090152EE07003021E06901538E0FEA3E0FFC3E5219EE5229F4003021E0690153803
:201D0500EEC39521F0EF9522A3F0901538E0FEA3E0FF8E028F051EBEFF011FEA4D70030226
:201D25001DFE758220C007C006121865D006D00780E090152BE024FDFDF08D0187260987BA
:201D450027098728191990151AE526F0E527A3F0E528A3F090151CE0FDBD800040089015AC
:201D65003E7443F08020BD6000400890153E7450F08013BD4000400890153E7449F08006EF
:201D850090153E7458F090153EE0FDF582C00512186575823A1218657582301218657582A7
:201DA50078121865D005BD4902800EBD5002800990151BE0F5821218C090151AE0F58212EB
:201DC50018C0803D9015327401F0901537740AF0802F9015377408F08027901537740AF0FB
:201DE500801F9015377410F080179015357401F0800F8B821218658008901538EEF0EFA319
:201E0500F0901535E0607190152BE024FCFFF08F01870309870509870609870719191990CC
:201E2500151AEBF0EDA3F0EEA3F0EFA3F090151A7403F0742DA3F07480A3F090151AE0F59B
:201E450026A3E0F527A3E0F52874012526FAE43527FBAF2890151AEAF0EBA3F0EFA3F0852E
:201E650026828527838528F0122252FF70030219718F8212186580C3901537E07003021938
:201E850071901533E0604790152BE014F9F087077E007D007B0090151AEFF0EEA3F0EDA30D
:201EA500F0EBA3F0901532E06003021F4990151AE0FBA3E0A3E0A3E07D007E007F009015E9
:201EC5001AEBF0EDA3F0EEA3F0EFA3F08076901534E0602890152BE024FCFFF08F01870375
:201EE50009870509870609870719191990151AEBF0EDA3F0EEA3F0EFA3F0804890152BE03B
:201F050024FEFFF08F01870609870719EF3395E0FDFB90151AEEF0EFA3F0EDA3F0EBA3F032
:201F2500901532E0701E90151AE0FBA3E0FDA3E0A3E07E007F0090151AEBF0EDA3F0EEA38F
:201F4500F0EFA3F0901532E0604190151AE0FBA3E0FDA3E0FEA3E0FF30E72B90151AE0FBB9
:201F6500A3E0FDA3E0FEA3E0FFC3E49BFBE49DFDE49EFEE49FFF90151AEBF0EDA3F0EEA371
:201F8500F0EFA3F08005901532E4F09015367401F0901537E0F524752944752A15E4F521F5
:201FA500F52290151EE4F08524821218DC901536E0702690151EE0C4F526852982852A8308
:201FC500E0FFE5264207852982852A83EFF0152974FFB52902152A800C90151EE0FF8529DC
:201FE50082852A83F00521E4B521020522901536E0B40100E433F090151AE0FAA3E0FBA3FE
:20200500E0FEA3E0FFEA4B4E4F7097901545E529F0E52AA3F090153CE521F0E522A3F090F7
:202025001538E0F5F0A3E045F070099015387401F0E4A3F090152FE0FFE0704790152EE0A2
:20204500704185212985222A901538E0FAA3E0FBC007AF290F8F067F00C3EE9AEF9BD00787
:202065005019758220C007C003C002121865D002D003D0071ABAFF011B80D5901538EAF089
:20208500EBA3F0901532E0602075822DC007121865D007901538E024FFFDA3E034FFFE9014
:2020A5001538EDF0EEA3F0805690153CE0F5F0A3E045F0604A901530E0602075822BC00774
:2020C500121865D007901538E024FFFDA3E034FFFE901538EDF0EEA3F08024901531E0600F
:2020E5001E758220C007121865D007901538E024FFFDA3E034FFFE901538EDF0EEA3F0901D
:20210500152EE0704890153CE0F529A3E0F52A901538E0FAA3E0FBC0078A068B071ABAFF6D
:20212500011BC3E5299EE52A9FD0075053EF60067D307E0080047D207E008D82C007C0032F
:20214500C002121865D002D003D00780CA901538E0FEA3E0FF90153CE0F529A3E0F52AC3E2
:20216500E5299EE52A9F500F901538EEC39529F0EF952AA3F08011901538E4F0A3F08008C7
:20218500901538EAF0EBA3F0901545E0FEA3E0FF90153CE0F529A3E0F52AAA29AD2A152952
:2021A50074FFB52902152AEA4D6045901536E0B40100E433F0901536E070140EBE00010F1A
:2021C5008E828F83E0C4540FFD90151EF0800E8E828F83E0FD53050F90151EEDF090151ECA
:2021E500E0F582C007C0061218A0D006D00780AA90152EE07003021971901538E0FEA3E065
:20220500FF8E038F051EBEFF011FEB4D7003021971758220C007C006121865D006D0078003
:15222500E08C8212186502197190151FE0FEA3E08E82F58322CC
:0B2D03003C4E4F20464C4F41543E0018
:18223A00AA82AB831222526003A380F8C3E5829AF582E5839BF5832256
:0D00390075812A121406E58260030200366C
:1C22520020F71430F6148883A88220F507E6A88375830022E280F7E49322E0229B
:00000001FF
